{
	"data": {
		"bytecode": {
			"linkReferences": {},
			"object": "600f805460ff199081166001908117909255601291909155601580546001600160a01b0319167352c5dcf49f10c827e070cee4adf1d006942eaab6179055662386f26fc100006016556108ad60175560c8601855600a601955601a805463ffffffff1916620101011790555f601b819055601d5560208054909116905560c06040526005608090815264173539b7b760d91b60a052602290620000a3908262001155565b506023805461ffff60a01b191690556028805460ff19908116909155602a80549091169055348015620000d4575f80fd5b50604080518082018252601081526f26bab9bab134a1b7b63632b1ba34b7b760811b602080830191909152825180840190935260048352631350d39160e21b908301525f80546001600160a01b0319166daaeb6d7670e522a718067333cd4e908117909155909190733cc6cdda760b79bafa08df41ecfa224f810dceb6600182828282803b1562000267578115620001cb57604051633e9f1edf60e11b81523060048201526001600160a01b038481166024830152821690637d3e3dbe906044015b5f604051808303815f87803b158015620001ae575f80fd5b505af1158015620001c1573d5f803e3d5ffd5b5050505062000267565b6001600160a01b03831615620002105760405163a0af290360e01b81523060048201526001600160a01b03848116602483015282169063a0af29039060440162000196565b604051632210724360e11b81523060048201526001600160a01b03821690634420e486906024015f604051808303815f87803b1580156200024f575f80fd5b505af115801562000262573d5f803e3d5ffd5b505050505b5050506001600160a01b0384169050620002945760405163c49d17ad60e01b815260040160405180910390fd5b505050620002b1620002ab6200042160201b60201c565b62000425565b6005620002bf838262001155565b506006620002ce828262001155565b505f60085550506001601455620002e65f3362000476565b620003127f9f2df0fed2c77648de5860a4cc508cd0818c85b8b8a1ab4ceeef8d981c8956a63362000486565b6200033e7f3a2f235c9daaf33349d300aadff2f15078a89df81bcfdd45ba11c8f816bddc6f3362000486565b620003585f80516020620070438339815191523362000486565b6200037c6040518060600160405280602b815260200162007018602b9139620004b3565b620003886001620004db565b600c80546001600160a01b03191673dbaa28cbe70af04ebfb166b1a3e8f8034e5b9fc7179055620003cd731e0049783f008a0085193e00003d00cd54003c71620004fb565b620003ec734fee7b061c97c9c496b01dbce9cdb10c02f0a0be620004fb565b620003f933600162000541565b6200041b73ac6534c66b393e6cb33a13795857e0d9d2b90f966103e862000562565b62001439565b3390565b600380546001600160a01b038381166001600160a01b0319831681179093556040519116919082907f8be0079c531659141344cd1fd0a4f28419497f9722a3daafe3b4186f6b6457e0905f90a35050565b62000482828262000578565b5050565b5f82815260136020526040902060010154620004a2816200061a565b620004ae838362000578565b505050565b5f8051602062007043833981519152620004cd816200061a565b6021620004ae838262001155565b5f8051602062007043833981519152620004f5816200061a565b50601255565b62000508600d8262000629565b506040516001600160a01b0382169033907fbd0af1fe0a2c1c7bb340c17a284a291138979c8eeb797e176dbd1c415199af3c905f90a350565b62000482828260405180602001604052805f8152506200064860201b60201c565b6200056c620006dc565b62000482828262000741565b5f8281526013602090815260408083206001600160a01b038516845290915290205460ff1662000482575f8281526013602090815260408083206001600160a01b03851684529091529020805460ff19166001179055620005d63390565b6001600160a01b0316816001600160a01b0316837f2f8788117e7eff1d82e926ec794901d17c78024a50270940304540a733656f0d60405160405180910390a45050565b62000626813362000842565b50565b5f6200063f836001600160a01b038416620008bf565b90505b92915050565b5f6200065360085490565b90506200066184846200090e565b620006705f8583868662000aba565b620006d65760405162461bcd60e51b815260206004820152603560248201525f805160206200706383398151915260448201527f31526563656976657220696d706c656d656e746572000000000000000000000060648201526084015b60405180910390fd5b50505050565b33620006e762000c44565b6001600160a01b0316146200073f5760405162461bcd60e51b815260206004820181905260248201527f4f776e61626c653a2063616c6c6572206973206e6f7420746865206f776e65726044820152606401620006cd565b565b6127106001600160601b0382161115620007b15760405162461bcd60e51b815260206004820152602a60248201527f455243323938313a20726f79616c7479206665652077696c6c206578636565646044820152692073616c65507269636560b01b6064820152608401620006cd565b6001600160a01b038216620008095760405162461bcd60e51b815260206004820152601960248201527f455243323938313a20696e76616c6964207265636569766572000000000000006044820152606401620006cd565b604080518082019091526001600160a01b039092168083526001600160601b039091166020909201829052600160a01b90910217600155565b5f8281526013602090815260408083206001600160a01b038516845290915290205460ff166200048257620008778162000c5d565b6200088483602062000c70565b6040516020016200089792919062001241565b60408051601f198184030181529082905262461bcd60e51b8252620006cd91600401620012e6565b5f8181526001830160205260408120546200090657508154600181810184555f84815260208082209093018490558454848252828601909352604090209190915562000642565b505f62000642565b5f6200091960085490565b90505f82116200097a5760405162461bcd60e51b815260206004820152602560248201527f4552433732315073693a207175616e74697479206d7573742062652067726561604482015264074657220360dc1b6064820152608401620006cd565b6001600160a01b038316620009de5760405162461bcd60e51b815260206004820152602360248201527f4552433732315073693a206d696e7420746f20746865207a65726f206164647260448201526265737360e81b6064820152608401620006cd565b620009ec5f84838562000e23565b8160085f828254620009ff91906200130e565b90915550505f81815260076020908152604080832080546001600160a01b0319166001600160a01b038816179055600884901c8352600490915290208054600160ff1b60ff84161c17905562000a585f84838562000ec8565b805b62000a6683836200130e565b811015620006d65760405181906001600160a01b038616905f907fddf252ad1be2c89b69c2b068fc378daa952ba7f163c4a11628f55a4df523b3ef908290a48062000ab18162001324565b91505062000a5a565b5f6001600160a01b0385163b1562000c3757506001835b62000add84866200130e565b81101562000c3057604051630a85bd0160e11b81526001600160a01b0387169063150b7a029062000b199033908b90869089906004016200133f565b6020604051808303815f875af192505050801562000b56575060408051601f3d908101601f1916820190925262000b53918101906200137d565b60015b62000bfa573d80801562000b86576040519150601f19603f3d011682016040523d82523d5f602084013e62000b8b565b606091505b5080515f0362000bf25760405162461bcd60e51b815260206004820152603560248201525f805160206200706383398151915260448201527f31526563656976657220696d706c656d656e74657200000000000000000000006064820152608401620006cd565b805181602001fd5b82801562000c1857506001600160e01b03198116630a85bd0160e11b145b9250508062000c278162001324565b91505062000ad1565b5062000c3b565b5060015b95945050505050565b5f62000c586003546001600160a01b031690565b905090565b6060620006426001600160a01b03831660145b60605f62000c80836002620013a6565b62000c8d9060026200130e565b6001600160401b0381111562000ca75762000ca7620010b6565b6040519080825280601f01601f19166020018201604052801562000cd2576020820181803683370190505b509050600360fc1b815f8151811062000cef5762000cef620013c0565b60200101906001600160f81b03191690815f1a905350600f60fb1b8160018151811062000d205762000d20620013c0565b60200101906001600160f81b03191690815f1a9053505f62000d44846002620013a6565b62000d519060016200130e565b90505b600181111562000dd2576f181899199a1a9b1b9c1cb0b131b232b360811b85600f166010811062000d895762000d89620013c0565b1a60f81b82828151811062000da25762000da2620013c0565b60200101906001600160f81b03191690815f1a90535060049490941c9362000dca81620013d4565b905062000d54565b5083156200063f5760405162461bcd60e51b815260206004820181905260248201527f537472696e67733a20686578206c656e67746820696e73756666696369656e746044820152606401620006cd565b602a5460ff16158062000e3d57506001600160a01b038416155b8062000e5057506001600160a01b038316155b8062000e6657506001600160a01b03831661dead145b62000eb45760405162461bcd60e51b815260206004820152601660248201527f7472616e736665722069732070726f68696269746564000000000000000000006044820152606401620006cd565b620006d6848484846001600160e01b038516565b68010000000000000000811062000edd575f80fd5b806001600160a01b0385161562000f4a576001600160a01b0385165f908152602b60205260408120805483929062000f209084906001600160401b0316620013ec565b92506101000a8154816001600160401b0302191690836001600160401b0316021790555062000fb0565b6001600160a01b0384165f908152602b60205260409020805482919060089062000f8b9084906801000000000000000090046001600160401b031662001416565b92506101000a8154816001600160401b0302191690836001600160401b031602179055505b6001600160a01b038416156200101c576001600160a01b0384165f908152602b60205260408120805483929062000ff29084906001600160401b031662001416565b92506101000a8154816001600160401b0302191690836001600160401b031602179055506200107d565b6001600160a01b0385165f908152602b60205260409020805482919060109062001058908490600160801b90046001600160401b031662001416565b92506101000a8154816001600160401b0302191690836001600160401b031602179055505b6200108b8585858562001092565b5050505050565b6001600160a01b03841615620006d6575f82815260106020526040812055620006d6565b634e487b7160e01b5f52604160045260245ffd5b600181811c90821680620010df57607f821691505b602082108103620010fe57634e487b7160e01b5f52602260045260245ffd5b50919050565b601f821115620004ae575f81815260208120601f850160051c810160208610156200112c5750805b601f850160051c820191505b818110156200114d5782815560010162001138565b505050505050565b81516001600160401b03811115620011715762001171620010b6565b6200118981620011828454620010ca565b8462001104565b602080601f831160018114620011bf575f8415620011a75750858301515b5f19600386901b1c1916600185901b1785556200114d565b5f85815260208120601f198616915b82811015620011ef57888601518255948401946001909101908401620011ce565b50858210156200120d57878501515f19600388901b60f8161c191681555b5050505050600190811b01905550565b5f5b83811015620012395781810151838201526020016200121f565b50505f910152565b7f416363657373436f6e74726f6c3a206163636f756e742000000000000000000081525f83516200127a8160178501602088016200121d565b7001034b99036b4b9b9b4b733903937b6329607d1b6017918401918201528351620012ad8160288401602088016200121d565b01602801949350505050565b5f8151808452620012d28160208601602086016200121d565b601f01601f19169290920160200192915050565b602081525f6200063f6020830184620012b9565b634e487b7160e01b5f52601160045260245ffd5b80820180821115620006425762000642620012fa565b5f60018201620013385762001338620012fa565b5060010190565b6001600160a01b03858116825284166020820152604081018390526080606082018190525f906200137390830184620012b9565b9695505050505050565b5f602082840312156200138e575f80fd5b81516001600160e01b0319811681146200063f575f80fd5b8082028115828204841417620006425762000642620012fa565b634e487b7160e01b5f52603260045260245ffd5b5f81620013e557620013e5620012fa565b505f190190565b6001600160401b038281168282160390808211156200140f576200140f620012fa565b5092915050565b6001600160401b038181168382160190808211156200140f576200140f620012fa565b615bd180620014475f395ff3fe608060405260043610610695575f3560e01c80636c0360eb11610369578063b5f94d06116101c8578063d6dfad76116100fd578063ecba222a1161009d578063f48824db11610078578063f48824db146113b8578063f58f9c66146113ee578063fcd1aac91461140d578063ff7682121461142c575f80fd5b8063ecba222a1461135b578063f138abfa1461137a578063f2fde38b14611399575f80fd5b8063da3ef23f116100d8578063da3ef23f146112df578063ddecc4d0146112fe578063e39e02691461131d578063e985e9c51461133c575f80fd5b8063d6dfad7614611287578063d728312a146112a7578063d96506f9146112c6575f80fd5b8063c668286211610168578063d04f32d211610143578063d04f32d2146111de578063d539139314611220578063d547741f14611253578063d5abeb0114611272575f80fd5b8063c668286214611196578063c84c0387146111aa578063c87b56dd146111bf575f80fd5b8063ba6269c6116101a3578063ba6269c614611123578063bbb8974414611143578063bedb86fb14611158578063c5ac58e114611177575f80fd5b8063b5f94d06146110c6578063b88d4fde146110e5578063b8d1e53214611104575f80fd5b8063942c92731161029e578063a35c23ad1161023e578063aabb9a8611610219578063aabb9a8614611055578063b0ccc31e14611069578063b31391cb14611087578063b51bbbdf146110b2575f80fd5b8063a35c23ad14610ff6578063a72193b614611021578063a9e2acd514611036575f80fd5b8063981eb34411610279578063981eb34414610f9257806399f9889814610fb1578063a217fddf14610fc4578063a22cb46514610fd7575f80fd5b8063942c927314610f4b57806395d89b4114610f5f5780639659867e14610f73575f80fd5b80637cb6475911610309578063877984cb116102e4578063877984cb14610eda5780638da5cb5b14610ef95780638e73cf0014610f0d57806391d1485414610f2c575f80fd5b80637cb6475914610e705780637ee3b2ac14610e8f5780638462151c14610eae575f80fd5b8063715018a611610344578063715018a614610e0957806372b44d7114610e1d57806373ef64fd14610e3c5780637c3dc17314610e51575f80fd5b80636c0360eb14610db75780636f8b44b014610dcb57806370a0823114610dea575f80fd5b80632a0acc6a116105155780634c45cda21161044a578063599487c3116103ea5780636352211e116103c55780636352211e14610d48578063674c02aa14610d675780636b1a2b7f14610d855780636b8ee0ec14610d98575f80fd5b8063599487c314610cfc5780635c975abb14610d1b5780635ef9432a14610d34575f80fd5b80634f3db346116104255780634f3db34614610c8557806355cda89814610c9a57806355f804b314610cbe5780635978c01214610cdd575f80fd5b80634c45cda214610c285780634cb110fc14610c475780634e6bf20414610c66575f80fd5b80633ab1a494116104b557806342842e0e1161049057806342842e0e14610b7257806344a0d68a14610b9157806347705cbc14610bb0578063499a15d414610bf2575f80fd5b80633ab1a49414610b325780633ccfd60b14610b515780633cf40df314610b59575f80fd5b80632f2ff15d116104f05780632f2ff15d14610a945780633511cd5414610ab357806336568abe14610af4578063396e8f5314610b13575f80fd5b80632a0acc6a14610a215780632a55205a14610a415780632eb4a7ab14610a7f575f80fd5b8063095ea7b3116105eb5780631e0fbfa21161058b57806323c030851161056657806323c0308514610982578063248a9ca3146109a1578063279a669e146109cf578063282c51f3146109ee575f80fd5b80631e0fbfa2146109055780632398f8431461093857806323b872dd14610963575f80fd5b806313faede6116105c657806313faede61461089e5780631581b600146108b357806317dc10c4146108d257806318160ddd146108f1575f80fd5b8063095ea7b31461084c5780630f4345e21461086b578063135d088d1461088a575f80fd5b8063025e332e1161065657806306fdde031161063157806306fdde03146107c957806307265389146107dd5780630730baf0146107f6578063081812fc14610815575f80fd5b8063025e332e1461076a57806304634d8d1461078b57806304787ca2146107aa575f80fd5b80623eb1e2146106995780623f332f146106c757806285bb6f146106e85780629a9b7b1461070857806301340a321461072a57806301ffc9a71461074b575b5f80fd5b3480156106a4575f80fd5b506028546106b29060ff1681565b60405190151581526020015b60405180910390f35b3480156106d2575f80fd5b506106db61144b565b6040516106be9190614d06565b3480156106f3575f80fd5b50601a546106b2906301000000900460ff1681565b348015610713575f80fd5b5061071c61145a565b6040519081526020016106be565b348015610735575f80fd5b5061073e611470565b6040516106be9190614d9f565b348015610756575f80fd5b506106b2610765366004614dc6565b6114fc565b348015610775575f80fd5b50610789610784366004614df7565b61152a565b005b348015610796575f80fd5b506107896107a5366004614e10565b611564565b3480156107b5575f80fd5b506107896107c4366004614ef5565b611576565b3480156107d4575f80fd5b5061073e61159e565b3480156107e8575f80fd5b50600f546106b29060ff1681565b348015610801575f80fd5b50610789610810366004614f46565b61162e565b348015610820575f80fd5b5061083461082f366004614f61565b611659565b6040516001600160a01b0390911681526020016106be565b348015610857575f80fd5b50610789610866366004614f78565b6116e7565b348015610876575f80fd5b50610789610885366004614f61565b611746565b348015610895575f80fd5b5061073e611763565b3480156108a9575f80fd5b5061071c60165481565b3480156108be575f80fd5b50601554610834906001600160a01b031681565b3480156108dd575f80fd5b506107896108ec366004614f46565b611770565b3480156108fc575f80fd5b5061071c6117a2565b348015610910575f80fd5b5061071c7f3a2f235c9daaf33349d300aadff2f15078a89df81bcfdd45ba11c8f816bddc6f81565b348015610943575f80fd5b5061071c610952366004614df7565b60116020525f908152604090205481565b34801561096e575f80fd5b5061078961097d366004614fa0565b6117b3565b34801561098d575f80fd5b5061078961099c366004614df7565b6117de565b3480156109ac575f80fd5b5061071c6109bb366004614f61565b5f9081526013602052604090206001015490565b3480156109da575f80fd5b506107896109e936600461509e565b611818565b3480156109f9575f80fd5b5061071c7f3c11d16cbaffd01df69ce1c404f6340ee057498f5f00246190ea54220576a84881565b348015610a2c575f80fd5b5061071c5f80516020615a7c83398151915281565b348015610a4c575f80fd5b50610a60610a5b366004615101565b611a21565b604080516001600160a01b0390931683526020830191909152016106be565b348015610a8a575f80fd5b5061071c601c5481565b348015610a9f575f80fd5b50610789610aae366004615121565b611acd565b348015610abe575f80fd5b5061071c610acd366004615121565b5f918252601e602090815260408084206001600160a01b0393909316845291905290205490565b348015610aff575f80fd5b50610789610b0e366004615121565b611af1565b348015610b1e575f80fd5b50600c54610834906001600160a01b031681565b348015610b3d575f80fd5b50610789610b4c366004614df7565b611b6b565b610789611b95565b348015610b64575f80fd5b50602a546106b29060ff1681565b348015610b7d575f80fd5b50610789610b8c366004614fa0565b611bfc565b348015610b9c575f80fd5b50610789610bab366004614f61565b611c21565b348015610bbb575f80fd5b5061071c610bca366004614df7565b601d545f908152601e602090815260408083206001600160a01b039094168352929052205490565b348015610bfd575f80fd5b5061071c610c0c366004615121565b601f60209081525f928352604080842090915290825290205481565b348015610c33575f80fd5b50610789610c42366004614f46565b611c3e565b348015610c52575f80fd5b50610789610c61366004614f46565b611c69565b348015610c71575f80fd5b50610789610c8036600461514b565b611c94565b348015610c90575f80fd5b5061071c60125481565b348015610ca5575f80fd5b506020546108349061010090046001600160a01b031681565b348015610cc9575f80fd5b50610789610cd8366004614ef5565b611d3f565b348015610ce8575f80fd5b50610789610cf7366004615204565b611d62565b348015610d07575f80fd5b50610789610d16366004614ef5565b611e86565b348015610d26575f80fd5b50601a546106b29060ff1681565b348015610d3f575f80fd5b50610789611ea9565b348015610d53575f80fd5b50610834610d62366004614f61565b611f4a565b348015610d72575f80fd5b50601a546106b290610100900460ff1681565b610789610d93366004615235565b611f5d565b348015610da3575f80fd5b50610789610db2366004614f46565b61253c565b348015610dc2575f80fd5b5061073e612572565b348015610dd6575f80fd5b50610789610de5366004614f61565b61257f565b348015610df5575f80fd5b5061071c610e04366004614df7565b61259c565b348015610e14575f80fd5b5061078961262d565b348015610e28575f80fd5b50610789610e37366004614df7565b612640565b348015610e47575f80fd5b5061071c60195481565b348015610e5c575f80fd5b50610789610e6b366004615101565b612660565b348015610e7b575f80fd5b50610789610e8a366004614f61565b6126ef565b348015610e9a575f80fd5b50610789610ea9366004614f61565b61270c565b348015610eb9575f80fd5b50610ecd610ec8366004614df7565b61277a565b6040516106be919061528a565b348015610ee5575f80fd5b50602354610834906001600160a01b031681565b348015610f04575f80fd5b5061083461283d565b348015610f18575f80fd5b50610789610f27366004614f46565b612850565b348015610f37575f80fd5b506106b2610f46366004615121565b612884565b348015610f56575f80fd5b5061073e6128ae565b348015610f6a575f80fd5b5061073e6128bb565b348015610f7e575f80fd5b50601a546106b29062010000900460ff1681565b348015610f9d575f80fd5b50610789610fac366004614ef5565b6128ca565b610789610fbf366004614f78565b6128ed565b348015610fcf575f80fd5b5061071c5f81565b348015610fe2575f80fd5b50610789610ff13660046152c1565b6129a7565b348015611001575f80fd5b50610789611010366004614f61565b335f90815260116020526040902055565b34801561102c575f80fd5b5061071c601b5481565b348015611041575f80fd5b50610789611050366004614f61565b612a17565b348015611060575f80fd5b5061073e612a34565b348015611074575f80fd5b505f54610834906001600160a01b031681565b348015611092575f80fd5b5061071c6110a1366004614f61565b60106020525f908152604090205481565b3480156110bd575f80fd5b5061073e612a41565b3480156110d1575f80fd5b506107896110e0366004614f61565b612a4e565b3480156110f0575f80fd5b506107896110ff3660046152eb565b612a6b565b34801561110f575f80fd5b5061078961111e366004614df7565b612a91565b34801561112e575f80fd5b506023546106b290600160a01b900460ff1681565b34801561114e575f80fd5b5061071c60185481565b348015611163575f80fd5b50610789611172366004614f46565b612b47565b348015611182575f80fd5b50610789611191366004614ef5565b612b72565b3480156111a1575f80fd5b5061073e612b95565b3480156111b5575f80fd5b5061071c601d5481565b3480156111ca575f80fd5b5061073e6111d9366004614f61565b612ba2565b3480156111e9575f80fd5b5061071c6111f8366004614df7565b601d545f908152601f602090815260408083206001600160a01b039094168352929052205490565b34801561122b575f80fd5b5061071c7f9f2df0fed2c77648de5860a4cc508cd0818c85b8b8a1ab4ceeef8d981c8956a681565b34801561125e575f80fd5b5061078961126d366004615121565b612cfc565b34801561127d575f80fd5b5061071c60175481565b348015611292575f80fd5b506023546106b290600160a81b900460ff1681565b3480156112b2575f80fd5b506107896112c1366004614f61565b612d20565b3480156112d1575f80fd5b506020546106b29060ff1681565b3480156112ea575f80fd5b506107896112f9366004614ef5565b612d3d565b348015611309575f80fd5b50610789611318366004614ef5565b612d60565b348015611328575f80fd5b50610789611337366004614f46565b612d83565b348015611347575f80fd5b506106b2611356366004615361565b612db9565b348015611366575f80fd5b505f546106b290600160a01b900460ff1681565b348015611385575f80fd5b50610789611394366004614f46565b612e03565b3480156113a4575f80fd5b506107896113b3366004614df7565b612e39565b3480156113c3575f80fd5b5061071c6113d2366004615121565b601e60209081525f928352604080842090915290825290205481565b3480156113f9575f80fd5b50610789611408366004614df7565b612eaf565b348015611418575f80fd5b50610789611427366004614f46565b612eef565b348015611437575f80fd5b50610789611446366004614df7565b612f1a565b6060611455612f3a565b905090565b5f600161146660085490565b611455919061539d565b6027805461147d906153b0565b80601f01602080910402602001604051908101604052809291908181526020018280546114a9906153b0565b80156114f45780601f106114cb576101008083540402835291602001916114f4565b820191905f5260205f20905b8154815290600101906020018083116114d757829003601f168201915b505050505081565b5f61150682612f46565b80611515575061151582612f7a565b80611524575061152482612f9a565b92915050565b5f80516020615a7c83398151915261154181612fbe565b600c80546001600160a01b0319166001600160a01b0384161790555050565b5050565b61156c612fc8565b6115608282613027565b5f80516020615a7c83398151915261158d81612fbe565b6024611599838261542d565b505050565b6060600580546115ad906153b0565b80601f01602080910402602001604051908101604052809291908181526020018280546115d9906153b0565b80156116245780601f106115fb57610100808354040283529160200191611624565b820191905f5260205f20905b81548152906001019060200180831161160757829003601f168201915b5050505050905090565b5f80516020615a7c83398151915261164581612fbe565b50600f805460ff1916911515919091179055565b5f61166382613124565b6116cc5760405162461bcd60e51b815260206004820152602f60248201527f4552433732315073693a20617070726f76656420717565727920666f72206e6f60448201526e3732bc34b9ba32b73a103a37b5b2b760891b60648201526084015b60405180910390fd5b505f908152600960205260409020546001600160a01b031690565b816116f181613157565b602a5460ff161561173c5760405162461bcd60e51b8152602060048201526015602482015274185c1c1c9bdd99481a5cc81c1c9bda1a589a5d1959605a1b60448201526064016116c3565b6115998383613215565b5f80516020615a7c83398151915261175d81612fbe565b50601255565b6024805461147d906153b0565b5f80516020615a7c83398151915261178781612fbe565b50601a80549115156101000261ff0019909216919091179055565b5f6117ab613229565b611466613289565b826001600160a01b03811633146117cd576117cd33613157565b6117d8848484613298565b50505050565b5f80516020615a7c8339815191526117f581612fbe565b50602380546001600160a01b0319166001600160a01b0392909216919091179055565b6118427f3a2f235c9daaf33349d300aadff2f15078a89df81bcfdd45ba11c8f816bddc6f33612884565b61188e5760405162461bcd60e51b815260206004820152601b60248201527f43616c6c6572206973206e6f742061206169722064726f70706572000000000060448201526064016116c3565b805182146118de5760405162461bcd60e51b815260206004820152601b60248201527f4172726179206c656e677468732061726520646966666572656e74000000000060448201526064016116c3565b5f805b8251811015611923578281815181106118fc576118fc6154e8565b60200260200101518261190f91906154fc565b91508061191b8161550f565b9150506118e1565b50805f106119735760405162461bcd60e51b815260206004820152601b60248201527f6e65656420746f206d696e74206174206c656173742031204e4654000000000060448201526064016116c3565b60175481600161198260085490565b61198c919061539d565b61199691906154fc565b11156119b45760405162461bcd60e51b81526004016116c390615527565b5f5b8251811015611a1a57611a088585838181106119d4576119d46154e8565b90506020020160208101906119e99190614df7565b8483815181106119fb576119fb6154e8565b60200260200101516132c9565b80611a128161550f565b9150506119b6565b5050505050565b5f8281526002602090815260408083208151808301909252546001600160a01b038116808352600160a01b9091046001600160601b0316928201929092528291611a955750604080518082019091526001546001600160a01b0381168252600160a01b90046001600160601b031660208201525b60208101515f9061271090611ab3906001600160601b031687615557565b611abd919061556e565b91519350909150505b9250929050565b5f82815260136020526040902060010154611ae781612fbe565b61159983836132e2565b6001600160a01b0381163314611b615760405162461bcd60e51b815260206004820152602f60248201527f416363657373436f6e74726f6c3a2063616e206f6e6c792072656e6f756e636560448201526e103937b632b9903337b91039b2b63360891b60648201526084016116c3565b6115608282613367565b611b73612fc8565b601580546001600160a01b0319166001600160a01b0392909216919091179055565b611b9d612fc8565b6015546040515f916001600160a01b03169047908381818185875af1925050503d805f8114611be7576040519150601f19603f3d011682016040523d82523d5f602084013e611bec565b606091505b5050905080611bf9575f80fd5b50565b826001600160a01b0381163314611c1657611c1633613157565b6117d88484846133cd565b5f80516020615a7c833981519152611c3881612fbe565b50601655565b5f80516020615a7c833981519152611c5581612fbe565b506028805460ff1916911515919091179055565b5f80516020615a7c833981519152611c8081612fbe565b506020805460ff1916911515919091179055565b5f80516020615a7c833981519152611cab81612fbe565b8151835114611cb8575f80fd5b5f5b8351811015611a1a57828181518110611cd557611cd56154e8565b6020026020010151601f5f8781526020019081526020015f205f868481518110611d0157611d016154e8565b60200260200101516001600160a01b03166001600160a01b031681526020019081526020015f20819055508080611d379061550f565b915050611cba565b5f80516020615a7c833981519152611d5681612fbe565b6021611599838261542d565b611d6a6133e7565b611d947f3c11d16cbaffd01df69ce1c404f6340ee057498f5f00246190ea54220576a84833612884565b611dd95760405162461bcd60e51b815260206004820152601660248201527521b0b63632b91034b9903737ba103090313ab93732b960511b60448201526064016116c3565b5f5b8151811015611e7b575f828281518110611df757611df76154e8565b60200260200101519050611e0a81611f4a565b6001600160a01b0316326001600160a01b031614611e5f5760405162461bcd60e51b815260206004820152601260248201527113dddb995c881a5cc8191a5999995c995b9d60721b60448201526064016116c3565b611e6881613440565b5080611e738161550f565b915050611ddb565b50611bf96001601455565b5f80516020615a7c833981519152611e9d81612fbe565b6026611599838261542d565b611eb161283d565b6001600160a01b0316336001600160a01b031614611ee257604051635fc483c560e01b815260040160405180910390fd5b5f54600160a01b900460ff1615611f0c57604051631551a48f60e11b815260040160405180910390fd5b5f80546001600160a81b031916600160a01b1781556040517f51e2d870cc2e10853e38dc06fcdae46ad3c3f588f326608803dac6204541ad169190a1565b5f80611f55836134a8565b509392505050565b323314611fac5760405162461bcd60e51b815260206004820152601f60248201527f5468652063616c6c657220697320616e6f7468657220636f6e74726163742e0060448201526064016116c3565b601a5460ff1615611ff85760405162461bcd60e51b81526020600482015260166024820152751d1a194818dbdb9d1c9858dd081a5cc81c185d5cd95960521b60448201526064016116c3565b845f106120475760405162461bcd60e51b815260206004820152601b60248201527f6e65656420746f206d696e74206174206c656173742031204e4654000000000060448201526064016116c3565b6018548511156120a55760405162461bcd60e51b8152602060048201526024808201527f6d6178206d696e7420616d6f756e74207065722073657373696f6e20657863656044820152631959195960e21b60648201526084016116c3565b6017548560016120b460085490565b6120be919061539d565b6120c891906154fc565b11156120e65760405162461bcd60e51b81526004016116c390615527565b34856016546120f59190615557565b11156121385760405162461bcd60e51b8152602060048201526012602482015271696e73756666696369656e742066756e647360701b60448201526064016116c3565b601a545f90610100900460ff1615156001036122b657601b545f03612225576040516bffffffffffffffffffffffff193360601b166020820152603481018690525f906054016040516020818303038152906040528051906020012090506121d68585808060200260200160405190810160405280939291908181526020018383602002808284375f9201919091525050601c54915084905061353d565b61221c5760405162461bcd60e51b81526020600482015260176024820152761d5cd95c881a5cc81b9bdd08185b1b1bdddb1a5cdd1959604a1b60448201526064016116c3565b859150506122bb565b601b546001036122b157601d545f908152601f6020908152604080832033845290915281205490036122935760405162461bcd60e51b81526020600482015260176024820152761d5cd95c881a5cc81b9bdd08185b1b1bdddb1a5cdd1959604a1b60448201526064016116c3565b50601d545f908152601f602090815260408083203384529091529020545b6122bb565b506019545b601a5462010000900460ff16151560010361237657601d545f908152601e602090815260408083203384529091529020546122f6908261539d565b8611156123455760405162461bcd60e51b815260206004820152601c60248201527f6d6178204e46542070657220616464726573732065786365656465640000000060448201526064016116c3565b601d545f908152601e60209081526040808320338452909152812080548892906123709084906154fc565b90915550505b601a546301000000900460ff16151560010361244357856001146123dc5760405162461bcd60e51b815260206004820152601c60248201527f546865206e756d626572206f66206d696e7473206973206f7665722e0000000060448201526064016116c3565b6123e582611f4a565b6001600160a01b0316336001600160a01b03161461243a5760405162461bcd60e51b815260206004820152601260248201527113dddb995c881a5cc8191a5999995c995b9d60721b60448201526064016116c3565b61244382613440565b60205460ff16151560010361252a576020546040516370a0823160e01b81523360048201526101009091046001600160a01b0316906370a0823190602401602060405180830381865afa15801561249c573d5f803e3d5ffd5b505050506040513d601f19601f820116820180604052508101906124c0919061558d565b5f0361252a5760205460405163133f311360e31b8152336004820152600160248201526101009091046001600160a01b0316906399f98898906044015f604051808303815f87803b158015612513575f80fd5b505af1158015612525573d5f803e3d5ffd5b505050505b61253433876132c9565b505050505050565b5f80516020615a7c83398151915261255381612fbe565b5060238054911515600160a81b0260ff60a81b19909216919091179055565b6021805461147d906153b0565b5f80516020615a7c83398151915261259681612fbe565b50601755565b5f6001600160a01b0382166126095760405162461bcd60e51b815260206004820152602d60248201527f4552433732315073693a2062616c616e636520717565727920666f722074686560448201526c207a65726f206164647265737360981b60648201526084016116c3565b506001600160a01b03165f908152602b60205260409020546001600160401b031690565b612635612fc8565b61263e5f613552565b565b5f80516020615a7c83398151915261265781612fbe565b611560826135a3565b8161266a81611f4a565b6001600160a01b0316336001600160a01b0316146126dd5760405162461bcd60e51b815260206004820152602a60248201527f5265737472696374417070726f76653a206f7065726174696f6e206973206f6e604482015269363c903437b63232b91760b11b60648201526084016116c3565b505f9182526010602052604090912055565b5f80516020615a7c83398151915261270681612fbe565b50601c55565b5f80516020615a7c83398151915261272381612fbe565b8115806127305750816001145b6127745760405162461bcd60e51b815260206004820152601560248201527420b63637bb903634b9ba103a3cb8329032b93937b960591b60448201526064016116c3565b50601b55565b60605f806127878461259c565b90505f816001600160401b038111156127a2576127a2614e50565b6040519080825280602002602001820160405280156127cb578160200160208202803683370190505b5090505f5b828414612834576127e081613124565b1561282c57856001600160a01b03166127f882611f4a565b6001600160a01b03160361282c578082858060010196508151811061281f5761281f6154e8565b6020026020010181815250505b6001016127d0565b50949350505050565b5f6114556003546001600160a01b031690565b5f80516020615a7c83398151915261286781612fbe565b50601a8054911515620100000262ff000019909216919091179055565b5f9182526013602090815260408084206001600160a01b0393909316845291905290205460ff1690565b6026805461147d906153b0565b6060600680546115ad906153b0565b5f80516020615a7c8339815191526128e181612fbe565b6025611599838261542d565b6129177f9f2df0fed2c77648de5860a4cc508cd0818c85b8b8a1ab4ceeef8d981c8956a633612884565b61295c5760405162461bcd60e51b815260206004820152601660248201527521b0b63632b91034b9903737ba10309036b4b73a32b960511b60448201526064016116c3565b60175481600161296b60085490565b612975919061539d565b61297f91906154fc565b111561299d5760405162461bcd60e51b81526004016116c390615527565b61156082826132c9565b816129b181613157565b602a5460ff1615806129c1575081155b612a0d5760405162461bcd60e51b815260206004820152601f60248201527f736574417070726f76616c466f72416c6c2069732070726f686962697465640060448201526064016116c3565b61159983836135e7565b5f80516020615a7c833981519152612a2e81612fbe565b50601855565b6025805461147d906153b0565b6029805461147d906153b0565b5f80516020615a7c833981519152612a6581612fbe565b50601955565b836001600160a01b0381163314612a8557612a8533613157565b611a1a85858585613665565b612a9961283d565b6001600160a01b0316336001600160a01b031614612aca57604051635fc483c560e01b815260040160405180910390fd5b5f54600160a01b900460ff1615612af457604051631551a48f60e11b815260040160405180910390fd5b5f80546001600160a01b0319166001600160a01b0383169081179091556040519081527f9f513fe86dc42fdbac355fa4d9b1d5be7b5e6cd2df67e30db8003766568de4769060200160405180910390a150565b5f80516020615a7c833981519152612b5e81612fbe565b50601a805460ff1916911515919091179055565b5f80516020615a7c833981519152612b8981612fbe565b6029611599838261542d565b6022805461147d906153b0565b602354606090600160a01b900460ff161515600103612c285760235460405163c87b56dd60e01b8152600481018490526001600160a01b039091169063c87b56dd906024015f60405180830381865afa158015612c01573d5f803e3d5ffd5b505050506040513d5f823e601f3d908101601f1916820160405261152491908101906155a4565b602354600160a81b900460ff161515600103612ce057602854612cba9060259060269060249060ff161515600114612c6e5760405180602001604052805f815250612c90565b6029604051602001612c80919061567b565b6040516020818303038152906040525b6027604051602001612ca69594939291906156b3565b604051602081830303815290604052613697565b604051602001612cca91906157b4565b6040516020818303038152906040529050919050565b612ce9826137f5565b6022604051602001612cca9291906157f8565b5f82815260136020526040902060010154612d1681612fbe565b6115998383613367565b5f80516020615a7c833981519152612d3781612fbe565b50601d55565b5f80516020615a7c833981519152612d5481612fbe565b6022611599838261542d565b5f80516020615a7c833981519152612d7781612fbe565b6027611599838261542d565b5f80516020615a7c833981519152612d9a81612fbe565b50601a805491151563010000000263ff00000019909216919091179055565b5f612dc483836138b7565b15155f03612dd357505f611524565b6001600160a01b038084165f908152600a602090815260408083209386168352929052205460ff165b9392505050565b5f80516020615a7c833981519152612e1a81612fbe565b5060238054911515600160a01b0260ff60a01b19909216919091179055565b612e41612fc8565b6001600160a01b038116612ea65760405162461bcd60e51b815260206004820152602660248201527f4f776e61626c653a206e6577206f776e657220697320746865207a65726f206160448201526564647265737360d01b60648201526084016116c3565b611bf981613552565b5f80516020615a7c833981519152612ec681612fbe565b50602080546001600160a01b0390921661010002610100600160a81b0319909216919091179055565b5f80516020615a7c833981519152612f0681612fbe565b50602a805460ff1916911515919091179055565b5f80516020615a7c833981519152612f3181612fbe565b611560826138d6565b6060611455600d61391a565b5f6001600160e01b0319821663152a902d60e11b148061152457506301ffc9a760e01b6001600160e01b0319831614611524565b5f6001600160e01b03198216637965db0b60e01b14806115245750611524825b5f6001600160e01b03198216630101c11560e71b1480611524575061152482613926565b611bf98133613965565b33612fd161283d565b6001600160a01b03161461263e5760405162461bcd60e51b815260206004820181905260248201527f4f776e61626c653a2063616c6c6572206973206e6f7420746865206f776e657260448201526064016116c3565b6127106001600160601b03821611156130955760405162461bcd60e51b815260206004820152602a60248201527f455243323938313a20726f79616c7479206665652077696c6c206578636565646044820152692073616c65507269636560b01b60648201526084016116c3565b6001600160a01b0382166130eb5760405162461bcd60e51b815260206004820152601960248201527f455243323938313a20696e76616c69642072656365697665720000000000000060448201526064016116c3565b604080518082019091526001600160a01b039092168083526001600160601b039091166020909201829052600160a01b90910217600155565b600881901c5f908152600b6020526040812054600160ff1b60ff84161c161561314e57505f919050565b611524826139be565b5f546001600160a01b0316801580159061317a57505f816001600160a01b03163b115b1561156057604051633185c44d60e21b81523060048201526001600160a01b03838116602483015282169063c617113490604401602060405180830381865afa1580156131c9573d5f803e3d5ffd5b505050506040513d601f19601f820116820180604052508101906131ed9190615815565b61156057604051633b79c77360e21b81526001600160a01b03831660048201526024016116c3565b61321f82826139d9565b6115608282613a54565b600880545f918291829190613240911c60016154fc565b9050815b81811015613283575f818152600b602052604090205461326381613b65565b61326d90866154fc565b945050808061327b9061550f565b915050613244565b50505090565b5f80600854611455919061539d565b6132a23382613b82565b6132be5760405162461bcd60e51b81526004016116c390615830565b611599838383613c45565b611560828260405180602001604052805f815250613e3e565b6132ec8282612884565b611560575f8281526013602090815260408083206001600160a01b03851684529091529020805460ff191660011790556133233390565b6001600160a01b0316816001600160a01b0316837f2f8788117e7eff1d82e926ec794901d17c78024a50270940304540a733656f0d60405160405180910390a45050565b6133718282612884565b15611560575f8281526013602090815260408083206001600160a01b0385168085529252808320805460ff1916905551339285917ff6391f5c32d9c69d2a47ea670b442974b53935d1edc7fd64eb21e047a839171b9190a45050565b61159983838360405180602001604052805f815250612a6b565b6002601454036134395760405162461bcd60e51b815260206004820152601f60248201527f5265656e7472616e637947756172643a207265656e7472616e742063616c6c0060448201526064016116c3565b6002601455565b5f61344a82611f4a565b9050613459815f846001613e7d565b613464600b83613f07565b60405182905f906001600160a01b038416907fddf252ad1be2c89b69c2b068fc378daa952ba7f163c4a11628f55a4df523b3ef908390a4611560815f846001613f32565b5f806134b383613124565b6135145760405162461bcd60e51b815260206004820152602c60248201527f4552433732315073693a206f776e657220717565727920666f72206e6f6e657860448201526b34b9ba32b73a103a37b5b2b760a11b60648201526084016116c3565b61351d836140dc565b5f818152600760205260409020546001600160a01b031694909350915050565b5f8261354985846140e8565b14949350505050565b600380546001600160a01b038381166001600160a01b0319831681179093556040519116919082907f8be0079c531659141344cd1fd0a4f28419497f9722a3daafe3b4186f6b6457e0905f90a35050565b6135ae600d8261412c565b506040516001600160a01b0382169033907f3b01c97343869ca2757fcc37cdb8f71683b0a7aed858e3755f4529a1db857292905f90a350565b6135f082614140565b806135f9575080155b61365b5760405162461bcd60e51b815260206004820152602d60248201527f5265737472696374417070726f76653a2043616e206e6f7420617070726f766560448201526c103637b1b5b2b2103a37b5b2b760991b60648201526084016116c3565b611560828261414b565b61366f3383613b82565b61368b5760405162461bcd60e51b81526004016116c390615830565b6117d88484848461420e565b606081515f036136b457505060408051602081019091525f815290565b5f604051806060016040528060408152602001615a3c6040913990505f6003845160026136e191906154fc565b6136eb919061556e565b6136f6906004615557565b90505f6137048260206154fc565b6001600160401b0381111561371b5761371b614e50565b6040519080825280601f01601f191660200182016040528015613745576020820181803683370190505b509050818152600183018586518101602084015b818310156137b1576003830192508251603f8160121c168501518253600182019150603f81600c1c168501518253600182019150603f8160061c168501518253600182019150603f8116850151825350600101613759565b6003895106600181146137cb57600281146137dc576137e7565b613d3d60f01b6001198301526137e7565b603d60f81b5f198301525b509398975050505050505050565b606061380082613124565b61385f5760405162461bcd60e51b815260206004820152602a60248201527f4552433732315073693a2055524920717565727920666f72206e6f6e657869736044820152693a32b73a103a37b5b2b760b11b60648201526084016116c3565b5f613868614227565b90505f8151116138865760405180602001604052805f815250612dfc565b8061389084614236565b6040516020016138a1929190615884565b6040516020818303038152906040529392505050565b5f806138c2846142c5565b90506138ce8382614305565b949350505050565b6138e1600d8261439b565b506040516001600160a01b0382169033907fbd0af1fe0a2c1c7bb340c17a284a291138979c8eeb797e176dbd1c415199af3c905f90a350565b60605f612dfc836143af565b5f6001600160e01b031982166380ac58cd60e01b148061395657506001600160e01b03198216635b5e139f60e01b145b80611524575061152482612f46565b61396f8282612884565b6115605761397c81614408565b61398783602061441a565b6040516020016139989291906158b2565b60408051601f198184030181529082905262461bcd60e51b82526116c391600401614d9f565b5f6139c860085490565b821080156115245750600192915050565b6001600160a01b03821615611560576139f281836145af565b6115605760405162461bcd60e51b815260206004820152602d60248201527f5265737472696374417070726f76653a2054686520636f6e747261637420697360448201526c103737ba1030b63637bbb2b21760991b60648201526084016116c3565b5f613a5e82611f4a565b9050806001600160a01b0316836001600160a01b031603613acd5760405162461bcd60e51b8152602060048201526024808201527f4552433732315073693a20617070726f76616c20746f2063757272656e74206f6044820152633bb732b960e11b60648201526084016116c3565b336001600160a01b0382161480613ae95750613ae98133612db9565b613b5b5760405162461bcd60e51b815260206004820152603b60248201527f4552433732315073693a20617070726f76652063616c6c6572206973206e6f7460448201527f206f776e6572206e6f7220617070726f76656420666f7220616c6c000000000060648201526084016116c3565b61159983836145bb565b5f5b8115613b7d575f19820190911690600101613b67565b919050565b5f613b8c82613124565b613bf05760405162461bcd60e51b815260206004820152602f60248201527f4552433732315073693a206f70657261746f7220717565727920666f72206e6f60448201526e3732bc34b9ba32b73a103a37b5b2b760891b60648201526084016116c3565b5f613bfa83611f4a565b9050806001600160a01b0316846001600160a01b03161480613c355750836001600160a01b0316613c2a84611659565b6001600160a01b0316145b806138ce57506138ce8185612db9565b5f80613c50836134a8565b91509150846001600160a01b0316826001600160a01b031614613cca5760405162461bcd60e51b815260206004820152602c60248201527f4552433732315073693a207472616e73666572206f6620746f6b656e2074686160448201526b3a1034b9903737ba1037bbb760a11b60648201526084016116c3565b6001600160a01b038416613d305760405162461bcd60e51b815260206004820152602760248201527f4552433732315073693a207472616e7366657220746f20746865207a65726f206044820152666164647265737360c81b60648201526084016116c3565b613d3d8585856001613e7d565b613d475f846145bb565b5f613d538460016154fc565b600881901c5f90815260046020526040902054909150600160ff1b60ff83161c16158015613d82575060085481105b15613db8575f81815260076020526040902080546001600160a01b0319166001600160a01b038816179055613db8600482613f07565b5f84815260076020526040902080546001600160a01b0319166001600160a01b038716179055818414613df057613df0600485613f07565b83856001600160a01b0316876001600160a01b03167fddf252ad1be2c89b69c2b068fc378daa952ba7f163c4a11628f55a4df523b3ef60405160405180910390a46125348686866001613f32565b5f613e4860085490565b9050613e548484614628565b613e615f858386866147ae565b6117d85760405162461bcd60e51b81526004016116c390615926565b602a5460ff161580613e9657506001600160a01b038416155b80613ea857506001600160a01b038316155b80613ebd57506001600160a01b03831661dead145b613f025760405162461bcd60e51b81526020600482015260166024820152751d1c985b9cd9995c881a5cc81c1c9bda1a589a5d195960521b60448201526064016116c3565b6117d8565b600881901c5f90815260209290925260409091208054600160ff1b60ff9093169290921c9091179055565b600160401b8110613f41575f80fd5b806001600160a01b03851615613faa576001600160a01b0385165f908152602b602052604081208054839290613f819084906001600160401b031661597b565b92506101000a8154816001600160401b0302191690836001600160401b03160217905550614009565b6001600160a01b0384165f908152602b602052604090208054829190600890613fe4908490600160401b90046001600160401b031661599b565b92506101000a8154816001600160401b0302191690836001600160401b031602179055505b6001600160a01b03841615614071576001600160a01b0384165f908152602b6020526040812080548392906140489084906001600160401b031661599b565b92506101000a8154816001600160401b0302191690836001600160401b031602179055506140d0565b6001600160a01b0385165f908152602b6020526040902080548291906010906140ab908490600160801b90046001600160401b031661599b565b92506101000a8154816001600160401b0302191690836001600160401b031602179055505b611a1a858585856148e1565b5f611524600483614903565b5f81815b8451811015611f55576141188286838151811061410b5761410b6154e8565b60200260200101516149f7565b9150806141248161550f565b9150506140ec565b5f612dfc836001600160a01b038416614a23565b5f61152433836138b7565b336001600160a01b038316036141a35760405162461bcd60e51b815260206004820152601c60248201527f4552433732315073693a20617070726f766520746f2063616c6c65720000000060448201526064016116c3565b335f818152600a602090815260408083206001600160a01b03871680855290835292819020805460ff191686151590811790915590519081529192917f17307eab39ab6107e8899845ad3d59bd9653f200f220920489ca2b5937696c31910160405180910390a35050565b614219848484613c45565b613e618484846001856147ae565b6060602180546115ad906153b0565b60605f61424283614b0d565b60010190505f816001600160401b0381111561426057614260614e50565b6040519080825280601f01601f19166020018201604052801561428a576020820181803683370190505b5090508181016020015b5f19016f181899199a1a9b1b9c1cb0b131b232b360811b600a86061a8153600a850494508461429457509392505050565b6001600160a01b0381165f90815260116020526040812054156142fd57506001600160a01b03165f9081526011602052604090205490565b505060125490565b600f545f9060ff1661431957506001611524565b61432283614be4565b80612dfc5750600c54604051630f8350ed60e41b81526001600160a01b038581166004830152602482018590529091169063f8350ed090604401602060405180830381865afa158015614377573d5f803e3d5ffd5b505050506040513d601f19601f82011682018060405250810190612dfc9190615815565b5f612dfc836001600160a01b038416614c0c565b6060815f018054806020026020016040519081016040528092919081815260200182805480156143fc57602002820191905f5260205f20905b8154815260200190600101908083116143e8575b50505050509050919050565b60606115246001600160a01b03831660145b60605f614428836002615557565b6144339060026154fc565b6001600160401b0381111561444a5761444a614e50565b6040519080825280601f01601f191660200182016040528015614474576020820181803683370190505b509050600360fc1b815f8151811061448e5761448e6154e8565b60200101906001600160f81b03191690815f1a905350600f60fb1b816001815181106144bc576144bc6154e8565b60200101906001600160f81b03191690815f1a9053505f6144de846002615557565b6144e99060016154fc565b90505b6001811115614560576f181899199a1a9b1b9c1cb0b131b232b360811b85600f166010811061451d5761451d6154e8565b1a60f81b828281518110614533576145336154e8565b60200101906001600160f81b03191690815f1a90535060049490941c93614559816159bb565b90506144ec565b508315612dfc5760405162461bcd60e51b815260206004820181905260248201527f537472696e67733a20686578206c656e67746820696e73756666696369656e7460448201526064016116c3565b5f806138c23385614c58565b5f81815260096020526040902080546001600160a01b0319166001600160a01b03841690811790915581906145ef82611f4a565b6001600160a01b03167f8c5be1e5ebec7d5bd14f71427d1e84f3dd0314c0f7b2291e5b200ac8c7c3b92560405160405180910390a45050565b5f61463260085490565b90505f82116146915760405162461bcd60e51b815260206004820152602560248201527f4552433732315073693a207175616e74697479206d7573742062652067726561604482015264074657220360dc1b60648201526084016116c3565b6001600160a01b0383166146f35760405162461bcd60e51b815260206004820152602360248201527f4552433732315073693a206d696e7420746f20746865207a65726f206164647260448201526265737360e81b60648201526084016116c3565b6146ff5f848385613e7d565b8160085f82825461471091906154fc565b90915550505f81815260076020526040902080546001600160a01b0319166001600160a01b038516179055614746600482613f07565b6147525f848385613f32565b805b61475e83836154fc565b8110156117d85760405181906001600160a01b038616905f907fddf252ad1be2c89b69c2b068fc378daa952ba7f163c4a11628f55a4df523b3ef908290a4806147a68161550f565b915050614754565b5f6001600160a01b0385163b156148d457506001835b6147ce84866154fc565b8110156148ce57604051630a85bd0160e11b81526001600160a01b0387169063150b7a02906148079033908b90869089906004016159d0565b6020604051808303815f875af1925050508015614841575060408051601f3d908101601f1916820190925261483e91810190615a0c565b60015b61489c573d80801561486e576040519150601f19603f3d011682016040523d82523d5f602084013e614873565b606091505b5080515f036148945760405162461bcd60e51b81526004016116c390615926565b805181602001fd5b8280156148b957506001600160e01b03198116630a85bd0160e11b145b925050806148c68161550f565b9150506147c4565b506148d8565b5060015b95945050505050565b6001600160a01b038416156117d8575f828152601060205260408120556117d8565b600881901c5f8181526020849052604081205490919060ff808516919082181c80156149445761493281614c88565b60ff168203600884901b1793506149ee565b5f83116149b05760405162461bcd60e51b815260206004820152603460248201527f4269744d6170733a205468652073657420626974206265666f7265207468652060448201527334b73232bc103237b2b9b713ba1032bc34b9ba1760611b60648201526084016116c3565b505f199091015f8181526020869052604090205490919080156149e9576149d681614c88565b60ff0360ff16600884901b1793506149ee565b614944565b50505092915050565b5f818310614a11575f828152602084905260409020612dfc565b5f838152602083905260409020612dfc565b5f8181526001830160205260408120548015614afd575f614a4560018361539d565b85549091505f90614a589060019061539d565b9050818114614ab7575f865f018281548110614a7657614a766154e8565b905f5260205f200154905080875f018481548110614a9657614a966154e8565b5f918252602080832090910192909255918252600188019052604090208390555b8554869080614ac857614ac8615a27565b600190038181905f5260205f20015f90559055856001015f8681526020019081526020015f205f905560019350505050611524565b5f915050611524565b5092915050565b5f8072184f03e93ff9f4daa797ed6e38ed64bf6a1f0160401b8310614b4b5772184f03e93ff9f4daa797ed6e38ed64bf6a1f0160401b830492506040015b6d04ee2d6d415b85acef81000000008310614b77576d04ee2d6d415b85acef8100000000830492506020015b662386f26fc100008310614b9557662386f26fc10000830492506010015b6305f5e1008310614bad576305f5e100830492506008015b6127108310614bc157612710830492506004015b60648310614bd3576064830492506002015b600a83106115245760010192915050565b5f611524600d836001600160a01b0381165f9081526001830160205260408120541515612dfc565b5f818152600183016020526040812054614c5157508154600181810184555f848152602080822090930184905584548482528286019093526040902091909155611524565b505f611524565b5f8181526010602052604081205415614c7f57505f81815260106020526040902054611524565b612dfc836142c5565b5f6040518061012001604052806101008152602001615a9c610100913960f87e818283848586878898a8b8c8d8e8f929395969799a9b9d9e9faaeb6bedeeff614cd085614cf1565b02901c81518110614ce357614ce36154e8565b016020015160f81c92915050565b5f808211614cfd575f80fd5b505f8190031690565b602080825282518282018190525f9190848201906040850190845b81811015614d465783516001600160a01b031683529284019291840191600101614d21565b50909695505050505050565b5f5b83811015614d6c578181015183820152602001614d54565b50505f910152565b5f8151808452614d8b816020860160208601614d52565b601f01601f19169290920160200192915050565b602081525f612dfc6020830184614d74565b6001600160e01b031981168114611bf9575f80fd5b5f60208284031215614dd6575f80fd5b8135612dfc81614db1565b80356001600160a01b0381168114613b7d575f80fd5b5f60208284031215614e07575f80fd5b612dfc82614de1565b5f8060408385031215614e21575f80fd5b614e2a83614de1565b915060208301356001600160601b0381168114614e45575f80fd5b809150509250929050565b634e487b7160e01b5f52604160045260245ffd5b604051601f8201601f191681016001600160401b0381118282101715614e8c57614e8c614e50565b604052919050565b5f6001600160401b03821115614eac57614eac614e50565b50601f01601f191660200190565b5f614ecc614ec784614e94565b614e64565b9050828152838383011115614edf575f80fd5b828260208301375f602084830101529392505050565b5f60208284031215614f05575f80fd5b81356001600160401b03811115614f1a575f80fd5b8201601f81018413614f2a575f80fd5b6138ce84823560208401614eba565b8015158114611bf9575f80fd5b5f60208284031215614f56575f80fd5b8135612dfc81614f39565b5f60208284031215614f71575f80fd5b5035919050565b5f8060408385031215614f89575f80fd5b614f9283614de1565b946020939093013593505050565b5f805f60608486031215614fb2575f80fd5b614fbb84614de1565b9250614fc960208501614de1565b9150604084013590509250925092565b5f8083601f840112614fe9575f80fd5b5081356001600160401b03811115614fff575f80fd5b6020830191508360208260051b8501011115611ac6575f80fd5b5f6001600160401b0382111561503157615031614e50565b5060051b60200190565b5f82601f83011261504a575f80fd5b8135602061505a614ec783615019565b82815260059290921b84018101918181019086841115615078575f80fd5b8286015b84811015615093578035835291830191830161507c565b509695505050505050565b5f805f604084860312156150b0575f80fd5b83356001600160401b03808211156150c6575f80fd5b6150d287838801614fd9565b909550935060208601359150808211156150ea575f80fd5b506150f78682870161503b565b9150509250925092565b5f8060408385031215615112575f80fd5b50508035926020909101359150565b5f8060408385031215615132575f80fd5b8235915061514260208401614de1565b90509250929050565b5f805f6060848603121561515d575f80fd5b833592506020808501356001600160401b038082111561517b575f80fd5b818701915087601f83011261518e575f80fd5b813561519c614ec782615019565b81815260059190911b8301840190848101908a8311156151ba575f80fd5b938501935b828510156151df576151d085614de1565b825293850193908501906151bf565b9650505060408701359250808311156151f6575f80fd5b50506150f78682870161503b565b5f60208284031215615214575f80fd5b81356001600160401b03811115615229575f80fd5b6138ce8482850161503b565b5f805f805f60808688031215615249575f80fd5b853594506020860135935060408601356001600160401b0381111561526c575f80fd5b61527888828901614fd9565b96999598509660600135949350505050565b602080825282518282018190525f9190848201906040850190845b81811015614d46578351835292840192918401916001016152a5565b5f80604083850312156152d2575f80fd5b6152db83614de1565b91506020830135614e4581614f39565b5f805f80608085870312156152fe575f80fd5b61530785614de1565b935061531560208601614de1565b92506040850135915060608501356001600160401b03811115615336575f80fd5b8501601f81018713615346575f80fd5b61535587823560208401614eba565b91505092959194509250565b5f8060408385031215615372575f80fd5b61537b83614de1565b915061514260208401614de1565b634e487b7160e01b5f52601160045260245ffd5b8181038181111561152457611524615389565b600181811c908216806153c457607f821691505b6020821081036153e257634e487b7160e01b5f52602260045260245ffd5b50919050565b601f821115611599575f81815260208120601f850160051c8101602086101561540e5750805b601f850160051c820191505b818110156125345782815560010161541a565b81516001600160401b0381111561544657615446614e50565b61545a8161545484546153b0565b846153e8565b602080601f83116001811461548d575f84156154765750858301515b5f19600386901b1c1916600185901b178555612534565b5f85815260208120601f198616915b828110156154bb5788860151825594840194600190910190840161549c565b50858210156154d857878501515f19600388901b60f8161c191681555b5050505050600190811b01905550565b634e487b7160e01b5f52603260045260245ffd5b8082018082111561152457611524615389565b5f6001820161552057615520615389565b5060010190565b6020808252601690820152751b585e08139195081b1a5b5a5d08195e18d95959195960521b604082015260600190565b808202811582820484141761152457611524615389565b5f8261558857634e487b7160e01b5f52601260045260245ffd5b500490565b5f6020828403121561559d575f80fd5b5051919050565b5f602082840312156155b4575f80fd5b81516001600160401b038111156155c9575f80fd5b8201601f810184136155d9575f80fd5b80516155e7614ec782614e94565b8181528560208385010111156155fb575f80fd5b6148d8826020830160208601614d52565b5f8154615618816153b0565b60018281168015615630576001811461564557615671565b60ff1984168752821515830287019450615671565b855f526020805f205f5b858110156156685781548a82015290840190820161564f565b50505082870194505b5050505092915050565b711130b734b6b0ba34b7b72fbab936111d101160711b81525f6156a1601283018461560c565b61088b60f21b81526002019392505050565b607b60f81b815267113730b6b2911d1160c11b60018201525f6156d9600983018861560c565b61088b60f21b8082526e113232b9b1b934b83a34b7b7111d1160891b6002830152615707601183018961560c565b818152691134b6b0b3b2911d101160b11b6002820152915061572c600c83018861560c565b9150808252508451615745816002840160208901614d52565b7f2261747472696275746573223a5b7b2274726169745f74797065223a22747970600292909101918201526b329116113b30b63ab2911d1160a11b6022820152615792602e82018561560c565b62227d5d60e81b8152607d60f81b600382015260040198975050505050505050565b7f646174613a6170706c69636174696f6e2f6a736f6e3b6261736536342c00000081525f82516157eb81601d850160208701614d52565b91909101601d0192915050565b5f8351615809818460208801614d52565b6148d88184018561560c565b5f60208284031215615825575f80fd5b8151612dfc81614f39565b60208082526034908201527f4552433732315073693a207472616e736665722063616c6c6572206973206e6f6040820152731d081bdddb995c881b9bdc88185c1c1c9bdd995960621b606082015260800190565b5f8351615895818460208801614d52565b8351908301906158a9818360208801614d52565b01949350505050565b7f416363657373436f6e74726f6c3a206163636f756e742000000000000000000081525f83516158e9816017850160208801614d52565b7001034b99036b4b9b9b4b733903937b6329607d1b601791840191820152835161591a816028840160208801614d52565b01602801949350505050565b60208082526035908201527f4552433732315073693a207472616e7366657220746f206e6f6e20455243373260408201527418a932b1b2b4bb32b91034b6b83632b6b2b73a32b960591b606082015260800190565b6001600160401b03828116828216039080821115614b0657614b06615389565b6001600160401b03818116838216019080821115614b0657614b06615389565b5f816159c9576159c9615389565b505f190190565b6001600160a01b03858116825284166020820152604081018390526080606082018190525f90615a0290830184614d74565b9695505050505050565b5f60208284031215615a1c575f80fd5b8151612dfc81614db1565b634e487b7160e01b5f52603160045260245ffdfe4142434445464748494a4b4c4d4e4f505152535455565758595a6162636465666768696a6b6c6d6e6f707172737475767778797a303132333435363738392b2fdf8b4c520ffe197c5343c6f5aec59570151ef9a492f2c624fd45ddde6135ec420001020903110a19042112290b311a3905412245134d2a550c5d32651b6d3a7506264262237d468514804e8d2b95569d0d495ea533a966b11c886eb93bc176c9071727374353637324837e9b47af86c7155181ad4fd18ed32c9096db57d59ee30e2e4a6a5f92a6be3498aae067ddb2eb1d5989b56fd7baf33ca0c2ee77e5caf7ff0810182028303840444c545c646c7425617c847f8c949c48a4a8b087b8c0c816365272829aaec650acd0d28fdad4e22d6991bd97dfdcea58b4d6f29fede4f6fe0f1f2f3f4b5b6b607b8b93a3a7b7bf357199c5abcfd9e168bcdee9b3f1ecf5fd1e3e5a7a8aa2b670c4ced8bbe8f0f4fc3d79a1c3cde7effb78cce6facbf9f8a2646970667358221220ebbdae6f6402a061afabdf59bd9aa7b90f14c0dce2e7fef835419f98ec858a6664736f6c6343000814003368747470733a2f2f6d7573756269636f6c6c656374696f6e2e78797a2f646174612f6d657461646174612fdf8b4c520ffe197c5343c6f5aec59570151ef9a492f2c624fd45ddde6135ec424552433732315073693a207472616e7366657220746f206e6f6e204552433732",
			"opcodes": "PUSH1 0xF DUP1 SLOAD PUSH1 0xFF NOT SWAP1 DUP2 AND PUSH1 0x1 SWAP1 DUP2 OR SWAP1 SWAP3 SSTORE PUSH1 0x12 SWAP2 SWAP1 SWAP2 SSTORE PUSH1 0x15 DUP1 SLOAD PUSH1 0x1 PUSH1 0x1 PUSH1 0xA0 SHL SUB NOT AND PUSH20 0x52C5DCF49F10C827E070CEE4ADF1D006942EAAB6 OR SWAP1 SSTORE PUSH7 0x2386F26FC10000 PUSH1 0x16 SSTORE PUSH2 0x8AD PUSH1 0x17 SSTORE PUSH1 0xC8 PUSH1 0x18 SSTORE PUSH1 0xA PUSH1 0x19 SSTORE PUSH1 0x1A DUP1 SLOAD PUSH4 0xFFFFFFFF NOT AND PUSH3 0x10101 OR SWAP1 SSTORE PUSH0 PUSH1 0x1B DUP2 SWAP1 SSTORE PUSH1 0x1D SSTORE PUSH1 0x20 DUP1 SLOAD SWAP1 SWAP2 AND SWAP1 SSTORE PUSH1 0xC0 PUSH1 0x40 MSTORE PUSH1 0x5 PUSH1 0x80 SWAP1 DUP2 MSTORE PUSH5 0x173539B7B7 PUSH1 0xD9 SHL PUSH1 0xA0 MSTORE PUSH1 0x22 SWAP1 PUSH3 0xA3 SWAP1 DUP3 PUSH3 0x1155 JUMP JUMPDEST POP PUSH1 0x23 DUP1 SLOAD PUSH2 0xFFFF PUSH1 0xA0 SHL NOT AND SWAP1 SSTORE PUSH1 0x28 DUP1 SLOAD PUSH1 0xFF NOT SWAP1 DUP2 AND SWAP1 SWAP2 SSTORE PUSH1 0x2A DUP1 SLOAD SWAP1 SWAP2 AND SWAP1 SSTORE CALLVALUE DUP1 ISZERO PUSH3 0xD4 JUMPI PUSH0 DUP1 REVERT JUMPDEST POP PUSH1 0x40 DUP1 MLOAD DUP1 DUP3 ADD DUP3 MSTORE PUSH1 0x10 DUP2 MSTORE PUSH16 0x26BAB9BAB134A1B7B63632B1BA34B7B7 PUSH1 0x81 SHL PUSH1 0x20 DUP1 DUP4 ADD SWAP2 SWAP1 SWAP2 MSTORE DUP3 MLOAD DUP1 DUP5 ADD SWAP1 SWAP4 MSTORE PUSH1 0x4 DUP4 MSTORE PUSH4 0x1350D391 PUSH1 0xE2 SHL SWAP1 DUP4 ADD MSTORE PUSH0 DUP1 SLOAD PUSH1 0x1 PUSH1 0x1 PUSH1 0xA0 SHL SUB NOT AND PUSH14 0xAAEB6D7670E522A718067333CD4E SWAP1 DUP2 OR SWAP1 SWAP2 SSTORE SWAP1 SWAP2 SWAP1 PUSH20 0x3CC6CDDA760B79BAFA08DF41ECFA224F810DCEB6 PUSH1 0x1 DUP3 DUP3 DUP3 DUP3 DUP1 EXTCODESIZE ISZERO PUSH3 0x267 JUMPI DUP2 ISZERO PUSH3 0x1CB JUMPI PUSH1 0x40 MLOAD PUSH4 0x3E9F1EDF PUSH1 0xE1 SHL DUP2 MSTORE ADDRESS PUSH1 0x4 DUP3 ADD MSTORE PUSH1 0x1 PUSH1 0x1 PUSH1 0xA0 SHL SUB DUP5 DUP2 AND PUSH1 0x24 DUP4 ADD MSTORE DUP3 AND SWAP1 PUSH4 0x7D3E3DBE SWAP1 PUSH1 0x44 ADD JUMPDEST PUSH0 PUSH1 0x40 MLOAD DUP1 DUP4 SUB DUP2 PUSH0 DUP8 DUP1 EXTCODESIZE ISZERO DUP1 ISZERO PUSH3 0x1AE JUMPI PUSH0 DUP1 REVERT JUMPDEST POP GAS CALL ISZERO DUP1 ISZERO PUSH3 0x1C1 JUMPI RETURNDATASIZE PUSH0 DUP1 RETURNDATACOPY RETURNDATASIZE PUSH0 REVERT JUMPDEST POP POP POP POP PUSH3 0x267 JUMP JUMPDEST PUSH1 0x1 PUSH1 0x1 PUSH1 0xA0 SHL SUB DUP4 AND ISZERO PUSH3 0x210 JUMPI PUSH1 0x40 MLOAD PUSH4 0xA0AF2903 PUSH1 0xE0 SHL DUP2 MSTORE ADDRESS PUSH1 0x4 DUP3 ADD MSTORE PUSH1 0x1 PUSH1 0x1 PUSH1 0xA0 SHL SUB DUP5 DUP2 AND PUSH1 0x24 DUP4 ADD MSTORE DUP3 AND SWAP1 PUSH4 0xA0AF2903 SWAP1 PUSH1 0x44 ADD PUSH3 0x196 JUMP JUMPDEST PUSH1 0x40 MLOAD PUSH4 0x22107243 PUSH1 0xE1 SHL DUP2 MSTORE ADDRESS PUSH1 0x4 DUP3 ADD MSTORE PUSH1 0x1 PUSH1 0x1 PUSH1 0xA0 SHL SUB DUP3 AND SWAP1 PUSH4 0x4420E486 SWAP1 PUSH1 0x24 ADD PUSH0 PUSH1 0x40 MLOAD DUP1 DUP4 SUB DUP2 PUSH0 DUP8 DUP1 EXTCODESIZE ISZERO DUP1 ISZERO PUSH3 0x24F JUMPI PUSH0 DUP1 REVERT JUMPDEST POP GAS CALL ISZERO DUP1 ISZERO PUSH3 0x262 JUMPI RETURNDATASIZE PUSH0 DUP1 RETURNDATACOPY RETURNDATASIZE PUSH0 REVERT JUMPDEST POP POP POP POP JUMPDEST POP POP POP PUSH1 0x1 PUSH1 0x1 PUSH1 0xA0 SHL SUB DUP5 AND SWAP1 POP PUSH3 0x294 JUMPI PUSH1 0x40 MLOAD PUSH4 0xC49D17AD PUSH1 0xE0 SHL DUP2 MSTORE PUSH1 0x4 ADD PUSH1 0x40 MLOAD DUP1 SWAP2 SUB SWAP1 REVERT JUMPDEST POP POP POP PUSH3 0x2B1 PUSH3 0x2AB PUSH3 0x421 PUSH1 0x20 SHL PUSH1 0x20 SHR JUMP JUMPDEST PUSH3 0x425 JUMP JUMPDEST PUSH1 0x5 PUSH3 0x2BF DUP4 DUP3 PUSH3 0x1155 JUMP JUMPDEST POP PUSH1 0x6 PUSH3 0x2CE DUP3 DUP3 PUSH3 0x1155 JUMP JUMPDEST POP PUSH0 PUSH1 0x8 SSTORE POP POP PUSH1 0x1 PUSH1 0x14 SSTORE PUSH3 0x2E6 PUSH0 CALLER PUSH3 0x476 JUMP JUMPDEST PUSH3 0x312 PUSH32 0x9F2DF0FED2C77648DE5860A4CC508CD0818C85B8B8A1AB4CEEEF8D981C8956A6 CALLER PUSH3 0x486 JUMP JUMPDEST PUSH3 0x33E PUSH32 0x3A2F235C9DAAF33349D300AADFF2F15078A89DF81BCFDD45BA11C8F816BDDC6F CALLER PUSH3 0x486 JUMP JUMPDEST PUSH3 0x358 PUSH0 DUP1 MLOAD PUSH1 0x20 PUSH3 0x7043 DUP4 CODECOPY DUP2 MLOAD SWAP2 MSTORE CALLER PUSH3 0x486 JUMP JUMPDEST PUSH3 0x37C PUSH1 0x40 MLOAD DUP1 PUSH1 0x60 ADD PUSH1 0x40 MSTORE DUP1 PUSH1 0x2B DUP2 MSTORE PUSH1 0x20 ADD PUSH3 0x7018 PUSH1 0x2B SWAP2 CODECOPY PUSH3 0x4B3 JUMP JUMPDEST PUSH3 0x388 PUSH1 0x1 PUSH3 0x4DB JUMP JUMPDEST PUSH1 0xC DUP1 SLOAD PUSH1 0x1 PUSH1 0x1 PUSH1 0xA0 SHL SUB NOT AND PUSH20 0xDBAA28CBE70AF04EBFB166B1A3E8F8034E5B9FC7 OR SWAP1 SSTORE PUSH3 0x3CD PUSH20 0x1E0049783F008A0085193E00003D00CD54003C71 PUSH3 0x4FB JUMP JUMPDEST PUSH3 0x3EC PUSH20 0x4FEE7B061C97C9C496B01DBCE9CDB10C02F0A0BE PUSH3 0x4FB JUMP JUMPDEST PUSH3 0x3F9 CALLER PUSH1 0x1 PUSH3 0x541 JUMP JUMPDEST PUSH3 0x41B PUSH20 0xAC6534C66B393E6CB33A13795857E0D9D2B90F96 PUSH2 0x3E8 PUSH3 0x562 JUMP JUMPDEST PUSH3 0x1439 JUMP JUMPDEST CALLER SWAP1 JUMP JUMPDEST PUSH1 0x3 DUP1 SLOAD PUSH1 0x1 PUSH1 0x1 PUSH1 0xA0 SHL SUB DUP4 DUP2 AND PUSH1 0x1 PUSH1 0x1 PUSH1 0xA0 SHL SUB NOT DUP4 AND DUP2 OR SWAP1 SWAP4 SSTORE PUSH1 0x40 MLOAD SWAP2 AND SWAP2 SWAP1 DUP3 SWAP1 PUSH32 0x8BE0079C531659141344CD1FD0A4F28419497F9722A3DAAFE3B4186F6B6457E0 SWAP1 PUSH0 SWAP1 LOG3 POP POP JUMP JUMPDEST PUSH3 0x482 DUP3 DUP3 PUSH3 0x578 JUMP JUMPDEST POP POP JUMP JUMPDEST PUSH0 DUP3 DUP2 MSTORE PUSH1 0x13 PUSH1 0x20 MSTORE PUSH1 0x40 SWAP1 KECCAK256 PUSH1 0x1 ADD SLOAD PUSH3 0x4A2 DUP2 PUSH3 0x61A JUMP JUMPDEST PUSH3 0x4AE DUP4 DUP4 PUSH3 0x578 JUMP JUMPDEST POP POP POP JUMP JUMPDEST PUSH0 DUP1 MLOAD PUSH1 0x20 PUSH3 0x7043 DUP4 CODECOPY DUP2 MLOAD SWAP2 MSTORE PUSH3 0x4CD DUP2 PUSH3 0x61A JUMP JUMPDEST PUSH1 0x21 PUSH3 0x4AE DUP4 DUP3 PUSH3 0x1155 JUMP JUMPDEST PUSH0 DUP1 MLOAD PUSH1 0x20 PUSH3 0x7043 DUP4 CODECOPY DUP2 MLOAD SWAP2 MSTORE PUSH3 0x4F5 DUP2 PUSH3 0x61A JUMP JUMPDEST POP PUSH1 0x12 SSTORE JUMP JUMPDEST PUSH3 0x508 PUSH1 0xD DUP3 PUSH3 0x629 JUMP JUMPDEST POP PUSH1 0x40 MLOAD PUSH1 0x1 PUSH1 0x1 PUSH1 0xA0 SHL SUB DUP3 AND SWAP1 CALLER SWAP1 PUSH32 0xBD0AF1FE0A2C1C7BB340C17A284A291138979C8EEB797E176DBD1C415199AF3C SWAP1 PUSH0 SWAP1 LOG3 POP JUMP JUMPDEST PUSH3 0x482 DUP3 DUP3 PUSH1 0x40 MLOAD DUP1 PUSH1 0x20 ADD PUSH1 0x40 MSTORE DUP1 PUSH0 DUP2 MSTORE POP PUSH3 0x648 PUSH1 0x20 SHL PUSH1 0x20 SHR JUMP JUMPDEST PUSH3 0x56C PUSH3 0x6DC JUMP JUMPDEST PUSH3 0x482 DUP3 DUP3 PUSH3 0x741 JUMP JUMPDEST PUSH0 DUP3 DUP2 MSTORE PUSH1 0x13 PUSH1 0x20 SWAP1 DUP2 MSTORE PUSH1 0x40 DUP1 DUP4 KECCAK256 PUSH1 0x1 PUSH1 0x1 PUSH1 0xA0 SHL SUB DUP6 AND DUP5 MSTORE SWAP1 SWAP2 MSTORE SWAP1 KECCAK256 SLOAD PUSH1 0xFF AND PUSH3 0x482 JUMPI PUSH0 DUP3 DUP2 MSTORE PUSH1 0x13 PUSH1 0x20 SWAP1 DUP2 MSTORE PUSH1 0x40 DUP1 DUP4 KECCAK256 PUSH1 0x1 PUSH1 0x1 PUSH1 0xA0 SHL SUB DUP6 AND DUP5 MSTORE SWAP1 SWAP2 MSTORE SWAP1 KECCAK256 DUP1 SLOAD PUSH1 0xFF NOT AND PUSH1 0x1 OR SWAP1 SSTORE PUSH3 0x5D6 CALLER SWAP1 JUMP JUMPDEST PUSH1 0x1 PUSH1 0x1 PUSH1 0xA0 SHL SUB AND DUP2 PUSH1 0x1 PUSH1 0x1 PUSH1 0xA0 SHL SUB AND DUP4 PUSH32 0x2F8788117E7EFF1D82E926EC794901D17C78024A50270940304540A733656F0D PUSH1 0x40 MLOAD PUSH1 0x40 MLOAD DUP1 SWAP2 SUB SWAP1 LOG4 POP POP JUMP JUMPDEST PUSH3 0x626 DUP2 CALLER PUSH3 0x842 JUMP JUMPDEST POP JUMP JUMPDEST PUSH0 PUSH3 0x63F DUP4 PUSH1 0x1 PUSH1 0x1 PUSH1 0xA0 SHL SUB DUP5 AND PUSH3 0x8BF JUMP JUMPDEST SWAP1 POP JUMPDEST SWAP3 SWAP2 POP POP JUMP JUMPDEST PUSH0 PUSH3 0x653 PUSH1 0x8 SLOAD SWAP1 JUMP JUMPDEST SWAP1 POP PUSH3 0x661 DUP5 DUP5 PUSH3 0x90E JUMP JUMPDEST PUSH3 0x670 PUSH0 DUP6 DUP4 DUP7 DUP7 PUSH3 0xABA JUMP JUMPDEST PUSH3 0x6D6 JUMPI PUSH1 0x40 MLOAD PUSH3 0x461BCD PUSH1 0xE5 SHL DUP2 MSTORE PUSH1 0x20 PUSH1 0x4 DUP3 ADD MSTORE PUSH1 0x35 PUSH1 0x24 DUP3 ADD MSTORE PUSH0 DUP1 MLOAD PUSH1 0x20 PUSH3 0x7063 DUP4 CODECOPY DUP2 MLOAD SWAP2 MSTORE PUSH1 0x44 DUP3 ADD MSTORE PUSH32 0x31526563656976657220696D706C656D656E7465720000000000000000000000 PUSH1 0x64 DUP3 ADD MSTORE PUSH1 0x84 ADD JUMPDEST PUSH1 0x40 MLOAD DUP1 SWAP2 SUB SWAP1 REVERT JUMPDEST POP POP POP POP JUMP JUMPDEST CALLER PUSH3 0x6E7 PUSH3 0xC44 JUMP JUMPDEST PUSH1 0x1 PUSH1 0x1 PUSH1 0xA0 SHL SUB AND EQ PUSH3 0x73F JUMPI PUSH1 0x40 MLOAD PUSH3 0x461BCD PUSH1 0xE5 SHL DUP2 MSTORE PUSH1 0x20 PUSH1 0x4 DUP3 ADD DUP2 SWAP1 MSTORE PUSH1 0x24 DUP3 ADD MSTORE PUSH32 0x4F776E61626C653A2063616C6C6572206973206E6F7420746865206F776E6572 PUSH1 0x44 DUP3 ADD MSTORE PUSH1 0x64 ADD PUSH3 0x6CD JUMP JUMPDEST JUMP JUMPDEST PUSH2 0x2710 PUSH1 0x1 PUSH1 0x1 PUSH1 0x60 SHL SUB DUP3 AND GT ISZERO PUSH3 0x7B1 JUMPI PUSH1 0x40 MLOAD PUSH3 0x461BCD PUSH1 0xE5 SHL DUP2 MSTORE PUSH1 0x20 PUSH1 0x4 DUP3 ADD MSTORE PUSH1 0x2A PUSH1 0x24 DUP3 ADD MSTORE PUSH32 0x455243323938313A20726F79616C7479206665652077696C6C20657863656564 PUSH1 0x44 DUP3 ADD MSTORE PUSH10 0x2073616C655072696365 PUSH1 0xB0 SHL PUSH1 0x64 DUP3 ADD MSTORE PUSH1 0x84 ADD PUSH3 0x6CD JUMP JUMPDEST PUSH1 0x1 PUSH1 0x1 PUSH1 0xA0 SHL SUB DUP3 AND PUSH3 0x809 JUMPI PUSH1 0x40 MLOAD PUSH3 0x461BCD PUSH1 0xE5 SHL DUP2 MSTORE PUSH1 0x20 PUSH1 0x4 DUP3 ADD MSTORE PUSH1 0x19 PUSH1 0x24 DUP3 ADD MSTORE PUSH32 0x455243323938313A20696E76616C696420726563656976657200000000000000 PUSH1 0x44 DUP3 ADD MSTORE PUSH1 0x64 ADD PUSH3 0x6CD JUMP JUMPDEST PUSH1 0x40 DUP1 MLOAD DUP1 DUP3 ADD SWAP1 SWAP2 MSTORE PUSH1 0x1 PUSH1 0x1 PUSH1 0xA0 SHL SUB SWAP1 SWAP3 AND DUP1 DUP4 MSTORE PUSH1 0x1 PUSH1 0x1 PUSH1 0x60 SHL SUB SWAP1 SWAP2 AND PUSH1 0x20 SWAP1 SWAP3 ADD DUP3 SWAP1 MSTORE PUSH1 0x1 PUSH1 0xA0 SHL SWAP1 SWAP2 MUL OR PUSH1 0x1 SSTORE JUMP JUMPDEST PUSH0 DUP3 DUP2 MSTORE PUSH1 0x13 PUSH1 0x20 SWAP1 DUP2 MSTORE PUSH1 0x40 DUP1 DUP4 KECCAK256 PUSH1 0x1 PUSH1 0x1 PUSH1 0xA0 SHL SUB DUP6 AND DUP5 MSTORE SWAP1 SWAP2 MSTORE SWAP1 KECCAK256 SLOAD PUSH1 0xFF AND PUSH3 0x482 JUMPI PUSH3 0x877 DUP2 PUSH3 0xC5D JUMP JUMPDEST PUSH3 0x884 DUP4 PUSH1 0x20 PUSH3 0xC70 JUMP JUMPDEST PUSH1 0x40 MLOAD PUSH1 0x20 ADD PUSH3 0x897 SWAP3 SWAP2 SWAP1 PUSH3 0x1241 JUMP JUMPDEST PUSH1 0x40 DUP1 MLOAD PUSH1 0x1F NOT DUP2 DUP5 SUB ADD DUP2 MSTORE SWAP1 DUP3 SWAP1 MSTORE PUSH3 0x461BCD PUSH1 0xE5 SHL DUP3 MSTORE PUSH3 0x6CD SWAP2 PUSH1 0x4 ADD PUSH3 0x12E6 JUMP JUMPDEST PUSH0 DUP2 DUP2 MSTORE PUSH1 0x1 DUP4 ADD PUSH1 0x20 MSTORE PUSH1 0x40 DUP2 KECCAK256 SLOAD PUSH3 0x906 JUMPI POP DUP2 SLOAD PUSH1 0x1 DUP2 DUP2 ADD DUP5 SSTORE PUSH0 DUP5 DUP2 MSTORE PUSH1 0x20 DUP1 DUP3 KECCAK256 SWAP1 SWAP4 ADD DUP5 SWAP1 SSTORE DUP5 SLOAD DUP5 DUP3 MSTORE DUP3 DUP7 ADD SWAP1 SWAP4 MSTORE PUSH1 0x40 SWAP1 KECCAK256 SWAP2 SWAP1 SWAP2 SSTORE PUSH3 0x642 JUMP JUMPDEST POP PUSH0 PUSH3 0x642 JUMP JUMPDEST PUSH0 PUSH3 0x919 PUSH1 0x8 SLOAD SWAP1 JUMP JUMPDEST SWAP1 POP PUSH0 DUP3 GT PUSH3 0x97A JUMPI PUSH1 0x40 MLOAD PUSH3 0x461BCD PUSH1 0xE5 SHL DUP2 MSTORE PUSH1 0x20 PUSH1 0x4 DUP3 ADD MSTORE PUSH1 0x25 PUSH1 0x24 DUP3 ADD MSTORE PUSH32 0x4552433732315073693A207175616E74697479206D7573742062652067726561 PUSH1 0x44 DUP3 ADD MSTORE PUSH5 0x746572203 PUSH1 0xDC SHL PUSH1 0x64 DUP3 ADD MSTORE PUSH1 0x84 ADD PUSH3 0x6CD JUMP JUMPDEST PUSH1 0x1 PUSH1 0x1 PUSH1 0xA0 SHL SUB DUP4 AND PUSH3 0x9DE JUMPI PUSH1 0x40 MLOAD PUSH3 0x461BCD PUSH1 0xE5 SHL DUP2 MSTORE PUSH1 0x20 PUSH1 0x4 DUP3 ADD MSTORE PUSH1 0x23 PUSH1 0x24 DUP3 ADD MSTORE PUSH32 0x4552433732315073693A206D696E7420746F20746865207A65726F2061646472 PUSH1 0x44 DUP3 ADD MSTORE PUSH3 0x657373 PUSH1 0xE8 SHL PUSH1 0x64 DUP3 ADD MSTORE PUSH1 0x84 ADD PUSH3 0x6CD JUMP JUMPDEST PUSH3 0x9EC PUSH0 DUP5 DUP4 DUP6 PUSH3 0xE23 JUMP JUMPDEST DUP2 PUSH1 0x8 PUSH0 DUP3 DUP3 SLOAD PUSH3 0x9FF SWAP2 SWAP1 PUSH3 0x130E JUMP JUMPDEST SWAP1 SWAP2 SSTORE POP POP PUSH0 DUP2 DUP2 MSTORE PUSH1 0x7 PUSH1 0x20 SWAP1 DUP2 MSTORE PUSH1 0x40 DUP1 DUP4 KECCAK256 DUP1 SLOAD PUSH1 0x1 PUSH1 0x1 PUSH1 0xA0 SHL SUB NOT AND PUSH1 0x1 PUSH1 0x1 PUSH1 0xA0 SHL SUB DUP9 AND OR SWAP1 SSTORE PUSH1 0x8 DUP5 SWAP1 SHR DUP4 MSTORE PUSH1 0x4 SWAP1 SWAP2 MSTORE SWAP1 KECCAK256 DUP1 SLOAD PUSH1 0x1 PUSH1 0xFF SHL PUSH1 0xFF DUP5 AND SHR OR SWAP1 SSTORE PUSH3 0xA58 PUSH0 DUP5 DUP4 DUP6 PUSH3 0xEC8 JUMP JUMPDEST DUP1 JUMPDEST PUSH3 0xA66 DUP4 DUP4 PUSH3 0x130E JUMP JUMPDEST DUP2 LT ISZERO PUSH3 0x6D6 JUMPI PUSH1 0x40 MLOAD DUP2 SWAP1 PUSH1 0x1 PUSH1 0x1 PUSH1 0xA0 SHL SUB DUP7 AND SWAP1 PUSH0 SWAP1 PUSH32 0xDDF252AD1BE2C89B69C2B068FC378DAA952BA7F163C4A11628F55A4DF523B3EF SWAP1 DUP3 SWAP1 LOG4 DUP1 PUSH3 0xAB1 DUP2 PUSH3 0x1324 JUMP JUMPDEST SWAP2 POP POP PUSH3 0xA5A JUMP JUMPDEST PUSH0 PUSH1 0x1 PUSH1 0x1 PUSH1 0xA0 SHL SUB DUP6 AND EXTCODESIZE ISZERO PUSH3 0xC37 JUMPI POP PUSH1 0x1 DUP4 JUMPDEST PUSH3 0xADD DUP5 DUP7 PUSH3 0x130E JUMP JUMPDEST DUP2 LT ISZERO PUSH3 0xC30 JUMPI PUSH1 0x40 MLOAD PUSH4 0xA85BD01 PUSH1 0xE1 SHL DUP2 MSTORE PUSH1 0x1 PUSH1 0x1 PUSH1 0xA0 SHL SUB DUP8 AND SWAP1 PUSH4 0x150B7A02 SWAP1 PUSH3 0xB19 SWAP1 CALLER SWAP1 DUP12 SWAP1 DUP7 SWAP1 DUP10 SWAP1 PUSH1 0x4 ADD PUSH3 0x133F JUMP JUMPDEST PUSH1 0x20 PUSH1 0x40 MLOAD DUP1 DUP4 SUB DUP2 PUSH0 DUP8 GAS CALL SWAP3 POP POP POP DUP1 ISZERO PUSH3 0xB56 JUMPI POP PUSH1 0x40 DUP1 MLOAD PUSH1 0x1F RETURNDATASIZE SWAP1 DUP2 ADD PUSH1 0x1F NOT AND DUP3 ADD SWAP1 SWAP3 MSTORE PUSH3 0xB53 SWAP2 DUP2 ADD SWAP1 PUSH3 0x137D JUMP JUMPDEST PUSH1 0x1 JUMPDEST PUSH3 0xBFA JUMPI RETURNDATASIZE DUP1 DUP1 ISZERO PUSH3 0xB86 JUMPI PUSH1 0x40 MLOAD SWAP2 POP PUSH1 0x1F NOT PUSH1 0x3F RETURNDATASIZE ADD AND DUP3 ADD PUSH1 0x40 MSTORE RETURNDATASIZE DUP3 MSTORE RETURNDATASIZE PUSH0 PUSH1 0x20 DUP5 ADD RETURNDATACOPY PUSH3 0xB8B JUMP JUMPDEST PUSH1 0x60 SWAP2 POP JUMPDEST POP DUP1 MLOAD PUSH0 SUB PUSH3 0xBF2 JUMPI PUSH1 0x40 MLOAD PUSH3 0x461BCD PUSH1 0xE5 SHL DUP2 MSTORE PUSH1 0x20 PUSH1 0x4 DUP3 ADD MSTORE PUSH1 0x35 PUSH1 0x24 DUP3 ADD MSTORE PUSH0 DUP1 MLOAD PUSH1 0x20 PUSH3 0x7063 DUP4 CODECOPY DUP2 MLOAD SWAP2 MSTORE PUSH1 0x44 DUP3 ADD MSTORE PUSH32 0x31526563656976657220696D706C656D656E7465720000000000000000000000 PUSH1 0x64 DUP3 ADD MSTORE PUSH1 0x84 ADD PUSH3 0x6CD JUMP JUMPDEST DUP1 MLOAD DUP2 PUSH1 0x20 ADD REVERT JUMPDEST DUP3 DUP1 ISZERO PUSH3 0xC18 JUMPI POP PUSH1 0x1 PUSH1 0x1 PUSH1 0xE0 SHL SUB NOT DUP2 AND PUSH4 0xA85BD01 PUSH1 0xE1 SHL EQ JUMPDEST SWAP3 POP POP DUP1 PUSH3 0xC27 DUP2 PUSH3 0x1324 JUMP JUMPDEST SWAP2 POP POP PUSH3 0xAD1 JUMP JUMPDEST POP PUSH3 0xC3B JUMP JUMPDEST POP PUSH1 0x1 JUMPDEST SWAP6 SWAP5 POP POP POP POP POP JUMP JUMPDEST PUSH0 PUSH3 0xC58 PUSH1 0x3 SLOAD PUSH1 0x1 PUSH1 0x1 PUSH1 0xA0 SHL SUB AND SWAP1 JUMP JUMPDEST SWAP1 POP SWAP1 JUMP JUMPDEST PUSH1 0x60 PUSH3 0x642 PUSH1 0x1 PUSH1 0x1 PUSH1 0xA0 SHL SUB DUP4 AND PUSH1 0x14 JUMPDEST PUSH1 0x60 PUSH0 PUSH3 0xC80 DUP4 PUSH1 0x2 PUSH3 0x13A6 JUMP JUMPDEST PUSH3 0xC8D SWAP1 PUSH1 0x2 PUSH3 0x130E JUMP JUMPDEST PUSH1 0x1 PUSH1 0x1 PUSH1 0x40 SHL SUB DUP2 GT ISZERO PUSH3 0xCA7 JUMPI PUSH3 0xCA7 PUSH3 0x10B6 JUMP JUMPDEST PUSH1 0x40 MLOAD SWAP1 DUP1 DUP3 MSTORE DUP1 PUSH1 0x1F ADD PUSH1 0x1F NOT AND PUSH1 0x20 ADD DUP3 ADD PUSH1 0x40 MSTORE DUP1 ISZERO PUSH3 0xCD2 JUMPI PUSH1 0x20 DUP3 ADD DUP2 DUP1 CALLDATASIZE DUP4 CALLDATACOPY ADD SWAP1 POP JUMPDEST POP SWAP1 POP PUSH1 0x3 PUSH1 0xFC SHL DUP2 PUSH0 DUP2 MLOAD DUP2 LT PUSH3 0xCEF JUMPI PUSH3 0xCEF PUSH3 0x13C0 JUMP JUMPDEST PUSH1 0x20 ADD ADD SWAP1 PUSH1 0x1 PUSH1 0x1 PUSH1 0xF8 SHL SUB NOT AND SWAP1 DUP2 PUSH0 BYTE SWAP1 MSTORE8 POP PUSH1 0xF PUSH1 0xFB SHL DUP2 PUSH1 0x1 DUP2 MLOAD DUP2 LT PUSH3 0xD20 JUMPI PUSH3 0xD20 PUSH3 0x13C0 JUMP JUMPDEST PUSH1 0x20 ADD ADD SWAP1 PUSH1 0x1 PUSH1 0x1 PUSH1 0xF8 SHL SUB NOT AND SWAP1 DUP2 PUSH0 BYTE SWAP1 MSTORE8 POP PUSH0 PUSH3 0xD44 DUP5 PUSH1 0x2 PUSH3 0x13A6 JUMP JUMPDEST PUSH3 0xD51 SWAP1 PUSH1 0x1 PUSH3 0x130E JUMP JUMPDEST SWAP1 POP JUMPDEST PUSH1 0x1 DUP2 GT ISZERO PUSH3 0xDD2 JUMPI PUSH16 0x181899199A1A9B1B9C1CB0B131B232B3 PUSH1 0x81 SHL DUP6 PUSH1 0xF AND PUSH1 0x10 DUP2 LT PUSH3 0xD89 JUMPI PUSH3 0xD89 PUSH3 0x13C0 JUMP JUMPDEST BYTE PUSH1 0xF8 SHL DUP3 DUP3 DUP2 MLOAD DUP2 LT PUSH3 0xDA2 JUMPI PUSH3 0xDA2 PUSH3 0x13C0 JUMP JUMPDEST PUSH1 0x20 ADD ADD SWAP1 PUSH1 0x1 PUSH1 0x1 PUSH1 0xF8 SHL SUB NOT AND SWAP1 DUP2 PUSH0 BYTE SWAP1 MSTORE8 POP PUSH1 0x4 SWAP5 SWAP1 SWAP5 SHR SWAP4 PUSH3 0xDCA DUP2 PUSH3 0x13D4 JUMP JUMPDEST SWAP1 POP PUSH3 0xD54 JUMP JUMPDEST POP DUP4 ISZERO PUSH3 0x63F JUMPI PUSH1 0x40 MLOAD PUSH3 0x461BCD PUSH1 0xE5 SHL DUP2 MSTORE PUSH1 0x20 PUSH1 0x4 DUP3 ADD DUP2 SWAP1 MSTORE PUSH1 0x24 DUP3 ADD MSTORE PUSH32 0x537472696E67733A20686578206C656E67746820696E73756666696369656E74 PUSH1 0x44 DUP3 ADD MSTORE PUSH1 0x64 ADD PUSH3 0x6CD JUMP JUMPDEST PUSH1 0x2A SLOAD PUSH1 0xFF AND ISZERO DUP1 PUSH3 0xE3D JUMPI POP PUSH1 0x1 PUSH1 0x1 PUSH1 0xA0 SHL SUB DUP5 AND ISZERO JUMPDEST DUP1 PUSH3 0xE50 JUMPI POP PUSH1 0x1 PUSH1 0x1 PUSH1 0xA0 SHL SUB DUP4 AND ISZERO JUMPDEST DUP1 PUSH3 0xE66 JUMPI POP PUSH1 0x1 PUSH1 0x1 PUSH1 0xA0 SHL SUB DUP4 AND PUSH2 0xDEAD EQ JUMPDEST PUSH3 0xEB4 JUMPI PUSH1 0x40 MLOAD PUSH3 0x461BCD PUSH1 0xE5 SHL DUP2 MSTORE PUSH1 0x20 PUSH1 0x4 DUP3 ADD MSTORE PUSH1 0x16 PUSH1 0x24 DUP3 ADD MSTORE PUSH32 0x7472616E736665722069732070726F6869626974656400000000000000000000 PUSH1 0x44 DUP3 ADD MSTORE PUSH1 0x64 ADD PUSH3 0x6CD JUMP JUMPDEST PUSH3 0x6D6 DUP5 DUP5 DUP5 DUP5 PUSH1 0x1 PUSH1 0x1 PUSH1 0xE0 SHL SUB DUP6 AND JUMP JUMPDEST PUSH9 0x10000000000000000 DUP2 LT PUSH3 0xEDD JUMPI PUSH0 DUP1 REVERT JUMPDEST DUP1 PUSH1 0x1 PUSH1 0x1 PUSH1 0xA0 SHL SUB DUP6 AND ISZERO PUSH3 0xF4A JUMPI PUSH1 0x1 PUSH1 0x1 PUSH1 0xA0 SHL SUB DUP6 AND PUSH0 SWAP1 DUP2 MSTORE PUSH1 0x2B PUSH1 0x20 MSTORE PUSH1 0x40 DUP2 KECCAK256 DUP1 SLOAD DUP4 SWAP3 SWAP1 PUSH3 0xF20 SWAP1 DUP5 SWAP1 PUSH1 0x1 PUSH1 0x1 PUSH1 0x40 SHL SUB AND PUSH3 0x13EC JUMP JUMPDEST SWAP3 POP PUSH2 0x100 EXP DUP2 SLOAD DUP2 PUSH1 0x1 PUSH1 0x1 PUSH1 0x40 SHL SUB MUL NOT AND SWAP1 DUP4 PUSH1 0x1 PUSH1 0x1 PUSH1 0x40 SHL SUB AND MUL OR SWAP1 SSTORE POP PUSH3 0xFB0 JUMP JUMPDEST PUSH1 0x1 PUSH1 0x1 PUSH1 0xA0 SHL SUB DUP5 AND PUSH0 SWAP1 DUP2 MSTORE PUSH1 0x2B PUSH1 0x20 MSTORE PUSH1 0x40 SWAP1 KECCAK256 DUP1 SLOAD DUP3 SWAP2 SWAP1 PUSH1 0x8 SWAP1 PUSH3 0xF8B SWAP1 DUP5 SWAP1 PUSH9 0x10000000000000000 SWAP1 DIV PUSH1 0x1 PUSH1 0x1 PUSH1 0x40 SHL SUB AND PUSH3 0x1416 JUMP JUMPDEST SWAP3 POP PUSH2 0x100 EXP DUP2 SLOAD DUP2 PUSH1 0x1 PUSH1 0x1 PUSH1 0x40 SHL SUB MUL NOT AND SWAP1 DUP4 PUSH1 0x1 PUSH1 0x1 PUSH1 0x40 SHL SUB AND MUL OR SWAP1 SSTORE POP JUMPDEST PUSH1 0x1 PUSH1 0x1 PUSH1 0xA0 SHL SUB DUP5 AND ISZERO PUSH3 0x101C JUMPI PUSH1 0x1 PUSH1 0x1 PUSH1 0xA0 SHL SUB DUP5 AND PUSH0 SWAP1 DUP2 MSTORE PUSH1 0x2B PUSH1 0x20 MSTORE PUSH1 0x40 DUP2 KECCAK256 DUP1 SLOAD DUP4 SWAP3 SWAP1 PUSH3 0xFF2 SWAP1 DUP5 SWAP1 PUSH1 0x1 PUSH1 0x1 PUSH1 0x40 SHL SUB AND PUSH3 0x1416 JUMP JUMPDEST SWAP3 POP PUSH2 0x100 EXP DUP2 SLOAD DUP2 PUSH1 0x1 PUSH1 0x1 PUSH1 0x40 SHL SUB MUL NOT AND SWAP1 DUP4 PUSH1 0x1 PUSH1 0x1 PUSH1 0x40 SHL SUB AND MUL OR SWAP1 SSTORE POP PUSH3 0x107D JUMP JUMPDEST PUSH1 0x1 PUSH1 0x1 PUSH1 0xA0 SHL SUB DUP6 AND PUSH0 SWAP1 DUP2 MSTORE PUSH1 0x2B PUSH1 0x20 MSTORE PUSH1 0x40 SWAP1 KECCAK256 DUP1 SLOAD DUP3 SWAP2 SWAP1 PUSH1 0x10 SWAP1 PUSH3 0x1058 SWAP1 DUP5 SWAP1 PUSH1 0x1 PUSH1 0x80 SHL SWAP1 DIV PUSH1 0x1 PUSH1 0x1 PUSH1 0x40 SHL SUB AND PUSH3 0x1416 JUMP JUMPDEST SWAP3 POP PUSH2 0x100 EXP DUP2 SLOAD DUP2 PUSH1 0x1 PUSH1 0x1 PUSH1 0x40 SHL SUB MUL NOT AND SWAP1 DUP4 PUSH1 0x1 PUSH1 0x1 PUSH1 0x40 SHL SUB AND MUL OR SWAP1 SSTORE POP JUMPDEST PUSH3 0x108B DUP6 DUP6 DUP6 DUP6 PUSH3 0x1092 JUMP JUMPDEST POP POP POP POP POP JUMP JUMPDEST PUSH1 0x1 PUSH1 0x1 PUSH1 0xA0 SHL SUB DUP5 AND ISZERO PUSH3 0x6D6 JUMPI PUSH0 DUP3 DUP2 MSTORE PUSH1 0x10 PUSH1 0x20 MSTORE PUSH1 0x40 DUP2 KECCAK256 SSTORE PUSH3 0x6D6 JUMP JUMPDEST PUSH4 0x4E487B71 PUSH1 0xE0 SHL PUSH0 MSTORE PUSH1 0x41 PUSH1 0x4 MSTORE PUSH1 0x24 PUSH0 REVERT JUMPDEST PUSH1 0x1 DUP2 DUP2 SHR SWAP1 DUP3 AND DUP1 PUSH3 0x10DF JUMPI PUSH1 0x7F DUP3 AND SWAP2 POP JUMPDEST PUSH1 0x20 DUP3 LT DUP2 SUB PUSH3 0x10FE JUMPI PUSH4 0x4E487B71 PUSH1 0xE0 SHL PUSH0 MSTORE PUSH1 0x22 PUSH1 0x4 MSTORE PUSH1 0x24 PUSH0 REVERT JUMPDEST POP SWAP2 SWAP1 POP JUMP JUMPDEST PUSH1 0x1F DUP3 GT ISZERO PUSH3 0x4AE JUMPI PUSH0 DUP2 DUP2 MSTORE PUSH1 0x20 DUP2 KECCAK256 PUSH1 0x1F DUP6 ADD PUSH1 0x5 SHR DUP2 ADD PUSH1 0x20 DUP7 LT ISZERO PUSH3 0x112C JUMPI POP DUP1 JUMPDEST PUSH1 0x1F DUP6 ADD PUSH1 0x5 SHR DUP3 ADD SWAP2 POP JUMPDEST DUP2 DUP2 LT ISZERO PUSH3 0x114D JUMPI DUP3 DUP2 SSTORE PUSH1 0x1 ADD PUSH3 0x1138 JUMP JUMPDEST POP POP POP POP POP POP JUMP JUMPDEST DUP2 MLOAD PUSH1 0x1 PUSH1 0x1 PUSH1 0x40 SHL SUB DUP2 GT ISZERO PUSH3 0x1171 JUMPI PUSH3 0x1171 PUSH3 0x10B6 JUMP JUMPDEST PUSH3 0x1189 DUP2 PUSH3 0x1182 DUP5 SLOAD PUSH3 0x10CA JUMP JUMPDEST DUP5 PUSH3 0x1104 JUMP JUMPDEST PUSH1 0x20 DUP1 PUSH1 0x1F DUP4 GT PUSH1 0x1 DUP2 EQ PUSH3 0x11BF JUMPI PUSH0 DUP5 ISZERO PUSH3 0x11A7 JUMPI POP DUP6 DUP4 ADD MLOAD JUMPDEST PUSH0 NOT PUSH1 0x3 DUP7 SWAP1 SHL SHR NOT AND PUSH1 0x1 DUP6 SWAP1 SHL OR DUP6 SSTORE PUSH3 0x114D JUMP JUMPDEST PUSH0 DUP6 DUP2 MSTORE PUSH1 0x20 DUP2 KECCAK256 PUSH1 0x1F NOT DUP7 AND SWAP2 JUMPDEST DUP3 DUP2 LT ISZERO PUSH3 0x11EF JUMPI DUP9 DUP7 ADD MLOAD DUP3 SSTORE SWAP5 DUP5 ADD SWAP5 PUSH1 0x1 SWAP1 SWAP2 ADD SWAP1 DUP5 ADD PUSH3 0x11CE JUMP JUMPDEST POP DUP6 DUP3 LT ISZERO PUSH3 0x120D JUMPI DUP8 DUP6 ADD MLOAD PUSH0 NOT PUSH1 0x3 DUP9 SWAP1 SHL PUSH1 0xF8 AND SHR NOT AND DUP2 SSTORE JUMPDEST POP POP POP POP POP PUSH1 0x1 SWAP1 DUP2 SHL ADD SWAP1 SSTORE POP JUMP JUMPDEST PUSH0 JUMPDEST DUP4 DUP2 LT ISZERO PUSH3 0x1239 JUMPI DUP2 DUP2 ADD MLOAD DUP4 DUP3 ADD MSTORE PUSH1 0x20 ADD PUSH3 0x121F JUMP JUMPDEST POP POP PUSH0 SWAP2 ADD MSTORE JUMP JUMPDEST PUSH32 0x416363657373436F6E74726F6C3A206163636F756E7420000000000000000000 DUP2 MSTORE PUSH0 DUP4 MLOAD PUSH3 0x127A DUP2 PUSH1 0x17 DUP6 ADD PUSH1 0x20 DUP9 ADD PUSH3 0x121D JUMP JUMPDEST PUSH17 0x1034B99036B4B9B9B4B733903937B6329 PUSH1 0x7D SHL PUSH1 0x17 SWAP2 DUP5 ADD SWAP2 DUP3 ADD MSTORE DUP4 MLOAD PUSH3 0x12AD DUP2 PUSH1 0x28 DUP5 ADD PUSH1 0x20 DUP9 ADD PUSH3 0x121D JUMP JUMPDEST ADD PUSH1 0x28 ADD SWAP5 SWAP4 POP POP POP POP JUMP JUMPDEST PUSH0 DUP2 MLOAD DUP1 DUP5 MSTORE PUSH3 0x12D2 DUP2 PUSH1 0x20 DUP7 ADD PUSH1 0x20 DUP7 ADD PUSH3 0x121D JUMP JUMPDEST PUSH1 0x1F ADD PUSH1 0x1F NOT AND SWAP3 SWAP1 SWAP3 ADD PUSH1 0x20 ADD SWAP3 SWAP2 POP POP JUMP JUMPDEST PUSH1 0x20 DUP2 MSTORE PUSH0 PUSH3 0x63F PUSH1 0x20 DUP4 ADD DUP5 PUSH3 0x12B9 JUMP JUMPDEST PUSH4 0x4E487B71 PUSH1 0xE0 SHL PUSH0 MSTORE PUSH1 0x11 PUSH1 0x4 MSTORE PUSH1 0x24 PUSH0 REVERT JUMPDEST DUP1 DUP3 ADD DUP1 DUP3 GT ISZERO PUSH3 0x642 JUMPI PUSH3 0x642 PUSH3 0x12FA JUMP JUMPDEST PUSH0 PUSH1 0x1 DUP3 ADD PUSH3 0x1338 JUMPI PUSH3 0x1338 PUSH3 0x12FA JUMP JUMPDEST POP PUSH1 0x1 ADD SWAP1 JUMP JUMPDEST PUSH1 0x1 PUSH1 0x1 PUSH1 0xA0 SHL SUB DUP6 DUP2 AND DUP3 MSTORE DUP5 AND PUSH1 0x20 DUP3 ADD MSTORE PUSH1 0x40 DUP2 ADD DUP4 SWAP1 MSTORE PUSH1 0x80 PUSH1 0x60 DUP3 ADD DUP2 SWAP1 MSTORE PUSH0 SWAP1 PUSH3 0x1373 SWAP1 DUP4 ADD DUP5 PUSH3 0x12B9 JUMP JUMPDEST SWAP7 SWAP6 POP POP POP POP POP POP JUMP JUMPDEST PUSH0 PUSH1 0x20 DUP3 DUP5 SUB SLT ISZERO PUSH3 0x138E JUMPI PUSH0 DUP1 REVERT JUMPDEST DUP2 MLOAD PUSH1 0x1 PUSH1 0x1 PUSH1 0xE0 SHL SUB NOT DUP2 AND DUP2 EQ PUSH3 0x63F JUMPI PUSH0 DUP1 REVERT JUMPDEST DUP1 DUP3 MUL DUP2 ISZERO DUP3 DUP3 DIV DUP5 EQ OR PUSH3 0x642 JUMPI PUSH3 0x642 PUSH3 0x12FA JUMP JUMPDEST PUSH4 0x4E487B71 PUSH1 0xE0 SHL PUSH0 MSTORE PUSH1 0x32 PUSH1 0x4 MSTORE PUSH1 0x24 PUSH0 REVERT JUMPDEST PUSH0 DUP2 PUSH3 0x13E5 JUMPI PUSH3 0x13E5 PUSH3 0x12FA JUMP JUMPDEST POP PUSH0 NOT ADD SWAP1 JUMP JUMPDEST PUSH1 0x1 PUSH1 0x1 PUSH1 0x40 SHL SUB DUP3 DUP2 AND DUP3 DUP3 AND SUB SWAP1 DUP1 DUP3 GT ISZERO PUSH3 0x140F JUMPI PUSH3 0x140F PUSH3 0x12FA JUMP JUMPDEST POP SWAP3 SWAP2 POP POP JUMP JUMPDEST PUSH1 0x1 PUSH1 0x1 PUSH1 0x40 SHL SUB DUP2 DUP2 AND DUP4 DUP3 AND ADD SWAP1 DUP1 DUP3 GT ISZERO PUSH3 0x140F JUMPI PUSH3 0x140F PUSH3 0x12FA JUMP JUMPDEST PUSH2 0x5BD1 DUP1 PUSH3 0x1447 PUSH0 CODECOPY PUSH0 RETURN INVALID PUSH1 0x80 PUSH1 0x40 MSTORE PUSH1 0x4 CALLDATASIZE LT PUSH2 0x695 JUMPI PUSH0 CALLDATALOAD PUSH1 0xE0 SHR DUP1 PUSH4 0x6C0360EB GT PUSH2 0x369 JUMPI DUP1 PUSH4 0xB5F94D06 GT PUSH2 0x1C8 JUMPI DUP1 PUSH4 0xD6DFAD76 GT PUSH2 0xFD JUMPI DUP1 PUSH4 0xECBA222A GT PUSH2 0x9D JUMPI DUP1 PUSH4 0xF48824DB GT PUSH2 0x78 JUMPI DUP1 PUSH4 0xF48824DB EQ PUSH2 0x13B8 JUMPI DUP1 PUSH4 0xF58F9C66 EQ PUSH2 0x13EE JUMPI DUP1 PUSH4 0xFCD1AAC9 EQ PUSH2 0x140D JUMPI DUP1 PUSH4 0xFF768212 EQ PUSH2 0x142C JUMPI PUSH0 DUP1 REVERT JUMPDEST DUP1 PUSH4 0xECBA222A EQ PUSH2 0x135B JUMPI DUP1 PUSH4 0xF138ABFA EQ PUSH2 0x137A JUMPI DUP1 PUSH4 0xF2FDE38B EQ PUSH2 0x1399 JUMPI PUSH0 DUP1 REVERT JUMPDEST DUP1 PUSH4 0xDA3EF23F GT PUSH2 0xD8 JUMPI DUP1 PUSH4 0xDA3EF23F EQ PUSH2 0x12DF JUMPI DUP1 PUSH4 0xDDECC4D0 EQ PUSH2 0x12FE JUMPI DUP1 PUSH4 0xE39E0269 EQ PUSH2 0x131D JUMPI DUP1 PUSH4 0xE985E9C5 EQ PUSH2 0x133C JUMPI PUSH0 DUP1 REVERT JUMPDEST DUP1 PUSH4 0xD6DFAD76 EQ PUSH2 0x1287 JUMPI DUP1 PUSH4 0xD728312A EQ PUSH2 0x12A7 JUMPI DUP1 PUSH4 0xD96506F9 EQ PUSH2 0x12C6 JUMPI PUSH0 DUP1 REVERT JUMPDEST DUP1 PUSH4 0xC6682862 GT PUSH2 0x168 JUMPI DUP1 PUSH4 0xD04F32D2 GT PUSH2 0x143 JUMPI DUP1 PUSH4 0xD04F32D2 EQ PUSH2 0x11DE JUMPI DUP1 PUSH4 0xD5391393 EQ PUSH2 0x1220 JUMPI DUP1 PUSH4 0xD547741F EQ PUSH2 0x1253 JUMPI DUP1 PUSH4 0xD5ABEB01 EQ PUSH2 0x1272 JUMPI PUSH0 DUP1 REVERT JUMPDEST DUP1 PUSH4 0xC6682862 EQ PUSH2 0x1196 JUMPI DUP1 PUSH4 0xC84C0387 EQ PUSH2 0x11AA JUMPI DUP1 PUSH4 0xC87B56DD EQ PUSH2 0x11BF JUMPI PUSH0 DUP1 REVERT JUMPDEST DUP1 PUSH4 0xBA6269C6 GT PUSH2 0x1A3 JUMPI DUP1 PUSH4 0xBA6269C6 EQ PUSH2 0x1123 JUMPI DUP1 PUSH4 0xBBB89744 EQ PUSH2 0x1143 JUMPI DUP1 PUSH4 0xBEDB86FB EQ PUSH2 0x1158 JUMPI DUP1 PUSH4 0xC5AC58E1 EQ PUSH2 0x1177 JUMPI PUSH0 DUP1 REVERT JUMPDEST DUP1 PUSH4 0xB5F94D06 EQ PUSH2 0x10C6 JUMPI DUP1 PUSH4 0xB88D4FDE EQ PUSH2 0x10E5 JUMPI DUP1 PUSH4 0xB8D1E532 EQ PUSH2 0x1104 JUMPI PUSH0 DUP1 REVERT JUMPDEST DUP1 PUSH4 0x942C9273 GT PUSH2 0x29E JUMPI DUP1 PUSH4 0xA35C23AD GT PUSH2 0x23E JUMPI DUP1 PUSH4 0xAABB9A86 GT PUSH2 0x219 JUMPI DUP1 PUSH4 0xAABB9A86 EQ PUSH2 0x1055 JUMPI DUP1 PUSH4 0xB0CCC31E EQ PUSH2 0x1069 JUMPI DUP1 PUSH4 0xB31391CB EQ PUSH2 0x1087 JUMPI DUP1 PUSH4 0xB51BBBDF EQ PUSH2 0x10B2 JUMPI PUSH0 DUP1 REVERT JUMPDEST DUP1 PUSH4 0xA35C23AD EQ PUSH2 0xFF6 JUMPI DUP1 PUSH4 0xA72193B6 EQ PUSH2 0x1021 JUMPI DUP1 PUSH4 0xA9E2ACD5 EQ PUSH2 0x1036 JUMPI PUSH0 DUP1 REVERT JUMPDEST DUP1 PUSH4 0x981EB344 GT PUSH2 0x279 JUMPI DUP1 PUSH4 0x981EB344 EQ PUSH2 0xF92 JUMPI DUP1 PUSH4 0x99F98898 EQ PUSH2 0xFB1 JUMPI DUP1 PUSH4 0xA217FDDF EQ PUSH2 0xFC4 JUMPI DUP1 PUSH4 0xA22CB465 EQ PUSH2 0xFD7 JUMPI PUSH0 DUP1 REVERT JUMPDEST DUP1 PUSH4 0x942C9273 EQ PUSH2 0xF4B JUMPI DUP1 PUSH4 0x95D89B41 EQ PUSH2 0xF5F JUMPI DUP1 PUSH4 0x9659867E EQ PUSH2 0xF73 JUMPI PUSH0 DUP1 REVERT JUMPDEST DUP1 PUSH4 0x7CB64759 GT PUSH2 0x309 JUMPI DUP1 PUSH4 0x877984CB GT PUSH2 0x2E4 JUMPI DUP1 PUSH4 0x877984CB EQ PUSH2 0xEDA JUMPI DUP1 PUSH4 0x8DA5CB5B EQ PUSH2 0xEF9 JUMPI DUP1 PUSH4 0x8E73CF00 EQ PUSH2 0xF0D JUMPI DUP1 PUSH4 0x91D14854 EQ PUSH2 0xF2C JUMPI PUSH0 DUP1 REVERT JUMPDEST DUP1 PUSH4 0x7CB64759 EQ PUSH2 0xE70 JUMPI DUP1 PUSH4 0x7EE3B2AC EQ PUSH2 0xE8F JUMPI DUP1 PUSH4 0x8462151C EQ PUSH2 0xEAE JUMPI PUSH0 DUP1 REVERT JUMPDEST DUP1 PUSH4 0x715018A6 GT PUSH2 0x344 JUMPI DUP1 PUSH4 0x715018A6 EQ PUSH2 0xE09 JUMPI DUP1 PUSH4 0x72B44D71 EQ PUSH2 0xE1D JUMPI DUP1 PUSH4 0x73EF64FD EQ PUSH2 0xE3C JUMPI DUP1 PUSH4 0x7C3DC173 EQ PUSH2 0xE51 JUMPI PUSH0 DUP1 REVERT JUMPDEST DUP1 PUSH4 0x6C0360EB EQ PUSH2 0xDB7 JUMPI DUP1 PUSH4 0x6F8B44B0 EQ PUSH2 0xDCB JUMPI DUP1 PUSH4 0x70A08231 EQ PUSH2 0xDEA JUMPI PUSH0 DUP1 REVERT JUMPDEST DUP1 PUSH4 0x2A0ACC6A GT PUSH2 0x515 JUMPI DUP1 PUSH4 0x4C45CDA2 GT PUSH2 0x44A JUMPI DUP1 PUSH4 0x599487C3 GT PUSH2 0x3EA JUMPI DUP1 PUSH4 0x6352211E GT PUSH2 0x3C5 JUMPI DUP1 PUSH4 0x6352211E EQ PUSH2 0xD48 JUMPI DUP1 PUSH4 0x674C02AA EQ PUSH2 0xD67 JUMPI DUP1 PUSH4 0x6B1A2B7F EQ PUSH2 0xD85 JUMPI DUP1 PUSH4 0x6B8EE0EC EQ PUSH2 0xD98 JUMPI PUSH0 DUP1 REVERT JUMPDEST DUP1 PUSH4 0x599487C3 EQ PUSH2 0xCFC JUMPI DUP1 PUSH4 0x5C975ABB EQ PUSH2 0xD1B JUMPI DUP1 PUSH4 0x5EF9432A EQ PUSH2 0xD34 JUMPI PUSH0 DUP1 REVERT JUMPDEST DUP1 PUSH4 0x4F3DB346 GT PUSH2 0x425 JUMPI DUP1 PUSH4 0x4F3DB346 EQ PUSH2 0xC85 JUMPI DUP1 PUSH4 0x55CDA898 EQ PUSH2 0xC9A JUMPI DUP1 PUSH4 0x55F804B3 EQ PUSH2 0xCBE JUMPI DUP1 PUSH4 0x5978C012 EQ PUSH2 0xCDD JUMPI PUSH0 DUP1 REVERT JUMPDEST DUP1 PUSH4 0x4C45CDA2 EQ PUSH2 0xC28 JUMPI DUP1 PUSH4 0x4CB110FC EQ PUSH2 0xC47 JUMPI DUP1 PUSH4 0x4E6BF204 EQ PUSH2 0xC66 JUMPI PUSH0 DUP1 REVERT JUMPDEST DUP1 PUSH4 0x3AB1A494 GT PUSH2 0x4B5 JUMPI DUP1 PUSH4 0x42842E0E GT PUSH2 0x490 JUMPI DUP1 PUSH4 0x42842E0E EQ PUSH2 0xB72 JUMPI DUP1 PUSH4 0x44A0D68A EQ PUSH2 0xB91 JUMPI DUP1 PUSH4 0x47705CBC EQ PUSH2 0xBB0 JUMPI DUP1 PUSH4 0x499A15D4 EQ PUSH2 0xBF2 JUMPI PUSH0 DUP1 REVERT JUMPDEST DUP1 PUSH4 0x3AB1A494 EQ PUSH2 0xB32 JUMPI DUP1 PUSH4 0x3CCFD60B EQ PUSH2 0xB51 JUMPI DUP1 PUSH4 0x3CF40DF3 EQ PUSH2 0xB59 JUMPI PUSH0 DUP1 REVERT JUMPDEST DUP1 PUSH4 0x2F2FF15D GT PUSH2 0x4F0 JUMPI DUP1 PUSH4 0x2F2FF15D EQ PUSH2 0xA94 JUMPI DUP1 PUSH4 0x3511CD54 EQ PUSH2 0xAB3 JUMPI DUP1 PUSH4 0x36568ABE EQ PUSH2 0xAF4 JUMPI DUP1 PUSH4 0x396E8F53 EQ PUSH2 0xB13 JUMPI PUSH0 DUP1 REVERT JUMPDEST DUP1 PUSH4 0x2A0ACC6A EQ PUSH2 0xA21 JUMPI DUP1 PUSH4 0x2A55205A EQ PUSH2 0xA41 JUMPI DUP1 PUSH4 0x2EB4A7AB EQ PUSH2 0xA7F JUMPI PUSH0 DUP1 REVERT JUMPDEST DUP1 PUSH4 0x95EA7B3 GT PUSH2 0x5EB JUMPI DUP1 PUSH4 0x1E0FBFA2 GT PUSH2 0x58B JUMPI DUP1 PUSH4 0x23C03085 GT PUSH2 0x566 JUMPI DUP1 PUSH4 0x23C03085 EQ PUSH2 0x982 JUMPI DUP1 PUSH4 0x248A9CA3 EQ PUSH2 0x9A1 JUMPI DUP1 PUSH4 0x279A669E EQ PUSH2 0x9CF JUMPI DUP1 PUSH4 0x282C51F3 EQ PUSH2 0x9EE JUMPI PUSH0 DUP1 REVERT JUMPDEST DUP1 PUSH4 0x1E0FBFA2 EQ PUSH2 0x905 JUMPI DUP1 PUSH4 0x2398F843 EQ PUSH2 0x938 JUMPI DUP1 PUSH4 0x23B872DD EQ PUSH2 0x963 JUMPI PUSH0 DUP1 REVERT JUMPDEST DUP1 PUSH4 0x13FAEDE6 GT PUSH2 0x5C6 JUMPI DUP1 PUSH4 0x13FAEDE6 EQ PUSH2 0x89E JUMPI DUP1 PUSH4 0x1581B600 EQ PUSH2 0x8B3 JUMPI DUP1 PUSH4 0x17DC10C4 EQ PUSH2 0x8D2 JUMPI DUP1 PUSH4 0x18160DDD EQ PUSH2 0x8F1 JUMPI PUSH0 DUP1 REVERT JUMPDEST DUP1 PUSH4 0x95EA7B3 EQ PUSH2 0x84C JUMPI DUP1 PUSH4 0xF4345E2 EQ PUSH2 0x86B JUMPI DUP1 PUSH4 0x135D088D EQ PUSH2 0x88A JUMPI PUSH0 DUP1 REVERT JUMPDEST DUP1 PUSH4 0x25E332E GT PUSH2 0x656 JUMPI DUP1 PUSH4 0x6FDDE03 GT PUSH2 0x631 JUMPI DUP1 PUSH4 0x6FDDE03 EQ PUSH2 0x7C9 JUMPI DUP1 PUSH4 0x7265389 EQ PUSH2 0x7DD JUMPI DUP1 PUSH4 0x730BAF0 EQ PUSH2 0x7F6 JUMPI DUP1 PUSH4 0x81812FC EQ PUSH2 0x815 JUMPI PUSH0 DUP1 REVERT JUMPDEST DUP1 PUSH4 0x25E332E EQ PUSH2 0x76A JUMPI DUP1 PUSH4 0x4634D8D EQ PUSH2 0x78B JUMPI DUP1 PUSH4 0x4787CA2 EQ PUSH2 0x7AA JUMPI PUSH0 DUP1 REVERT JUMPDEST DUP1 PUSH3 0x3EB1E2 EQ PUSH2 0x699 JUMPI DUP1 PUSH3 0x3F332F EQ PUSH2 0x6C7 JUMPI DUP1 PUSH3 0x85BB6F EQ PUSH2 0x6E8 JUMPI DUP1 PUSH3 0x9A9B7B EQ PUSH2 0x708 JUMPI DUP1 PUSH4 0x1340A32 EQ PUSH2 0x72A JUMPI DUP1 PUSH4 0x1FFC9A7 EQ PUSH2 0x74B JUMPI JUMPDEST PUSH0 DUP1 REVERT JUMPDEST CALLVALUE DUP1 ISZERO PUSH2 0x6A4 JUMPI PUSH0 DUP1 REVERT JUMPDEST POP PUSH1 0x28 SLOAD PUSH2 0x6B2 SWAP1 PUSH1 0xFF AND DUP2 JUMP JUMPDEST PUSH1 0x40 MLOAD SWAP1 ISZERO ISZERO DUP2 MSTORE PUSH1 0x20 ADD JUMPDEST PUSH1 0x40 MLOAD DUP1 SWAP2 SUB SWAP1 RETURN JUMPDEST CALLVALUE DUP1 ISZERO PUSH2 0x6D2 JUMPI PUSH0 DUP1 REVERT JUMPDEST POP PUSH2 0x6DB PUSH2 0x144B JUMP JUMPDEST PUSH1 0x40 MLOAD PUSH2 0x6BE SWAP2 SWAP1 PUSH2 0x4D06 JUMP JUMPDEST CALLVALUE DUP1 ISZERO PUSH2 0x6F3 JUMPI PUSH0 DUP1 REVERT JUMPDEST POP PUSH1 0x1A SLOAD PUSH2 0x6B2 SWAP1 PUSH4 0x1000000 SWAP1 DIV PUSH1 0xFF AND DUP2 JUMP JUMPDEST CALLVALUE DUP1 ISZERO PUSH2 0x713 JUMPI PUSH0 DUP1 REVERT JUMPDEST POP PUSH2 0x71C PUSH2 0x145A JUMP JUMPDEST PUSH1 0x40 MLOAD SWAP1 DUP2 MSTORE PUSH1 0x20 ADD PUSH2 0x6BE JUMP JUMPDEST CALLVALUE DUP1 ISZERO PUSH2 0x735 JUMPI PUSH0 DUP1 REVERT JUMPDEST POP PUSH2 0x73E PUSH2 0x1470 JUMP JUMPDEST PUSH1 0x40 MLOAD PUSH2 0x6BE SWAP2 SWAP1 PUSH2 0x4D9F JUMP JUMPDEST CALLVALUE DUP1 ISZERO PUSH2 0x756 JUMPI PUSH0 DUP1 REVERT JUMPDEST POP PUSH2 0x6B2 PUSH2 0x765 CALLDATASIZE PUSH1 0x4 PUSH2 0x4DC6 JUMP JUMPDEST PUSH2 0x14FC JUMP JUMPDEST CALLVALUE DUP1 ISZERO PUSH2 0x775 JUMPI PUSH0 DUP1 REVERT JUMPDEST POP PUSH2 0x789 PUSH2 0x784 CALLDATASIZE PUSH1 0x4 PUSH2 0x4DF7 JUMP JUMPDEST PUSH2 0x152A JUMP JUMPDEST STOP JUMPDEST CALLVALUE DUP1 ISZERO PUSH2 0x796 JUMPI PUSH0 DUP1 REVERT JUMPDEST POP PUSH2 0x789 PUSH2 0x7A5 CALLDATASIZE PUSH1 0x4 PUSH2 0x4E10 JUMP JUMPDEST PUSH2 0x1564 JUMP JUMPDEST CALLVALUE DUP1 ISZERO PUSH2 0x7B5 JUMPI PUSH0 DUP1 REVERT JUMPDEST POP PUSH2 0x789 PUSH2 0x7C4 CALLDATASIZE PUSH1 0x4 PUSH2 0x4EF5 JUMP JUMPDEST PUSH2 0x1576 JUMP JUMPDEST CALLVALUE DUP1 ISZERO PUSH2 0x7D4 JUMPI PUSH0 DUP1 REVERT JUMPDEST POP PUSH2 0x73E PUSH2 0x159E JUMP JUMPDEST CALLVALUE DUP1 ISZERO PUSH2 0x7E8 JUMPI PUSH0 DUP1 REVERT JUMPDEST POP PUSH1 0xF SLOAD PUSH2 0x6B2 SWAP1 PUSH1 0xFF AND DUP2 JUMP JUMPDEST CALLVALUE DUP1 ISZERO PUSH2 0x801 JUMPI PUSH0 DUP1 REVERT JUMPDEST POP PUSH2 0x789 PUSH2 0x810 CALLDATASIZE PUSH1 0x4 PUSH2 0x4F46 JUMP JUMPDEST PUSH2 0x162E JUMP JUMPDEST CALLVALUE DUP1 ISZERO PUSH2 0x820 JUMPI PUSH0 DUP1 REVERT JUMPDEST POP PUSH2 0x834 PUSH2 0x82F CALLDATASIZE PUSH1 0x4 PUSH2 0x4F61 JUMP JUMPDEST PUSH2 0x1659 JUMP JUMPDEST PUSH1 0x40 MLOAD PUSH1 0x1 PUSH1 0x1 PUSH1 0xA0 SHL SUB SWAP1 SWAP2 AND DUP2 MSTORE PUSH1 0x20 ADD PUSH2 0x6BE JUMP JUMPDEST CALLVALUE DUP1 ISZERO PUSH2 0x857 JUMPI PUSH0 DUP1 REVERT JUMPDEST POP PUSH2 0x789 PUSH2 0x866 CALLDATASIZE PUSH1 0x4 PUSH2 0x4F78 JUMP JUMPDEST PUSH2 0x16E7 JUMP JUMPDEST CALLVALUE DUP1 ISZERO PUSH2 0x876 JUMPI PUSH0 DUP1 REVERT JUMPDEST POP PUSH2 0x789 PUSH2 0x885 CALLDATASIZE PUSH1 0x4 PUSH2 0x4F61 JUMP JUMPDEST PUSH2 0x1746 JUMP JUMPDEST CALLVALUE DUP1 ISZERO PUSH2 0x895 JUMPI PUSH0 DUP1 REVERT JUMPDEST POP PUSH2 0x73E PUSH2 0x1763 JUMP JUMPDEST CALLVALUE DUP1 ISZERO PUSH2 0x8A9 JUMPI PUSH0 DUP1 REVERT JUMPDEST POP PUSH2 0x71C PUSH1 0x16 SLOAD DUP2 JUMP JUMPDEST CALLVALUE DUP1 ISZERO PUSH2 0x8BE JUMPI PUSH0 DUP1 REVERT JUMPDEST POP PUSH1 0x15 SLOAD PUSH2 0x834 SWAP1 PUSH1 0x1 PUSH1 0x1 PUSH1 0xA0 SHL SUB AND DUP2 JUMP JUMPDEST CALLVALUE DUP1 ISZERO PUSH2 0x8DD JUMPI PUSH0 DUP1 REVERT JUMPDEST POP PUSH2 0x789 PUSH2 0x8EC CALLDATASIZE PUSH1 0x4 PUSH2 0x4F46 JUMP JUMPDEST PUSH2 0x1770 JUMP JUMPDEST CALLVALUE DUP1 ISZERO PUSH2 0x8FC JUMPI PUSH0 DUP1 REVERT JUMPDEST POP PUSH2 0x71C PUSH2 0x17A2 JUMP JUMPDEST CALLVALUE DUP1 ISZERO PUSH2 0x910 JUMPI PUSH0 DUP1 REVERT JUMPDEST POP PUSH2 0x71C PUSH32 0x3A2F235C9DAAF33349D300AADFF2F15078A89DF81BCFDD45BA11C8F816BDDC6F DUP2 JUMP JUMPDEST CALLVALUE DUP1 ISZERO PUSH2 0x943 JUMPI PUSH0 DUP1 REVERT JUMPDEST POP PUSH2 0x71C PUSH2 0x952 CALLDATASIZE PUSH1 0x4 PUSH2 0x4DF7 JUMP JUMPDEST PUSH1 0x11 PUSH1 0x20 MSTORE PUSH0 SWAP1 DUP2 MSTORE PUSH1 0x40 SWAP1 KECCAK256 SLOAD DUP2 JUMP JUMPDEST CALLVALUE DUP1 ISZERO PUSH2 0x96E JUMPI PUSH0 DUP1 REVERT JUMPDEST POP PUSH2 0x789 PUSH2 0x97D CALLDATASIZE PUSH1 0x4 PUSH2 0x4FA0 JUMP JUMPDEST PUSH2 0x17B3 JUMP JUMPDEST CALLVALUE DUP1 ISZERO PUSH2 0x98D JUMPI PUSH0 DUP1 REVERT JUMPDEST POP PUSH2 0x789 PUSH2 0x99C CALLDATASIZE PUSH1 0x4 PUSH2 0x4DF7 JUMP JUMPDEST PUSH2 0x17DE JUMP JUMPDEST CALLVALUE DUP1 ISZERO PUSH2 0x9AC JUMPI PUSH0 DUP1 REVERT JUMPDEST POP PUSH2 0x71C PUSH2 0x9BB CALLDATASIZE PUSH1 0x4 PUSH2 0x4F61 JUMP JUMPDEST PUSH0 SWAP1 DUP2 MSTORE PUSH1 0x13 PUSH1 0x20 MSTORE PUSH1 0x40 SWAP1 KECCAK256 PUSH1 0x1 ADD SLOAD SWAP1 JUMP JUMPDEST CALLVALUE DUP1 ISZERO PUSH2 0x9DA JUMPI PUSH0 DUP1 REVERT JUMPDEST POP PUSH2 0x789 PUSH2 0x9E9 CALLDATASIZE PUSH1 0x4 PUSH2 0x509E JUMP JUMPDEST PUSH2 0x1818 JUMP JUMPDEST CALLVALUE DUP1 ISZERO PUSH2 0x9F9 JUMPI PUSH0 DUP1 REVERT JUMPDEST POP PUSH2 0x71C PUSH32 0x3C11D16CBAFFD01DF69CE1C404F6340EE057498F5F00246190EA54220576A848 DUP2 JUMP JUMPDEST CALLVALUE DUP1 ISZERO PUSH2 0xA2C JUMPI PUSH0 DUP1 REVERT JUMPDEST POP PUSH2 0x71C PUSH0 DUP1 MLOAD PUSH1 0x20 PUSH2 0x5A7C DUP4 CODECOPY DUP2 MLOAD SWAP2 MSTORE DUP2 JUMP JUMPDEST CALLVALUE DUP1 ISZERO PUSH2 0xA4C JUMPI PUSH0 DUP1 REVERT JUMPDEST POP PUSH2 0xA60 PUSH2 0xA5B CALLDATASIZE PUSH1 0x4 PUSH2 0x5101 JUMP JUMPDEST PUSH2 0x1A21 JUMP JUMPDEST PUSH1 0x40 DUP1 MLOAD PUSH1 0x1 PUSH1 0x1 PUSH1 0xA0 SHL SUB SWAP1 SWAP4 AND DUP4 MSTORE PUSH1 0x20 DUP4 ADD SWAP2 SWAP1 SWAP2 MSTORE ADD PUSH2 0x6BE JUMP JUMPDEST CALLVALUE DUP1 ISZERO PUSH2 0xA8A JUMPI PUSH0 DUP1 REVERT JUMPDEST POP PUSH2 0x71C PUSH1 0x1C SLOAD DUP2 JUMP JUMPDEST CALLVALUE DUP1 ISZERO PUSH2 0xA9F JUMPI PUSH0 DUP1 REVERT JUMPDEST POP PUSH2 0x789 PUSH2 0xAAE CALLDATASIZE PUSH1 0x4 PUSH2 0x5121 JUMP JUMPDEST PUSH2 0x1ACD JUMP JUMPDEST CALLVALUE DUP1 ISZERO PUSH2 0xABE JUMPI PUSH0 DUP1 REVERT JUMPDEST POP PUSH2 0x71C PUSH2 0xACD CALLDATASIZE PUSH1 0x4 PUSH2 0x5121 JUMP JUMPDEST PUSH0 SWAP2 DUP3 MSTORE PUSH1 0x1E PUSH1 0x20 SWAP1 DUP2 MSTORE PUSH1 0x40 DUP1 DUP5 KECCAK256 PUSH1 0x1 PUSH1 0x1 PUSH1 0xA0 SHL SUB SWAP4 SWAP1 SWAP4 AND DUP5 MSTORE SWAP2 SWAP1 MSTORE SWAP1 KECCAK256 SLOAD SWAP1 JUMP JUMPDEST CALLVALUE DUP1 ISZERO PUSH2 0xAFF JUMPI PUSH0 DUP1 REVERT JUMPDEST POP PUSH2 0x789 PUSH2 0xB0E CALLDATASIZE PUSH1 0x4 PUSH2 0x5121 JUMP JUMPDEST PUSH2 0x1AF1 JUMP JUMPDEST CALLVALUE DUP1 ISZERO PUSH2 0xB1E JUMPI PUSH0 DUP1 REVERT JUMPDEST POP PUSH1 0xC SLOAD PUSH2 0x834 SWAP1 PUSH1 0x1 PUSH1 0x1 PUSH1 0xA0 SHL SUB AND DUP2 JUMP JUMPDEST CALLVALUE DUP1 ISZERO PUSH2 0xB3D JUMPI PUSH0 DUP1 REVERT JUMPDEST POP PUSH2 0x789 PUSH2 0xB4C CALLDATASIZE PUSH1 0x4 PUSH2 0x4DF7 JUMP JUMPDEST PUSH2 0x1B6B JUMP JUMPDEST PUSH2 0x789 PUSH2 0x1B95 JUMP JUMPDEST CALLVALUE DUP1 ISZERO PUSH2 0xB64 JUMPI PUSH0 DUP1 REVERT JUMPDEST POP PUSH1 0x2A SLOAD PUSH2 0x6B2 SWAP1 PUSH1 0xFF AND DUP2 JUMP JUMPDEST CALLVALUE DUP1 ISZERO PUSH2 0xB7D JUMPI PUSH0 DUP1 REVERT JUMPDEST POP PUSH2 0x789 PUSH2 0xB8C CALLDATASIZE PUSH1 0x4 PUSH2 0x4FA0 JUMP JUMPDEST PUSH2 0x1BFC JUMP JUMPDEST CALLVALUE DUP1 ISZERO PUSH2 0xB9C JUMPI PUSH0 DUP1 REVERT JUMPDEST POP PUSH2 0x789 PUSH2 0xBAB CALLDATASIZE PUSH1 0x4 PUSH2 0x4F61 JUMP JUMPDEST PUSH2 0x1C21 JUMP JUMPDEST CALLVALUE DUP1 ISZERO PUSH2 0xBBB JUMPI PUSH0 DUP1 REVERT JUMPDEST POP PUSH2 0x71C PUSH2 0xBCA CALLDATASIZE PUSH1 0x4 PUSH2 0x4DF7 JUMP JUMPDEST PUSH1 0x1D SLOAD PUSH0 SWAP1 DUP2 MSTORE PUSH1 0x1E PUSH1 0x20 SWAP1 DUP2 MSTORE PUSH1 0x40 DUP1 DUP4 KECCAK256 PUSH1 0x1 PUSH1 0x1 PUSH1 0xA0 SHL SUB SWAP1 SWAP5 AND DUP4 MSTORE SWAP3 SWAP1 MSTORE KECCAK256 SLOAD SWAP1 JUMP JUMPDEST CALLVALUE DUP1 ISZERO PUSH2 0xBFD JUMPI PUSH0 DUP1 REVERT JUMPDEST POP PUSH2 0x71C PUSH2 0xC0C CALLDATASIZE PUSH1 0x4 PUSH2 0x5121 JUMP JUMPDEST PUSH1 0x1F PUSH1 0x20 SWAP1 DUP2 MSTORE PUSH0 SWAP3 DUP4 MSTORE PUSH1 0x40 DUP1 DUP5 KECCAK256 SWAP1 SWAP2 MSTORE SWAP1 DUP3 MSTORE SWAP1 KECCAK256 SLOAD DUP2 JUMP JUMPDEST CALLVALUE DUP1 ISZERO PUSH2 0xC33 JUMPI PUSH0 DUP1 REVERT JUMPDEST POP PUSH2 0x789 PUSH2 0xC42 CALLDATASIZE PUSH1 0x4 PUSH2 0x4F46 JUMP JUMPDEST PUSH2 0x1C3E JUMP JUMPDEST CALLVALUE DUP1 ISZERO PUSH2 0xC52 JUMPI PUSH0 DUP1 REVERT JUMPDEST POP PUSH2 0x789 PUSH2 0xC61 CALLDATASIZE PUSH1 0x4 PUSH2 0x4F46 JUMP JUMPDEST PUSH2 0x1C69 JUMP JUMPDEST CALLVALUE DUP1 ISZERO PUSH2 0xC71 JUMPI PUSH0 DUP1 REVERT JUMPDEST POP PUSH2 0x789 PUSH2 0xC80 CALLDATASIZE PUSH1 0x4 PUSH2 0x514B JUMP JUMPDEST PUSH2 0x1C94 JUMP JUMPDEST CALLVALUE DUP1 ISZERO PUSH2 0xC90 JUMPI PUSH0 DUP1 REVERT JUMPDEST POP PUSH2 0x71C PUSH1 0x12 SLOAD DUP2 JUMP JUMPDEST CALLVALUE DUP1 ISZERO PUSH2 0xCA5 JUMPI PUSH0 DUP1 REVERT JUMPDEST POP PUSH1 0x20 SLOAD PUSH2 0x834 SWAP1 PUSH2 0x100 SWAP1 DIV PUSH1 0x1 PUSH1 0x1 PUSH1 0xA0 SHL SUB AND DUP2 JUMP JUMPDEST CALLVALUE DUP1 ISZERO PUSH2 0xCC9 JUMPI PUSH0 DUP1 REVERT JUMPDEST POP PUSH2 0x789 PUSH2 0xCD8 CALLDATASIZE PUSH1 0x4 PUSH2 0x4EF5 JUMP JUMPDEST PUSH2 0x1D3F JUMP JUMPDEST CALLVALUE DUP1 ISZERO PUSH2 0xCE8 JUMPI PUSH0 DUP1 REVERT JUMPDEST POP PUSH2 0x789 PUSH2 0xCF7 CALLDATASIZE PUSH1 0x4 PUSH2 0x5204 JUMP JUMPDEST PUSH2 0x1D62 JUMP JUMPDEST CALLVALUE DUP1 ISZERO PUSH2 0xD07 JUMPI PUSH0 DUP1 REVERT JUMPDEST POP PUSH2 0x789 PUSH2 0xD16 CALLDATASIZE PUSH1 0x4 PUSH2 0x4EF5 JUMP JUMPDEST PUSH2 0x1E86 JUMP JUMPDEST CALLVALUE DUP1 ISZERO PUSH2 0xD26 JUMPI PUSH0 DUP1 REVERT JUMPDEST POP PUSH1 0x1A SLOAD PUSH2 0x6B2 SWAP1 PUSH1 0xFF AND DUP2 JUMP JUMPDEST CALLVALUE DUP1 ISZERO PUSH2 0xD3F JUMPI PUSH0 DUP1 REVERT JUMPDEST POP PUSH2 0x789 PUSH2 0x1EA9 JUMP JUMPDEST CALLVALUE DUP1 ISZERO PUSH2 0xD53 JUMPI PUSH0 DUP1 REVERT JUMPDEST POP PUSH2 0x834 PUSH2 0xD62 CALLDATASIZE PUSH1 0x4 PUSH2 0x4F61 JUMP JUMPDEST PUSH2 0x1F4A JUMP JUMPDEST CALLVALUE DUP1 ISZERO PUSH2 0xD72 JUMPI PUSH0 DUP1 REVERT JUMPDEST POP PUSH1 0x1A SLOAD PUSH2 0x6B2 SWAP1 PUSH2 0x100 SWAP1 DIV PUSH1 0xFF AND DUP2 JUMP JUMPDEST PUSH2 0x789 PUSH2 0xD93 CALLDATASIZE PUSH1 0x4 PUSH2 0x5235 JUMP JUMPDEST PUSH2 0x1F5D JUMP JUMPDEST CALLVALUE DUP1 ISZERO PUSH2 0xDA3 JUMPI PUSH0 DUP1 REVERT JUMPDEST POP PUSH2 0x789 PUSH2 0xDB2 CALLDATASIZE PUSH1 0x4 PUSH2 0x4F46 JUMP JUMPDEST PUSH2 0x253C JUMP JUMPDEST CALLVALUE DUP1 ISZERO PUSH2 0xDC2 JUMPI PUSH0 DUP1 REVERT JUMPDEST POP PUSH2 0x73E PUSH2 0x2572 JUMP JUMPDEST CALLVALUE DUP1 ISZERO PUSH2 0xDD6 JUMPI PUSH0 DUP1 REVERT JUMPDEST POP PUSH2 0x789 PUSH2 0xDE5 CALLDATASIZE PUSH1 0x4 PUSH2 0x4F61 JUMP JUMPDEST PUSH2 0x257F JUMP JUMPDEST CALLVALUE DUP1 ISZERO PUSH2 0xDF5 JUMPI PUSH0 DUP1 REVERT JUMPDEST POP PUSH2 0x71C PUSH2 0xE04 CALLDATASIZE PUSH1 0x4 PUSH2 0x4DF7 JUMP JUMPDEST PUSH2 0x259C JUMP JUMPDEST CALLVALUE DUP1 ISZERO PUSH2 0xE14 JUMPI PUSH0 DUP1 REVERT JUMPDEST POP PUSH2 0x789 PUSH2 0x262D JUMP JUMPDEST CALLVALUE DUP1 ISZERO PUSH2 0xE28 JUMPI PUSH0 DUP1 REVERT JUMPDEST POP PUSH2 0x789 PUSH2 0xE37 CALLDATASIZE PUSH1 0x4 PUSH2 0x4DF7 JUMP JUMPDEST PUSH2 0x2640 JUMP JUMPDEST CALLVALUE DUP1 ISZERO PUSH2 0xE47 JUMPI PUSH0 DUP1 REVERT JUMPDEST POP PUSH2 0x71C PUSH1 0x19 SLOAD DUP2 JUMP JUMPDEST CALLVALUE DUP1 ISZERO PUSH2 0xE5C JUMPI PUSH0 DUP1 REVERT JUMPDEST POP PUSH2 0x789 PUSH2 0xE6B CALLDATASIZE PUSH1 0x4 PUSH2 0x5101 JUMP JUMPDEST PUSH2 0x2660 JUMP JUMPDEST CALLVALUE DUP1 ISZERO PUSH2 0xE7B JUMPI PUSH0 DUP1 REVERT JUMPDEST POP PUSH2 0x789 PUSH2 0xE8A CALLDATASIZE PUSH1 0x4 PUSH2 0x4F61 JUMP JUMPDEST PUSH2 0x26EF JUMP JUMPDEST CALLVALUE DUP1 ISZERO PUSH2 0xE9A JUMPI PUSH0 DUP1 REVERT JUMPDEST POP PUSH2 0x789 PUSH2 0xEA9 CALLDATASIZE PUSH1 0x4 PUSH2 0x4F61 JUMP JUMPDEST PUSH2 0x270C JUMP JUMPDEST CALLVALUE DUP1 ISZERO PUSH2 0xEB9 JUMPI PUSH0 DUP1 REVERT JUMPDEST POP PUSH2 0xECD PUSH2 0xEC8 CALLDATASIZE PUSH1 0x4 PUSH2 0x4DF7 JUMP JUMPDEST PUSH2 0x277A JUMP JUMPDEST PUSH1 0x40 MLOAD PUSH2 0x6BE SWAP2 SWAP1 PUSH2 0x528A JUMP JUMPDEST CALLVALUE DUP1 ISZERO PUSH2 0xEE5 JUMPI PUSH0 DUP1 REVERT JUMPDEST POP PUSH1 0x23 SLOAD PUSH2 0x834 SWAP1 PUSH1 0x1 PUSH1 0x1 PUSH1 0xA0 SHL SUB AND DUP2 JUMP JUMPDEST CALLVALUE DUP1 ISZERO PUSH2 0xF04 JUMPI PUSH0 DUP1 REVERT JUMPDEST POP PUSH2 0x834 PUSH2 0x283D JUMP JUMPDEST CALLVALUE DUP1 ISZERO PUSH2 0xF18 JUMPI PUSH0 DUP1 REVERT JUMPDEST POP PUSH2 0x789 PUSH2 0xF27 CALLDATASIZE PUSH1 0x4 PUSH2 0x4F46 JUMP JUMPDEST PUSH2 0x2850 JUMP JUMPDEST CALLVALUE DUP1 ISZERO PUSH2 0xF37 JUMPI PUSH0 DUP1 REVERT JUMPDEST POP PUSH2 0x6B2 PUSH2 0xF46 CALLDATASIZE PUSH1 0x4 PUSH2 0x5121 JUMP JUMPDEST PUSH2 0x2884 JUMP JUMPDEST CALLVALUE DUP1 ISZERO PUSH2 0xF56 JUMPI PUSH0 DUP1 REVERT JUMPDEST POP PUSH2 0x73E PUSH2 0x28AE JUMP JUMPDEST CALLVALUE DUP1 ISZERO PUSH2 0xF6A JUMPI PUSH0 DUP1 REVERT JUMPDEST POP PUSH2 0x73E PUSH2 0x28BB JUMP JUMPDEST CALLVALUE DUP1 ISZERO PUSH2 0xF7E JUMPI PUSH0 DUP1 REVERT JUMPDEST POP PUSH1 0x1A SLOAD PUSH2 0x6B2 SWAP1 PUSH3 0x10000 SWAP1 DIV PUSH1 0xFF AND DUP2 JUMP JUMPDEST CALLVALUE DUP1 ISZERO PUSH2 0xF9D JUMPI PUSH0 DUP1 REVERT JUMPDEST POP PUSH2 0x789 PUSH2 0xFAC CALLDATASIZE PUSH1 0x4 PUSH2 0x4EF5 JUMP JUMPDEST PUSH2 0x28CA JUMP JUMPDEST PUSH2 0x789 PUSH2 0xFBF CALLDATASIZE PUSH1 0x4 PUSH2 0x4F78 JUMP JUMPDEST PUSH2 0x28ED JUMP JUMPDEST CALLVALUE DUP1 ISZERO PUSH2 0xFCF JUMPI PUSH0 DUP1 REVERT JUMPDEST POP PUSH2 0x71C PUSH0 DUP2 JUMP JUMPDEST CALLVALUE DUP1 ISZERO PUSH2 0xFE2 JUMPI PUSH0 DUP1 REVERT JUMPDEST POP PUSH2 0x789 PUSH2 0xFF1 CALLDATASIZE PUSH1 0x4 PUSH2 0x52C1 JUMP JUMPDEST PUSH2 0x29A7 JUMP JUMPDEST CALLVALUE DUP1 ISZERO PUSH2 0x1001 JUMPI PUSH0 DUP1 REVERT JUMPDEST POP PUSH2 0x789 PUSH2 0x1010 CALLDATASIZE PUSH1 0x4 PUSH2 0x4F61 JUMP JUMPDEST CALLER PUSH0 SWAP1 DUP2 MSTORE PUSH1 0x11 PUSH1 0x20 MSTORE PUSH1 0x40 SWAP1 KECCAK256 SSTORE JUMP JUMPDEST CALLVALUE DUP1 ISZERO PUSH2 0x102C JUMPI PUSH0 DUP1 REVERT JUMPDEST POP PUSH2 0x71C PUSH1 0x1B SLOAD DUP2 JUMP JUMPDEST CALLVALUE DUP1 ISZERO PUSH2 0x1041 JUMPI PUSH0 DUP1 REVERT JUMPDEST POP PUSH2 0x789 PUSH2 0x1050 CALLDATASIZE PUSH1 0x4 PUSH2 0x4F61 JUMP JUMPDEST PUSH2 0x2A17 JUMP JUMPDEST CALLVALUE DUP1 ISZERO PUSH2 0x1060 JUMPI PUSH0 DUP1 REVERT JUMPDEST POP PUSH2 0x73E PUSH2 0x2A34 JUMP JUMPDEST CALLVALUE DUP1 ISZERO PUSH2 0x1074 JUMPI PUSH0 DUP1 REVERT JUMPDEST POP PUSH0 SLOAD PUSH2 0x834 SWAP1 PUSH1 0x1 PUSH1 0x1 PUSH1 0xA0 SHL SUB AND DUP2 JUMP JUMPDEST CALLVALUE DUP1 ISZERO PUSH2 0x1092 JUMPI PUSH0 DUP1 REVERT JUMPDEST POP PUSH2 0x71C PUSH2 0x10A1 CALLDATASIZE PUSH1 0x4 PUSH2 0x4F61 JUMP JUMPDEST PUSH1 0x10 PUSH1 0x20 MSTORE PUSH0 SWAP1 DUP2 MSTORE PUSH1 0x40 SWAP1 KECCAK256 SLOAD DUP2 JUMP JUMPDEST CALLVALUE DUP1 ISZERO PUSH2 0x10BD JUMPI PUSH0 DUP1 REVERT JUMPDEST POP PUSH2 0x73E PUSH2 0x2A41 JUMP JUMPDEST CALLVALUE DUP1 ISZERO PUSH2 0x10D1 JUMPI PUSH0 DUP1 REVERT JUMPDEST POP PUSH2 0x789 PUSH2 0x10E0 CALLDATASIZE PUSH1 0x4 PUSH2 0x4F61 JUMP JUMPDEST PUSH2 0x2A4E JUMP JUMPDEST CALLVALUE DUP1 ISZERO PUSH2 0x10F0 JUMPI PUSH0 DUP1 REVERT JUMPDEST POP PUSH2 0x789 PUSH2 0x10FF CALLDATASIZE PUSH1 0x4 PUSH2 0x52EB JUMP JUMPDEST PUSH2 0x2A6B JUMP JUMPDEST CALLVALUE DUP1 ISZERO PUSH2 0x110F JUMPI PUSH0 DUP1 REVERT JUMPDEST POP PUSH2 0x789 PUSH2 0x111E CALLDATASIZE PUSH1 0x4 PUSH2 0x4DF7 JUMP JUMPDEST PUSH2 0x2A91 JUMP JUMPDEST CALLVALUE DUP1 ISZERO PUSH2 0x112E JUMPI PUSH0 DUP1 REVERT JUMPDEST POP PUSH1 0x23 SLOAD PUSH2 0x6B2 SWAP1 PUSH1 0x1 PUSH1 0xA0 SHL SWAP1 DIV PUSH1 0xFF AND DUP2 JUMP JUMPDEST CALLVALUE DUP1 ISZERO PUSH2 0x114E JUMPI PUSH0 DUP1 REVERT JUMPDEST POP PUSH2 0x71C PUSH1 0x18 SLOAD DUP2 JUMP JUMPDEST CALLVALUE DUP1 ISZERO PUSH2 0x1163 JUMPI PUSH0 DUP1 REVERT JUMPDEST POP PUSH2 0x789 PUSH2 0x1172 CALLDATASIZE PUSH1 0x4 PUSH2 0x4F46 JUMP JUMPDEST PUSH2 0x2B47 JUMP JUMPDEST CALLVALUE DUP1 ISZERO PUSH2 0x1182 JUMPI PUSH0 DUP1 REVERT JUMPDEST POP PUSH2 0x789 PUSH2 0x1191 CALLDATASIZE PUSH1 0x4 PUSH2 0x4EF5 JUMP JUMPDEST PUSH2 0x2B72 JUMP JUMPDEST CALLVALUE DUP1 ISZERO PUSH2 0x11A1 JUMPI PUSH0 DUP1 REVERT JUMPDEST POP PUSH2 0x73E PUSH2 0x2B95 JUMP JUMPDEST CALLVALUE DUP1 ISZERO PUSH2 0x11B5 JUMPI PUSH0 DUP1 REVERT JUMPDEST POP PUSH2 0x71C PUSH1 0x1D SLOAD DUP2 JUMP JUMPDEST CALLVALUE DUP1 ISZERO PUSH2 0x11CA JUMPI PUSH0 DUP1 REVERT JUMPDEST POP PUSH2 0x73E PUSH2 0x11D9 CALLDATASIZE PUSH1 0x4 PUSH2 0x4F61 JUMP JUMPDEST PUSH2 0x2BA2 JUMP JUMPDEST CALLVALUE DUP1 ISZERO PUSH2 0x11E9 JUMPI PUSH0 DUP1 REVERT JUMPDEST POP PUSH2 0x71C PUSH2 0x11F8 CALLDATASIZE PUSH1 0x4 PUSH2 0x4DF7 JUMP JUMPDEST PUSH1 0x1D SLOAD PUSH0 SWAP1 DUP2 MSTORE PUSH1 0x1F PUSH1 0x20 SWAP1 DUP2 MSTORE PUSH1 0x40 DUP1 DUP4 KECCAK256 PUSH1 0x1 PUSH1 0x1 PUSH1 0xA0 SHL SUB SWAP1 SWAP5 AND DUP4 MSTORE SWAP3 SWAP1 MSTORE KECCAK256 SLOAD SWAP1 JUMP JUMPDEST CALLVALUE DUP1 ISZERO PUSH2 0x122B JUMPI PUSH0 DUP1 REVERT JUMPDEST POP PUSH2 0x71C PUSH32 0x9F2DF0FED2C77648DE5860A4CC508CD0818C85B8B8A1AB4CEEEF8D981C8956A6 DUP2 JUMP JUMPDEST CALLVALUE DUP1 ISZERO PUSH2 0x125E JUMPI PUSH0 DUP1 REVERT JUMPDEST POP PUSH2 0x789 PUSH2 0x126D CALLDATASIZE PUSH1 0x4 PUSH2 0x5121 JUMP JUMPDEST PUSH2 0x2CFC JUMP JUMPDEST CALLVALUE DUP1 ISZERO PUSH2 0x127D JUMPI PUSH0 DUP1 REVERT JUMPDEST POP PUSH2 0x71C PUSH1 0x17 SLOAD DUP2 JUMP JUMPDEST CALLVALUE DUP1 ISZERO PUSH2 0x1292 JUMPI PUSH0 DUP1 REVERT JUMPDEST POP PUSH1 0x23 SLOAD PUSH2 0x6B2 SWAP1 PUSH1 0x1 PUSH1 0xA8 SHL SWAP1 DIV PUSH1 0xFF AND DUP2 JUMP JUMPDEST CALLVALUE DUP1 ISZERO PUSH2 0x12B2 JUMPI PUSH0 DUP1 REVERT JUMPDEST POP PUSH2 0x789 PUSH2 0x12C1 CALLDATASIZE PUSH1 0x4 PUSH2 0x4F61 JUMP JUMPDEST PUSH2 0x2D20 JUMP JUMPDEST CALLVALUE DUP1 ISZERO PUSH2 0x12D1 JUMPI PUSH0 DUP1 REVERT JUMPDEST POP PUSH1 0x20 SLOAD PUSH2 0x6B2 SWAP1 PUSH1 0xFF AND DUP2 JUMP JUMPDEST CALLVALUE DUP1 ISZERO PUSH2 0x12EA JUMPI PUSH0 DUP1 REVERT JUMPDEST POP PUSH2 0x789 PUSH2 0x12F9 CALLDATASIZE PUSH1 0x4 PUSH2 0x4EF5 JUMP JUMPDEST PUSH2 0x2D3D JUMP JUMPDEST CALLVALUE DUP1 ISZERO PUSH2 0x1309 JUMPI PUSH0 DUP1 REVERT JUMPDEST POP PUSH2 0x789 PUSH2 0x1318 CALLDATASIZE PUSH1 0x4 PUSH2 0x4EF5 JUMP JUMPDEST PUSH2 0x2D60 JUMP JUMPDEST CALLVALUE DUP1 ISZERO PUSH2 0x1328 JUMPI PUSH0 DUP1 REVERT JUMPDEST POP PUSH2 0x789 PUSH2 0x1337 CALLDATASIZE PUSH1 0x4 PUSH2 0x4F46 JUMP JUMPDEST PUSH2 0x2D83 JUMP JUMPDEST CALLVALUE DUP1 ISZERO PUSH2 0x1347 JUMPI PUSH0 DUP1 REVERT JUMPDEST POP PUSH2 0x6B2 PUSH2 0x1356 CALLDATASIZE PUSH1 0x4 PUSH2 0x5361 JUMP JUMPDEST PUSH2 0x2DB9 JUMP JUMPDEST CALLVALUE DUP1 ISZERO PUSH2 0x1366 JUMPI PUSH0 DUP1 REVERT JUMPDEST POP PUSH0 SLOAD PUSH2 0x6B2 SWAP1 PUSH1 0x1 PUSH1 0xA0 SHL SWAP1 DIV PUSH1 0xFF AND DUP2 JUMP JUMPDEST CALLVALUE DUP1 ISZERO PUSH2 0x1385 JUMPI PUSH0 DUP1 REVERT JUMPDEST POP PUSH2 0x789 PUSH2 0x1394 CALLDATASIZE PUSH1 0x4 PUSH2 0x4F46 JUMP JUMPDEST PUSH2 0x2E03 JUMP JUMPDEST CALLVALUE DUP1 ISZERO PUSH2 0x13A4 JUMPI PUSH0 DUP1 REVERT JUMPDEST POP PUSH2 0x789 PUSH2 0x13B3 CALLDATASIZE PUSH1 0x4 PUSH2 0x4DF7 JUMP JUMPDEST PUSH2 0x2E39 JUMP JUMPDEST CALLVALUE DUP1 ISZERO PUSH2 0x13C3 JUMPI PUSH0 DUP1 REVERT JUMPDEST POP PUSH2 0x71C PUSH2 0x13D2 CALLDATASIZE PUSH1 0x4 PUSH2 0x5121 JUMP JUMPDEST PUSH1 0x1E PUSH1 0x20 SWAP1 DUP2 MSTORE PUSH0 SWAP3 DUP4 MSTORE PUSH1 0x40 DUP1 DUP5 KECCAK256 SWAP1 SWAP2 MSTORE SWAP1 DUP3 MSTORE SWAP1 KECCAK256 SLOAD DUP2 JUMP JUMPDEST CALLVALUE DUP1 ISZERO PUSH2 0x13F9 JUMPI PUSH0 DUP1 REVERT JUMPDEST POP PUSH2 0x789 PUSH2 0x1408 CALLDATASIZE PUSH1 0x4 PUSH2 0x4DF7 JUMP JUMPDEST PUSH2 0x2EAF JUMP JUMPDEST CALLVALUE DUP1 ISZERO PUSH2 0x1418 JUMPI PUSH0 DUP1 REVERT JUMPDEST POP PUSH2 0x789 PUSH2 0x1427 CALLDATASIZE PUSH1 0x4 PUSH2 0x4F46 JUMP JUMPDEST PUSH2 0x2EEF JUMP JUMPDEST CALLVALUE DUP1 ISZERO PUSH2 0x1437 JUMPI PUSH0 DUP1 REVERT JUMPDEST POP PUSH2 0x789 PUSH2 0x1446 CALLDATASIZE PUSH1 0x4 PUSH2 0x4DF7 JUMP JUMPDEST PUSH2 0x2F1A JUMP JUMPDEST PUSH1 0x60 PUSH2 0x1455 PUSH2 0x2F3A JUMP JUMPDEST SWAP1 POP SWAP1 JUMP JUMPDEST PUSH0 PUSH1 0x1 PUSH2 0x1466 PUSH1 0x8 SLOAD SWAP1 JUMP JUMPDEST PUSH2 0x1455 SWAP2 SWAP1 PUSH2 0x539D JUMP JUMPDEST PUSH1 0x27 DUP1 SLOAD PUSH2 0x147D SWAP1 PUSH2 0x53B0 JUMP JUMPDEST DUP1 PUSH1 0x1F ADD PUSH1 0x20 DUP1 SWAP2 DIV MUL PUSH1 0x20 ADD PUSH1 0x40 MLOAD SWAP1 DUP2 ADD PUSH1 0x40 MSTORE DUP1 SWAP3 SWAP2 SWAP1 DUP2 DUP2 MSTORE PUSH1 0x20 ADD DUP3 DUP1 SLOAD PUSH2 0x14A9 SWAP1 PUSH2 0x53B0 JUMP JUMPDEST DUP1 ISZERO PUSH2 0x14F4 JUMPI DUP1 PUSH1 0x1F LT PUSH2 0x14CB JUMPI PUSH2 0x100 DUP1 DUP4 SLOAD DIV MUL DUP4 MSTORE SWAP2 PUSH1 0x20 ADD SWAP2 PUSH2 0x14F4 JUMP JUMPDEST DUP3 ADD SWAP2 SWAP1 PUSH0 MSTORE PUSH1 0x20 PUSH0 KECCAK256 SWAP1 JUMPDEST DUP2 SLOAD DUP2 MSTORE SWAP1 PUSH1 0x1 ADD SWAP1 PUSH1 0x20 ADD DUP1 DUP4 GT PUSH2 0x14D7 JUMPI DUP3 SWAP1 SUB PUSH1 0x1F AND DUP3 ADD SWAP2 JUMPDEST POP POP POP POP POP DUP2 JUMP JUMPDEST PUSH0 PUSH2 0x1506 DUP3 PUSH2 0x2F46 JUMP JUMPDEST DUP1 PUSH2 0x1515 JUMPI POP PUSH2 0x1515 DUP3 PUSH2 0x2F7A JUMP JUMPDEST DUP1 PUSH2 0x1524 JUMPI POP PUSH2 0x1524 DUP3 PUSH2 0x2F9A JUMP JUMPDEST SWAP3 SWAP2 POP POP JUMP JUMPDEST PUSH0 DUP1 MLOAD PUSH1 0x20 PUSH2 0x5A7C DUP4 CODECOPY DUP2 MLOAD SWAP2 MSTORE PUSH2 0x1541 DUP2 PUSH2 0x2FBE JUMP JUMPDEST PUSH1 0xC DUP1 SLOAD PUSH1 0x1 PUSH1 0x1 PUSH1 0xA0 SHL SUB NOT AND PUSH1 0x1 PUSH1 0x1 PUSH1 0xA0 SHL SUB DUP5 AND OR SWAP1 SSTORE POP POP JUMP JUMPDEST POP POP JUMP JUMPDEST PUSH2 0x156C PUSH2 0x2FC8 JUMP JUMPDEST PUSH2 0x1560 DUP3 DUP3 PUSH2 0x3027 JUMP JUMPDEST PUSH0 DUP1 MLOAD PUSH1 0x20 PUSH2 0x5A7C DUP4 CODECOPY DUP2 MLOAD SWAP2 MSTORE PUSH2 0x158D DUP2 PUSH2 0x2FBE JUMP JUMPDEST PUSH1 0x24 PUSH2 0x1599 DUP4 DUP3 PUSH2 0x542D JUMP JUMPDEST POP POP POP JUMP JUMPDEST PUSH1 0x60 PUSH1 0x5 DUP1 SLOAD PUSH2 0x15AD SWAP1 PUSH2 0x53B0 JUMP JUMPDEST DUP1 PUSH1 0x1F ADD PUSH1 0x20 DUP1 SWAP2 DIV MUL PUSH1 0x20 ADD PUSH1 0x40 MLOAD SWAP1 DUP2 ADD PUSH1 0x40 MSTORE DUP1 SWAP3 SWAP2 SWAP1 DUP2 DUP2 MSTORE PUSH1 0x20 ADD DUP3 DUP1 SLOAD PUSH2 0x15D9 SWAP1 PUSH2 0x53B0 JUMP JUMPDEST DUP1 ISZERO PUSH2 0x1624 JUMPI DUP1 PUSH1 0x1F LT PUSH2 0x15FB JUMPI PUSH2 0x100 DUP1 DUP4 SLOAD DIV MUL DUP4 MSTORE SWAP2 PUSH1 0x20 ADD SWAP2 PUSH2 0x1624 JUMP JUMPDEST DUP3 ADD SWAP2 SWAP1 PUSH0 MSTORE PUSH1 0x20 PUSH0 KECCAK256 SWAP1 JUMPDEST DUP2 SLOAD DUP2 MSTORE SWAP1 PUSH1 0x1 ADD SWAP1 PUSH1 0x20 ADD DUP1 DUP4 GT PUSH2 0x1607 JUMPI DUP3 SWAP1 SUB PUSH1 0x1F AND DUP3 ADD SWAP2 JUMPDEST POP POP POP POP POP SWAP1 POP SWAP1 JUMP JUMPDEST PUSH0 DUP1 MLOAD PUSH1 0x20 PUSH2 0x5A7C DUP4 CODECOPY DUP2 MLOAD SWAP2 MSTORE PUSH2 0x1645 DUP2 PUSH2 0x2FBE JUMP JUMPDEST POP PUSH1 0xF DUP1 SLOAD PUSH1 0xFF NOT AND SWAP2 ISZERO ISZERO SWAP2 SWAP1 SWAP2 OR SWAP1 SSTORE JUMP JUMPDEST PUSH0 PUSH2 0x1663 DUP3 PUSH2 0x3124 JUMP JUMPDEST PUSH2 0x16CC JUMPI PUSH1 0x40 MLOAD PUSH3 0x461BCD PUSH1 0xE5 SHL DUP2 MSTORE PUSH1 0x20 PUSH1 0x4 DUP3 ADD MSTORE PUSH1 0x2F PUSH1 0x24 DUP3 ADD MSTORE PUSH32 0x4552433732315073693A20617070726F76656420717565727920666F72206E6F PUSH1 0x44 DUP3 ADD MSTORE PUSH15 0x3732BC34B9BA32B73A103A37B5B2B7 PUSH1 0x89 SHL PUSH1 0x64 DUP3 ADD MSTORE PUSH1 0x84 ADD JUMPDEST PUSH1 0x40 MLOAD DUP1 SWAP2 SUB SWAP1 REVERT JUMPDEST POP PUSH0 SWAP1 DUP2 MSTORE PUSH1 0x9 PUSH1 0x20 MSTORE PUSH1 0x40 SWAP1 KECCAK256 SLOAD PUSH1 0x1 PUSH1 0x1 PUSH1 0xA0 SHL SUB AND SWAP1 JUMP JUMPDEST DUP2 PUSH2 0x16F1 DUP2 PUSH2 0x3157 JUMP JUMPDEST PUSH1 0x2A SLOAD PUSH1 0xFF AND ISZERO PUSH2 0x173C JUMPI PUSH1 0x40 MLOAD PUSH3 0x461BCD PUSH1 0xE5 SHL DUP2 MSTORE PUSH1 0x20 PUSH1 0x4 DUP3 ADD MSTORE PUSH1 0x15 PUSH1 0x24 DUP3 ADD MSTORE PUSH21 0x185C1C1C9BDD99481A5CC81C1C9BDA1A589A5D1959 PUSH1 0x5A SHL PUSH1 0x44 DUP3 ADD MSTORE PUSH1 0x64 ADD PUSH2 0x16C3 JUMP JUMPDEST PUSH2 0x1599 DUP4 DUP4 PUSH2 0x3215 JUMP JUMPDEST PUSH0 DUP1 MLOAD PUSH1 0x20 PUSH2 0x5A7C DUP4 CODECOPY DUP2 MLOAD SWAP2 MSTORE PUSH2 0x175D DUP2 PUSH2 0x2FBE JUMP JUMPDEST POP PUSH1 0x12 SSTORE JUMP JUMPDEST PUSH1 0x24 DUP1 SLOAD PUSH2 0x147D SWAP1 PUSH2 0x53B0 JUMP JUMPDEST PUSH0 DUP1 MLOAD PUSH1 0x20 PUSH2 0x5A7C DUP4 CODECOPY DUP2 MLOAD SWAP2 MSTORE PUSH2 0x1787 DUP2 PUSH2 0x2FBE JUMP JUMPDEST POP PUSH1 0x1A DUP1 SLOAD SWAP2 ISZERO ISZERO PUSH2 0x100 MUL PUSH2 0xFF00 NOT SWAP1 SWAP3 AND SWAP2 SWAP1 SWAP2 OR SWAP1 SSTORE JUMP JUMPDEST PUSH0 PUSH2 0x17AB PUSH2 0x3229 JUMP JUMPDEST PUSH2 0x1466 PUSH2 0x3289 JUMP JUMPDEST DUP3 PUSH1 0x1 PUSH1 0x1 PUSH1 0xA0 SHL SUB DUP2 AND CALLER EQ PUSH2 0x17CD JUMPI PUSH2 0x17CD CALLER PUSH2 0x3157 JUMP JUMPDEST PUSH2 0x17D8 DUP5 DUP5 DUP5 PUSH2 0x3298 JUMP JUMPDEST POP POP POP POP JUMP JUMPDEST PUSH0 DUP1 MLOAD PUSH1 0x20 PUSH2 0x5A7C DUP4 CODECOPY DUP2 MLOAD SWAP2 MSTORE PUSH2 0x17F5 DUP2 PUSH2 0x2FBE JUMP JUMPDEST POP PUSH1 0x23 DUP1 SLOAD PUSH1 0x1 PUSH1 0x1 PUSH1 0xA0 SHL SUB NOT AND PUSH1 0x1 PUSH1 0x1 PUSH1 0xA0 SHL SUB SWAP3 SWAP1 SWAP3 AND SWAP2 SWAP1 SWAP2 OR SWAP1 SSTORE JUMP JUMPDEST PUSH2 0x1842 PUSH32 0x3A2F235C9DAAF33349D300AADFF2F15078A89DF81BCFDD45BA11C8F816BDDC6F CALLER PUSH2 0x2884 JUMP JUMPDEST PUSH2 0x188E JUMPI PUSH1 0x40 MLOAD PUSH3 0x461BCD PUSH1 0xE5 SHL DUP2 MSTORE PUSH1 0x20 PUSH1 0x4 DUP3 ADD MSTORE PUSH1 0x1B PUSH1 0x24 DUP3 ADD MSTORE PUSH32 0x43616C6C6572206973206E6F742061206169722064726F707065720000000000 PUSH1 0x44 DUP3 ADD MSTORE PUSH1 0x64 ADD PUSH2 0x16C3 JUMP JUMPDEST DUP1 MLOAD DUP3 EQ PUSH2 0x18DE JUMPI PUSH1 0x40 MLOAD PUSH3 0x461BCD PUSH1 0xE5 SHL DUP2 MSTORE PUSH1 0x20 PUSH1 0x4 DUP3 ADD MSTORE PUSH1 0x1B PUSH1 0x24 DUP3 ADD MSTORE PUSH32 0x4172726179206C656E677468732061726520646966666572656E740000000000 PUSH1 0x44 DUP3 ADD MSTORE PUSH1 0x64 ADD PUSH2 0x16C3 JUMP JUMPDEST PUSH0 DUP1 JUMPDEST DUP3 MLOAD DUP2 LT ISZERO PUSH2 0x1923 JUMPI DUP3 DUP2 DUP2 MLOAD DUP2 LT PUSH2 0x18FC JUMPI PUSH2 0x18FC PUSH2 0x54E8 JUMP JUMPDEST PUSH1 0x20 MUL PUSH1 0x20 ADD ADD MLOAD DUP3 PUSH2 0x190F SWAP2 SWAP1 PUSH2 0x54FC JUMP JUMPDEST SWAP2 POP DUP1 PUSH2 0x191B DUP2 PUSH2 0x550F JUMP JUMPDEST SWAP2 POP POP PUSH2 0x18E1 JUMP JUMPDEST POP DUP1 PUSH0 LT PUSH2 0x1973 JUMPI PUSH1 0x40 MLOAD PUSH3 0x461BCD PUSH1 0xE5 SHL DUP2 MSTORE PUSH1 0x20 PUSH1 0x4 DUP3 ADD MSTORE PUSH1 0x1B PUSH1 0x24 DUP3 ADD MSTORE PUSH32 0x6E65656420746F206D696E74206174206C656173742031204E46540000000000 PUSH1 0x44 DUP3 ADD MSTORE PUSH1 0x64 ADD PUSH2 0x16C3 JUMP JUMPDEST PUSH1 0x17 SLOAD DUP2 PUSH1 0x1 PUSH2 0x1982 PUSH1 0x8 SLOAD SWAP1 JUMP JUMPDEST PUSH2 0x198C SWAP2 SWAP1 PUSH2 0x539D JUMP JUMPDEST PUSH2 0x1996 SWAP2 SWAP1 PUSH2 0x54FC JUMP JUMPDEST GT ISZERO PUSH2 0x19B4 JUMPI PUSH1 0x40 MLOAD PUSH3 0x461BCD PUSH1 0xE5 SHL DUP2 MSTORE PUSH1 0x4 ADD PUSH2 0x16C3 SWAP1 PUSH2 0x5527 JUMP JUMPDEST PUSH0 JUMPDEST DUP3 MLOAD DUP2 LT ISZERO PUSH2 0x1A1A JUMPI PUSH2 0x1A08 DUP6 DUP6 DUP4 DUP2 DUP2 LT PUSH2 0x19D4 JUMPI PUSH2 0x19D4 PUSH2 0x54E8 JUMP JUMPDEST SWAP1 POP PUSH1 0x20 MUL ADD PUSH1 0x20 DUP2 ADD SWAP1 PUSH2 0x19E9 SWAP2 SWAP1 PUSH2 0x4DF7 JUMP JUMPDEST DUP5 DUP4 DUP2 MLOAD DUP2 LT PUSH2 0x19FB JUMPI PUSH2 0x19FB PUSH2 0x54E8 JUMP JUMPDEST PUSH1 0x20 MUL PUSH1 0x20 ADD ADD MLOAD PUSH2 0x32C9 JUMP JUMPDEST DUP1 PUSH2 0x1A12 DUP2 PUSH2 0x550F JUMP JUMPDEST SWAP2 POP POP PUSH2 0x19B6 JUMP JUMPDEST POP POP POP POP POP JUMP JUMPDEST PUSH0 DUP3 DUP2 MSTORE PUSH1 0x2 PUSH1 0x20 SWAP1 DUP2 MSTORE PUSH1 0x40 DUP1 DUP4 KECCAK256 DUP2 MLOAD DUP1 DUP4 ADD SWAP1 SWAP3 MSTORE SLOAD PUSH1 0x1 PUSH1 0x1 PUSH1 0xA0 SHL SUB DUP2 AND DUP1 DUP4 MSTORE PUSH1 0x1 PUSH1 0xA0 SHL SWAP1 SWAP2 DIV PUSH1 0x1 PUSH1 0x1 PUSH1 0x60 SHL SUB AND SWAP3 DUP3 ADD SWAP3 SWAP1 SWAP3 MSTORE DUP3 SWAP2 PUSH2 0x1A95 JUMPI POP PUSH1 0x40 DUP1 MLOAD DUP1 DUP3 ADD SWAP1 SWAP2 MSTORE PUSH1 0x1 SLOAD PUSH1 0x1 PUSH1 0x1 PUSH1 0xA0 SHL SUB DUP2 AND DUP3 MSTORE PUSH1 0x1 PUSH1 0xA0 SHL SWAP1 DIV PUSH1 0x1 PUSH1 0x1 PUSH1 0x60 SHL SUB AND PUSH1 0x20 DUP3 ADD MSTORE JUMPDEST PUSH1 0x20 DUP2 ADD MLOAD PUSH0 SWAP1 PUSH2 0x2710 SWAP1 PUSH2 0x1AB3 SWAP1 PUSH1 0x1 PUSH1 0x1 PUSH1 0x60 SHL SUB AND DUP8 PUSH2 0x5557 JUMP JUMPDEST PUSH2 0x1ABD SWAP2 SWAP1 PUSH2 0x556E JUMP JUMPDEST SWAP2 MLOAD SWAP4 POP SWAP1 SWAP2 POP POP JUMPDEST SWAP3 POP SWAP3 SWAP1 POP JUMP JUMPDEST PUSH0 DUP3 DUP2 MSTORE PUSH1 0x13 PUSH1 0x20 MSTORE PUSH1 0x40 SWAP1 KECCAK256 PUSH1 0x1 ADD SLOAD PUSH2 0x1AE7 DUP2 PUSH2 0x2FBE JUMP JUMPDEST PUSH2 0x1599 DUP4 DUP4 PUSH2 0x32E2 JUMP JUMPDEST PUSH1 0x1 PUSH1 0x1 PUSH1 0xA0 SHL SUB DUP2 AND CALLER EQ PUSH2 0x1B61 JUMPI PUSH1 0x40 MLOAD PUSH3 0x461BCD PUSH1 0xE5 SHL DUP2 MSTORE PUSH1 0x20 PUSH1 0x4 DUP3 ADD MSTORE PUSH1 0x2F PUSH1 0x24 DUP3 ADD MSTORE PUSH32 0x416363657373436F6E74726F6C3A2063616E206F6E6C792072656E6F756E6365 PUSH1 0x44 DUP3 ADD MSTORE PUSH15 0x103937B632B9903337B91039B2B633 PUSH1 0x89 SHL PUSH1 0x64 DUP3 ADD MSTORE PUSH1 0x84 ADD PUSH2 0x16C3 JUMP JUMPDEST PUSH2 0x1560 DUP3 DUP3 PUSH2 0x3367 JUMP JUMPDEST PUSH2 0x1B73 PUSH2 0x2FC8 JUMP JUMPDEST PUSH1 0x15 DUP1 SLOAD PUSH1 0x1 PUSH1 0x1 PUSH1 0xA0 SHL SUB NOT AND PUSH1 0x1 PUSH1 0x1 PUSH1 0xA0 SHL SUB SWAP3 SWAP1 SWAP3 AND SWAP2 SWAP1 SWAP2 OR SWAP1 SSTORE JUMP JUMPDEST PUSH2 0x1B9D PUSH2 0x2FC8 JUMP JUMPDEST PUSH1 0x15 SLOAD PUSH1 0x40 MLOAD PUSH0 SWAP2 PUSH1 0x1 PUSH1 0x1 PUSH1 0xA0 SHL SUB AND SWAP1 SELFBALANCE SWAP1 DUP4 DUP2 DUP2 DUP2 DUP6 DUP8 GAS CALL SWAP3 POP POP POP RETURNDATASIZE DUP1 PUSH0 DUP2 EQ PUSH2 0x1BE7 JUMPI PUSH1 0x40 MLOAD SWAP2 POP PUSH1 0x1F NOT PUSH1 0x3F RETURNDATASIZE ADD AND DUP3 ADD PUSH1 0x40 MSTORE RETURNDATASIZE DUP3 MSTORE RETURNDATASIZE PUSH0 PUSH1 0x20 DUP5 ADD RETURNDATACOPY PUSH2 0x1BEC JUMP JUMPDEST PUSH1 0x60 SWAP2 POP JUMPDEST POP POP SWAP1 POP DUP1 PUSH2 0x1BF9 JUMPI PUSH0 DUP1 REVERT JUMPDEST POP JUMP JUMPDEST DUP3 PUSH1 0x1 PUSH1 0x1 PUSH1 0xA0 SHL SUB DUP2 AND CALLER EQ PUSH2 0x1C16 JUMPI PUSH2 0x1C16 CALLER PUSH2 0x3157 JUMP JUMPDEST PUSH2 0x17D8 DUP5 DUP5 DUP5 PUSH2 0x33CD JUMP JUMPDEST PUSH0 DUP1 MLOAD PUSH1 0x20 PUSH2 0x5A7C DUP4 CODECOPY DUP2 MLOAD SWAP2 MSTORE PUSH2 0x1C38 DUP2 PUSH2 0x2FBE JUMP JUMPDEST POP PUSH1 0x16 SSTORE JUMP JUMPDEST PUSH0 DUP1 MLOAD PUSH1 0x20 PUSH2 0x5A7C DUP4 CODECOPY DUP2 MLOAD SWAP2 MSTORE PUSH2 0x1C55 DUP2 PUSH2 0x2FBE JUMP JUMPDEST POP PUSH1 0x28 DUP1 SLOAD PUSH1 0xFF NOT AND SWAP2 ISZERO ISZERO SWAP2 SWAP1 SWAP2 OR SWAP1 SSTORE JUMP JUMPDEST PUSH0 DUP1 MLOAD PUSH1 0x20 PUSH2 0x5A7C DUP4 CODECOPY DUP2 MLOAD SWAP2 MSTORE PUSH2 0x1C80 DUP2 PUSH2 0x2FBE JUMP JUMPDEST POP PUSH1 0x20 DUP1 SLOAD PUSH1 0xFF NOT AND SWAP2 ISZERO ISZERO SWAP2 SWAP1 SWAP2 OR SWAP1 SSTORE JUMP JUMPDEST PUSH0 DUP1 MLOAD PUSH1 0x20 PUSH2 0x5A7C DUP4 CODECOPY DUP2 MLOAD SWAP2 MSTORE PUSH2 0x1CAB DUP2 PUSH2 0x2FBE JUMP JUMPDEST DUP2 MLOAD DUP4 MLOAD EQ PUSH2 0x1CB8 JUMPI PUSH0 DUP1 REVERT JUMPDEST PUSH0 JUMPDEST DUP4 MLOAD DUP2 LT ISZERO PUSH2 0x1A1A JUMPI DUP3 DUP2 DUP2 MLOAD DUP2 LT PUSH2 0x1CD5 JUMPI PUSH2 0x1CD5 PUSH2 0x54E8 JUMP JUMPDEST PUSH1 0x20 MUL PUSH1 0x20 ADD ADD MLOAD PUSH1 0x1F PUSH0 DUP8 DUP2 MSTORE PUSH1 0x20 ADD SWAP1 DUP2 MSTORE PUSH1 0x20 ADD PUSH0 KECCAK256 PUSH0 DUP7 DUP5 DUP2 MLOAD DUP2 LT PUSH2 0x1D01 JUMPI PUSH2 0x1D01 PUSH2 0x54E8 JUMP JUMPDEST PUSH1 0x20 MUL PUSH1 0x20 ADD ADD MLOAD PUSH1 0x1 PUSH1 0x1 PUSH1 0xA0 SHL SUB AND PUSH1 0x1 PUSH1 0x1 PUSH1 0xA0 SHL SUB AND DUP2 MSTORE PUSH1 0x20 ADD SWAP1 DUP2 MSTORE PUSH1 0x20 ADD PUSH0 KECCAK256 DUP2 SWAP1 SSTORE POP DUP1 DUP1 PUSH2 0x1D37 SWAP1 PUSH2 0x550F JUMP JUMPDEST SWAP2 POP POP PUSH2 0x1CBA JUMP JUMPDEST PUSH0 DUP1 MLOAD PUSH1 0x20 PUSH2 0x5A7C DUP4 CODECOPY DUP2 MLOAD SWAP2 MSTORE PUSH2 0x1D56 DUP2 PUSH2 0x2FBE JUMP JUMPDEST PUSH1 0x21 PUSH2 0x1599 DUP4 DUP3 PUSH2 0x542D JUMP JUMPDEST PUSH2 0x1D6A PUSH2 0x33E7 JUMP JUMPDEST PUSH2 0x1D94 PUSH32 0x3C11D16CBAFFD01DF69CE1C404F6340EE057498F5F00246190EA54220576A848 CALLER PUSH2 0x2884 JUMP JUMPDEST PUSH2 0x1DD9 JUMPI PUSH1 0x40 MLOAD PUSH3 0x461BCD PUSH1 0xE5 SHL DUP2 MSTORE PUSH1 0x20 PUSH1 0x4 DUP3 ADD MSTORE PUSH1 0x16 PUSH1 0x24 DUP3 ADD MSTORE PUSH22 0x21B0B63632B91034B9903737BA103090313AB93732B9 PUSH1 0x51 SHL PUSH1 0x44 DUP3 ADD MSTORE PUSH1 0x64 ADD PUSH2 0x16C3 JUMP JUMPDEST PUSH0 JUMPDEST DUP2 MLOAD DUP2 LT ISZERO PUSH2 0x1E7B JUMPI PUSH0 DUP3 DUP3 DUP2 MLOAD DUP2 LT PUSH2 0x1DF7 JUMPI PUSH2 0x1DF7 PUSH2 0x54E8 JUMP JUMPDEST PUSH1 0x20 MUL PUSH1 0x20 ADD ADD MLOAD SWAP1 POP PUSH2 0x1E0A DUP2 PUSH2 0x1F4A JUMP JUMPDEST PUSH1 0x1 PUSH1 0x1 PUSH1 0xA0 SHL SUB AND ORIGIN PUSH1 0x1 PUSH1 0x1 PUSH1 0xA0 SHL SUB AND EQ PUSH2 0x1E5F JUMPI PUSH1 0x40 MLOAD PUSH3 0x461BCD PUSH1 0xE5 SHL DUP2 MSTORE PUSH1 0x20 PUSH1 0x4 DUP3 ADD MSTORE PUSH1 0x12 PUSH1 0x24 DUP3 ADD MSTORE PUSH18 0x13DDDB995C881A5CC8191A5999995C995B9D PUSH1 0x72 SHL PUSH1 0x44 DUP3 ADD MSTORE PUSH1 0x64 ADD PUSH2 0x16C3 JUMP JUMPDEST PUSH2 0x1E68 DUP2 PUSH2 0x3440 JUMP JUMPDEST POP DUP1 PUSH2 0x1E73 DUP2 PUSH2 0x550F JUMP JUMPDEST SWAP2 POP POP PUSH2 0x1DDB JUMP JUMPDEST POP PUSH2 0x1BF9 PUSH1 0x1 PUSH1 0x14 SSTORE JUMP JUMPDEST PUSH0 DUP1 MLOAD PUSH1 0x20 PUSH2 0x5A7C DUP4 CODECOPY DUP2 MLOAD SWAP2 MSTORE PUSH2 0x1E9D DUP2 PUSH2 0x2FBE JUMP JUMPDEST PUSH1 0x26 PUSH2 0x1599 DUP4 DUP3 PUSH2 0x542D JUMP JUMPDEST PUSH2 0x1EB1 PUSH2 0x283D JUMP JUMPDEST PUSH1 0x1 PUSH1 0x1 PUSH1 0xA0 SHL SUB AND CALLER PUSH1 0x1 PUSH1 0x1 PUSH1 0xA0 SHL SUB AND EQ PUSH2 0x1EE2 JUMPI PUSH1 0x40 MLOAD PUSH4 0x5FC483C5 PUSH1 0xE0 SHL DUP2 MSTORE PUSH1 0x4 ADD PUSH1 0x40 MLOAD DUP1 SWAP2 SUB SWAP1 REVERT JUMPDEST PUSH0 SLOAD PUSH1 0x1 PUSH1 0xA0 SHL SWAP1 DIV PUSH1 0xFF AND ISZERO PUSH2 0x1F0C JUMPI PUSH1 0x40 MLOAD PUSH4 0x1551A48F PUSH1 0xE1 SHL DUP2 MSTORE PUSH1 0x4 ADD PUSH1 0x40 MLOAD DUP1 SWAP2 SUB SWAP1 REVERT JUMPDEST PUSH0 DUP1 SLOAD PUSH1 0x1 PUSH1 0x1 PUSH1 0xA8 SHL SUB NOT AND PUSH1 0x1 PUSH1 0xA0 SHL OR DUP2 SSTORE PUSH1 0x40 MLOAD PUSH32 0x51E2D870CC2E10853E38DC06FCDAE46AD3C3F588F326608803DAC6204541AD16 SWAP2 SWAP1 LOG1 JUMP JUMPDEST PUSH0 DUP1 PUSH2 0x1F55 DUP4 PUSH2 0x34A8 JUMP JUMPDEST POP SWAP4 SWAP3 POP POP POP JUMP JUMPDEST ORIGIN CALLER EQ PUSH2 0x1FAC JUMPI PUSH1 0x40 MLOAD PUSH3 0x461BCD PUSH1 0xE5 SHL DUP2 MSTORE PUSH1 0x20 PUSH1 0x4 DUP3 ADD MSTORE PUSH1 0x1F PUSH1 0x24 DUP3 ADD MSTORE PUSH32 0x5468652063616C6C657220697320616E6F7468657220636F6E74726163742E00 PUSH1 0x44 DUP3 ADD MSTORE PUSH1 0x64 ADD PUSH2 0x16C3 JUMP JUMPDEST PUSH1 0x1A SLOAD PUSH1 0xFF AND ISZERO PUSH2 0x1FF8 JUMPI PUSH1 0x40 MLOAD PUSH3 0x461BCD PUSH1 0xE5 SHL DUP2 MSTORE PUSH1 0x20 PUSH1 0x4 DUP3 ADD MSTORE PUSH1 0x16 PUSH1 0x24 DUP3 ADD MSTORE PUSH22 0x1D1A194818DBDB9D1C9858DD081A5CC81C185D5CD959 PUSH1 0x52 SHL PUSH1 0x44 DUP3 ADD MSTORE PUSH1 0x64 ADD PUSH2 0x16C3 JUMP JUMPDEST DUP5 PUSH0 LT PUSH2 0x2047 JUMPI PUSH1 0x40 MLOAD PUSH3 0x461BCD PUSH1 0xE5 SHL DUP2 MSTORE PUSH1 0x20 PUSH1 0x4 DUP3 ADD MSTORE PUSH1 0x1B PUSH1 0x24 DUP3 ADD MSTORE PUSH32 0x6E65656420746F206D696E74206174206C656173742031204E46540000000000 PUSH1 0x44 DUP3 ADD MSTORE PUSH1 0x64 ADD PUSH2 0x16C3 JUMP JUMPDEST PUSH1 0x18 SLOAD DUP6 GT ISZERO PUSH2 0x20A5 JUMPI PUSH1 0x40 MLOAD PUSH3 0x461BCD PUSH1 0xE5 SHL DUP2 MSTORE PUSH1 0x20 PUSH1 0x4 DUP3 ADD MSTORE PUSH1 0x24 DUP1 DUP3 ADD MSTORE PUSH32 0x6D6178206D696E7420616D6F756E74207065722073657373696F6E2065786365 PUSH1 0x44 DUP3 ADD MSTORE PUSH4 0x19591959 PUSH1 0xE2 SHL PUSH1 0x64 DUP3 ADD MSTORE PUSH1 0x84 ADD PUSH2 0x16C3 JUMP JUMPDEST PUSH1 0x17 SLOAD DUP6 PUSH1 0x1 PUSH2 0x20B4 PUSH1 0x8 SLOAD SWAP1 JUMP JUMPDEST PUSH2 0x20BE SWAP2 SWAP1 PUSH2 0x539D JUMP JUMPDEST PUSH2 0x20C8 SWAP2 SWAP1 PUSH2 0x54FC JUMP JUMPDEST GT ISZERO PUSH2 0x20E6 JUMPI PUSH1 0x40 MLOAD PUSH3 0x461BCD PUSH1 0xE5 SHL DUP2 MSTORE PUSH1 0x4 ADD PUSH2 0x16C3 SWAP1 PUSH2 0x5527 JUMP JUMPDEST CALLVALUE DUP6 PUSH1 0x16 SLOAD PUSH2 0x20F5 SWAP2 SWAP1 PUSH2 0x5557 JUMP JUMPDEST GT ISZERO PUSH2 0x2138 JUMPI PUSH1 0x40 MLOAD PUSH3 0x461BCD PUSH1 0xE5 SHL DUP2 MSTORE PUSH1 0x20 PUSH1 0x4 DUP3 ADD MSTORE PUSH1 0x12 PUSH1 0x24 DUP3 ADD MSTORE PUSH18 0x696E73756666696369656E742066756E6473 PUSH1 0x70 SHL PUSH1 0x44 DUP3 ADD MSTORE PUSH1 0x64 ADD PUSH2 0x16C3 JUMP JUMPDEST PUSH1 0x1A SLOAD PUSH0 SWAP1 PUSH2 0x100 SWAP1 DIV PUSH1 0xFF AND ISZERO ISZERO PUSH1 0x1 SUB PUSH2 0x22B6 JUMPI PUSH1 0x1B SLOAD PUSH0 SUB PUSH2 0x2225 JUMPI PUSH1 0x40 MLOAD PUSH12 0xFFFFFFFFFFFFFFFFFFFFFFFF NOT CALLER PUSH1 0x60 SHL AND PUSH1 0x20 DUP3 ADD MSTORE PUSH1 0x34 DUP2 ADD DUP7 SWAP1 MSTORE PUSH0 SWAP1 PUSH1 0x54 ADD PUSH1 0x40 MLOAD PUSH1 0x20 DUP2 DUP4 SUB SUB DUP2 MSTORE SWAP1 PUSH1 0x40 MSTORE DUP1 MLOAD SWAP1 PUSH1 0x20 ADD KECCAK256 SWAP1 POP PUSH2 0x21D6 DUP6 DUP6 DUP1 DUP1 PUSH1 0x20 MUL PUSH1 0x20 ADD PUSH1 0x40 MLOAD SWAP1 DUP2 ADD PUSH1 0x40 MSTORE DUP1 SWAP4 SWAP3 SWAP2 SWAP1 DUP2 DUP2 MSTORE PUSH1 0x20 ADD DUP4 DUP4 PUSH1 0x20 MUL DUP1 DUP3 DUP5 CALLDATACOPY PUSH0 SWAP3 ADD SWAP2 SWAP1 SWAP2 MSTORE POP POP PUSH1 0x1C SLOAD SWAP2 POP DUP5 SWAP1 POP PUSH2 0x353D JUMP JUMPDEST PUSH2 0x221C JUMPI PUSH1 0x40 MLOAD PUSH3 0x461BCD PUSH1 0xE5 SHL DUP2 MSTORE PUSH1 0x20 PUSH1 0x4 DUP3 ADD MSTORE PUSH1 0x17 PUSH1 0x24 DUP3 ADD MSTORE PUSH23 0x1D5CD95C881A5CC81B9BDD08185B1B1BDDDB1A5CDD1959 PUSH1 0x4A SHL PUSH1 0x44 DUP3 ADD MSTORE PUSH1 0x64 ADD PUSH2 0x16C3 JUMP JUMPDEST DUP6 SWAP2 POP POP PUSH2 0x22BB JUMP JUMPDEST PUSH1 0x1B SLOAD PUSH1 0x1 SUB PUSH2 0x22B1 JUMPI PUSH1 0x1D SLOAD PUSH0 SWAP1 DUP2 MSTORE PUSH1 0x1F PUSH1 0x20 SWAP1 DUP2 MSTORE PUSH1 0x40 DUP1 DUP4 KECCAK256 CALLER DUP5 MSTORE SWAP1 SWAP2 MSTORE DUP2 KECCAK256 SLOAD SWAP1 SUB PUSH2 0x2293 JUMPI PUSH1 0x40 MLOAD PUSH3 0x461BCD PUSH1 0xE5 SHL DUP2 MSTORE PUSH1 0x20 PUSH1 0x4 DUP3 ADD MSTORE PUSH1 0x17 PUSH1 0x24 DUP3 ADD MSTORE PUSH23 0x1D5CD95C881A5CC81B9BDD08185B1B1BDDDB1A5CDD1959 PUSH1 0x4A SHL PUSH1 0x44 DUP3 ADD MSTORE PUSH1 0x64 ADD PUSH2 0x16C3 JUMP JUMPDEST POP PUSH1 0x1D SLOAD PUSH0 SWAP1 DUP2 MSTORE PUSH1 0x1F PUSH1 0x20 SWAP1 DUP2 MSTORE PUSH1 0x40 DUP1 DUP4 KECCAK256 CALLER DUP5 MSTORE SWAP1 SWAP2 MSTORE SWAP1 KECCAK256 SLOAD JUMPDEST PUSH2 0x22BB JUMP JUMPDEST POP PUSH1 0x19 SLOAD JUMPDEST PUSH1 0x1A SLOAD PUSH3 0x10000 SWAP1 DIV PUSH1 0xFF AND ISZERO ISZERO PUSH1 0x1 SUB PUSH2 0x2376 JUMPI PUSH1 0x1D SLOAD PUSH0 SWAP1 DUP2 MSTORE PUSH1 0x1E PUSH1 0x20 SWAP1 DUP2 MSTORE PUSH1 0x40 DUP1 DUP4 KECCAK256 CALLER DUP5 MSTORE SWAP1 SWAP2 MSTORE SWAP1 KECCAK256 SLOAD PUSH2 0x22F6 SWAP1 DUP3 PUSH2 0x539D JUMP JUMPDEST DUP7 GT ISZERO PUSH2 0x2345 JUMPI PUSH1 0x40 MLOAD PUSH3 0x461BCD PUSH1 0xE5 SHL DUP2 MSTORE PUSH1 0x20 PUSH1 0x4 DUP3 ADD MSTORE PUSH1 0x1C PUSH1 0x24 DUP3 ADD MSTORE PUSH32 0x6D6178204E465420706572206164647265737320657863656564656400000000 PUSH1 0x44 DUP3 ADD MSTORE PUSH1 0x64 ADD PUSH2 0x16C3 JUMP JUMPDEST PUSH1 0x1D SLOAD PUSH0 SWAP1 DUP2 MSTORE PUSH1 0x1E PUSH1 0x20 SWAP1 DUP2 MSTORE PUSH1 0x40 DUP1 DUP4 KECCAK256 CALLER DUP5 MSTORE SWAP1 SWAP2 MSTORE DUP2 KECCAK256 DUP1 SLOAD DUP9 SWAP3 SWAP1 PUSH2 0x2370 SWAP1 DUP5 SWAP1 PUSH2 0x54FC JUMP JUMPDEST SWAP1 SWAP2 SSTORE POP POP JUMPDEST PUSH1 0x1A SLOAD PUSH4 0x1000000 SWAP1 DIV PUSH1 0xFF AND ISZERO ISZERO PUSH1 0x1 SUB PUSH2 0x2443 JUMPI DUP6 PUSH1 0x1 EQ PUSH2 0x23DC JUMPI PUSH1 0x40 MLOAD PUSH3 0x461BCD PUSH1 0xE5 SHL DUP2 MSTORE PUSH1 0x20 PUSH1 0x4 DUP3 ADD MSTORE PUSH1 0x1C PUSH1 0x24 DUP3 ADD MSTORE PUSH32 0x546865206E756D626572206F66206D696E7473206973206F7665722E00000000 PUSH1 0x44 DUP3 ADD MSTORE PUSH1 0x64 ADD PUSH2 0x16C3 JUMP JUMPDEST PUSH2 0x23E5 DUP3 PUSH2 0x1F4A JUMP JUMPDEST PUSH1 0x1 PUSH1 0x1 PUSH1 0xA0 SHL SUB AND CALLER PUSH1 0x1 PUSH1 0x1 PUSH1 0xA0 SHL SUB AND EQ PUSH2 0x243A JUMPI PUSH1 0x40 MLOAD PUSH3 0x461BCD PUSH1 0xE5 SHL DUP2 MSTORE PUSH1 0x20 PUSH1 0x4 DUP3 ADD MSTORE PUSH1 0x12 PUSH1 0x24 DUP3 ADD MSTORE PUSH18 0x13DDDB995C881A5CC8191A5999995C995B9D PUSH1 0x72 SHL PUSH1 0x44 DUP3 ADD MSTORE PUSH1 0x64 ADD PUSH2 0x16C3 JUMP JUMPDEST PUSH2 0x2443 DUP3 PUSH2 0x3440 JUMP JUMPDEST PUSH1 0x20 SLOAD PUSH1 0xFF AND ISZERO ISZERO PUSH1 0x1 SUB PUSH2 0x252A JUMPI PUSH1 0x20 SLOAD PUSH1 0x40 MLOAD PUSH4 0x70A08231 PUSH1 0xE0 SHL DUP2 MSTORE CALLER PUSH1 0x4 DUP3 ADD MSTORE PUSH2 0x100 SWAP1 SWAP2 DIV PUSH1 0x1 PUSH1 0x1 PUSH1 0xA0 SHL SUB AND SWAP1 PUSH4 0x70A08231 SWAP1 PUSH1 0x24 ADD PUSH1 0x20 PUSH1 0x40 MLOAD DUP1 DUP4 SUB DUP2 DUP7 GAS STATICCALL ISZERO DUP1 ISZERO PUSH2 0x249C JUMPI RETURNDATASIZE PUSH0 DUP1 RETURNDATACOPY RETURNDATASIZE PUSH0 REVERT JUMPDEST POP POP POP POP PUSH1 0x40 MLOAD RETURNDATASIZE PUSH1 0x1F NOT PUSH1 0x1F DUP3 ADD AND DUP3 ADD DUP1 PUSH1 0x40 MSTORE POP DUP2 ADD SWAP1 PUSH2 0x24C0 SWAP2 SWAP1 PUSH2 0x558D JUMP JUMPDEST PUSH0 SUB PUSH2 0x252A JUMPI PUSH1 0x20 SLOAD PUSH1 0x40 MLOAD PUSH4 0x133F3113 PUSH1 0xE3 SHL DUP2 MSTORE CALLER PUSH1 0x4 DUP3 ADD MSTORE PUSH1 0x1 PUSH1 0x24 DUP3 ADD MSTORE PUSH2 0x100 SWAP1 SWAP2 DIV PUSH1 0x1 PUSH1 0x1 PUSH1 0xA0 SHL SUB AND SWAP1 PUSH4 0x99F98898 SWAP1 PUSH1 0x44 ADD PUSH0 PUSH1 0x40 MLOAD DUP1 DUP4 SUB DUP2 PUSH0 DUP8 DUP1 EXTCODESIZE ISZERO DUP1 ISZERO PUSH2 0x2513 JUMPI PUSH0 DUP1 REVERT JUMPDEST POP GAS CALL ISZERO DUP1 ISZERO PUSH2 0x2525 JUMPI RETURNDATASIZE PUSH0 DUP1 RETURNDATACOPY RETURNDATASIZE PUSH0 REVERT JUMPDEST POP POP POP POP JUMPDEST PUSH2 0x2534 CALLER DUP8 PUSH2 0x32C9 JUMP JUMPDEST POP POP POP POP POP POP JUMP JUMPDEST PUSH0 DUP1 MLOAD PUSH1 0x20 PUSH2 0x5A7C DUP4 CODECOPY DUP2 MLOAD SWAP2 MSTORE PUSH2 0x2553 DUP2 PUSH2 0x2FBE JUMP JUMPDEST POP PUSH1 0x23 DUP1 SLOAD SWAP2 ISZERO ISZERO PUSH1 0x1 PUSH1 0xA8 SHL MUL PUSH1 0xFF PUSH1 0xA8 SHL NOT SWAP1 SWAP3 AND SWAP2 SWAP1 SWAP2 OR SWAP1 SSTORE JUMP JUMPDEST PUSH1 0x21 DUP1 SLOAD PUSH2 0x147D SWAP1 PUSH2 0x53B0 JUMP JUMPDEST PUSH0 DUP1 MLOAD PUSH1 0x20 PUSH2 0x5A7C DUP4 CODECOPY DUP2 MLOAD SWAP2 MSTORE PUSH2 0x2596 DUP2 PUSH2 0x2FBE JUMP JUMPDEST POP PUSH1 0x17 SSTORE JUMP JUMPDEST PUSH0 PUSH1 0x1 PUSH1 0x1 PUSH1 0xA0 SHL SUB DUP3 AND PUSH2 0x2609 JUMPI PUSH1 0x40 MLOAD PUSH3 0x461BCD PUSH1 0xE5 SHL DUP2 MSTORE PUSH1 0x20 PUSH1 0x4 DUP3 ADD MSTORE PUSH1 0x2D PUSH1 0x24 DUP3 ADD MSTORE PUSH32 0x4552433732315073693A2062616C616E636520717565727920666F7220746865 PUSH1 0x44 DUP3 ADD MSTORE PUSH13 0x207A65726F2061646472657373 PUSH1 0x98 SHL PUSH1 0x64 DUP3 ADD MSTORE PUSH1 0x84 ADD PUSH2 0x16C3 JUMP JUMPDEST POP PUSH1 0x1 PUSH1 0x1 PUSH1 0xA0 SHL SUB AND PUSH0 SWAP1 DUP2 MSTORE PUSH1 0x2B PUSH1 0x20 MSTORE PUSH1 0x40 SWAP1 KECCAK256 SLOAD PUSH1 0x1 PUSH1 0x1 PUSH1 0x40 SHL SUB AND SWAP1 JUMP JUMPDEST PUSH2 0x2635 PUSH2 0x2FC8 JUMP JUMPDEST PUSH2 0x263E PUSH0 PUSH2 0x3552 JUMP JUMPDEST JUMP JUMPDEST PUSH0 DUP1 MLOAD PUSH1 0x20 PUSH2 0x5A7C DUP4 CODECOPY DUP2 MLOAD SWAP2 MSTORE PUSH2 0x2657 DUP2 PUSH2 0x2FBE JUMP JUMPDEST PUSH2 0x1560 DUP3 PUSH2 0x35A3 JUMP JUMPDEST DUP2 PUSH2 0x266A DUP2 PUSH2 0x1F4A JUMP JUMPDEST PUSH1 0x1 PUSH1 0x1 PUSH1 0xA0 SHL SUB AND CALLER PUSH1 0x1 PUSH1 0x1 PUSH1 0xA0 SHL SUB AND EQ PUSH2 0x26DD JUMPI PUSH1 0x40 MLOAD PUSH3 0x461BCD PUSH1 0xE5 SHL DUP2 MSTORE PUSH1 0x20 PUSH1 0x4 DUP3 ADD MSTORE PUSH1 0x2A PUSH1 0x24 DUP3 ADD MSTORE PUSH32 0x5265737472696374417070726F76653A206F7065726174696F6E206973206F6E PUSH1 0x44 DUP3 ADD MSTORE PUSH10 0x363C903437B63232B917 PUSH1 0xB1 SHL PUSH1 0x64 DUP3 ADD MSTORE PUSH1 0x84 ADD PUSH2 0x16C3 JUMP JUMPDEST POP PUSH0 SWAP2 DUP3 MSTORE PUSH1 0x10 PUSH1 0x20 MSTORE PUSH1 0x40 SWAP1 SWAP2 KECCAK256 SSTORE JUMP JUMPDEST PUSH0 DUP1 MLOAD PUSH1 0x20 PUSH2 0x5A7C DUP4 CODECOPY DUP2 MLOAD SWAP2 MSTORE PUSH2 0x2706 DUP2 PUSH2 0x2FBE JUMP JUMPDEST POP PUSH1 0x1C SSTORE JUMP JUMPDEST PUSH0 DUP1 MLOAD PUSH1 0x20 PUSH2 0x5A7C DUP4 CODECOPY DUP2 MLOAD SWAP2 MSTORE PUSH2 0x2723 DUP2 PUSH2 0x2FBE JUMP JUMPDEST DUP2 ISZERO DUP1 PUSH2 0x2730 JUMPI POP DUP2 PUSH1 0x1 EQ JUMPDEST PUSH2 0x2774 JUMPI PUSH1 0x40 MLOAD PUSH3 0x461BCD PUSH1 0xE5 SHL DUP2 MSTORE PUSH1 0x20 PUSH1 0x4 DUP3 ADD MSTORE PUSH1 0x15 PUSH1 0x24 DUP3 ADD MSTORE PUSH21 0x20B63637BB903634B9BA103A3CB8329032B93937B9 PUSH1 0x59 SHL PUSH1 0x44 DUP3 ADD MSTORE PUSH1 0x64 ADD PUSH2 0x16C3 JUMP JUMPDEST POP PUSH1 0x1B SSTORE JUMP JUMPDEST PUSH1 0x60 PUSH0 DUP1 PUSH2 0x2787 DUP5 PUSH2 0x259C JUMP JUMPDEST SWAP1 POP PUSH0 DUP2 PUSH1 0x1 PUSH1 0x1 PUSH1 0x40 SHL SUB DUP2 GT ISZERO PUSH2 0x27A2 JUMPI PUSH2 0x27A2 PUSH2 0x4E50 JUMP JUMPDEST PUSH1 0x40 MLOAD SWAP1 DUP1 DUP3 MSTORE DUP1 PUSH1 0x20 MUL PUSH1 0x20 ADD DUP3 ADD PUSH1 0x40 MSTORE DUP1 ISZERO PUSH2 0x27CB JUMPI DUP2 PUSH1 0x20 ADD PUSH1 0x20 DUP3 MUL DUP1 CALLDATASIZE DUP4 CALLDATACOPY ADD SWAP1 POP JUMPDEST POP SWAP1 POP PUSH0 JUMPDEST DUP3 DUP5 EQ PUSH2 0x2834 JUMPI PUSH2 0x27E0 DUP2 PUSH2 0x3124 JUMP JUMPDEST ISZERO PUSH2 0x282C JUMPI DUP6 PUSH1 0x1 PUSH1 0x1 PUSH1 0xA0 SHL SUB AND PUSH2 0x27F8 DUP3 PUSH2 0x1F4A JUMP JUMPDEST PUSH1 0x1 PUSH1 0x1 PUSH1 0xA0 SHL SUB AND SUB PUSH2 0x282C JUMPI DUP1 DUP3 DUP6 DUP1 PUSH1 0x1 ADD SWAP7 POP DUP2 MLOAD DUP2 LT PUSH2 0x281F JUMPI PUSH2 0x281F PUSH2 0x54E8 JUMP JUMPDEST PUSH1 0x20 MUL PUSH1 0x20 ADD ADD DUP2 DUP2 MSTORE POP POP JUMPDEST PUSH1 0x1 ADD PUSH2 0x27D0 JUMP JUMPDEST POP SWAP5 SWAP4 POP POP POP POP JUMP JUMPDEST PUSH0 PUSH2 0x1455 PUSH1 0x3 SLOAD PUSH1 0x1 PUSH1 0x1 PUSH1 0xA0 SHL SUB AND SWAP1 JUMP JUMPDEST PUSH0 DUP1 MLOAD PUSH1 0x20 PUSH2 0x5A7C DUP4 CODECOPY DUP2 MLOAD SWAP2 MSTORE PUSH2 0x2867 DUP2 PUSH2 0x2FBE JUMP JUMPDEST POP PUSH1 0x1A DUP1 SLOAD SWAP2 ISZERO ISZERO PUSH3 0x10000 MUL PUSH3 0xFF0000 NOT SWAP1 SWAP3 AND SWAP2 SWAP1 SWAP2 OR SWAP1 SSTORE JUMP JUMPDEST PUSH0 SWAP2 DUP3 MSTORE PUSH1 0x13 PUSH1 0x20 SWAP1 DUP2 MSTORE PUSH1 0x40 DUP1 DUP5 KECCAK256 PUSH1 0x1 PUSH1 0x1 PUSH1 0xA0 SHL SUB SWAP4 SWAP1 SWAP4 AND DUP5 MSTORE SWAP2 SWAP1 MSTORE SWAP1 KECCAK256 SLOAD PUSH1 0xFF AND SWAP1 JUMP JUMPDEST PUSH1 0x26 DUP1 SLOAD PUSH2 0x147D SWAP1 PUSH2 0x53B0 JUMP JUMPDEST PUSH1 0x60 PUSH1 0x6 DUP1 SLOAD PUSH2 0x15AD SWAP1 PUSH2 0x53B0 JUMP JUMPDEST PUSH0 DUP1 MLOAD PUSH1 0x20 PUSH2 0x5A7C DUP4 CODECOPY DUP2 MLOAD SWAP2 MSTORE PUSH2 0x28E1 DUP2 PUSH2 0x2FBE JUMP JUMPDEST PUSH1 0x25 PUSH2 0x1599 DUP4 DUP3 PUSH2 0x542D JUMP JUMPDEST PUSH2 0x2917 PUSH32 0x9F2DF0FED2C77648DE5860A4CC508CD0818C85B8B8A1AB4CEEEF8D981C8956A6 CALLER PUSH2 0x2884 JUMP JUMPDEST PUSH2 0x295C JUMPI PUSH1 0x40 MLOAD PUSH3 0x461BCD PUSH1 0xE5 SHL DUP2 MSTORE PUSH1 0x20 PUSH1 0x4 DUP3 ADD MSTORE PUSH1 0x16 PUSH1 0x24 DUP3 ADD MSTORE PUSH22 0x21B0B63632B91034B9903737BA10309036B4B73A32B9 PUSH1 0x51 SHL PUSH1 0x44 DUP3 ADD MSTORE PUSH1 0x64 ADD PUSH2 0x16C3 JUMP JUMPDEST PUSH1 0x17 SLOAD DUP2 PUSH1 0x1 PUSH2 0x296B PUSH1 0x8 SLOAD SWAP1 JUMP JUMPDEST PUSH2 0x2975 SWAP2 SWAP1 PUSH2 0x539D JUMP JUMPDEST PUSH2 0x297F SWAP2 SWAP1 PUSH2 0x54FC JUMP JUMPDEST GT ISZERO PUSH2 0x299D JUMPI PUSH1 0x40 MLOAD PUSH3 0x461BCD PUSH1 0xE5 SHL DUP2 MSTORE PUSH1 0x4 ADD PUSH2 0x16C3 SWAP1 PUSH2 0x5527 JUMP JUMPDEST PUSH2 0x1560 DUP3 DUP3 PUSH2 0x32C9 JUMP JUMPDEST DUP2 PUSH2 0x29B1 DUP2 PUSH2 0x3157 JUMP JUMPDEST PUSH1 0x2A SLOAD PUSH1 0xFF AND ISZERO DUP1 PUSH2 0x29C1 JUMPI POP DUP2 ISZERO JUMPDEST PUSH2 0x2A0D JUMPI PUSH1 0x40 MLOAD PUSH3 0x461BCD PUSH1 0xE5 SHL DUP2 MSTORE PUSH1 0x20 PUSH1 0x4 DUP3 ADD MSTORE PUSH1 0x1F PUSH1 0x24 DUP3 ADD MSTORE PUSH32 0x736574417070726F76616C466F72416C6C2069732070726F6869626974656400 PUSH1 0x44 DUP3 ADD MSTORE PUSH1 0x64 ADD PUSH2 0x16C3 JUMP JUMPDEST PUSH2 0x1599 DUP4 DUP4 PUSH2 0x35E7 JUMP JUMPDEST PUSH0 DUP1 MLOAD PUSH1 0x20 PUSH2 0x5A7C DUP4 CODECOPY DUP2 MLOAD SWAP2 MSTORE PUSH2 0x2A2E DUP2 PUSH2 0x2FBE JUMP JUMPDEST POP PUSH1 0x18 SSTORE JUMP JUMPDEST PUSH1 0x25 DUP1 SLOAD PUSH2 0x147D SWAP1 PUSH2 0x53B0 JUMP JUMPDEST PUSH1 0x29 DUP1 SLOAD PUSH2 0x147D SWAP1 PUSH2 0x53B0 JUMP JUMPDEST PUSH0 DUP1 MLOAD PUSH1 0x20 PUSH2 0x5A7C DUP4 CODECOPY DUP2 MLOAD SWAP2 MSTORE PUSH2 0x2A65 DUP2 PUSH2 0x2FBE JUMP JUMPDEST POP PUSH1 0x19 SSTORE JUMP JUMPDEST DUP4 PUSH1 0x1 PUSH1 0x1 PUSH1 0xA0 SHL SUB DUP2 AND CALLER EQ PUSH2 0x2A85 JUMPI PUSH2 0x2A85 CALLER PUSH2 0x3157 JUMP JUMPDEST PUSH2 0x1A1A DUP6 DUP6 DUP6 DUP6 PUSH2 0x3665 JUMP JUMPDEST PUSH2 0x2A99 PUSH2 0x283D JUMP JUMPDEST PUSH1 0x1 PUSH1 0x1 PUSH1 0xA0 SHL SUB AND CALLER PUSH1 0x1 PUSH1 0x1 PUSH1 0xA0 SHL SUB AND EQ PUSH2 0x2ACA JUMPI PUSH1 0x40 MLOAD PUSH4 0x5FC483C5 PUSH1 0xE0 SHL DUP2 MSTORE PUSH1 0x4 ADD PUSH1 0x40 MLOAD DUP1 SWAP2 SUB SWAP1 REVERT JUMPDEST PUSH0 SLOAD PUSH1 0x1 PUSH1 0xA0 SHL SWAP1 DIV PUSH1 0xFF AND ISZERO PUSH2 0x2AF4 JUMPI PUSH1 0x40 MLOAD PUSH4 0x1551A48F PUSH1 0xE1 SHL DUP2 MSTORE PUSH1 0x4 ADD PUSH1 0x40 MLOAD DUP1 SWAP2 SUB SWAP1 REVERT JUMPDEST PUSH0 DUP1 SLOAD PUSH1 0x1 PUSH1 0x1 PUSH1 0xA0 SHL SUB NOT AND PUSH1 0x1 PUSH1 0x1 PUSH1 0xA0 SHL SUB DUP4 AND SWAP1 DUP2 OR SWAP1 SWAP2 SSTORE PUSH1 0x40 MLOAD SWAP1 DUP2 MSTORE PUSH32 0x9F513FE86DC42FDBAC355FA4D9B1D5BE7B5E6CD2DF67E30DB8003766568DE476 SWAP1 PUSH1 0x20 ADD PUSH1 0x40 MLOAD DUP1 SWAP2 SUB SWAP1 LOG1 POP JUMP JUMPDEST PUSH0 DUP1 MLOAD PUSH1 0x20 PUSH2 0x5A7C DUP4 CODECOPY DUP2 MLOAD SWAP2 MSTORE PUSH2 0x2B5E DUP2 PUSH2 0x2FBE JUMP JUMPDEST POP PUSH1 0x1A DUP1 SLOAD PUSH1 0xFF NOT AND SWAP2 ISZERO ISZERO SWAP2 SWAP1 SWAP2 OR SWAP1 SSTORE JUMP JUMPDEST PUSH0 DUP1 MLOAD PUSH1 0x20 PUSH2 0x5A7C DUP4 CODECOPY DUP2 MLOAD SWAP2 MSTORE PUSH2 0x2B89 DUP2 PUSH2 0x2FBE JUMP JUMPDEST PUSH1 0x29 PUSH2 0x1599 DUP4 DUP3 PUSH2 0x542D JUMP JUMPDEST PUSH1 0x22 DUP1 SLOAD PUSH2 0x147D SWAP1 PUSH2 0x53B0 JUMP JUMPDEST PUSH1 0x23 SLOAD PUSH1 0x60 SWAP1 PUSH1 0x1 PUSH1 0xA0 SHL SWAP1 DIV PUSH1 0xFF AND ISZERO ISZERO PUSH1 0x1 SUB PUSH2 0x2C28 JUMPI PUSH1 0x23 SLOAD PUSH1 0x40 MLOAD PUSH4 0xC87B56DD PUSH1 0xE0 SHL DUP2 MSTORE PUSH1 0x4 DUP2 ADD DUP5 SWAP1 MSTORE PUSH1 0x1 PUSH1 0x1 PUSH1 0xA0 SHL SUB SWAP1 SWAP2 AND SWAP1 PUSH4 0xC87B56DD SWAP1 PUSH1 0x24 ADD PUSH0 PUSH1 0x40 MLOAD DUP1 DUP4 SUB DUP2 DUP7 GAS STATICCALL ISZERO DUP1 ISZERO PUSH2 0x2C01 JUMPI RETURNDATASIZE PUSH0 DUP1 RETURNDATACOPY RETURNDATASIZE PUSH0 REVERT JUMPDEST POP POP POP POP PUSH1 0x40 MLOAD RETURNDATASIZE PUSH0 DUP3 RETURNDATACOPY PUSH1 0x1F RETURNDATASIZE SWAP1 DUP2 ADD PUSH1 0x1F NOT AND DUP3 ADD PUSH1 0x40 MSTORE PUSH2 0x1524 SWAP2 SWAP1 DUP2 ADD SWAP1 PUSH2 0x55A4 JUMP JUMPDEST PUSH1 0x23 SLOAD PUSH1 0x1 PUSH1 0xA8 SHL SWAP1 DIV PUSH1 0xFF AND ISZERO ISZERO PUSH1 0x1 SUB PUSH2 0x2CE0 JUMPI PUSH1 0x28 SLOAD PUSH2 0x2CBA SWAP1 PUSH1 0x25 SWAP1 PUSH1 0x26 SWAP1 PUSH1 0x24 SWAP1 PUSH1 0xFF AND ISZERO ISZERO PUSH1 0x1 EQ PUSH2 0x2C6E JUMPI PUSH1 0x40 MLOAD DUP1 PUSH1 0x20 ADD PUSH1 0x40 MSTORE DUP1 PUSH0 DUP2 MSTORE POP PUSH2 0x2C90 JUMP JUMPDEST PUSH1 0x29 PUSH1 0x40 MLOAD PUSH1 0x20 ADD PUSH2 0x2C80 SWAP2 SWAP1 PUSH2 0x567B JUMP JUMPDEST PUSH1 0x40 MLOAD PUSH1 0x20 DUP2 DUP4 SUB SUB DUP2 MSTORE SWAP1 PUSH1 0x40 MSTORE JUMPDEST PUSH1 0x27 PUSH1 0x40 MLOAD PUSH1 0x20 ADD PUSH2 0x2CA6 SWAP6 SWAP5 SWAP4 SWAP3 SWAP2 SWAP1 PUSH2 0x56B3 JUMP JUMPDEST PUSH1 0x40 MLOAD PUSH1 0x20 DUP2 DUP4 SUB SUB DUP2 MSTORE SWAP1 PUSH1 0x40 MSTORE PUSH2 0x3697 JUMP JUMPDEST PUSH1 0x40 MLOAD PUSH1 0x20 ADD PUSH2 0x2CCA SWAP2 SWAP1 PUSH2 0x57B4 JUMP JUMPDEST PUSH1 0x40 MLOAD PUSH1 0x20 DUP2 DUP4 SUB SUB DUP2 MSTORE SWAP1 PUSH1 0x40 MSTORE SWAP1 POP SWAP2 SWAP1 POP JUMP JUMPDEST PUSH2 0x2CE9 DUP3 PUSH2 0x37F5 JUMP JUMPDEST PUSH1 0x22 PUSH1 0x40 MLOAD PUSH1 0x20 ADD PUSH2 0x2CCA SWAP3 SWAP2 SWAP1 PUSH2 0x57F8 JUMP JUMPDEST PUSH0 DUP3 DUP2 MSTORE PUSH1 0x13 PUSH1 0x20 MSTORE PUSH1 0x40 SWAP1 KECCAK256 PUSH1 0x1 ADD SLOAD PUSH2 0x2D16 DUP2 PUSH2 0x2FBE JUMP JUMPDEST PUSH2 0x1599 DUP4 DUP4 PUSH2 0x3367 JUMP JUMPDEST PUSH0 DUP1 MLOAD PUSH1 0x20 PUSH2 0x5A7C DUP4 CODECOPY DUP2 MLOAD SWAP2 MSTORE PUSH2 0x2D37 DUP2 PUSH2 0x2FBE JUMP JUMPDEST POP PUSH1 0x1D SSTORE JUMP JUMPDEST PUSH0 DUP1 MLOAD PUSH1 0x20 PUSH2 0x5A7C DUP4 CODECOPY DUP2 MLOAD SWAP2 MSTORE PUSH2 0x2D54 DUP2 PUSH2 0x2FBE JUMP JUMPDEST PUSH1 0x22 PUSH2 0x1599 DUP4 DUP3 PUSH2 0x542D JUMP JUMPDEST PUSH0 DUP1 MLOAD PUSH1 0x20 PUSH2 0x5A7C DUP4 CODECOPY DUP2 MLOAD SWAP2 MSTORE PUSH2 0x2D77 DUP2 PUSH2 0x2FBE JUMP JUMPDEST PUSH1 0x27 PUSH2 0x1599 DUP4 DUP3 PUSH2 0x542D JUMP JUMPDEST PUSH0 DUP1 MLOAD PUSH1 0x20 PUSH2 0x5A7C DUP4 CODECOPY DUP2 MLOAD SWAP2 MSTORE PUSH2 0x2D9A DUP2 PUSH2 0x2FBE JUMP JUMPDEST POP PUSH1 0x1A DUP1 SLOAD SWAP2 ISZERO ISZERO PUSH4 0x1000000 MUL PUSH4 0xFF000000 NOT SWAP1 SWAP3 AND SWAP2 SWAP1 SWAP2 OR SWAP1 SSTORE JUMP JUMPDEST PUSH0 PUSH2 0x2DC4 DUP4 DUP4 PUSH2 0x38B7 JUMP JUMPDEST ISZERO ISZERO PUSH0 SUB PUSH2 0x2DD3 JUMPI POP PUSH0 PUSH2 0x1524 JUMP JUMPDEST PUSH1 0x1 PUSH1 0x1 PUSH1 0xA0 SHL SUB DUP1 DUP5 AND PUSH0 SWAP1 DUP2 MSTORE PUSH1 0xA PUSH1 0x20 SWAP1 DUP2 MSTORE PUSH1 0x40 DUP1 DUP4 KECCAK256 SWAP4 DUP7 AND DUP4 MSTORE SWAP3 SWAP1 MSTORE KECCAK256 SLOAD PUSH1 0xFF AND JUMPDEST SWAP4 SWAP3 POP POP POP JUMP JUMPDEST PUSH0 DUP1 MLOAD PUSH1 0x20 PUSH2 0x5A7C DUP4 CODECOPY DUP2 MLOAD SWAP2 MSTORE PUSH2 0x2E1A DUP2 PUSH2 0x2FBE JUMP JUMPDEST POP PUSH1 0x23 DUP1 SLOAD SWAP2 ISZERO ISZERO PUSH1 0x1 PUSH1 0xA0 SHL MUL PUSH1 0xFF PUSH1 0xA0 SHL NOT SWAP1 SWAP3 AND SWAP2 SWAP1 SWAP2 OR SWAP1 SSTORE JUMP JUMPDEST PUSH2 0x2E41 PUSH2 0x2FC8 JUMP JUMPDEST PUSH1 0x1 PUSH1 0x1 PUSH1 0xA0 SHL SUB DUP2 AND PUSH2 0x2EA6 JUMPI PUSH1 0x40 MLOAD PUSH3 0x461BCD PUSH1 0xE5 SHL DUP2 MSTORE PUSH1 0x20 PUSH1 0x4 DUP3 ADD MSTORE PUSH1 0x26 PUSH1 0x24 DUP3 ADD MSTORE PUSH32 0x4F776E61626C653A206E6577206F776E657220697320746865207A65726F2061 PUSH1 0x44 DUP3 ADD MSTORE PUSH6 0x646472657373 PUSH1 0xD0 SHL PUSH1 0x64 DUP3 ADD MSTORE PUSH1 0x84 ADD PUSH2 0x16C3 JUMP JUMPDEST PUSH2 0x1BF9 DUP2 PUSH2 0x3552 JUMP JUMPDEST PUSH0 DUP1 MLOAD PUSH1 0x20 PUSH2 0x5A7C DUP4 CODECOPY DUP2 MLOAD SWAP2 MSTORE PUSH2 0x2EC6 DUP2 PUSH2 0x2FBE JUMP JUMPDEST POP PUSH1 0x20 DUP1 SLOAD PUSH1 0x1 PUSH1 0x1 PUSH1 0xA0 SHL SUB SWAP1 SWAP3 AND PUSH2 0x100 MUL PUSH2 0x100 PUSH1 0x1 PUSH1 0xA8 SHL SUB NOT SWAP1 SWAP3 AND SWAP2 SWAP1 SWAP2 OR SWAP1 SSTORE JUMP JUMPDEST PUSH0 DUP1 MLOAD PUSH1 0x20 PUSH2 0x5A7C DUP4 CODECOPY DUP2 MLOAD SWAP2 MSTORE PUSH2 0x2F06 DUP2 PUSH2 0x2FBE JUMP JUMPDEST POP PUSH1 0x2A DUP1 SLOAD PUSH1 0xFF NOT AND SWAP2 ISZERO ISZERO SWAP2 SWAP1 SWAP2 OR SWAP1 SSTORE JUMP JUMPDEST PUSH0 DUP1 MLOAD PUSH1 0x20 PUSH2 0x5A7C DUP4 CODECOPY DUP2 MLOAD SWAP2 MSTORE PUSH2 0x2F31 DUP2 PUSH2 0x2FBE JUMP JUMPDEST PUSH2 0x1560 DUP3 PUSH2 0x38D6 JUMP JUMPDEST PUSH1 0x60 PUSH2 0x1455 PUSH1 0xD PUSH2 0x391A JUMP JUMPDEST PUSH0 PUSH1 0x1 PUSH1 0x1 PUSH1 0xE0 SHL SUB NOT DUP3 AND PUSH4 0x152A902D PUSH1 0xE1 SHL EQ DUP1 PUSH2 0x1524 JUMPI POP PUSH4 0x1FFC9A7 PUSH1 0xE0 SHL PUSH1 0x1 PUSH1 0x1 PUSH1 0xE0 SHL SUB NOT DUP4 AND EQ PUSH2 0x1524 JUMP JUMPDEST PUSH0 PUSH1 0x1 PUSH1 0x1 PUSH1 0xE0 SHL SUB NOT DUP3 AND PUSH4 0x7965DB0B PUSH1 0xE0 SHL EQ DUP1 PUSH2 0x1524 JUMPI POP PUSH2 0x1524 DUP3 JUMPDEST PUSH0 PUSH1 0x1 PUSH1 0x1 PUSH1 0xE0 SHL SUB NOT DUP3 AND PUSH4 0x101C115 PUSH1 0xE7 SHL EQ DUP1 PUSH2 0x1524 JUMPI POP PUSH2 0x1524 DUP3 PUSH2 0x3926 JUMP JUMPDEST PUSH2 0x1BF9 DUP2 CALLER PUSH2 0x3965 JUMP JUMPDEST CALLER PUSH2 0x2FD1 PUSH2 0x283D JUMP JUMPDEST PUSH1 0x1 PUSH1 0x1 PUSH1 0xA0 SHL SUB AND EQ PUSH2 0x263E JUMPI PUSH1 0x40 MLOAD PUSH3 0x461BCD PUSH1 0xE5 SHL DUP2 MSTORE PUSH1 0x20 PUSH1 0x4 DUP3 ADD DUP2 SWAP1 MSTORE PUSH1 0x24 DUP3 ADD MSTORE PUSH32 0x4F776E61626C653A2063616C6C6572206973206E6F7420746865206F776E6572 PUSH1 0x44 DUP3 ADD MSTORE PUSH1 0x64 ADD PUSH2 0x16C3 JUMP JUMPDEST PUSH2 0x2710 PUSH1 0x1 PUSH1 0x1 PUSH1 0x60 SHL SUB DUP3 AND GT ISZERO PUSH2 0x3095 JUMPI PUSH1 0x40 MLOAD PUSH3 0x461BCD PUSH1 0xE5 SHL DUP2 MSTORE PUSH1 0x20 PUSH1 0x4 DUP3 ADD MSTORE PUSH1 0x2A PUSH1 0x24 DUP3 ADD MSTORE PUSH32 0x455243323938313A20726F79616C7479206665652077696C6C20657863656564 PUSH1 0x44 DUP3 ADD MSTORE PUSH10 0x2073616C655072696365 PUSH1 0xB0 SHL PUSH1 0x64 DUP3 ADD MSTORE PUSH1 0x84 ADD PUSH2 0x16C3 JUMP JUMPDEST PUSH1 0x1 PUSH1 0x1 PUSH1 0xA0 SHL SUB DUP3 AND PUSH2 0x30EB JUMPI PUSH1 0x40 MLOAD PUSH3 0x461BCD PUSH1 0xE5 SHL DUP2 MSTORE PUSH1 0x20 PUSH1 0x4 DUP3 ADD MSTORE PUSH1 0x19 PUSH1 0x24 DUP3 ADD MSTORE PUSH32 0x455243323938313A20696E76616C696420726563656976657200000000000000 PUSH1 0x44 DUP3 ADD MSTORE PUSH1 0x64 ADD PUSH2 0x16C3 JUMP JUMPDEST PUSH1 0x40 DUP1 MLOAD DUP1 DUP3 ADD SWAP1 SWAP2 MSTORE PUSH1 0x1 PUSH1 0x1 PUSH1 0xA0 SHL SUB SWAP1 SWAP3 AND DUP1 DUP4 MSTORE PUSH1 0x1 PUSH1 0x1 PUSH1 0x60 SHL SUB SWAP1 SWAP2 AND PUSH1 0x20 SWAP1 SWAP3 ADD DUP3 SWAP1 MSTORE PUSH1 0x1 PUSH1 0xA0 SHL SWAP1 SWAP2 MUL OR PUSH1 0x1 SSTORE JUMP JUMPDEST PUSH1 0x8 DUP2 SWAP1 SHR PUSH0 SWAP1 DUP2 MSTORE PUSH1 0xB PUSH1 0x20 MSTORE PUSH1 0x40 DUP2 KECCAK256 SLOAD PUSH1 0x1 PUSH1 0xFF SHL PUSH1 0xFF DUP5 AND SHR AND ISZERO PUSH2 0x314E JUMPI POP PUSH0 SWAP2 SWAP1 POP JUMP JUMPDEST PUSH2 0x1524 DUP3 PUSH2 0x39BE JUMP JUMPDEST PUSH0 SLOAD PUSH1 0x1 PUSH1 0x1 PUSH1 0xA0 SHL SUB AND DUP1 ISZERO DUP1 ISZERO SWAP1 PUSH2 0x317A JUMPI POP PUSH0 DUP2 PUSH1 0x1 PUSH1 0x1 PUSH1 0xA0 SHL SUB AND EXTCODESIZE GT JUMPDEST ISZERO PUSH2 0x1560 JUMPI PUSH1 0x40 MLOAD PUSH4 0x3185C44D PUSH1 0xE2 SHL DUP2 MSTORE ADDRESS PUSH1 0x4 DUP3 ADD MSTORE PUSH1 0x1 PUSH1 0x1 PUSH1 0xA0 SHL SUB DUP4 DUP2 AND PUSH1 0x24 DUP4 ADD MSTORE DUP3 AND SWAP1 PUSH4 0xC6171134 SWAP1 PUSH1 0x44 ADD PUSH1 0x20 PUSH1 0x40 MLOAD DUP1 DUP4 SUB DUP2 DUP7 GAS STATICCALL ISZERO DUP1 ISZERO PUSH2 0x31C9 JUMPI RETURNDATASIZE PUSH0 DUP1 RETURNDATACOPY RETURNDATASIZE PUSH0 REVERT JUMPDEST POP POP POP POP PUSH1 0x40 MLOAD RETURNDATASIZE PUSH1 0x1F NOT PUSH1 0x1F DUP3 ADD AND DUP3 ADD DUP1 PUSH1 0x40 MSTORE POP DUP2 ADD SWAP1 PUSH2 0x31ED SWAP2 SWAP1 PUSH2 0x5815 JUMP JUMPDEST PUSH2 0x1560 JUMPI PUSH1 0x40 MLOAD PUSH4 0x3B79C773 PUSH1 0xE2 SHL DUP2 MSTORE PUSH1 0x1 PUSH1 0x1 PUSH1 0xA0 SHL SUB DUP4 AND PUSH1 0x4 DUP3 ADD MSTORE PUSH1 0x24 ADD PUSH2 0x16C3 JUMP JUMPDEST PUSH2 0x321F DUP3 DUP3 PUSH2 0x39D9 JUMP JUMPDEST PUSH2 0x1560 DUP3 DUP3 PUSH2 0x3A54 JUMP JUMPDEST PUSH1 0x8 DUP1 SLOAD PUSH0 SWAP2 DUP3 SWAP2 DUP3 SWAP2 SWAP1 PUSH2 0x3240 SWAP2 SHR PUSH1 0x1 PUSH2 0x54FC JUMP JUMPDEST SWAP1 POP DUP2 JUMPDEST DUP2 DUP2 LT ISZERO PUSH2 0x3283 JUMPI PUSH0 DUP2 DUP2 MSTORE PUSH1 0xB PUSH1 0x20 MSTORE PUSH1 0x40 SWAP1 KECCAK256 SLOAD PUSH2 0x3263 DUP2 PUSH2 0x3B65 JUMP JUMPDEST PUSH2 0x326D SWAP1 DUP7 PUSH2 0x54FC JUMP JUMPDEST SWAP5 POP POP DUP1 DUP1 PUSH2 0x327B SWAP1 PUSH2 0x550F JUMP JUMPDEST SWAP2 POP POP PUSH2 0x3244 JUMP JUMPDEST POP POP POP SWAP1 JUMP JUMPDEST PUSH0 DUP1 PUSH1 0x8 SLOAD PUSH2 0x1455 SWAP2 SWAP1 PUSH2 0x539D JUMP JUMPDEST PUSH2 0x32A2 CALLER DUP3 PUSH2 0x3B82 JUMP JUMPDEST PUSH2 0x32BE JUMPI PUSH1 0x40 MLOAD PUSH3 0x461BCD PUSH1 0xE5 SHL DUP2 MSTORE PUSH1 0x4 ADD PUSH2 0x16C3 SWAP1 PUSH2 0x5830 JUMP JUMPDEST PUSH2 0x1599 DUP4 DUP4 DUP4 PUSH2 0x3C45 JUMP JUMPDEST PUSH2 0x1560 DUP3 DUP3 PUSH1 0x40 MLOAD DUP1 PUSH1 0x20 ADD PUSH1 0x40 MSTORE DUP1 PUSH0 DUP2 MSTORE POP PUSH2 0x3E3E JUMP JUMPDEST PUSH2 0x32EC DUP3 DUP3 PUSH2 0x2884 JUMP JUMPDEST PUSH2 0x1560 JUMPI PUSH0 DUP3 DUP2 MSTORE PUSH1 0x13 PUSH1 0x20 SWAP1 DUP2 MSTORE PUSH1 0x40 DUP1 DUP4 KECCAK256 PUSH1 0x1 PUSH1 0x1 PUSH1 0xA0 SHL SUB DUP6 AND DUP5 MSTORE SWAP1 SWAP2 MSTORE SWAP1 KECCAK256 DUP1 SLOAD PUSH1 0xFF NOT AND PUSH1 0x1 OR SWAP1 SSTORE PUSH2 0x3323 CALLER SWAP1 JUMP JUMPDEST PUSH1 0x1 PUSH1 0x1 PUSH1 0xA0 SHL SUB AND DUP2 PUSH1 0x1 PUSH1 0x1 PUSH1 0xA0 SHL SUB AND DUP4 PUSH32 0x2F8788117E7EFF1D82E926EC794901D17C78024A50270940304540A733656F0D PUSH1 0x40 MLOAD PUSH1 0x40 MLOAD DUP1 SWAP2 SUB SWAP1 LOG4 POP POP JUMP JUMPDEST PUSH2 0x3371 DUP3 DUP3 PUSH2 0x2884 JUMP JUMPDEST ISZERO PUSH2 0x1560 JUMPI PUSH0 DUP3 DUP2 MSTORE PUSH1 0x13 PUSH1 0x20 SWAP1 DUP2 MSTORE PUSH1 0x40 DUP1 DUP4 KECCAK256 PUSH1 0x1 PUSH1 0x1 PUSH1 0xA0 SHL SUB DUP6 AND DUP1 DUP6 MSTORE SWAP3 MSTORE DUP1 DUP4 KECCAK256 DUP1 SLOAD PUSH1 0xFF NOT AND SWAP1 SSTORE MLOAD CALLER SWAP3 DUP6 SWAP2 PUSH32 0xF6391F5C32D9C69D2A47EA670B442974B53935D1EDC7FD64EB21E047A839171B SWAP2 SWAP1 LOG4 POP POP JUMP JUMPDEST PUSH2 0x1599 DUP4 DUP4 DUP4 PUSH1 0x40 MLOAD DUP1 PUSH1 0x20 ADD PUSH1 0x40 MSTORE DUP1 PUSH0 DUP2 MSTORE POP PUSH2 0x2A6B JUMP JUMPDEST PUSH1 0x2 PUSH1 0x14 SLOAD SUB PUSH2 0x3439 JUMPI PUSH1 0x40 MLOAD PUSH3 0x461BCD PUSH1 0xE5 SHL DUP2 MSTORE PUSH1 0x20 PUSH1 0x4 DUP3 ADD MSTORE PUSH1 0x1F PUSH1 0x24 DUP3 ADD MSTORE PUSH32 0x5265656E7472616E637947756172643A207265656E7472616E742063616C6C00 PUSH1 0x44 DUP3 ADD MSTORE PUSH1 0x64 ADD PUSH2 0x16C3 JUMP JUMPDEST PUSH1 0x2 PUSH1 0x14 SSTORE JUMP JUMPDEST PUSH0 PUSH2 0x344A DUP3 PUSH2 0x1F4A JUMP JUMPDEST SWAP1 POP PUSH2 0x3459 DUP2 PUSH0 DUP5 PUSH1 0x1 PUSH2 0x3E7D JUMP JUMPDEST PUSH2 0x3464 PUSH1 0xB DUP4 PUSH2 0x3F07 JUMP JUMPDEST PUSH1 0x40 MLOAD DUP3 SWAP1 PUSH0 SWAP1 PUSH1 0x1 PUSH1 0x1 PUSH1 0xA0 SHL SUB DUP5 AND SWAP1 PUSH32 0xDDF252AD1BE2C89B69C2B068FC378DAA952BA7F163C4A11628F55A4DF523B3EF SWAP1 DUP4 SWAP1 LOG4 PUSH2 0x1560 DUP2 PUSH0 DUP5 PUSH1 0x1 PUSH2 0x3F32 JUMP JUMPDEST PUSH0 DUP1 PUSH2 0x34B3 DUP4 PUSH2 0x3124 JUMP JUMPDEST PUSH2 0x3514 JUMPI PUSH1 0x40 MLOAD PUSH3 0x461BCD PUSH1 0xE5 SHL DUP2 MSTORE PUSH1 0x20 PUSH1 0x4 DUP3 ADD MSTORE PUSH1 0x2C PUSH1 0x24 DUP3 ADD MSTORE PUSH32 0x4552433732315073693A206F776E657220717565727920666F72206E6F6E6578 PUSH1 0x44 DUP3 ADD MSTORE PUSH12 0x34B9BA32B73A103A37B5B2B7 PUSH1 0xA1 SHL PUSH1 0x64 DUP3 ADD MSTORE PUSH1 0x84 ADD PUSH2 0x16C3 JUMP JUMPDEST PUSH2 0x351D DUP4 PUSH2 0x40DC JUMP JUMPDEST PUSH0 DUP2 DUP2 MSTORE PUSH1 0x7 PUSH1 0x20 MSTORE PUSH1 0x40 SWAP1 KECCAK256 SLOAD PUSH1 0x1 PUSH1 0x1 PUSH1 0xA0 SHL SUB AND SWAP5 SWAP1 SWAP4 POP SWAP2 POP POP JUMP JUMPDEST PUSH0 DUP3 PUSH2 0x3549 DUP6 DUP5 PUSH2 0x40E8 JUMP JUMPDEST EQ SWAP5 SWAP4 POP POP POP POP JUMP JUMPDEST PUSH1 0x3 DUP1 SLOAD PUSH1 0x1 PUSH1 0x1 PUSH1 0xA0 SHL SUB DUP4 DUP2 AND PUSH1 0x1 PUSH1 0x1 PUSH1 0xA0 SHL SUB NOT DUP4 AND DUP2 OR SWAP1 SWAP4 SSTORE PUSH1 0x40 MLOAD SWAP2 AND SWAP2 SWAP1 DUP3 SWAP1 PUSH32 0x8BE0079C531659141344CD1FD0A4F28419497F9722A3DAAFE3B4186F6B6457E0 SWAP1 PUSH0 SWAP1 LOG3 POP POP JUMP JUMPDEST PUSH2 0x35AE PUSH1 0xD DUP3 PUSH2 0x412C JUMP JUMPDEST POP PUSH1 0x40 MLOAD PUSH1 0x1 PUSH1 0x1 PUSH1 0xA0 SHL SUB DUP3 AND SWAP1 CALLER SWAP1 PUSH32 0x3B01C97343869CA2757FCC37CDB8F71683B0A7AED858E3755F4529A1DB857292 SWAP1 PUSH0 SWAP1 LOG3 POP JUMP JUMPDEST PUSH2 0x35F0 DUP3 PUSH2 0x4140 JUMP JUMPDEST DUP1 PUSH2 0x35F9 JUMPI POP DUP1 ISZERO JUMPDEST PUSH2 0x365B JUMPI PUSH1 0x40 MLOAD PUSH3 0x461BCD PUSH1 0xE5 SHL DUP2 MSTORE PUSH1 0x20 PUSH1 0x4 DUP3 ADD MSTORE PUSH1 0x2D PUSH1 0x24 DUP3 ADD MSTORE PUSH32 0x5265737472696374417070726F76653A2043616E206E6F7420617070726F7665 PUSH1 0x44 DUP3 ADD MSTORE PUSH13 0x103637B1B5B2B2103A37B5B2B7 PUSH1 0x99 SHL PUSH1 0x64 DUP3 ADD MSTORE PUSH1 0x84 ADD PUSH2 0x16C3 JUMP JUMPDEST PUSH2 0x1560 DUP3 DUP3 PUSH2 0x414B JUMP JUMPDEST PUSH2 0x366F CALLER DUP4 PUSH2 0x3B82 JUMP JUMPDEST PUSH2 0x368B JUMPI PUSH1 0x40 MLOAD PUSH3 0x461BCD PUSH1 0xE5 SHL DUP2 MSTORE PUSH1 0x4 ADD PUSH2 0x16C3 SWAP1 PUSH2 0x5830 JUMP JUMPDEST PUSH2 0x17D8 DUP5 DUP5 DUP5 DUP5 PUSH2 0x420E JUMP JUMPDEST PUSH1 0x60 DUP2 MLOAD PUSH0 SUB PUSH2 0x36B4 JUMPI POP POP PUSH1 0x40 DUP1 MLOAD PUSH1 0x20 DUP2 ADD SWAP1 SWAP2 MSTORE PUSH0 DUP2 MSTORE SWAP1 JUMP JUMPDEST PUSH0 PUSH1 0x40 MLOAD DUP1 PUSH1 0x60 ADD PUSH1 0x40 MSTORE DUP1 PUSH1 0x40 DUP2 MSTORE PUSH1 0x20 ADD PUSH2 0x5A3C PUSH1 0x40 SWAP2 CODECOPY SWAP1 POP PUSH0 PUSH1 0x3 DUP5 MLOAD PUSH1 0x2 PUSH2 0x36E1 SWAP2 SWAP1 PUSH2 0x54FC JUMP JUMPDEST PUSH2 0x36EB SWAP2 SWAP1 PUSH2 0x556E JUMP JUMPDEST PUSH2 0x36F6 SWAP1 PUSH1 0x4 PUSH2 0x5557 JUMP JUMPDEST SWAP1 POP PUSH0 PUSH2 0x3704 DUP3 PUSH1 0x20 PUSH2 0x54FC JUMP JUMPDEST PUSH1 0x1 PUSH1 0x1 PUSH1 0x40 SHL SUB DUP2 GT ISZERO PUSH2 0x371B JUMPI PUSH2 0x371B PUSH2 0x4E50 JUMP JUMPDEST PUSH1 0x40 MLOAD SWAP1 DUP1 DUP3 MSTORE DUP1 PUSH1 0x1F ADD PUSH1 0x1F NOT AND PUSH1 0x20 ADD DUP3 ADD PUSH1 0x40 MSTORE DUP1 ISZERO PUSH2 0x3745 JUMPI PUSH1 0x20 DUP3 ADD DUP2 DUP1 CALLDATASIZE DUP4 CALLDATACOPY ADD SWAP1 POP JUMPDEST POP SWAP1 POP DUP2 DUP2 MSTORE PUSH1 0x1 DUP4 ADD DUP6 DUP7 MLOAD DUP2 ADD PUSH1 0x20 DUP5 ADD JUMPDEST DUP2 DUP4 LT ISZERO PUSH2 0x37B1 JUMPI PUSH1 0x3 DUP4 ADD SWAP3 POP DUP3 MLOAD PUSH1 0x3F DUP2 PUSH1 0x12 SHR AND DUP6 ADD MLOAD DUP3 MSTORE8 PUSH1 0x1 DUP3 ADD SWAP2 POP PUSH1 0x3F DUP2 PUSH1 0xC SHR AND DUP6 ADD MLOAD DUP3 MSTORE8 PUSH1 0x1 DUP3 ADD SWAP2 POP PUSH1 0x3F DUP2 PUSH1 0x6 SHR AND DUP6 ADD MLOAD DUP3 MSTORE8 PUSH1 0x1 DUP3 ADD SWAP2 POP PUSH1 0x3F DUP2 AND DUP6 ADD MLOAD DUP3 MSTORE8 POP PUSH1 0x1 ADD PUSH2 0x3759 JUMP JUMPDEST PUSH1 0x3 DUP10 MLOAD MOD PUSH1 0x1 DUP2 EQ PUSH2 0x37CB JUMPI PUSH1 0x2 DUP2 EQ PUSH2 0x37DC JUMPI PUSH2 0x37E7 JUMP JUMPDEST PUSH2 0x3D3D PUSH1 0xF0 SHL PUSH1 0x1 NOT DUP4 ADD MSTORE PUSH2 0x37E7 JUMP JUMPDEST PUSH1 0x3D PUSH1 0xF8 SHL PUSH0 NOT DUP4 ADD MSTORE JUMPDEST POP SWAP4 SWAP9 SWAP8 POP POP POP POP POP POP POP POP JUMP JUMPDEST PUSH1 0x60 PUSH2 0x3800 DUP3 PUSH2 0x3124 JUMP JUMPDEST PUSH2 0x385F JUMPI PUSH1 0x40 MLOAD PUSH3 0x461BCD PUSH1 0xE5 SHL DUP2 MSTORE PUSH1 0x20 PUSH1 0x4 DUP3 ADD MSTORE PUSH1 0x2A PUSH1 0x24 DUP3 ADD MSTORE PUSH32 0x4552433732315073693A2055524920717565727920666F72206E6F6E65786973 PUSH1 0x44 DUP3 ADD MSTORE PUSH10 0x3A32B73A103A37B5B2B7 PUSH1 0xB1 SHL PUSH1 0x64 DUP3 ADD MSTORE PUSH1 0x84 ADD PUSH2 0x16C3 JUMP JUMPDEST PUSH0 PUSH2 0x3868 PUSH2 0x4227 JUMP JUMPDEST SWAP1 POP PUSH0 DUP2 MLOAD GT PUSH2 0x3886 JUMPI PUSH1 0x40 MLOAD DUP1 PUSH1 0x20 ADD PUSH1 0x40 MSTORE DUP1 PUSH0 DUP2 MSTORE POP PUSH2 0x2DFC JUMP JUMPDEST DUP1 PUSH2 0x3890 DUP5 PUSH2 0x4236 JUMP JUMPDEST PUSH1 0x40 MLOAD PUSH1 0x20 ADD PUSH2 0x38A1 SWAP3 SWAP2 SWAP1 PUSH2 0x5884 JUMP JUMPDEST PUSH1 0x40 MLOAD PUSH1 0x20 DUP2 DUP4 SUB SUB DUP2 MSTORE SWAP1 PUSH1 0x40 MSTORE SWAP4 SWAP3 POP POP POP JUMP JUMPDEST PUSH0 DUP1 PUSH2 0x38C2 DUP5 PUSH2 0x42C5 JUMP JUMPDEST SWAP1 POP PUSH2 0x38CE DUP4 DUP3 PUSH2 0x4305 JUMP JUMPDEST SWAP5 SWAP4 POP POP POP POP JUMP JUMPDEST PUSH2 0x38E1 PUSH1 0xD DUP3 PUSH2 0x439B JUMP JUMPDEST POP PUSH1 0x40 MLOAD PUSH1 0x1 PUSH1 0x1 PUSH1 0xA0 SHL SUB DUP3 AND SWAP1 CALLER SWAP1 PUSH32 0xBD0AF1FE0A2C1C7BB340C17A284A291138979C8EEB797E176DBD1C415199AF3C SWAP1 PUSH0 SWAP1 LOG3 POP JUMP JUMPDEST PUSH1 0x60 PUSH0 PUSH2 0x2DFC DUP4 PUSH2 0x43AF JUMP JUMPDEST PUSH0 PUSH1 0x1 PUSH1 0x1 PUSH1 0xE0 SHL SUB NOT DUP3 AND PUSH4 0x80AC58CD PUSH1 0xE0 SHL EQ DUP1 PUSH2 0x3956 JUMPI POP PUSH1 0x1 PUSH1 0x1 PUSH1 0xE0 SHL SUB NOT DUP3 AND PUSH4 0x5B5E139F PUSH1 0xE0 SHL EQ JUMPDEST DUP1 PUSH2 0x1524 JUMPI POP PUSH2 0x1524 DUP3 PUSH2 0x2F46 JUMP JUMPDEST PUSH2 0x396F DUP3 DUP3 PUSH2 0x2884 JUMP JUMPDEST PUSH2 0x1560 JUMPI PUSH2 0x397C DUP2 PUSH2 0x4408 JUMP JUMPDEST PUSH2 0x3987 DUP4 PUSH1 0x20 PUSH2 0x441A JUMP JUMPDEST PUSH1 0x40 MLOAD PUSH1 0x20 ADD PUSH2 0x3998 SWAP3 SWAP2 SWAP1 PUSH2 0x58B2 JUMP JUMPDEST PUSH1 0x40 DUP1 MLOAD PUSH1 0x1F NOT DUP2 DUP5 SUB ADD DUP2 MSTORE SWAP1 DUP3 SWAP1 MSTORE PUSH3 0x461BCD PUSH1 0xE5 SHL DUP3 MSTORE PUSH2 0x16C3 SWAP2 PUSH1 0x4 ADD PUSH2 0x4D9F JUMP JUMPDEST PUSH0 PUSH2 0x39C8 PUSH1 0x8 SLOAD SWAP1 JUMP JUMPDEST DUP3 LT DUP1 ISZERO PUSH2 0x1524 JUMPI POP PUSH1 0x1 SWAP3 SWAP2 POP POP JUMP JUMPDEST PUSH1 0x1 PUSH1 0x1 PUSH1 0xA0 SHL SUB DUP3 AND ISZERO PUSH2 0x1560 JUMPI PUSH2 0x39F2 DUP2 DUP4 PUSH2 0x45AF JUMP JUMPDEST PUSH2 0x1560 JUMPI PUSH1 0x40 MLOAD PUSH3 0x461BCD PUSH1 0xE5 SHL DUP2 MSTORE PUSH1 0x20 PUSH1 0x4 DUP3 ADD MSTORE PUSH1 0x2D PUSH1 0x24 DUP3 ADD MSTORE PUSH32 0x5265737472696374417070726F76653A2054686520636F6E7472616374206973 PUSH1 0x44 DUP3 ADD MSTORE PUSH13 0x103737BA1030B63637BBB2B217 PUSH1 0x99 SHL PUSH1 0x64 DUP3 ADD MSTORE PUSH1 0x84 ADD PUSH2 0x16C3 JUMP JUMPDEST PUSH0 PUSH2 0x3A5E DUP3 PUSH2 0x1F4A JUMP JUMPDEST SWAP1 POP DUP1 PUSH1 0x1 PUSH1 0x1 PUSH1 0xA0 SHL SUB AND DUP4 PUSH1 0x1 PUSH1 0x1 PUSH1 0xA0 SHL SUB AND SUB PUSH2 0x3ACD JUMPI PUSH1 0x40 MLOAD PUSH3 0x461BCD PUSH1 0xE5 SHL DUP2 MSTORE PUSH1 0x20 PUSH1 0x4 DUP3 ADD MSTORE PUSH1 0x24 DUP1 DUP3 ADD MSTORE PUSH32 0x4552433732315073693A20617070726F76616C20746F2063757272656E74206F PUSH1 0x44 DUP3 ADD MSTORE PUSH4 0x3BB732B9 PUSH1 0xE1 SHL PUSH1 0x64 DUP3 ADD MSTORE PUSH1 0x84 ADD PUSH2 0x16C3 JUMP JUMPDEST CALLER PUSH1 0x1 PUSH1 0x1 PUSH1 0xA0 SHL SUB DUP3 AND EQ DUP1 PUSH2 0x3AE9 JUMPI POP PUSH2 0x3AE9 DUP2 CALLER PUSH2 0x2DB9 JUMP JUMPDEST PUSH2 0x3B5B JUMPI PUSH1 0x40 MLOAD PUSH3 0x461BCD PUSH1 0xE5 SHL DUP2 MSTORE PUSH1 0x20 PUSH1 0x4 DUP3 ADD MSTORE PUSH1 0x3B PUSH1 0x24 DUP3 ADD MSTORE PUSH32 0x4552433732315073693A20617070726F76652063616C6C6572206973206E6F74 PUSH1 0x44 DUP3 ADD MSTORE PUSH32 0x206F776E6572206E6F7220617070726F76656420666F7220616C6C0000000000 PUSH1 0x64 DUP3 ADD MSTORE PUSH1 0x84 ADD PUSH2 0x16C3 JUMP JUMPDEST PUSH2 0x1599 DUP4 DUP4 PUSH2 0x45BB JUMP JUMPDEST PUSH0 JUMPDEST DUP2 ISZERO PUSH2 0x3B7D JUMPI PUSH0 NOT DUP3 ADD SWAP1 SWAP2 AND SWAP1 PUSH1 0x1 ADD PUSH2 0x3B67 JUMP JUMPDEST SWAP2 SWAP1 POP JUMP JUMPDEST PUSH0 PUSH2 0x3B8C DUP3 PUSH2 0x3124 JUMP JUMPDEST PUSH2 0x3BF0 JUMPI PUSH1 0x40 MLOAD PUSH3 0x461BCD PUSH1 0xE5 SHL DUP2 MSTORE PUSH1 0x20 PUSH1 0x4 DUP3 ADD MSTORE PUSH1 0x2F PUSH1 0x24 DUP3 ADD MSTORE PUSH32 0x4552433732315073693A206F70657261746F7220717565727920666F72206E6F PUSH1 0x44 DUP3 ADD MSTORE PUSH15 0x3732BC34B9BA32B73A103A37B5B2B7 PUSH1 0x89 SHL PUSH1 0x64 DUP3 ADD MSTORE PUSH1 0x84 ADD PUSH2 0x16C3 JUMP JUMPDEST PUSH0 PUSH2 0x3BFA DUP4 PUSH2 0x1F4A JUMP JUMPDEST SWAP1 POP DUP1 PUSH1 0x1 PUSH1 0x1 PUSH1 0xA0 SHL SUB AND DUP5 PUSH1 0x1 PUSH1 0x1 PUSH1 0xA0 SHL SUB AND EQ DUP1 PUSH2 0x3C35 JUMPI POP DUP4 PUSH1 0x1 PUSH1 0x1 PUSH1 0xA0 SHL SUB AND PUSH2 0x3C2A DUP5 PUSH2 0x1659 JUMP JUMPDEST PUSH1 0x1 PUSH1 0x1 PUSH1 0xA0 SHL SUB AND EQ JUMPDEST DUP1 PUSH2 0x38CE JUMPI POP PUSH2 0x38CE DUP2 DUP6 PUSH2 0x2DB9 JUMP JUMPDEST PUSH0 DUP1 PUSH2 0x3C50 DUP4 PUSH2 0x34A8 JUMP JUMPDEST SWAP2 POP SWAP2 POP DUP5 PUSH1 0x1 PUSH1 0x1 PUSH1 0xA0 SHL SUB AND DUP3 PUSH1 0x1 PUSH1 0x1 PUSH1 0xA0 SHL SUB AND EQ PUSH2 0x3CCA JUMPI PUSH1 0x40 MLOAD PUSH3 0x461BCD PUSH1 0xE5 SHL DUP2 MSTORE PUSH1 0x20 PUSH1 0x4 DUP3 ADD MSTORE PUSH1 0x2C PUSH1 0x24 DUP3 ADD MSTORE PUSH32 0x4552433732315073693A207472616E73666572206F6620746F6B656E20746861 PUSH1 0x44 DUP3 ADD MSTORE PUSH12 0x3A1034B9903737BA1037BBB7 PUSH1 0xA1 SHL PUSH1 0x64 DUP3 ADD MSTORE PUSH1 0x84 ADD PUSH2 0x16C3 JUMP JUMPDEST PUSH1 0x1 PUSH1 0x1 PUSH1 0xA0 SHL SUB DUP5 AND PUSH2 0x3D30 JUMPI PUSH1 0x40 MLOAD PUSH3 0x461BCD PUSH1 0xE5 SHL DUP2 MSTORE PUSH1 0x20 PUSH1 0x4 DUP3 ADD MSTORE PUSH1 0x27 PUSH1 0x24 DUP3 ADD MSTORE PUSH32 0x4552433732315073693A207472616E7366657220746F20746865207A65726F20 PUSH1 0x44 DUP3 ADD MSTORE PUSH7 0x61646472657373 PUSH1 0xC8 SHL PUSH1 0x64 DUP3 ADD MSTORE PUSH1 0x84 ADD PUSH2 0x16C3 JUMP JUMPDEST PUSH2 0x3D3D DUP6 DUP6 DUP6 PUSH1 0x1 PUSH2 0x3E7D JUMP JUMPDEST PUSH2 0x3D47 PUSH0 DUP5 PUSH2 0x45BB JUMP JUMPDEST PUSH0 PUSH2 0x3D53 DUP5 PUSH1 0x1 PUSH2 0x54FC JUMP JUMPDEST PUSH1 0x8 DUP2 SWAP1 SHR PUSH0 SWAP1 DUP2 MSTORE PUSH1 0x4 PUSH1 0x20 MSTORE PUSH1 0x40 SWAP1 KECCAK256 SLOAD SWAP1 SWAP2 POP PUSH1 0x1 PUSH1 0xFF SHL PUSH1 0xFF DUP4 AND SHR AND ISZERO DUP1 ISZERO PUSH2 0x3D82 JUMPI POP PUSH1 0x8 SLOAD DUP2 LT JUMPDEST ISZERO PUSH2 0x3DB8 JUMPI PUSH0 DUP2 DUP2 MSTORE PUSH1 0x7 PUSH1 0x20 MSTORE PUSH1 0x40 SWAP1 KECCAK256 DUP1 SLOAD PUSH1 0x1 PUSH1 0x1 PUSH1 0xA0 SHL SUB NOT AND PUSH1 0x1 PUSH1 0x1 PUSH1 0xA0 SHL SUB DUP9 AND OR SWAP1 SSTORE PUSH2 0x3DB8 PUSH1 0x4 DUP3 PUSH2 0x3F07 JUMP JUMPDEST PUSH0 DUP5 DUP2 MSTORE PUSH1 0x7 PUSH1 0x20 MSTORE PUSH1 0x40 SWAP1 KECCAK256 DUP1 SLOAD PUSH1 0x1 PUSH1 0x1 PUSH1 0xA0 SHL SUB NOT AND PUSH1 0x1 PUSH1 0x1 PUSH1 0xA0 SHL SUB DUP8 AND OR SWAP1 SSTORE DUP2 DUP5 EQ PUSH2 0x3DF0 JUMPI PUSH2 0x3DF0 PUSH1 0x4 DUP6 PUSH2 0x3F07 JUMP JUMPDEST DUP4 DUP6 PUSH1 0x1 PUSH1 0x1 PUSH1 0xA0 SHL SUB AND DUP8 PUSH1 0x1 PUSH1 0x1 PUSH1 0xA0 SHL SUB AND PUSH32 0xDDF252AD1BE2C89B69C2B068FC378DAA952BA7F163C4A11628F55A4DF523B3EF PUSH1 0x40 MLOAD PUSH1 0x40 MLOAD DUP1 SWAP2 SUB SWAP1 LOG4 PUSH2 0x2534 DUP7 DUP7 DUP7 PUSH1 0x1 PUSH2 0x3F32 JUMP JUMPDEST PUSH0 PUSH2 0x3E48 PUSH1 0x8 SLOAD SWAP1 JUMP JUMPDEST SWAP1 POP PUSH2 0x3E54 DUP5 DUP5 PUSH2 0x4628 JUMP JUMPDEST PUSH2 0x3E61 PUSH0 DUP6 DUP4 DUP7 DUP7 PUSH2 0x47AE JUMP JUMPDEST PUSH2 0x17D8 JUMPI PUSH1 0x40 MLOAD PUSH3 0x461BCD PUSH1 0xE5 SHL DUP2 MSTORE PUSH1 0x4 ADD PUSH2 0x16C3 SWAP1 PUSH2 0x5926 JUMP JUMPDEST PUSH1 0x2A SLOAD PUSH1 0xFF AND ISZERO DUP1 PUSH2 0x3E96 JUMPI POP PUSH1 0x1 PUSH1 0x1 PUSH1 0xA0 SHL SUB DUP5 AND ISZERO JUMPDEST DUP1 PUSH2 0x3EA8 JUMPI POP PUSH1 0x1 PUSH1 0x1 PUSH1 0xA0 SHL SUB DUP4 AND ISZERO JUMPDEST DUP1 PUSH2 0x3EBD JUMPI POP PUSH1 0x1 PUSH1 0x1 PUSH1 0xA0 SHL SUB DUP4 AND PUSH2 0xDEAD EQ JUMPDEST PUSH2 0x3F02 JUMPI PUSH1 0x40 MLOAD PUSH3 0x461BCD PUSH1 0xE5 SHL DUP2 MSTORE PUSH1 0x20 PUSH1 0x4 DUP3 ADD MSTORE PUSH1 0x16 PUSH1 0x24 DUP3 ADD MSTORE PUSH22 0x1D1C985B9CD9995C881A5CC81C1C9BDA1A589A5D1959 PUSH1 0x52 SHL PUSH1 0x44 DUP3 ADD MSTORE PUSH1 0x64 ADD PUSH2 0x16C3 JUMP JUMPDEST PUSH2 0x17D8 JUMP JUMPDEST PUSH1 0x8 DUP2 SWAP1 SHR PUSH0 SWAP1 DUP2 MSTORE PUSH1 0x20 SWAP3 SWAP1 SWAP3 MSTORE PUSH1 0x40 SWAP1 SWAP2 KECCAK256 DUP1 SLOAD PUSH1 0x1 PUSH1 0xFF SHL PUSH1 0xFF SWAP1 SWAP4 AND SWAP3 SWAP1 SWAP3 SHR SWAP1 SWAP2 OR SWAP1 SSTORE JUMP JUMPDEST PUSH1 0x1 PUSH1 0x40 SHL DUP2 LT PUSH2 0x3F41 JUMPI PUSH0 DUP1 REVERT JUMPDEST DUP1 PUSH1 0x1 PUSH1 0x1 PUSH1 0xA0 SHL SUB DUP6 AND ISZERO PUSH2 0x3FAA JUMPI PUSH1 0x1 PUSH1 0x1 PUSH1 0xA0 SHL SUB DUP6 AND PUSH0 SWAP1 DUP2 MSTORE PUSH1 0x2B PUSH1 0x20 MSTORE PUSH1 0x40 DUP2 KECCAK256 DUP1 SLOAD DUP4 SWAP3 SWAP1 PUSH2 0x3F81 SWAP1 DUP5 SWAP1 PUSH1 0x1 PUSH1 0x1 PUSH1 0x40 SHL SUB AND PUSH2 0x597B JUMP JUMPDEST SWAP3 POP PUSH2 0x100 EXP DUP2 SLOAD DUP2 PUSH1 0x1 PUSH1 0x1 PUSH1 0x40 SHL SUB MUL NOT AND SWAP1 DUP4 PUSH1 0x1 PUSH1 0x1 PUSH1 0x40 SHL SUB AND MUL OR SWAP1 SSTORE POP PUSH2 0x4009 JUMP JUMPDEST PUSH1 0x1 PUSH1 0x1 PUSH1 0xA0 SHL SUB DUP5 AND PUSH0 SWAP1 DUP2 MSTORE PUSH1 0x2B PUSH1 0x20 MSTORE PUSH1 0x40 SWAP1 KECCAK256 DUP1 SLOAD DUP3 SWAP2 SWAP1 PUSH1 0x8 SWAP1 PUSH2 0x3FE4 SWAP1 DUP5 SWAP1 PUSH1 0x1 PUSH1 0x40 SHL SWAP1 DIV PUSH1 0x1 PUSH1 0x1 PUSH1 0x40 SHL SUB AND PUSH2 0x599B JUMP JUMPDEST SWAP3 POP PUSH2 0x100 EXP DUP2 SLOAD DUP2 PUSH1 0x1 PUSH1 0x1 PUSH1 0x40 SHL SUB MUL NOT AND SWAP1 DUP4 PUSH1 0x1 PUSH1 0x1 PUSH1 0x40 SHL SUB AND MUL OR SWAP1 SSTORE POP JUMPDEST PUSH1 0x1 PUSH1 0x1 PUSH1 0xA0 SHL SUB DUP5 AND ISZERO PUSH2 0x4071 JUMPI PUSH1 0x1 PUSH1 0x1 PUSH1 0xA0 SHL SUB DUP5 AND PUSH0 SWAP1 DUP2 MSTORE PUSH1 0x2B PUSH1 0x20 MSTORE PUSH1 0x40 DUP2 KECCAK256 DUP1 SLOAD DUP4 SWAP3 SWAP1 PUSH2 0x4048 SWAP1 DUP5 SWAP1 PUSH1 0x1 PUSH1 0x1 PUSH1 0x40 SHL SUB AND PUSH2 0x599B JUMP JUMPDEST SWAP3 POP PUSH2 0x100 EXP DUP2 SLOAD DUP2 PUSH1 0x1 PUSH1 0x1 PUSH1 0x40 SHL SUB MUL NOT AND SWAP1 DUP4 PUSH1 0x1 PUSH1 0x1 PUSH1 0x40 SHL SUB AND MUL OR SWAP1 SSTORE POP PUSH2 0x40D0 JUMP JUMPDEST PUSH1 0x1 PUSH1 0x1 PUSH1 0xA0 SHL SUB DUP6 AND PUSH0 SWAP1 DUP2 MSTORE PUSH1 0x2B PUSH1 0x20 MSTORE PUSH1 0x40 SWAP1 KECCAK256 DUP1 SLOAD DUP3 SWAP2 SWAP1 PUSH1 0x10 SWAP1 PUSH2 0x40AB SWAP1 DUP5 SWAP1 PUSH1 0x1 PUSH1 0x80 SHL SWAP1 DIV PUSH1 0x1 PUSH1 0x1 PUSH1 0x40 SHL SUB AND PUSH2 0x599B JUMP JUMPDEST SWAP3 POP PUSH2 0x100 EXP DUP2 SLOAD DUP2 PUSH1 0x1 PUSH1 0x1 PUSH1 0x40 SHL SUB MUL NOT AND SWAP1 DUP4 PUSH1 0x1 PUSH1 0x1 PUSH1 0x40 SHL SUB AND MUL OR SWAP1 SSTORE POP JUMPDEST PUSH2 0x1A1A DUP6 DUP6 DUP6 DUP6 PUSH2 0x48E1 JUMP JUMPDEST PUSH0 PUSH2 0x1524 PUSH1 0x4 DUP4 PUSH2 0x4903 JUMP JUMPDEST PUSH0 DUP2 DUP2 JUMPDEST DUP5 MLOAD DUP2 LT ISZERO PUSH2 0x1F55 JUMPI PUSH2 0x4118 DUP3 DUP7 DUP4 DUP2 MLOAD DUP2 LT PUSH2 0x410B JUMPI PUSH2 0x410B PUSH2 0x54E8 JUMP JUMPDEST PUSH1 0x20 MUL PUSH1 0x20 ADD ADD MLOAD PUSH2 0x49F7 JUMP JUMPDEST SWAP2 POP DUP1 PUSH2 0x4124 DUP2 PUSH2 0x550F JUMP JUMPDEST SWAP2 POP POP PUSH2 0x40EC JUMP JUMPDEST PUSH0 PUSH2 0x2DFC DUP4 PUSH1 0x1 PUSH1 0x1 PUSH1 0xA0 SHL SUB DUP5 AND PUSH2 0x4A23 JUMP JUMPDEST PUSH0 PUSH2 0x1524 CALLER DUP4 PUSH2 0x38B7 JUMP JUMPDEST CALLER PUSH1 0x1 PUSH1 0x1 PUSH1 0xA0 SHL SUB DUP4 AND SUB PUSH2 0x41A3 JUMPI PUSH1 0x40 MLOAD PUSH3 0x461BCD PUSH1 0xE5 SHL DUP2 MSTORE PUSH1 0x20 PUSH1 0x4 DUP3 ADD MSTORE PUSH1 0x1C PUSH1 0x24 DUP3 ADD MSTORE PUSH32 0x4552433732315073693A20617070726F766520746F2063616C6C657200000000 PUSH1 0x44 DUP3 ADD MSTORE PUSH1 0x64 ADD PUSH2 0x16C3 JUMP JUMPDEST CALLER PUSH0 DUP2 DUP2 MSTORE PUSH1 0xA PUSH1 0x20 SWAP1 DUP2 MSTORE PUSH1 0x40 DUP1 DUP4 KECCAK256 PUSH1 0x1 PUSH1 0x1 PUSH1 0xA0 SHL SUB DUP8 AND DUP1 DUP6 MSTORE SWAP1 DUP4 MSTORE SWAP3 DUP2 SWAP1 KECCAK256 DUP1 SLOAD PUSH1 0xFF NOT AND DUP7 ISZERO ISZERO SWAP1 DUP2 OR SWAP1 SWAP2 SSTORE SWAP1 MLOAD SWAP1 DUP2 MSTORE SWAP2 SWAP3 SWAP2 PUSH32 0x17307EAB39AB6107E8899845AD3D59BD9653F200F220920489CA2B5937696C31 SWAP2 ADD PUSH1 0x40 MLOAD DUP1 SWAP2 SUB SWAP1 LOG3 POP POP JUMP JUMPDEST PUSH2 0x4219 DUP5 DUP5 DUP5 PUSH2 0x3C45 JUMP JUMPDEST PUSH2 0x3E61 DUP5 DUP5 DUP5 PUSH1 0x1 DUP6 PUSH2 0x47AE JUMP JUMPDEST PUSH1 0x60 PUSH1 0x21 DUP1 SLOAD PUSH2 0x15AD SWAP1 PUSH2 0x53B0 JUMP JUMPDEST PUSH1 0x60 PUSH0 PUSH2 0x4242 DUP4 PUSH2 0x4B0D JUMP JUMPDEST PUSH1 0x1 ADD SWAP1 POP PUSH0 DUP2 PUSH1 0x1 PUSH1 0x1 PUSH1 0x40 SHL SUB DUP2 GT ISZERO PUSH2 0x4260 JUMPI PUSH2 0x4260 PUSH2 0x4E50 JUMP JUMPDEST PUSH1 0x40 MLOAD SWAP1 DUP1 DUP3 MSTORE DUP1 PUSH1 0x1F ADD PUSH1 0x1F NOT AND PUSH1 0x20 ADD DUP3 ADD PUSH1 0x40 MSTORE DUP1 ISZERO PUSH2 0x428A JUMPI PUSH1 0x20 DUP3 ADD DUP2 DUP1 CALLDATASIZE DUP4 CALLDATACOPY ADD SWAP1 POP JUMPDEST POP SWAP1 POP DUP2 DUP2 ADD PUSH1 0x20 ADD JUMPDEST PUSH0 NOT ADD PUSH16 0x181899199A1A9B1B9C1CB0B131B232B3 PUSH1 0x81 SHL PUSH1 0xA DUP7 MOD BYTE DUP2 MSTORE8 PUSH1 0xA DUP6 DIV SWAP5 POP DUP5 PUSH2 0x4294 JUMPI POP SWAP4 SWAP3 POP POP POP JUMP JUMPDEST PUSH1 0x1 PUSH1 0x1 PUSH1 0xA0 SHL SUB DUP2 AND PUSH0 SWAP1 DUP2 MSTORE PUSH1 0x11 PUSH1 0x20 MSTORE PUSH1 0x40 DUP2 KECCAK256 SLOAD ISZERO PUSH2 0x42FD JUMPI POP PUSH1 0x1 PUSH1 0x1 PUSH1 0xA0 SHL SUB AND PUSH0 SWAP1 DUP2 MSTORE PUSH1 0x11 PUSH1 0x20 MSTORE PUSH1 0x40 SWAP1 KECCAK256 SLOAD SWAP1 JUMP JUMPDEST POP POP PUSH1 0x12 SLOAD SWAP1 JUMP JUMPDEST PUSH1 0xF SLOAD PUSH0 SWAP1 PUSH1 0xFF AND PUSH2 0x4319 JUMPI POP PUSH1 0x1 PUSH2 0x1524 JUMP JUMPDEST PUSH2 0x4322 DUP4 PUSH2 0x4BE4 JUMP JUMPDEST DUP1 PUSH2 0x2DFC JUMPI POP PUSH1 0xC SLOAD PUSH1 0x40 MLOAD PUSH4 0xF8350ED PUSH1 0xE4 SHL DUP2 MSTORE PUSH1 0x1 PUSH1 0x1 PUSH1 0xA0 SHL SUB DUP6 DUP2 AND PUSH1 0x4 DUP4 ADD MSTORE PUSH1 0x24 DUP3 ADD DUP6 SWAP1 MSTORE SWAP1 SWAP2 AND SWAP1 PUSH4 0xF8350ED0 SWAP1 PUSH1 0x44 ADD PUSH1 0x20 PUSH1 0x40 MLOAD DUP1 DUP4 SUB DUP2 DUP7 GAS STATICCALL ISZERO DUP1 ISZERO PUSH2 0x4377 JUMPI RETURNDATASIZE PUSH0 DUP1 RETURNDATACOPY RETURNDATASIZE PUSH0 REVERT JUMPDEST POP POP POP POP PUSH1 0x40 MLOAD RETURNDATASIZE PUSH1 0x1F NOT PUSH1 0x1F DUP3 ADD AND DUP3 ADD DUP1 PUSH1 0x40 MSTORE POP DUP2 ADD SWAP1 PUSH2 0x2DFC SWAP2 SWAP1 PUSH2 0x5815 JUMP JUMPDEST PUSH0 PUSH2 0x2DFC DUP4 PUSH1 0x1 PUSH1 0x1 PUSH1 0xA0 SHL SUB DUP5 AND PUSH2 0x4C0C JUMP JUMPDEST PUSH1 0x60 DUP2 PUSH0 ADD DUP1 SLOAD DUP1 PUSH1 0x20 MUL PUSH1 0x20 ADD PUSH1 0x40 MLOAD SWAP1 DUP2 ADD PUSH1 0x40 MSTORE DUP1 SWAP3 SWAP2 SWAP1 DUP2 DUP2 MSTORE PUSH1 0x20 ADD DUP3 DUP1 SLOAD DUP1 ISZERO PUSH2 0x43FC JUMPI PUSH1 0x20 MUL DUP3 ADD SWAP2 SWAP1 PUSH0 MSTORE PUSH1 0x20 PUSH0 KECCAK256 SWAP1 JUMPDEST DUP2 SLOAD DUP2 MSTORE PUSH1 0x20 ADD SWAP1 PUSH1 0x1 ADD SWAP1 DUP1 DUP4 GT PUSH2 0x43E8 JUMPI JUMPDEST POP POP POP POP POP SWAP1 POP SWAP2 SWAP1 POP JUMP JUMPDEST PUSH1 0x60 PUSH2 0x1524 PUSH1 0x1 PUSH1 0x1 PUSH1 0xA0 SHL SUB DUP4 AND PUSH1 0x14 JUMPDEST PUSH1 0x60 PUSH0 PUSH2 0x4428 DUP4 PUSH1 0x2 PUSH2 0x5557 JUMP JUMPDEST PUSH2 0x4433 SWAP1 PUSH1 0x2 PUSH2 0x54FC JUMP JUMPDEST PUSH1 0x1 PUSH1 0x1 PUSH1 0x40 SHL SUB DUP2 GT ISZERO PUSH2 0x444A JUMPI PUSH2 0x444A PUSH2 0x4E50 JUMP JUMPDEST PUSH1 0x40 MLOAD SWAP1 DUP1 DUP3 MSTORE DUP1 PUSH1 0x1F ADD PUSH1 0x1F NOT AND PUSH1 0x20 ADD DUP3 ADD PUSH1 0x40 MSTORE DUP1 ISZERO PUSH2 0x4474 JUMPI PUSH1 0x20 DUP3 ADD DUP2 DUP1 CALLDATASIZE DUP4 CALLDATACOPY ADD SWAP1 POP JUMPDEST POP SWAP1 POP PUSH1 0x3 PUSH1 0xFC SHL DUP2 PUSH0 DUP2 MLOAD DUP2 LT PUSH2 0x448E JUMPI PUSH2 0x448E PUSH2 0x54E8 JUMP JUMPDEST PUSH1 0x20 ADD ADD SWAP1 PUSH1 0x1 PUSH1 0x1 PUSH1 0xF8 SHL SUB NOT AND SWAP1 DUP2 PUSH0 BYTE SWAP1 MSTORE8 POP PUSH1 0xF PUSH1 0xFB SHL DUP2 PUSH1 0x1 DUP2 MLOAD DUP2 LT PUSH2 0x44BC JUMPI PUSH2 0x44BC PUSH2 0x54E8 JUMP JUMPDEST PUSH1 0x20 ADD ADD SWAP1 PUSH1 0x1 PUSH1 0x1 PUSH1 0xF8 SHL SUB NOT AND SWAP1 DUP2 PUSH0 BYTE SWAP1 MSTORE8 POP PUSH0 PUSH2 0x44DE DUP5 PUSH1 0x2 PUSH2 0x5557 JUMP JUMPDEST PUSH2 0x44E9 SWAP1 PUSH1 0x1 PUSH2 0x54FC JUMP JUMPDEST SWAP1 POP JUMPDEST PUSH1 0x1 DUP2 GT ISZERO PUSH2 0x4560 JUMPI PUSH16 0x181899199A1A9B1B9C1CB0B131B232B3 PUSH1 0x81 SHL DUP6 PUSH1 0xF AND PUSH1 0x10 DUP2 LT PUSH2 0x451D JUMPI PUSH2 0x451D PUSH2 0x54E8 JUMP JUMPDEST BYTE PUSH1 0xF8 SHL DUP3 DUP3 DUP2 MLOAD DUP2 LT PUSH2 0x4533 JUMPI PUSH2 0x4533 PUSH2 0x54E8 JUMP JUMPDEST PUSH1 0x20 ADD ADD SWAP1 PUSH1 0x1 PUSH1 0x1 PUSH1 0xF8 SHL SUB NOT AND SWAP1 DUP2 PUSH0 BYTE SWAP1 MSTORE8 POP PUSH1 0x4 SWAP5 SWAP1 SWAP5 SHR SWAP4 PUSH2 0x4559 DUP2 PUSH2 0x59BB JUMP JUMPDEST SWAP1 POP PUSH2 0x44EC JUMP JUMPDEST POP DUP4 ISZERO PUSH2 0x2DFC JUMPI PUSH1 0x40 MLOAD PUSH3 0x461BCD PUSH1 0xE5 SHL DUP2 MSTORE PUSH1 0x20 PUSH1 0x4 DUP3 ADD DUP2 SWAP1 MSTORE PUSH1 0x24 DUP3 ADD MSTORE PUSH32 0x537472696E67733A20686578206C656E67746820696E73756666696369656E74 PUSH1 0x44 DUP3 ADD MSTORE PUSH1 0x64 ADD PUSH2 0x16C3 JUMP JUMPDEST PUSH0 DUP1 PUSH2 0x38C2 CALLER DUP6 PUSH2 0x4C58 JUMP JUMPDEST PUSH0 DUP2 DUP2 MSTORE PUSH1 0x9 PUSH1 0x20 MSTORE PUSH1 0x40 SWAP1 KECCAK256 DUP1 SLOAD PUSH1 0x1 PUSH1 0x1 PUSH1 0xA0 SHL SUB NOT AND PUSH1 0x1 PUSH1 0x1 PUSH1 0xA0 SHL SUB DUP5 AND SWAP1 DUP2 OR SWAP1 SWAP2 SSTORE DUP2 SWAP1 PUSH2 0x45EF DUP3 PUSH2 0x1F4A JUMP JUMPDEST PUSH1 0x1 PUSH1 0x1 PUSH1 0xA0 SHL SUB AND PUSH32 0x8C5BE1E5EBEC7D5BD14F71427D1E84F3DD0314C0F7B2291E5B200AC8C7C3B925 PUSH1 0x40 MLOAD PUSH1 0x40 MLOAD DUP1 SWAP2 SUB SWAP1 LOG4 POP POP JUMP JUMPDEST PUSH0 PUSH2 0x4632 PUSH1 0x8 SLOAD SWAP1 JUMP JUMPDEST SWAP1 POP PUSH0 DUP3 GT PUSH2 0x4691 JUMPI PUSH1 0x40 MLOAD PUSH3 0x461BCD PUSH1 0xE5 SHL DUP2 MSTORE PUSH1 0x20 PUSH1 0x4 DUP3 ADD MSTORE PUSH1 0x25 PUSH1 0x24 DUP3 ADD MSTORE PUSH32 0x4552433732315073693A207175616E74697479206D7573742062652067726561 PUSH1 0x44 DUP3 ADD MSTORE PUSH5 0x746572203 PUSH1 0xDC SHL PUSH1 0x64 DUP3 ADD MSTORE PUSH1 0x84 ADD PUSH2 0x16C3 JUMP JUMPDEST PUSH1 0x1 PUSH1 0x1 PUSH1 0xA0 SHL SUB DUP4 AND PUSH2 0x46F3 JUMPI PUSH1 0x40 MLOAD PUSH3 0x461BCD PUSH1 0xE5 SHL DUP2 MSTORE PUSH1 0x20 PUSH1 0x4 DUP3 ADD MSTORE PUSH1 0x23 PUSH1 0x24 DUP3 ADD MSTORE PUSH32 0x4552433732315073693A206D696E7420746F20746865207A65726F2061646472 PUSH1 0x44 DUP3 ADD MSTORE PUSH3 0x657373 PUSH1 0xE8 SHL PUSH1 0x64 DUP3 ADD MSTORE PUSH1 0x84 ADD PUSH2 0x16C3 JUMP JUMPDEST PUSH2 0x46FF PUSH0 DUP5 DUP4 DUP6 PUSH2 0x3E7D JUMP JUMPDEST DUP2 PUSH1 0x8 PUSH0 DUP3 DUP3 SLOAD PUSH2 0x4710 SWAP2 SWAP1 PUSH2 0x54FC JUMP JUMPDEST SWAP1 SWAP2 SSTORE POP POP PUSH0 DUP2 DUP2 MSTORE PUSH1 0x7 PUSH1 0x20 MSTORE PUSH1 0x40 SWAP1 KECCAK256 DUP1 SLOAD PUSH1 0x1 PUSH1 0x1 PUSH1 0xA0 SHL SUB NOT AND PUSH1 0x1 PUSH1 0x1 PUSH1 0xA0 SHL SUB DUP6 AND OR SWAP1 SSTORE PUSH2 0x4746 PUSH1 0x4 DUP3 PUSH2 0x3F07 JUMP JUMPDEST PUSH2 0x4752 PUSH0 DUP5 DUP4 DUP6 PUSH2 0x3F32 JUMP JUMPDEST DUP1 JUMPDEST PUSH2 0x475E DUP4 DUP4 PUSH2 0x54FC JUMP JUMPDEST DUP2 LT ISZERO PUSH2 0x17D8 JUMPI PUSH1 0x40 MLOAD DUP2 SWAP1 PUSH1 0x1 PUSH1 0x1 PUSH1 0xA0 SHL SUB DUP7 AND SWAP1 PUSH0 SWAP1 PUSH32 0xDDF252AD1BE2C89B69C2B068FC378DAA952BA7F163C4A11628F55A4DF523B3EF SWAP1 DUP3 SWAP1 LOG4 DUP1 PUSH2 0x47A6 DUP2 PUSH2 0x550F JUMP JUMPDEST SWAP2 POP POP PUSH2 0x4754 JUMP JUMPDEST PUSH0 PUSH1 0x1 PUSH1 0x1 PUSH1 0xA0 SHL SUB DUP6 AND EXTCODESIZE ISZERO PUSH2 0x48D4 JUMPI POP PUSH1 0x1 DUP4 JUMPDEST PUSH2 0x47CE DUP5 DUP7 PUSH2 0x54FC JUMP JUMPDEST DUP2 LT ISZERO PUSH2 0x48CE JUMPI PUSH1 0x40 MLOAD PUSH4 0xA85BD01 PUSH1 0xE1 SHL DUP2 MSTORE PUSH1 0x1 PUSH1 0x1 PUSH1 0xA0 SHL SUB DUP8 AND SWAP1 PUSH4 0x150B7A02 SWAP1 PUSH2 0x4807 SWAP1 CALLER SWAP1 DUP12 SWAP1 DUP7 SWAP1 DUP10 SWAP1 PUSH1 0x4 ADD PUSH2 0x59D0 JUMP JUMPDEST PUSH1 0x20 PUSH1 0x40 MLOAD DUP1 DUP4 SUB DUP2 PUSH0 DUP8 GAS CALL SWAP3 POP POP POP DUP1 ISZERO PUSH2 0x4841 JUMPI POP PUSH1 0x40 DUP1 MLOAD PUSH1 0x1F RETURNDATASIZE SWAP1 DUP2 ADD PUSH1 0x1F NOT AND DUP3 ADD SWAP1 SWAP3 MSTORE PUSH2 0x483E SWAP2 DUP2 ADD SWAP1 PUSH2 0x5A0C JUMP JUMPDEST PUSH1 0x1 JUMPDEST PUSH2 0x489C JUMPI RETURNDATASIZE DUP1 DUP1 ISZERO PUSH2 0x486E JUMPI PUSH1 0x40 MLOAD SWAP2 POP PUSH1 0x1F NOT PUSH1 0x3F RETURNDATASIZE ADD AND DUP3 ADD PUSH1 0x40 MSTORE RETURNDATASIZE DUP3 MSTORE RETURNDATASIZE PUSH0 PUSH1 0x20 DUP5 ADD RETURNDATACOPY PUSH2 0x4873 JUMP JUMPDEST PUSH1 0x60 SWAP2 POP JUMPDEST POP DUP1 MLOAD PUSH0 SUB PUSH2 0x4894 JUMPI PUSH1 0x40 MLOAD PUSH3 0x461BCD PUSH1 0xE5 SHL DUP2 MSTORE PUSH1 0x4 ADD PUSH2 0x16C3 SWAP1 PUSH2 0x5926 JUMP JUMPDEST DUP1 MLOAD DUP2 PUSH1 0x20 ADD REVERT JUMPDEST DUP3 DUP1 ISZERO PUSH2 0x48B9 JUMPI POP PUSH1 0x1 PUSH1 0x1 PUSH1 0xE0 SHL SUB NOT DUP2 AND PUSH4 0xA85BD01 PUSH1 0xE1 SHL EQ JUMPDEST SWAP3 POP POP DUP1 PUSH2 0x48C6 DUP2 PUSH2 0x550F JUMP JUMPDEST SWAP2 POP POP PUSH2 0x47C4 JUMP JUMPDEST POP PUSH2 0x48D8 JUMP JUMPDEST POP PUSH1 0x1 JUMPDEST SWAP6 SWAP5 POP POP POP POP POP JUMP JUMPDEST PUSH1 0x1 PUSH1 0x1 PUSH1 0xA0 SHL SUB DUP5 AND ISZERO PUSH2 0x17D8 JUMPI PUSH0 DUP3 DUP2 MSTORE PUSH1 0x10 PUSH1 0x20 MSTORE PUSH1 0x40 DUP2 KECCAK256 SSTORE PUSH2 0x17D8 JUMP JUMPDEST PUSH1 0x8 DUP2 SWAP1 SHR PUSH0 DUP2 DUP2 MSTORE PUSH1 0x20 DUP5 SWAP1 MSTORE PUSH1 0x40 DUP2 KECCAK256 SLOAD SWAP1 SWAP2 SWAP1 PUSH1 0xFF DUP1 DUP6 AND SWAP2 SWAP1 DUP3 XOR SHR DUP1 ISZERO PUSH2 0x4944 JUMPI PUSH2 0x4932 DUP2 PUSH2 0x4C88 JUMP JUMPDEST PUSH1 0xFF AND DUP3 SUB PUSH1 0x8 DUP5 SWAP1 SHL OR SWAP4 POP PUSH2 0x49EE JUMP JUMPDEST PUSH0 DUP4 GT PUSH2 0x49B0 JUMPI PUSH1 0x40 MLOAD PUSH3 0x461BCD PUSH1 0xE5 SHL DUP2 MSTORE PUSH1 0x20 PUSH1 0x4 DUP3 ADD MSTORE PUSH1 0x34 PUSH1 0x24 DUP3 ADD MSTORE PUSH32 0x4269744D6170733A205468652073657420626974206265666F72652074686520 PUSH1 0x44 DUP3 ADD MSTORE PUSH20 0x34B73232BC103237B2B9B713BA1032BC34B9BA17 PUSH1 0x61 SHL PUSH1 0x64 DUP3 ADD MSTORE PUSH1 0x84 ADD PUSH2 0x16C3 JUMP JUMPDEST POP PUSH0 NOT SWAP1 SWAP2 ADD PUSH0 DUP2 DUP2 MSTORE PUSH1 0x20 DUP7 SWAP1 MSTORE PUSH1 0x40 SWAP1 KECCAK256 SLOAD SWAP1 SWAP2 SWAP1 DUP1 ISZERO PUSH2 0x49E9 JUMPI PUSH2 0x49D6 DUP2 PUSH2 0x4C88 JUMP JUMPDEST PUSH1 0xFF SUB PUSH1 0xFF AND PUSH1 0x8 DUP5 SWAP1 SHL OR SWAP4 POP PUSH2 0x49EE JUMP JUMPDEST PUSH2 0x4944 JUMP JUMPDEST POP POP POP SWAP3 SWAP2 POP POP JUMP JUMPDEST PUSH0 DUP2 DUP4 LT PUSH2 0x4A11 JUMPI PUSH0 DUP3 DUP2 MSTORE PUSH1 0x20 DUP5 SWAP1 MSTORE PUSH1 0x40 SWAP1 KECCAK256 PUSH2 0x2DFC JUMP JUMPDEST PUSH0 DUP4 DUP2 MSTORE PUSH1 0x20 DUP4 SWAP1 MSTORE PUSH1 0x40 SWAP1 KECCAK256 PUSH2 0x2DFC JUMP JUMPDEST PUSH0 DUP2 DUP2 MSTORE PUSH1 0x1 DUP4 ADD PUSH1 0x20 MSTORE PUSH1 0x40 DUP2 KECCAK256 SLOAD DUP1 ISZERO PUSH2 0x4AFD JUMPI PUSH0 PUSH2 0x4A45 PUSH1 0x1 DUP4 PUSH2 0x539D JUMP JUMPDEST DUP6 SLOAD SWAP1 SWAP2 POP PUSH0 SWAP1 PUSH2 0x4A58 SWAP1 PUSH1 0x1 SWAP1 PUSH2 0x539D JUMP JUMPDEST SWAP1 POP DUP2 DUP2 EQ PUSH2 0x4AB7 JUMPI PUSH0 DUP7 PUSH0 ADD DUP3 DUP2 SLOAD DUP2 LT PUSH2 0x4A76 JUMPI PUSH2 0x4A76 PUSH2 0x54E8 JUMP JUMPDEST SWAP1 PUSH0 MSTORE PUSH1 0x20 PUSH0 KECCAK256 ADD SLOAD SWAP1 POP DUP1 DUP8 PUSH0 ADD DUP5 DUP2 SLOAD DUP2 LT PUSH2 0x4A96 JUMPI PUSH2 0x4A96 PUSH2 0x54E8 JUMP JUMPDEST PUSH0 SWAP2 DUP3 MSTORE PUSH1 0x20 DUP1 DUP4 KECCAK256 SWAP1 SWAP2 ADD SWAP3 SWAP1 SWAP3 SSTORE SWAP2 DUP3 MSTORE PUSH1 0x1 DUP9 ADD SWAP1 MSTORE PUSH1 0x40 SWAP1 KECCAK256 DUP4 SWAP1 SSTORE JUMPDEST DUP6 SLOAD DUP7 SWAP1 DUP1 PUSH2 0x4AC8 JUMPI PUSH2 0x4AC8 PUSH2 0x5A27 JUMP JUMPDEST PUSH1 0x1 SWAP1 SUB DUP2 DUP2 SWAP1 PUSH0 MSTORE PUSH1 0x20 PUSH0 KECCAK256 ADD PUSH0 SWAP1 SSTORE SWAP1 SSTORE DUP6 PUSH1 0x1 ADD PUSH0 DUP7 DUP2 MSTORE PUSH1 0x20 ADD SWAP1 DUP2 MSTORE PUSH1 0x20 ADD PUSH0 KECCAK256 PUSH0 SWAP1 SSTORE PUSH1 0x1 SWAP4 POP POP POP POP PUSH2 0x1524 JUMP JUMPDEST PUSH0 SWAP2 POP POP PUSH2 0x1524 JUMP JUMPDEST POP SWAP3 SWAP2 POP POP JUMP JUMPDEST PUSH0 DUP1 PUSH19 0x184F03E93FF9F4DAA797ED6E38ED64BF6A1F01 PUSH1 0x40 SHL DUP4 LT PUSH2 0x4B4B JUMPI PUSH19 0x184F03E93FF9F4DAA797ED6E38ED64BF6A1F01 PUSH1 0x40 SHL DUP4 DIV SWAP3 POP PUSH1 0x40 ADD JUMPDEST PUSH14 0x4EE2D6D415B85ACEF8100000000 DUP4 LT PUSH2 0x4B77 JUMPI PUSH14 0x4EE2D6D415B85ACEF8100000000 DUP4 DIV SWAP3 POP PUSH1 0x20 ADD JUMPDEST PUSH7 0x2386F26FC10000 DUP4 LT PUSH2 0x4B95 JUMPI PUSH7 0x2386F26FC10000 DUP4 DIV SWAP3 POP PUSH1 0x10 ADD JUMPDEST PUSH4 0x5F5E100 DUP4 LT PUSH2 0x4BAD JUMPI PUSH4 0x5F5E100 DUP4 DIV SWAP3 POP PUSH1 0x8 ADD JUMPDEST PUSH2 0x2710 DUP4 LT PUSH2 0x4BC1 JUMPI PUSH2 0x2710 DUP4 DIV SWAP3 POP PUSH1 0x4 ADD JUMPDEST PUSH1 0x64 DUP4 LT PUSH2 0x4BD3 JUMPI PUSH1 0x64 DUP4 DIV SWAP3 POP PUSH1 0x2 ADD JUMPDEST PUSH1 0xA DUP4 LT PUSH2 0x1524 JUMPI PUSH1 0x1 ADD SWAP3 SWAP2 POP POP JUMP JUMPDEST PUSH0 PUSH2 0x1524 PUSH1 0xD DUP4 PUSH1 0x1 PUSH1 0x1 PUSH1 0xA0 SHL SUB DUP2 AND PUSH0 SWAP1 DUP2 MSTORE PUSH1 0x1 DUP4 ADD PUSH1 0x20 MSTORE PUSH1 0x40 DUP2 KECCAK256 SLOAD ISZERO ISZERO PUSH2 0x2DFC JUMP JUMPDEST PUSH0 DUP2 DUP2 MSTORE PUSH1 0x1 DUP4 ADD PUSH1 0x20 MSTORE PUSH1 0x40 DUP2 KECCAK256 SLOAD PUSH2 0x4C51 JUMPI POP DUP2 SLOAD PUSH1 0x1 DUP2 DUP2 ADD DUP5 SSTORE PUSH0 DUP5 DUP2 MSTORE PUSH1 0x20 DUP1 DUP3 KECCAK256 SWAP1 SWAP4 ADD DUP5 SWAP1 SSTORE DUP5 SLOAD DUP5 DUP3 MSTORE DUP3 DUP7 ADD SWAP1 SWAP4 MSTORE PUSH1 0x40 SWAP1 KECCAK256 SWAP2 SWAP1 SWAP2 SSTORE PUSH2 0x1524 JUMP JUMPDEST POP PUSH0 PUSH2 0x1524 JUMP JUMPDEST PUSH0 DUP2 DUP2 MSTORE PUSH1 0x10 PUSH1 0x20 MSTORE PUSH1 0x40 DUP2 KECCAK256 SLOAD ISZERO PUSH2 0x4C7F JUMPI POP PUSH0 DUP2 DUP2 MSTORE PUSH1 0x10 PUSH1 0x20 MSTORE PUSH1 0x40 SWAP1 KECCAK256 SLOAD PUSH2 0x1524 JUMP JUMPDEST PUSH2 0x2DFC DUP4 PUSH2 0x42C5 JUMP JUMPDEST PUSH0 PUSH1 0x40 MLOAD DUP1 PUSH2 0x120 ADD PUSH1 0x40 MSTORE DUP1 PUSH2 0x100 DUP2 MSTORE PUSH1 0x20 ADD PUSH2 0x5A9C PUSH2 0x100 SWAP2 CODECOPY PUSH1 0xF8 PUSH31 0x818283848586878898A8B8C8D8E8F929395969799A9B9D9E9FAAEB6BEDEEFF PUSH2 0x4CD0 DUP6 PUSH2 0x4CF1 JUMP JUMPDEST MUL SWAP1 SHR DUP2 MLOAD DUP2 LT PUSH2 0x4CE3 JUMPI PUSH2 0x4CE3 PUSH2 0x54E8 JUMP JUMPDEST ADD PUSH1 0x20 ADD MLOAD PUSH1 0xF8 SHR SWAP3 SWAP2 POP POP JUMP JUMPDEST PUSH0 DUP1 DUP3 GT PUSH2 0x4CFD JUMPI PUSH0 DUP1 REVERT JUMPDEST POP PUSH0 DUP2 SWAP1 SUB AND SWAP1 JUMP JUMPDEST PUSH1 0x20 DUP1 DUP3 MSTORE DUP3 MLOAD DUP3 DUP3 ADD DUP2 SWAP1 MSTORE PUSH0 SWAP2 SWAP1 DUP5 DUP3 ADD SWAP1 PUSH1 0x40 DUP6 ADD SWAP1 DUP5 JUMPDEST DUP2 DUP2 LT ISZERO PUSH2 0x4D46 JUMPI DUP4 MLOAD PUSH1 0x1 PUSH1 0x1 PUSH1 0xA0 SHL SUB AND DUP4 MSTORE SWAP3 DUP5 ADD SWAP3 SWAP2 DUP5 ADD SWAP2 PUSH1 0x1 ADD PUSH2 0x4D21 JUMP JUMPDEST POP SWAP1 SWAP7 SWAP6 POP POP POP POP POP POP JUMP JUMPDEST PUSH0 JUMPDEST DUP4 DUP2 LT ISZERO PUSH2 0x4D6C JUMPI DUP2 DUP2 ADD MLOAD DUP4 DUP3 ADD MSTORE PUSH1 0x20 ADD PUSH2 0x4D54 JUMP JUMPDEST POP POP PUSH0 SWAP2 ADD MSTORE JUMP JUMPDEST PUSH0 DUP2 MLOAD DUP1 DUP5 MSTORE PUSH2 0x4D8B DUP2 PUSH1 0x20 DUP7 ADD PUSH1 0x20 DUP7 ADD PUSH2 0x4D52 JUMP JUMPDEST PUSH1 0x1F ADD PUSH1 0x1F NOT AND SWAP3 SWAP1 SWAP3 ADD PUSH1 0x20 ADD SWAP3 SWAP2 POP POP JUMP JUMPDEST PUSH1 0x20 DUP2 MSTORE PUSH0 PUSH2 0x2DFC PUSH1 0x20 DUP4 ADD DUP5 PUSH2 0x4D74 JUMP JUMPDEST PUSH1 0x1 PUSH1 0x1 PUSH1 0xE0 SHL SUB NOT DUP2 AND DUP2 EQ PUSH2 0x1BF9 JUMPI PUSH0 DUP1 REVERT JUMPDEST PUSH0 PUSH1 0x20 DUP3 DUP5 SUB SLT ISZERO PUSH2 0x4DD6 JUMPI PUSH0 DUP1 REVERT JUMPDEST DUP2 CALLDATALOAD PUSH2 0x2DFC DUP2 PUSH2 0x4DB1 JUMP JUMPDEST DUP1 CALLDATALOAD PUSH1 0x1 PUSH1 0x1 PUSH1 0xA0 SHL SUB DUP2 AND DUP2 EQ PUSH2 0x3B7D JUMPI PUSH0 DUP1 REVERT JUMPDEST PUSH0 PUSH1 0x20 DUP3 DUP5 SUB SLT ISZERO PUSH2 0x4E07 JUMPI PUSH0 DUP1 REVERT JUMPDEST PUSH2 0x2DFC DUP3 PUSH2 0x4DE1 JUMP JUMPDEST PUSH0 DUP1 PUSH1 0x40 DUP4 DUP6 SUB SLT ISZERO PUSH2 0x4E21 JUMPI PUSH0 DUP1 REVERT JUMPDEST PUSH2 0x4E2A DUP4 PUSH2 0x4DE1 JUMP JUMPDEST SWAP2 POP PUSH1 0x20 DUP4 ADD CALLDATALOAD PUSH1 0x1 PUSH1 0x1 PUSH1 0x60 SHL SUB DUP2 AND DUP2 EQ PUSH2 0x4E45 JUMPI PUSH0 DUP1 REVERT JUMPDEST DUP1 SWAP2 POP POP SWAP3 POP SWAP3 SWAP1 POP JUMP JUMPDEST PUSH4 0x4E487B71 PUSH1 0xE0 SHL PUSH0 MSTORE PUSH1 0x41 PUSH1 0x4 MSTORE PUSH1 0x24 PUSH0 REVERT JUMPDEST PUSH1 0x40 MLOAD PUSH1 0x1F DUP3 ADD PUSH1 0x1F NOT AND DUP2 ADD PUSH1 0x1 PUSH1 0x1 PUSH1 0x40 SHL SUB DUP2 GT DUP3 DUP3 LT OR ISZERO PUSH2 0x4E8C JUMPI PUSH2 0x4E8C PUSH2 0x4E50 JUMP JUMPDEST PUSH1 0x40 MSTORE SWAP2 SWAP1 POP JUMP JUMPDEST PUSH0 PUSH1 0x1 PUSH1 0x1 PUSH1 0x40 SHL SUB DUP3 GT ISZERO PUSH2 0x4EAC JUMPI PUSH2 0x4EAC PUSH2 0x4E50 JUMP JUMPDEST POP PUSH1 0x1F ADD PUSH1 0x1F NOT AND PUSH1 0x20 ADD SWAP1 JUMP JUMPDEST PUSH0 PUSH2 0x4ECC PUSH2 0x4EC7 DUP5 PUSH2 0x4E94 JUMP JUMPDEST PUSH2 0x4E64 JUMP JUMPDEST SWAP1 POP DUP3 DUP2 MSTORE DUP4 DUP4 DUP4 ADD GT ISZERO PUSH2 0x4EDF JUMPI PUSH0 DUP1 REVERT JUMPDEST DUP3 DUP3 PUSH1 0x20 DUP4 ADD CALLDATACOPY PUSH0 PUSH1 0x20 DUP5 DUP4 ADD ADD MSTORE SWAP4 SWAP3 POP POP POP JUMP JUMPDEST PUSH0 PUSH1 0x20 DUP3 DUP5 SUB SLT ISZERO PUSH2 0x4F05 JUMPI PUSH0 DUP1 REVERT JUMPDEST DUP2 CALLDATALOAD PUSH1 0x1 PUSH1 0x1 PUSH1 0x40 SHL SUB DUP2 GT ISZERO PUSH2 0x4F1A JUMPI PUSH0 DUP1 REVERT JUMPDEST DUP3 ADD PUSH1 0x1F DUP2 ADD DUP5 SGT PUSH2 0x4F2A JUMPI PUSH0 DUP1 REVERT JUMPDEST PUSH2 0x38CE DUP5 DUP3 CALLDATALOAD PUSH1 0x20 DUP5 ADD PUSH2 0x4EBA JUMP JUMPDEST DUP1 ISZERO ISZERO DUP2 EQ PUSH2 0x1BF9 JUMPI PUSH0 DUP1 REVERT JUMPDEST PUSH0 PUSH1 0x20 DUP3 DUP5 SUB SLT ISZERO PUSH2 0x4F56 JUMPI PUSH0 DUP1 REVERT JUMPDEST DUP2 CALLDATALOAD PUSH2 0x2DFC DUP2 PUSH2 0x4F39 JUMP JUMPDEST PUSH0 PUSH1 0x20 DUP3 DUP5 SUB SLT ISZERO PUSH2 0x4F71 JUMPI PUSH0 DUP1 REVERT JUMPDEST POP CALLDATALOAD SWAP2 SWAP1 POP JUMP JUMPDEST PUSH0 DUP1 PUSH1 0x40 DUP4 DUP6 SUB SLT ISZERO PUSH2 0x4F89 JUMPI PUSH0 DUP1 REVERT JUMPDEST PUSH2 0x4F92 DUP4 PUSH2 0x4DE1 JUMP JUMPDEST SWAP5 PUSH1 0x20 SWAP4 SWAP1 SWAP4 ADD CALLDATALOAD SWAP4 POP POP POP JUMP JUMPDEST PUSH0 DUP1 PUSH0 PUSH1 0x60 DUP5 DUP7 SUB SLT ISZERO PUSH2 0x4FB2 JUMPI PUSH0 DUP1 REVERT JUMPDEST PUSH2 0x4FBB DUP5 PUSH2 0x4DE1 JUMP JUMPDEST SWAP3 POP PUSH2 0x4FC9 PUSH1 0x20 DUP6 ADD PUSH2 0x4DE1 JUMP JUMPDEST SWAP2 POP PUSH1 0x40 DUP5 ADD CALLDATALOAD SWAP1 POP SWAP3 POP SWAP3 POP SWAP3 JUMP JUMPDEST PUSH0 DUP1 DUP4 PUSH1 0x1F DUP5 ADD SLT PUSH2 0x4FE9 JUMPI PUSH0 DUP1 REVERT JUMPDEST POP DUP2 CALLDATALOAD PUSH1 0x1 PUSH1 0x1 PUSH1 0x40 SHL SUB DUP2 GT ISZERO PUSH2 0x4FFF JUMPI PUSH0 DUP1 REVERT JUMPDEST PUSH1 0x20 DUP4 ADD SWAP2 POP DUP4 PUSH1 0x20 DUP3 PUSH1 0x5 SHL DUP6 ADD ADD GT ISZERO PUSH2 0x1AC6 JUMPI PUSH0 DUP1 REVERT JUMPDEST PUSH0 PUSH1 0x1 PUSH1 0x1 PUSH1 0x40 SHL SUB DUP3 GT ISZERO PUSH2 0x5031 JUMPI PUSH2 0x5031 PUSH2 0x4E50 JUMP JUMPDEST POP PUSH1 0x5 SHL PUSH1 0x20 ADD SWAP1 JUMP JUMPDEST PUSH0 DUP3 PUSH1 0x1F DUP4 ADD SLT PUSH2 0x504A JUMPI PUSH0 DUP1 REVERT JUMPDEST DUP2 CALLDATALOAD PUSH1 0x20 PUSH2 0x505A PUSH2 0x4EC7 DUP4 PUSH2 0x5019 JUMP JUMPDEST DUP3 DUP2 MSTORE PUSH1 0x5 SWAP3 SWAP1 SWAP3 SHL DUP5 ADD DUP2 ADD SWAP2 DUP2 DUP2 ADD SWAP1 DUP7 DUP5 GT ISZERO PUSH2 0x5078 JUMPI PUSH0 DUP1 REVERT JUMPDEST DUP3 DUP7 ADD JUMPDEST DUP5 DUP2 LT ISZERO PUSH2 0x5093 JUMPI DUP1 CALLDATALOAD DUP4 MSTORE SWAP2 DUP4 ADD SWAP2 DUP4 ADD PUSH2 0x507C JUMP JUMPDEST POP SWAP7 SWAP6 POP POP POP POP POP POP JUMP JUMPDEST PUSH0 DUP1 PUSH0 PUSH1 0x40 DUP5 DUP7 SUB SLT ISZERO PUSH2 0x50B0 JUMPI PUSH0 DUP1 REVERT JUMPDEST DUP4 CALLDATALOAD PUSH1 0x1 PUSH1 0x1 PUSH1 0x40 SHL SUB DUP1 DUP3 GT ISZERO PUSH2 0x50C6 JUMPI PUSH0 DUP1 REVERT JUMPDEST PUSH2 0x50D2 DUP8 DUP4 DUP9 ADD PUSH2 0x4FD9 JUMP JUMPDEST SWAP1 SWAP6 POP SWAP4 POP PUSH1 0x20 DUP7 ADD CALLDATALOAD SWAP2 POP DUP1 DUP3 GT ISZERO PUSH2 0x50EA JUMPI PUSH0 DUP1 REVERT JUMPDEST POP PUSH2 0x50F7 DUP7 DUP3 DUP8 ADD PUSH2 0x503B JUMP JUMPDEST SWAP2 POP POP SWAP3 POP SWAP3 POP SWAP3 JUMP JUMPDEST PUSH0 DUP1 PUSH1 0x40 DUP4 DUP6 SUB SLT ISZERO PUSH2 0x5112 JUMPI PUSH0 DUP1 REVERT JUMPDEST POP POP DUP1 CALLDATALOAD SWAP3 PUSH1 0x20 SWAP1 SWAP2 ADD CALLDATALOAD SWAP2 POP JUMP JUMPDEST PUSH0 DUP1 PUSH1 0x40 DUP4 DUP6 SUB SLT ISZERO PUSH2 0x5132 JUMPI PUSH0 DUP1 REVERT JUMPDEST DUP3 CALLDATALOAD SWAP2 POP PUSH2 0x5142 PUSH1 0x20 DUP5 ADD PUSH2 0x4DE1 JUMP JUMPDEST SWAP1 POP SWAP3 POP SWAP3 SWAP1 POP JUMP JUMPDEST PUSH0 DUP1 PUSH0 PUSH1 0x60 DUP5 DUP7 SUB SLT ISZERO PUSH2 0x515D JUMPI PUSH0 DUP1 REVERT JUMPDEST DUP4 CALLDATALOAD SWAP3 POP PUSH1 0x20 DUP1 DUP6 ADD CALLDATALOAD PUSH1 0x1 PUSH1 0x1 PUSH1 0x40 SHL SUB DUP1 DUP3 GT ISZERO PUSH2 0x517B JUMPI PUSH0 DUP1 REVERT JUMPDEST DUP2 DUP8 ADD SWAP2 POP DUP8 PUSH1 0x1F DUP4 ADD SLT PUSH2 0x518E JUMPI PUSH0 DUP1 REVERT JUMPDEST DUP2 CALLDATALOAD PUSH2 0x519C PUSH2 0x4EC7 DUP3 PUSH2 0x5019 JUMP JUMPDEST DUP2 DUP2 MSTORE PUSH1 0x5 SWAP2 SWAP1 SWAP2 SHL DUP4 ADD DUP5 ADD SWAP1 DUP5 DUP2 ADD SWAP1 DUP11 DUP4 GT ISZERO PUSH2 0x51BA JUMPI PUSH0 DUP1 REVERT JUMPDEST SWAP4 DUP6 ADD SWAP4 JUMPDEST DUP3 DUP6 LT ISZERO PUSH2 0x51DF JUMPI PUSH2 0x51D0 DUP6 PUSH2 0x4DE1 JUMP JUMPDEST DUP3 MSTORE SWAP4 DUP6 ADD SWAP4 SWAP1 DUP6 ADD SWAP1 PUSH2 0x51BF JUMP JUMPDEST SWAP7 POP POP POP PUSH1 0x40 DUP8 ADD CALLDATALOAD SWAP3 POP DUP1 DUP4 GT ISZERO PUSH2 0x51F6 JUMPI PUSH0 DUP1 REVERT JUMPDEST POP POP PUSH2 0x50F7 DUP7 DUP3 DUP8 ADD PUSH2 0x503B JUMP JUMPDEST PUSH0 PUSH1 0x20 DUP3 DUP5 SUB SLT ISZERO PUSH2 0x5214 JUMPI PUSH0 DUP1 REVERT JUMPDEST DUP2 CALLDATALOAD PUSH1 0x1 PUSH1 0x1 PUSH1 0x40 SHL SUB DUP2 GT ISZERO PUSH2 0x5229 JUMPI PUSH0 DUP1 REVERT JUMPDEST PUSH2 0x38CE DUP5 DUP3 DUP6 ADD PUSH2 0x503B JUMP JUMPDEST PUSH0 DUP1 PUSH0 DUP1 PUSH0 PUSH1 0x80 DUP7 DUP9 SUB SLT ISZERO PUSH2 0x5249 JUMPI PUSH0 DUP1 REVERT JUMPDEST DUP6 CALLDATALOAD SWAP5 POP PUSH1 0x20 DUP7 ADD CALLDATALOAD SWAP4 POP PUSH1 0x40 DUP7 ADD CALLDATALOAD PUSH1 0x1 PUSH1 0x1 PUSH1 0x40 SHL SUB DUP2 GT ISZERO PUSH2 0x526C JUMPI PUSH0 DUP1 REVERT JUMPDEST PUSH2 0x5278 DUP9 DUP3 DUP10 ADD PUSH2 0x4FD9 JUMP JUMPDEST SWAP7 SWAP10 SWAP6 SWAP9 POP SWAP7 PUSH1 0x60 ADD CALLDATALOAD SWAP5 SWAP4 POP POP POP POP JUMP JUMPDEST PUSH1 0x20 DUP1 DUP3 MSTORE DUP3 MLOAD DUP3 DUP3 ADD DUP2 SWAP1 MSTORE PUSH0 SWAP2 SWAP1 DUP5 DUP3 ADD SWAP1 PUSH1 0x40 DUP6 ADD SWAP1 DUP5 JUMPDEST DUP2 DUP2 LT ISZERO PUSH2 0x4D46 JUMPI DUP4 MLOAD DUP4 MSTORE SWAP3 DUP5 ADD SWAP3 SWAP2 DUP5 ADD SWAP2 PUSH1 0x1 ADD PUSH2 0x52A5 JUMP JUMPDEST PUSH0 DUP1 PUSH1 0x40 DUP4 DUP6 SUB SLT ISZERO PUSH2 0x52D2 JUMPI PUSH0 DUP1 REVERT JUMPDEST PUSH2 0x52DB DUP4 PUSH2 0x4DE1 JUMP JUMPDEST SWAP2 POP PUSH1 0x20 DUP4 ADD CALLDATALOAD PUSH2 0x4E45 DUP2 PUSH2 0x4F39 JUMP JUMPDEST PUSH0 DUP1 PUSH0 DUP1 PUSH1 0x80 DUP6 DUP8 SUB SLT ISZERO PUSH2 0x52FE JUMPI PUSH0 DUP1 REVERT JUMPDEST PUSH2 0x5307 DUP6 PUSH2 0x4DE1 JUMP JUMPDEST SWAP4 POP PUSH2 0x5315 PUSH1 0x20 DUP7 ADD PUSH2 0x4DE1 JUMP JUMPDEST SWAP3 POP PUSH1 0x40 DUP6 ADD CALLDATALOAD SWAP2 POP PUSH1 0x60 DUP6 ADD CALLDATALOAD PUSH1 0x1 PUSH1 0x1 PUSH1 0x40 SHL SUB DUP2 GT ISZERO PUSH2 0x5336 JUMPI PUSH0 DUP1 REVERT JUMPDEST DUP6 ADD PUSH1 0x1F DUP2 ADD DUP8 SGT PUSH2 0x5346 JUMPI PUSH0 DUP1 REVERT JUMPDEST PUSH2 0x5355 DUP8 DUP3 CALLDATALOAD PUSH1 0x20 DUP5 ADD PUSH2 0x4EBA JUMP JUMPDEST SWAP2 POP POP SWAP3 SWAP6 SWAP2 SWAP5 POP SWAP3 POP JUMP JUMPDEST PUSH0 DUP1 PUSH1 0x40 DUP4 DUP6 SUB SLT ISZERO PUSH2 0x5372 JUMPI PUSH0 DUP1 REVERT JUMPDEST PUSH2 0x537B DUP4 PUSH2 0x4DE1 JUMP JUMPDEST SWAP2 POP PUSH2 0x5142 PUSH1 0x20 DUP5 ADD PUSH2 0x4DE1 JUMP JUMPDEST PUSH4 0x4E487B71 PUSH1 0xE0 SHL PUSH0 MSTORE PUSH1 0x11 PUSH1 0x4 MSTORE PUSH1 0x24 PUSH0 REVERT JUMPDEST DUP2 DUP2 SUB DUP2 DUP2 GT ISZERO PUSH2 0x1524 JUMPI PUSH2 0x1524 PUSH2 0x5389 JUMP JUMPDEST PUSH1 0x1 DUP2 DUP2 SHR SWAP1 DUP3 AND DUP1 PUSH2 0x53C4 JUMPI PUSH1 0x7F DUP3 AND SWAP2 POP JUMPDEST PUSH1 0x20 DUP3 LT DUP2 SUB PUSH2 0x53E2 JUMPI PUSH4 0x4E487B71 PUSH1 0xE0 SHL PUSH0 MSTORE PUSH1 0x22 PUSH1 0x4 MSTORE PUSH1 0x24 PUSH0 REVERT JUMPDEST POP SWAP2 SWAP1 POP JUMP JUMPDEST PUSH1 0x1F DUP3 GT ISZERO PUSH2 0x1599 JUMPI PUSH0 DUP2 DUP2 MSTORE PUSH1 0x20 DUP2 KECCAK256 PUSH1 0x1F DUP6 ADD PUSH1 0x5 SHR DUP2 ADD PUSH1 0x20 DUP7 LT ISZERO PUSH2 0x540E JUMPI POP DUP1 JUMPDEST PUSH1 0x1F DUP6 ADD PUSH1 0x5 SHR DUP3 ADD SWAP2 POP JUMPDEST DUP2 DUP2 LT ISZERO PUSH2 0x2534 JUMPI DUP3 DUP2 SSTORE PUSH1 0x1 ADD PUSH2 0x541A JUMP JUMPDEST DUP2 MLOAD PUSH1 0x1 PUSH1 0x1 PUSH1 0x40 SHL SUB DUP2 GT ISZERO PUSH2 0x5446 JUMPI PUSH2 0x5446 PUSH2 0x4E50 JUMP JUMPDEST PUSH2 0x545A DUP2 PUSH2 0x5454 DUP5 SLOAD PUSH2 0x53B0 JUMP JUMPDEST DUP5 PUSH2 0x53E8 JUMP JUMPDEST PUSH1 0x20 DUP1 PUSH1 0x1F DUP4 GT PUSH1 0x1 DUP2 EQ PUSH2 0x548D JUMPI PUSH0 DUP5 ISZERO PUSH2 0x5476 JUMPI POP DUP6 DUP4 ADD MLOAD JUMPDEST PUSH0 NOT PUSH1 0x3 DUP7 SWAP1 SHL SHR NOT AND PUSH1 0x1 DUP6 SWAP1 SHL OR DUP6 SSTORE PUSH2 0x2534 JUMP JUMPDEST PUSH0 DUP6 DUP2 MSTORE PUSH1 0x20 DUP2 KECCAK256 PUSH1 0x1F NOT DUP7 AND SWAP2 JUMPDEST DUP3 DUP2 LT ISZERO PUSH2 0x54BB JUMPI DUP9 DUP7 ADD MLOAD DUP3 SSTORE SWAP5 DUP5 ADD SWAP5 PUSH1 0x1 SWAP1 SWAP2 ADD SWAP1 DUP5 ADD PUSH2 0x549C JUMP JUMPDEST POP DUP6 DUP3 LT ISZERO PUSH2 0x54D8 JUMPI DUP8 DUP6 ADD MLOAD PUSH0 NOT PUSH1 0x3 DUP9 SWAP1 SHL PUSH1 0xF8 AND SHR NOT AND DUP2 SSTORE JUMPDEST POP POP POP POP POP PUSH1 0x1 SWAP1 DUP2 SHL ADD SWAP1 SSTORE POP JUMP JUMPDEST PUSH4 0x4E487B71 PUSH1 0xE0 SHL PUSH0 MSTORE PUSH1 0x32 PUSH1 0x4 MSTORE PUSH1 0x24 PUSH0 REVERT JUMPDEST DUP1 DUP3 ADD DUP1 DUP3 GT ISZERO PUSH2 0x1524 JUMPI PUSH2 0x1524 PUSH2 0x5389 JUMP JUMPDEST PUSH0 PUSH1 0x1 DUP3 ADD PUSH2 0x5520 JUMPI PUSH2 0x5520 PUSH2 0x5389 JUMP JUMPDEST POP PUSH1 0x1 ADD SWAP1 JUMP JUMPDEST PUSH1 0x20 DUP1 DUP3 MSTORE PUSH1 0x16 SWAP1 DUP3 ADD MSTORE PUSH22 0x1B585E08139195081B1A5B5A5D08195E18D959591959 PUSH1 0x52 SHL PUSH1 0x40 DUP3 ADD MSTORE PUSH1 0x60 ADD SWAP1 JUMP JUMPDEST DUP1 DUP3 MUL DUP2 ISZERO DUP3 DUP3 DIV DUP5 EQ OR PUSH2 0x1524 JUMPI PUSH2 0x1524 PUSH2 0x5389 JUMP JUMPDEST PUSH0 DUP3 PUSH2 0x5588 JUMPI PUSH4 0x4E487B71 PUSH1 0xE0 SHL PUSH0 MSTORE PUSH1 0x12 PUSH1 0x4 MSTORE PUSH1 0x24 PUSH0 REVERT JUMPDEST POP DIV SWAP1 JUMP JUMPDEST PUSH0 PUSH1 0x20 DUP3 DUP5 SUB SLT ISZERO PUSH2 0x559D JUMPI PUSH0 DUP1 REVERT JUMPDEST POP MLOAD SWAP2 SWAP1 POP JUMP JUMPDEST PUSH0 PUSH1 0x20 DUP3 DUP5 SUB SLT ISZERO PUSH2 0x55B4 JUMPI PUSH0 DUP1 REVERT JUMPDEST DUP2 MLOAD PUSH1 0x1 PUSH1 0x1 PUSH1 0x40 SHL SUB DUP2 GT ISZERO PUSH2 0x55C9 JUMPI PUSH0 DUP1 REVERT JUMPDEST DUP3 ADD PUSH1 0x1F DUP2 ADD DUP5 SGT PUSH2 0x55D9 JUMPI PUSH0 DUP1 REVERT JUMPDEST DUP1 MLOAD PUSH2 0x55E7 PUSH2 0x4EC7 DUP3 PUSH2 0x4E94 JUMP JUMPDEST DUP2 DUP2 MSTORE DUP6 PUSH1 0x20 DUP4 DUP6 ADD ADD GT ISZERO PUSH2 0x55FB JUMPI PUSH0 DUP1 REVERT JUMPDEST PUSH2 0x48D8 DUP3 PUSH1 0x20 DUP4 ADD PUSH1 0x20 DUP7 ADD PUSH2 0x4D52 JUMP JUMPDEST PUSH0 DUP2 SLOAD PUSH2 0x5618 DUP2 PUSH2 0x53B0 JUMP JUMPDEST PUSH1 0x1 DUP3 DUP2 AND DUP1 ISZERO PUSH2 0x5630 JUMPI PUSH1 0x1 DUP2 EQ PUSH2 0x5645 JUMPI PUSH2 0x5671 JUMP JUMPDEST PUSH1 0xFF NOT DUP5 AND DUP8 MSTORE DUP3 ISZERO ISZERO DUP4 MUL DUP8 ADD SWAP5 POP PUSH2 0x5671 JUMP JUMPDEST DUP6 PUSH0 MSTORE PUSH1 0x20 DUP1 PUSH0 KECCAK256 PUSH0 JUMPDEST DUP6 DUP2 LT ISZERO PUSH2 0x5668 JUMPI DUP2 SLOAD DUP11 DUP3 ADD MSTORE SWAP1 DUP5 ADD SWAP1 DUP3 ADD PUSH2 0x564F JUMP JUMPDEST POP POP POP DUP3 DUP8 ADD SWAP5 POP JUMPDEST POP POP POP POP SWAP3 SWAP2 POP POP JUMP JUMPDEST PUSH18 0x1130B734B6B0BA34B7B72FBAB936111D1011 PUSH1 0x71 SHL DUP2 MSTORE PUSH0 PUSH2 0x56A1 PUSH1 0x12 DUP4 ADD DUP5 PUSH2 0x560C JUMP JUMPDEST PUSH2 0x88B PUSH1 0xF2 SHL DUP2 MSTORE PUSH1 0x2 ADD SWAP4 SWAP3 POP POP POP JUMP JUMPDEST PUSH1 0x7B PUSH1 0xF8 SHL DUP2 MSTORE PUSH8 0x113730B6B2911D11 PUSH1 0xC1 SHL PUSH1 0x1 DUP3 ADD MSTORE PUSH0 PUSH2 0x56D9 PUSH1 0x9 DUP4 ADD DUP9 PUSH2 0x560C JUMP JUMPDEST PUSH2 0x88B PUSH1 0xF2 SHL DUP1 DUP3 MSTORE PUSH15 0x113232B9B1B934B83A34B7B7111D11 PUSH1 0x89 SHL PUSH1 0x2 DUP4 ADD MSTORE PUSH2 0x5707 PUSH1 0x11 DUP4 ADD DUP10 PUSH2 0x560C JUMP JUMPDEST DUP2 DUP2 MSTORE PUSH10 0x1134B6B0B3B2911D1011 PUSH1 0xB1 SHL PUSH1 0x2 DUP3 ADD MSTORE SWAP2 POP PUSH2 0x572C PUSH1 0xC DUP4 ADD DUP9 PUSH2 0x560C JUMP JUMPDEST SWAP2 POP DUP1 DUP3 MSTORE POP DUP5 MLOAD PUSH2 0x5745 DUP2 PUSH1 0x2 DUP5 ADD PUSH1 0x20 DUP10 ADD PUSH2 0x4D52 JUMP JUMPDEST PUSH32 0x2261747472696275746573223A5B7B2274726169745F74797065223A22747970 PUSH1 0x2 SWAP3 SWAP1 SWAP2 ADD SWAP2 DUP3 ADD MSTORE PUSH12 0x329116113B30B63AB2911D11 PUSH1 0xA1 SHL PUSH1 0x22 DUP3 ADD MSTORE PUSH2 0x5792 PUSH1 0x2E DUP3 ADD DUP6 PUSH2 0x560C JUMP JUMPDEST PUSH3 0x227D5D PUSH1 0xE8 SHL DUP2 MSTORE PUSH1 0x7D PUSH1 0xF8 SHL PUSH1 0x3 DUP3 ADD MSTORE PUSH1 0x4 ADD SWAP9 SWAP8 POP POP POP POP POP POP POP POP JUMP JUMPDEST PUSH32 0x646174613A6170706C69636174696F6E2F6A736F6E3B6261736536342C000000 DUP2 MSTORE PUSH0 DUP3 MLOAD PUSH2 0x57EB DUP2 PUSH1 0x1D DUP6 ADD PUSH1 0x20 DUP8 ADD PUSH2 0x4D52 JUMP JUMPDEST SWAP2 SWAP1 SWAP2 ADD PUSH1 0x1D ADD SWAP3 SWAP2 POP POP JUMP JUMPDEST PUSH0 DUP4 MLOAD PUSH2 0x5809 DUP2 DUP5 PUSH1 0x20 DUP9 ADD PUSH2 0x4D52 JUMP JUMPDEST PUSH2 0x48D8 DUP2 DUP5 ADD DUP6 PUSH2 0x560C JUMP JUMPDEST PUSH0 PUSH1 0x20 DUP3 DUP5 SUB SLT ISZERO PUSH2 0x5825 JUMPI PUSH0 DUP1 REVERT JUMPDEST DUP2 MLOAD PUSH2 0x2DFC DUP2 PUSH2 0x4F39 JUMP JUMPDEST PUSH1 0x20 DUP1 DUP3 MSTORE PUSH1 0x34 SWAP1 DUP3 ADD MSTORE PUSH32 0x4552433732315073693A207472616E736665722063616C6C6572206973206E6F PUSH1 0x40 DUP3 ADD MSTORE PUSH20 0x1D081BDDDB995C881B9BDC88185C1C1C9BDD9959 PUSH1 0x62 SHL PUSH1 0x60 DUP3 ADD MSTORE PUSH1 0x80 ADD SWAP1 JUMP JUMPDEST PUSH0 DUP4 MLOAD PUSH2 0x5895 DUP2 DUP5 PUSH1 0x20 DUP9 ADD PUSH2 0x4D52 JUMP JUMPDEST DUP4 MLOAD SWAP1 DUP4 ADD SWAP1 PUSH2 0x58A9 DUP2 DUP4 PUSH1 0x20 DUP9 ADD PUSH2 0x4D52 JUMP JUMPDEST ADD SWAP5 SWAP4 POP POP POP POP JUMP JUMPDEST PUSH32 0x416363657373436F6E74726F6C3A206163636F756E7420000000000000000000 DUP2 MSTORE PUSH0 DUP4 MLOAD PUSH2 0x58E9 DUP2 PUSH1 0x17 DUP6 ADD PUSH1 0x20 DUP9 ADD PUSH2 0x4D52 JUMP JUMPDEST PUSH17 0x1034B99036B4B9B9B4B733903937B6329 PUSH1 0x7D SHL PUSH1 0x17 SWAP2 DUP5 ADD SWAP2 DUP3 ADD MSTORE DUP4 MLOAD PUSH2 0x591A DUP2 PUSH1 0x28 DUP5 ADD PUSH1 0x20 DUP9 ADD PUSH2 0x4D52 JUMP JUMPDEST ADD PUSH1 0x28 ADD SWAP5 SWAP4 POP POP POP POP JUMP JUMPDEST PUSH1 0x20 DUP1 DUP3 MSTORE PUSH1 0x35 SWAP1 DUP3 ADD MSTORE PUSH32 0x4552433732315073693A207472616E7366657220746F206E6F6E204552433732 PUSH1 0x40 DUP3 ADD MSTORE PUSH21 0x18A932B1B2B4BB32B91034B6B83632B6B2B73A32B9 PUSH1 0x59 SHL PUSH1 0x60 DUP3 ADD MSTORE PUSH1 0x80 ADD SWAP1 JUMP JUMPDEST PUSH1 0x1 PUSH1 0x1 PUSH1 0x40 SHL SUB DUP3 DUP2 AND DUP3 DUP3 AND SUB SWAP1 DUP1 DUP3 GT ISZERO PUSH2 0x4B06 JUMPI PUSH2 0x4B06 PUSH2 0x5389 JUMP JUMPDEST PUSH1 0x1 PUSH1 0x1 PUSH1 0x40 SHL SUB DUP2 DUP2 AND DUP4 DUP3 AND ADD SWAP1 DUP1 DUP3 GT ISZERO PUSH2 0x4B06 JUMPI PUSH2 0x4B06 PUSH2 0x5389 JUMP JUMPDEST PUSH0 DUP2 PUSH2 0x59C9 JUMPI PUSH2 0x59C9 PUSH2 0x5389 JUMP JUMPDEST POP PUSH0 NOT ADD SWAP1 JUMP JUMPDEST PUSH1 0x1 PUSH1 0x1 PUSH1 0xA0 SHL SUB DUP6 DUP2 AND DUP3 MSTORE DUP5 AND PUSH1 0x20 DUP3 ADD MSTORE PUSH1 0x40 DUP2 ADD DUP4 SWAP1 MSTORE PUSH1 0x80 PUSH1 0x60 DUP3 ADD DUP2 SWAP1 MSTORE PUSH0 SWAP1 PUSH2 0x5A02 SWAP1 DUP4 ADD DUP5 PUSH2 0x4D74 JUMP JUMPDEST SWAP7 SWAP6 POP POP POP POP POP POP JUMP JUMPDEST PUSH0 PUSH1 0x20 DUP3 DUP5 SUB SLT ISZERO PUSH2 0x5A1C JUMPI PUSH0 DUP1 REVERT JUMPDEST DUP2 MLOAD PUSH2 0x2DFC DUP2 PUSH2 0x4DB1 JUMP JUMPDEST PUSH4 0x4E487B71 PUSH1 0xE0 SHL PUSH0 MSTORE PUSH1 0x31 PUSH1 0x4 MSTORE PUSH1 0x24 PUSH0 REVERT INVALID COINBASE TIMESTAMP NUMBER PREVRANDAO GASLIMIT CHAINID SELFBALANCE BASEFEE 0x49 0x4A 0x4B 0x4C 0x4D 0x4E 0x4F POP MLOAD MSTORE MSTORE8 SLOAD SSTORE JUMP JUMPI PC MSIZE GAS PUSH2 0x6263 PUSH5 0x6566676869 PUSH11 0x6B6C6D6E6F707172737475 PUSH23 0x7778797A303132333435363738392B2FDF8B4C520FFE19 PUSH29 0x5343C6F5AEC59570151EF9A492F2C624FD45DDDE6135EC420001020903 GT EXP NOT DIV 0x21 SLT 0x29 SIGNEXTEND BALANCE BYTE CODECOPY SDIV COINBASE 0x22 GASLIMIT SGT 0x4D 0x2A SSTORE 0xC 0x5D ORIGIN PUSH6 0x1B6D3A750626 TIMESTAMP PUSH3 0x237D46 DUP6 EQ DUP1 0x4E DUP14 0x2B SWAP6 JUMP SWAP14 0xD 0x49 0x5E 0xA5 CALLER 0xA9 PUSH7 0xB11C886EB93BC1 PUSH23 0xC9071727374353637324837E9B47AF86C7155181AD4FD1 DUP15 0xD3 0x2C SWAP1 SWAP7 0xDB JUMPI 0xD5 SWAP15 0xE3 0xE 0x2E 0x4A PUSH11 0x5F92A6BE3498AAE067DDB2 0xEB SAR MSIZE DUP10 0xB5 PUSH16 0xD7BAF33CA0C2EE77E5CAF7FF08101820 0x28 ADDRESS CODESIZE BLOCKHASH PREVRANDAO 0x4C SLOAD 0x5C PUSH5 0x6C7425617C DUP5 PUSH32 0x8C949C48A4A8B087B8C0C816365272829AAEC650ACD0D28FDAD4E22D6991BD97 0xDF 0xDC 0xEA PC 0xB4 0xD6 CALLCODE SWAP16 0xED 0xE4 0xF6 INVALID 0xF 0x1F 0x2F EXTCODEHASH 0x4B JUMPDEST PUSH12 0x607B8B93A3A7B7BF357199C5 0xAB 0xCF 0xD9 0xE1 PUSH9 0xBCDEE9B3F1ECF5FD1E RETURNDATACOPY GAS PUSH27 0x8AA2B670C4CED8BBE8F0F4FC3D79A1C3CDE7EFFB78CCE6FACBF9F8 LOG2 PUSH5 0x6970667358 0x22 SLT KECCAK256 0xEB 0xBD 0xAE PUSH16 0x6402A061AFABDF59BD9AA7B90F14C0DC 0xE2 0xE7 INVALID 0xF8 CALLDATALOAD COINBASE SWAP16 SWAP9 0xEC DUP6 DUP11 PUSH7 0x64736F6C634300 ADDMOD EQ STOP CALLER PUSH9 0x747470733A2F2F6D75 PUSH20 0x756269636F6C6C656374696F6E2E78797A2F6461 PUSH21 0x612F6D657461646174612FDF8B4C520FFE197C5343 0xC6 CREATE2 0xAE 0xC5 SWAP6 PUSH17 0x151EF9A492F2C624FD45DDDE6135EC4245 MSTORE NUMBER CALLDATACOPY ORIGIN BALANCE POP PUSH20 0x693A207472616E7366657220746F206E6F6E2045 MSTORE NUMBER CALLDATACOPY ORIGIN "
		},
		"gasEstimates": {
			"creation": {
				"codeDepositCost": "4701000",
				"executionCost": "infinite",
				"totalCost": "infinite"
			},
			"external": {
				"ADMIN()": "infinite",
				"AIRDROP_ROLE()": "285",
				"BURNER_ROLE()": "350",
				"CAL()": "2493",
				"CALLevel()": "2384",
				"DEFAULT_ADMIN_ROLE()": "327",
				"MINTER_ROLE()": "305",
				"addLocalContractAllowList(address)": "infinite",
				"airdropMint(address[],uint256[])": "infinite",
				"allowlistType()": "2406",
				"allowlistUserAmount(uint256,address)": "2770",
				"animationURI()": "infinite",
				"approve(address,uint256)": "infinite",
				"balanceOf(address)": "2739",
				"baseExtension()": "infinite",
				"baseURI()": "infinite",
				"burnAndMintMode()": "2423",
				"cost()": "2385",
				"currentTokenId()": "2542",
				"enableRestrict()": "2411",
				"externalBurn(uint256[])": "infinite",
				"externalMint(address,uint256)": "infinite",
				"getAllowlistUserAmount(address)": "4798",
				"getApproved(uint256)": "7106",
				"getLocalContractAllowList()": "infinite",
				"getRoleAdmin(bytes32)": "2553",
				"getUserMintedAmount(address)": "4843",
				"getUserMintedAmountBySaleId(uint256,address)": "2751",
				"grantRole(bytes32,address)": "infinite",
				"hasRole(bytes32,address)": "2807",
				"imageURI()": "infinite",
				"interfaceOfTokenURI()": "2426",
				"isApprovedForAll(address,address)": "infinite",
				"isOperatorFilterRegistryRevoked()": "2403",
				"isSBT()": "2433",
				"maxMintAmountPerTransaction()": "2406",
				"maxSupply()": "2449",
				"merkleRoot()": "2430",
				"metadataAttributes()": "infinite",
				"metadataDescription()": "infinite",
				"metadataTitle()": "infinite",
				"mint(uint256,uint256,bytes32[],uint256)": "infinite",
				"mintCount()": "2444",
				"mintWithSBT()": "2432",
				"name()": "infinite",
				"onlyAllowlisted()": "2420",
				"operatorFilterRegistry()": "2446",
				"owner()": "2479",
				"ownerOf(uint256)": "infinite",
				"paused()": "2410",
				"publicSaleMaxMintAmountPerAddress()": "2429",
				"removeLocalContractAllowList(address)": "infinite",
				"renounceOwnership()": "infinite",
				"renounceRole(bytes32,address)": "29132",
				"revokeOperatorFilterRegistry()": "29650",
				"revokeRole(bytes32,address)": "infinite",
				"royaltyInfo(uint256,uint256)": "5212",
				"safeTransferFrom(address,address,uint256)": "infinite",
				"safeTransferFrom(address,address,uint256,bytes)": "infinite",
				"saleId()": "2406",
				"sbtCollection()": "2459",
				"setAllowListType(uint256)": "infinite",
				"setAllowlistMapping(uint256,address[],uint256[])": "infinite",
				"setAnimationURI(string)": "infinite",
				"setApprovalForAll(address,bool)": "infinite",
				"setBaseExtension(string)": "infinite",
				"setBaseURI(string)": "infinite",
				"setBurnAndMintMode(bool)": "infinite",
				"setCAL(address)": "infinite",
				"setCALLevel(uint256)": "infinite",
				"setCost(uint256)": "infinite",
				"setDefaultRoyalty(address,uint96)": "25070",
				"setEnebleRestrict(bool)": "infinite",
				"setImageURI(string)": "infinite",
				"setInterfaceOfTokenURI(address)": "infinite",
				"setIsSBT(bool)": "infinite",
				"setMaxMintAmountPerTransaction(uint256)": "infinite",
				"setMaxSupply(uint256)": "infinite",
				"setMerkleRoot(bytes32)": "infinite",
				"setMetadataAttributes(string)": "infinite",
				"setMetadataDescription(string)": "infinite",
				"setMetadataTitle(string)": "infinite",
				"setMintCount(bool)": "infinite",
				"setMintWithSBT(bool)": "infinite",
				"setOnlyAllowlisted(bool)": "infinite",
				"setPause(bool)": "infinite",
				"setPublicSaleMaxMintAmountPerAddress(uint256)": "infinite",
				"setSaleId(uint256)": "infinite",
				"setSbtCollection(address)": "infinite",
				"setTokenCALLevel(uint256,uint256)": "infinite",
				"setUseAnimationUrl(bool)": "infinite",
				"setUseInterfaceMetadata(bool)": "infinite",
				"setUseSingleMetadata(bool)": "infinite",
				"setWalletCALLevel(uint256)": "22467",
				"setWithdrawAddress(address)": "26891",
				"supportsInterface(bytes4)": "infinite",
				"symbol()": "infinite",
				"tokenCALLevel(uint256)": "2568",
				"tokenURI(uint256)": "infinite",
				"tokensOfOwner(address)": "infinite",
				"totalSupply()": "infinite",
				"transferFrom(address,address,uint256)": "infinite",
				"transferOwnership(address)": "28533",
				"updateOperatorFilterRegistryAddress(address)": "30123",
				"useAnimationUrl()": "2368",
				"useInterfaceMetadata()": "2405",
				"useSingleMetadata()": "2405",
				"userMintedAmount(uint256,address)": "2702",
				"walletCALLevel(address)": "2629",
				"withdraw()": "infinite",
				"withdrawAddress()": "2449"
			},
			"internal": {
				"_afterTokenTransfers(address,address,uint256,uint256)": "infinite",
				"_baseURI()": "infinite",
				"_beforeTokenTransfers(address,address,uint256,uint256)": "infinite"
			}
		},
		"methodIdentifiers": {
			"ADMIN()": "2a0acc6a",
			"AIRDROP_ROLE()": "1e0fbfa2",
			"BURNER_ROLE()": "282c51f3",
			"CAL()": "396e8f53",
			"CALLevel()": "4f3db346",
			"DEFAULT_ADMIN_ROLE()": "a217fddf",
			"MINTER_ROLE()": "d5391393",
			"addLocalContractAllowList(address)": "ff768212",
			"airdropMint(address[],uint256[])": "279a669e",
			"allowlistType()": "a72193b6",
			"allowlistUserAmount(uint256,address)": "499a15d4",
			"animationURI()": "b51bbbdf",
			"approve(address,uint256)": "095ea7b3",
			"balanceOf(address)": "70a08231",
			"baseExtension()": "c6682862",
			"baseURI()": "6c0360eb",
			"burnAndMintMode()": "0085bb6f",
			"cost()": "13faede6",
			"currentTokenId()": "009a9b7b",
			"enableRestrict()": "07265389",
			"externalBurn(uint256[])": "5978c012",
			"externalMint(address,uint256)": "99f98898",
			"getAllowlistUserAmount(address)": "d04f32d2",
			"getApproved(uint256)": "081812fc",
			"getLocalContractAllowList()": "003f332f",
			"getRoleAdmin(bytes32)": "248a9ca3",
			"getUserMintedAmount(address)": "47705cbc",
			"getUserMintedAmountBySaleId(uint256,address)": "3511cd54",
			"grantRole(bytes32,address)": "2f2ff15d",
			"hasRole(bytes32,address)": "91d14854",
			"imageURI()": "135d088d",
			"interfaceOfTokenURI()": "877984cb",
			"isApprovedForAll(address,address)": "e985e9c5",
			"isOperatorFilterRegistryRevoked()": "ecba222a",
			"isSBT()": "3cf40df3",
			"maxMintAmountPerTransaction()": "bbb89744",
			"maxSupply()": "d5abeb01",
			"merkleRoot()": "2eb4a7ab",
			"metadataAttributes()": "01340a32",
			"metadataDescription()": "942c9273",
			"metadataTitle()": "aabb9a86",
			"mint(uint256,uint256,bytes32[],uint256)": "6b1a2b7f",
			"mintCount()": "9659867e",
			"mintWithSBT()": "d96506f9",
			"name()": "06fdde03",
			"onlyAllowlisted()": "674c02aa",
			"operatorFilterRegistry()": "b0ccc31e",
			"owner()": "8da5cb5b",
			"ownerOf(uint256)": "6352211e",
			"paused()": "5c975abb",
			"publicSaleMaxMintAmountPerAddress()": "73ef64fd",
			"removeLocalContractAllowList(address)": "72b44d71",
			"renounceOwnership()": "715018a6",
			"renounceRole(bytes32,address)": "36568abe",
			"revokeOperatorFilterRegistry()": "5ef9432a",
			"revokeRole(bytes32,address)": "d547741f",
			"royaltyInfo(uint256,uint256)": "2a55205a",
			"safeTransferFrom(address,address,uint256)": "42842e0e",
			"safeTransferFrom(address,address,uint256,bytes)": "b88d4fde",
			"saleId()": "c84c0387",
			"sbtCollection()": "55cda898",
			"setAllowListType(uint256)": "7ee3b2ac",
			"setAllowlistMapping(uint256,address[],uint256[])": "4e6bf204",
			"setAnimationURI(string)": "c5ac58e1",
			"setApprovalForAll(address,bool)": "a22cb465",
			"setBaseExtension(string)": "da3ef23f",
			"setBaseURI(string)": "55f804b3",
			"setBurnAndMintMode(bool)": "e39e0269",
			"setCAL(address)": "025e332e",
			"setCALLevel(uint256)": "0f4345e2",
			"setCost(uint256)": "44a0d68a",
			"setDefaultRoyalty(address,uint96)": "04634d8d",
			"setEnebleRestrict(bool)": "0730baf0",
			"setImageURI(string)": "04787ca2",
			"setInterfaceOfTokenURI(address)": "23c03085",
			"setIsSBT(bool)": "fcd1aac9",
			"setMaxMintAmountPerTransaction(uint256)": "a9e2acd5",
			"setMaxSupply(uint256)": "6f8b44b0",
			"setMerkleRoot(bytes32)": "7cb64759",
			"setMetadataAttributes(string)": "ddecc4d0",
			"setMetadataDescription(string)": "599487c3",
			"setMetadataTitle(string)": "981eb344",
			"setMintCount(bool)": "8e73cf00",
			"setMintWithSBT(bool)": "4cb110fc",
			"setOnlyAllowlisted(bool)": "17dc10c4",
			"setPause(bool)": "bedb86fb",
			"setPublicSaleMaxMintAmountPerAddress(uint256)": "b5f94d06",
			"setSaleId(uint256)": "d728312a",
			"setSbtCollection(address)": "f58f9c66",
			"setTokenCALLevel(uint256,uint256)": "7c3dc173",
			"setUseAnimationUrl(bool)": "4c45cda2",
			"setUseInterfaceMetadata(bool)": "f138abfa",
			"setUseSingleMetadata(bool)": "6b8ee0ec",
			"setWalletCALLevel(uint256)": "a35c23ad",
			"setWithdrawAddress(address)": "3ab1a494",
			"supportsInterface(bytes4)": "01ffc9a7",
			"symbol()": "95d89b41",
			"tokenCALLevel(uint256)": "b31391cb",
			"tokenURI(uint256)": "c87b56dd",
			"tokensOfOwner(address)": "8462151c",
			"totalSupply()": "18160ddd",
			"transferFrom(address,address,uint256)": "23b872dd",
			"transferOwnership(address)": "f2fde38b",
			"updateOperatorFilterRegistryAddress(address)": "b8d1e532",
			"useAnimationUrl()": "003eb1e2",
			"useInterfaceMetadata()": "ba6269c6",
			"useSingleMetadata()": "d6dfad76",
			"userMintedAmount(uint256,address)": "f48824db",
			"walletCALLevel(address)": "2398f843",
			"withdraw()": "3ccfd60b",
			"withdrawAddress()": "1581b600"
		}
	},
	"abi": [
		{
			"inputs": [],
			"stateMutability": "nonpayable",
			"type": "constructor"
		},
		{
			"inputs": [],
			"name": "InitialRegistryAddressCannotBeZeroAddress",
			"type": "error"
		},
		{
			"inputs": [],
			"name": "OnlyOwner",
			"type": "error"
		},
		{
			"inputs": [
				{
					"internalType": "address",
					"name": "operator",
					"type": "address"
				}
			],
			"name": "OperatorNotAllowed",
			"type": "error"
		},
		{
			"inputs": [],
			"name": "RegistryHasBeenRevoked",
			"type": "error"
		},
		{
			"anonymous": false,
			"inputs": [
				{
					"indexed": true,
					"internalType": "address",
					"name": "owner",
					"type": "address"
				},
				{
					"indexed": true,
					"internalType": "address",
					"name": "approved",
					"type": "address"
				},
				{
					"indexed": true,
					"internalType": "uint256",
					"name": "tokenId",
					"type": "uint256"
				}
			],
			"name": "Approval",
			"type": "event"
		},
		{
			"anonymous": false,
			"inputs": [
				{
					"indexed": true,
					"internalType": "address",
					"name": "owner",
					"type": "address"
				},
				{
					"indexed": true,
					"internalType": "address",
					"name": "operator",
					"type": "address"
				},
				{
					"indexed": false,
					"internalType": "bool",
					"name": "approved",
					"type": "bool"
				}
			],
			"name": "ApprovalForAll",
			"type": "event"
		},
		{
			"anonymous": false,
			"inputs": [
				{
					"indexed": true,
					"internalType": "address",
					"name": "operator",
					"type": "address"
				},
				{
					"indexed": true,
					"internalType": "uint256",
					"name": "level",
					"type": "uint256"
				}
			],
			"name": "CalLevelChanged",
			"type": "event"
		},
		{
			"anonymous": false,
			"inputs": [
				{
					"indexed": true,
					"internalType": "address",
					"name": "operator",
					"type": "address"
				},
				{
					"indexed": true,
					"internalType": "address",
					"name": "transferer",
					"type": "address"
				}
			],
			"name": "LocalCalAdded",
			"type": "event"
		},
		{
			"anonymous": false,
			"inputs": [
				{
					"indexed": true,
					"internalType": "address",
					"name": "operator",
					"type": "address"
				},
				{
					"indexed": true,
					"internalType": "address",
					"name": "transferer",
					"type": "address"
				}
			],
			"name": "LocalCalRemoved",
			"type": "event"
		},
		{
			"anonymous": false,
			"inputs": [
				{
					"indexed": false,
					"internalType": "address",
					"name": "newRegistry",
					"type": "address"
				}
			],
			"name": "OperatorFilterRegistryAddressUpdated",
			"type": "event"
		},
		{
			"anonymous": false,
			"inputs": [],
			"name": "OperatorFilterRegistryRevoked",
			"type": "event"
		},
		{
			"anonymous": false,
			"inputs": [
				{
					"indexed": true,
					"internalType": "address",
					"name": "previousOwner",
					"type": "address"
				},
				{
					"indexed": true,
					"internalType": "address",
					"name": "newOwner",
					"type": "address"
				}
			],
			"name": "OwnershipTransferred",
			"type": "event"
		},
		{
			"anonymous": false,
			"inputs": [
				{
					"indexed": true,
					"internalType": "bytes32",
					"name": "role",
					"type": "bytes32"
				},
				{
					"indexed": true,
					"internalType": "bytes32",
					"name": "previousAdminRole",
					"type": "bytes32"
				},
				{
					"indexed": true,
					"internalType": "bytes32",
					"name": "newAdminRole",
					"type": "bytes32"
				}
			],
			"name": "RoleAdminChanged",
			"type": "event"
		},
		{
			"anonymous": false,
			"inputs": [
				{
					"indexed": true,
					"internalType": "bytes32",
					"name": "role",
					"type": "bytes32"
				},
				{
					"indexed": true,
					"internalType": "address",
					"name": "account",
					"type": "address"
				},
				{
					"indexed": true,
					"internalType": "address",
					"name": "sender",
					"type": "address"
				}
			],
			"name": "RoleGranted",
			"type": "event"
		},
		{
			"anonymous": false,
			"inputs": [
				{
					"indexed": true,
					"internalType": "bytes32",
					"name": "role",
					"type": "bytes32"
				},
				{
					"indexed": true,
					"internalType": "address",
					"name": "account",
					"type": "address"
				},
				{
					"indexed": true,
					"internalType": "address",
					"name": "sender",
					"type": "address"
				}
			],
			"name": "RoleRevoked",
			"type": "event"
		},
		{
			"anonymous": false,
			"inputs": [
				{
					"indexed": true,
					"internalType": "address",
					"name": "from",
					"type": "address"
				},
				{
					"indexed": true,
					"internalType": "address",
					"name": "to",
					"type": "address"
				},
				{
					"indexed": true,
					"internalType": "uint256",
					"name": "tokenId",
					"type": "uint256"
				}
			],
			"name": "Transfer",
			"type": "event"
		},
		{
			"inputs": [],
			"name": "ADMIN",
			"outputs": [
				{
					"internalType": "bytes32",
					"name": "",
					"type": "bytes32"
				}
			],
			"stateMutability": "view",
			"type": "function"
		},
		{
			"inputs": [],
			"name": "AIRDROP_ROLE",
			"outputs": [
				{
					"internalType": "bytes32",
					"name": "",
					"type": "bytes32"
				}
			],
			"stateMutability": "view",
			"type": "function"
		},
		{
			"inputs": [],
			"name": "BURNER_ROLE",
			"outputs": [
				{
					"internalType": "bytes32",
					"name": "",
					"type": "bytes32"
				}
			],
			"stateMutability": "view",
			"type": "function"
		},
		{
			"inputs": [],
			"name": "CAL",
			"outputs": [
				{
					"internalType": "contract IContractAllowListProxy",
					"name": "",
					"type": "address"
				}
			],
			"stateMutability": "view",
			"type": "function"
		},
		{
			"inputs": [],
			"name": "CALLevel",
			"outputs": [
				{
					"internalType": "uint256",
					"name": "",
					"type": "uint256"
				}
			],
			"stateMutability": "view",
			"type": "function"
		},
		{
			"inputs": [],
			"name": "DEFAULT_ADMIN_ROLE",
			"outputs": [
				{
					"internalType": "bytes32",
					"name": "",
					"type": "bytes32"
				}
			],
			"stateMutability": "view",
			"type": "function"
		},
		{
			"inputs": [],
			"name": "MINTER_ROLE",
			"outputs": [
				{
					"internalType": "bytes32",
					"name": "",
					"type": "bytes32"
				}
			],
			"stateMutability": "view",
			"type": "function"
		},
		{
			"inputs": [
				{
					"internalType": "address",
					"name": "transferer",
					"type": "address"
				}
			],
			"name": "addLocalContractAllowList",
			"outputs": [],
			"stateMutability": "nonpayable",
			"type": "function"
		},
		{
			"inputs": [
				{
					"internalType": "address[]",
					"name": "_airdropAddresses",
					"type": "address[]"
				},
				{
					"internalType": "uint256[]",
					"name": "_UserMintAmount",
					"type": "uint256[]"
				}
			],
			"name": "airdropMint",
			"outputs": [],
			"stateMutability": "nonpayable",
			"type": "function"
		},
		{
			"inputs": [],
			"name": "allowlistType",
			"outputs": [
				{
					"internalType": "uint256",
					"name": "",
					"type": "uint256"
				}
			],
			"stateMutability": "view",
			"type": "function"
		},
		{
			"inputs": [
				{
					"internalType": "uint256",
					"name": "",
					"type": "uint256"
				},
				{
					"internalType": "address",
					"name": "",
					"type": "address"
				}
			],
			"name": "allowlistUserAmount",
			"outputs": [
				{
					"internalType": "uint256",
					"name": "",
					"type": "uint256"
				}
			],
			"stateMutability": "view",
			"type": "function"
		},
		{
			"inputs": [],
			"name": "animationURI",
			"outputs": [
				{
					"internalType": "string",
					"name": "",
					"type": "string"
				}
			],
			"stateMutability": "view",
			"type": "function"
		},
		{
			"inputs": [
				{
					"internalType": "address",
					"name": "operator",
					"type": "address"
				},
				{
					"internalType": "uint256",
					"name": "tokenId",
					"type": "uint256"
				}
			],
			"name": "approve",
			"outputs": [],
			"stateMutability": "nonpayable",
			"type": "function"
		},
		{
			"inputs": [
				{
					"internalType": "address",
					"name": "_owner",
					"type": "address"
				}
			],
			"name": "balanceOf",
			"outputs": [
				{
					"internalType": "uint256",
					"name": "",
					"type": "uint256"
				}
			],
			"stateMutability": "view",
			"type": "function"
		},
		{
			"inputs": [],
			"name": "baseExtension",
			"outputs": [
				{
					"internalType": "string",
					"name": "",
					"type": "string"
				}
			],
			"stateMutability": "view",
			"type": "function"
		},
		{
			"inputs": [],
			"name": "baseURI",
			"outputs": [
				{
					"internalType": "string",
					"name": "",
					"type": "string"
				}
			],
			"stateMutability": "view",
			"type": "function"
		},
		{
			"inputs": [],
			"name": "burnAndMintMode",
			"outputs": [
				{
					"internalType": "bool",
					"name": "",
					"type": "bool"
				}
			],
			"stateMutability": "view",
			"type": "function"
		},
		{
			"inputs": [],
			"name": "cost",
			"outputs": [
				{
					"internalType": "uint256",
					"name": "",
					"type": "uint256"
				}
			],
			"stateMutability": "view",
			"type": "function"
		},
		{
			"inputs": [],
			"name": "currentTokenId",
			"outputs": [
				{
					"internalType": "uint256",
					"name": "",
					"type": "uint256"
				}
			],
			"stateMutability": "view",
			"type": "function"
		},
		{
			"inputs": [],
			"name": "enableRestrict",
			"outputs": [
				{
					"internalType": "bool",
					"name": "",
					"type": "bool"
				}
			],
			"stateMutability": "view",
			"type": "function"
		},
		{
			"inputs": [
				{
					"internalType": "uint256[]",
					"name": "_burnTokenIds",
					"type": "uint256[]"
				}
			],
			"name": "externalBurn",
			"outputs": [],
			"stateMutability": "nonpayable",
			"type": "function"
		},
		{
			"inputs": [
				{
					"internalType": "address",
					"name": "_address",
					"type": "address"
				},
				{
					"internalType": "uint256",
					"name": "_amount",
					"type": "uint256"
				}
			],
			"name": "externalMint",
			"outputs": [],
			"stateMutability": "payable",
			"type": "function"
		},
		{
			"inputs": [
				{
					"internalType": "address",
					"name": "_address",
					"type": "address"
				}
			],
			"name": "getAllowlistUserAmount",
			"outputs": [
				{
					"internalType": "uint256",
					"name": "",
					"type": "uint256"
				}
			],
			"stateMutability": "view",
			"type": "function"
		},
		{
			"inputs": [
				{
					"internalType": "uint256",
					"name": "tokenId",
					"type": "uint256"
				}
			],
			"name": "getApproved",
			"outputs": [
				{
					"internalType": "address",
					"name": "",
					"type": "address"
				}
			],
			"stateMutability": "view",
			"type": "function"
		},
		{
			"inputs": [],
			"name": "getLocalContractAllowList",
			"outputs": [
				{
					"internalType": "address[]",
					"name": "",
					"type": "address[]"
				}
			],
			"stateMutability": "view",
			"type": "function"
		},
		{
			"inputs": [
				{
					"internalType": "bytes32",
					"name": "role",
					"type": "bytes32"
				}
			],
			"name": "getRoleAdmin",
			"outputs": [
				{
					"internalType": "bytes32",
					"name": "",
					"type": "bytes32"
				}
			],
			"stateMutability": "view",
			"type": "function"
		},
		{
			"inputs": [
				{
					"internalType": "address",
					"name": "_address",
					"type": "address"
				}
			],
			"name": "getUserMintedAmount",
			"outputs": [
				{
					"internalType": "uint256",
					"name": "",
					"type": "uint256"
				}
			],
			"stateMutability": "view",
			"type": "function"
		},
		{
			"inputs": [
				{
					"internalType": "uint256",
					"name": "_saleId",
					"type": "uint256"
				},
				{
					"internalType": "address",
					"name": "_address",
					"type": "address"
				}
			],
			"name": "getUserMintedAmountBySaleId",
			"outputs": [
				{
					"internalType": "uint256",
					"name": "",
					"type": "uint256"
				}
			],
			"stateMutability": "view",
			"type": "function"
		},
		{
			"inputs": [
				{
					"internalType": "bytes32",
					"name": "role",
					"type": "bytes32"
				},
				{
					"internalType": "address",
					"name": "account",
					"type": "address"
				}
			],
			"name": "grantRole",
			"outputs": [],
			"stateMutability": "nonpayable",
			"type": "function"
		},
		{
			"inputs": [
				{
					"internalType": "bytes32",
					"name": "role",
					"type": "bytes32"
				},
				{
					"internalType": "address",
					"name": "account",
					"type": "address"
				}
			],
			"name": "hasRole",
			"outputs": [
				{
					"internalType": "bool",
					"name": "",
					"type": "bool"
				}
			],
			"stateMutability": "view",
			"type": "function"
		},
		{
			"inputs": [],
			"name": "imageURI",
			"outputs": [
				{
					"internalType": "string",
					"name": "",
					"type": "string"
				}
			],
			"stateMutability": "view",
			"type": "function"
		},
		{
			"inputs": [],
			"name": "interfaceOfTokenURI",
			"outputs": [
				{
					"internalType": "contract iTokenURI",
					"name": "",
					"type": "address"
				}
			],
			"stateMutability": "view",
			"type": "function"
		},
		{
			"inputs": [
				{
					"internalType": "address",
					"name": "owner",
					"type": "address"
				},
				{
					"internalType": "address",
					"name": "operator",
					"type": "address"
				}
			],
			"name": "isApprovedForAll",
			"outputs": [
				{
					"internalType": "bool",
					"name": "",
					"type": "bool"
				}
			],
			"stateMutability": "view",
			"type": "function"
		},
		{
			"inputs": [],
			"name": "isOperatorFilterRegistryRevoked",
			"outputs": [
				{
					"internalType": "bool",
					"name": "",
					"type": "bool"
				}
			],
			"stateMutability": "view",
			"type": "function"
		},
		{
			"inputs": [],
			"name": "isSBT",
			"outputs": [
				{
					"internalType": "bool",
					"name": "",
					"type": "bool"
				}
			],
			"stateMutability": "view",
			"type": "function"
		},
		{
			"inputs": [],
			"name": "maxMintAmountPerTransaction",
			"outputs": [
				{
					"internalType": "uint256",
					"name": "",
					"type": "uint256"
				}
			],
			"stateMutability": "view",
			"type": "function"
		},
		{
			"inputs": [],
			"name": "maxSupply",
			"outputs": [
				{
					"internalType": "uint256",
					"name": "",
					"type": "uint256"
				}
			],
			"stateMutability": "view",
			"type": "function"
		},
		{
			"inputs": [],
			"name": "merkleRoot",
			"outputs": [
				{
					"internalType": "bytes32",
					"name": "",
					"type": "bytes32"
				}
			],
			"stateMutability": "view",
			"type": "function"
		},
		{
			"inputs": [],
			"name": "metadataAttributes",
			"outputs": [
				{
					"internalType": "string",
					"name": "",
					"type": "string"
				}
			],
			"stateMutability": "view",
			"type": "function"
		},
		{
			"inputs": [],
			"name": "metadataDescription",
			"outputs": [
				{
					"internalType": "string",
					"name": "",
					"type": "string"
				}
			],
			"stateMutability": "view",
			"type": "function"
		},
		{
			"inputs": [],
			"name": "metadataTitle",
			"outputs": [
				{
					"internalType": "string",
					"name": "",
					"type": "string"
				}
			],
			"stateMutability": "view",
			"type": "function"
		},
		{
			"inputs": [
				{
					"internalType": "uint256",
					"name": "_mintAmount",
					"type": "uint256"
				},
				{
					"internalType": "uint256",
					"name": "_maxMintAmount",
					"type": "uint256"
				},
				{
					"internalType": "bytes32[]",
					"name": "_merkleProof",
					"type": "bytes32[]"
				},
				{
					"internalType": "uint256",
					"name": "_burnId",
					"type": "uint256"
				}
			],
			"name": "mint",
			"outputs": [],
			"stateMutability": "payable",
			"type": "function"
		},
		{
			"inputs": [],
			"name": "mintCount",
			"outputs": [
				{
					"internalType": "bool",
					"name": "",
					"type": "bool"
				}
			],
			"stateMutability": "view",
			"type": "function"
		},
		{
			"inputs": [],
			"name": "mintWithSBT",
			"outputs": [
				{
					"internalType": "bool",
					"name": "",
					"type": "bool"
				}
			],
			"stateMutability": "view",
			"type": "function"
		},
		{
			"inputs": [],
			"name": "name",
			"outputs": [
				{
					"internalType": "string",
					"name": "",
					"type": "string"
				}
			],
			"stateMutability": "view",
			"type": "function"
		},
		{
			"inputs": [],
			"name": "onlyAllowlisted",
			"outputs": [
				{
					"internalType": "bool",
					"name": "",
					"type": "bool"
				}
			],
			"stateMutability": "view",
			"type": "function"
		},
		{
			"inputs": [],
			"name": "operatorFilterRegistry",
			"outputs": [
				{
					"internalType": "contract IOperatorFilterRegistry",
					"name": "",
					"type": "address"
				}
			],
			"stateMutability": "view",
			"type": "function"
		},
		{
			"inputs": [],
			"name": "owner",
			"outputs": [
				{
					"internalType": "address",
					"name": "",
					"type": "address"
				}
			],
			"stateMutability": "view",
			"type": "function"
		},
		{
			"inputs": [
				{
					"internalType": "uint256",
					"name": "tokenId",
					"type": "uint256"
				}
			],
			"name": "ownerOf",
			"outputs": [
				{
					"internalType": "address",
					"name": "",
					"type": "address"
				}
			],
			"stateMutability": "view",
			"type": "function"
		},
		{
			"inputs": [],
			"name": "paused",
			"outputs": [
				{
					"internalType": "bool",
					"name": "",
					"type": "bool"
				}
			],
			"stateMutability": "view",
			"type": "function"
		},
		{
			"inputs": [],
			"name": "publicSaleMaxMintAmountPerAddress",
			"outputs": [
				{
					"internalType": "uint256",
					"name": "",
					"type": "uint256"
				}
			],
			"stateMutability": "view",
			"type": "function"
		},
		{
			"inputs": [
				{
					"internalType": "address",
					"name": "transferer",
					"type": "address"
				}
			],
			"name": "removeLocalContractAllowList",
			"outputs": [],
			"stateMutability": "nonpayable",
			"type": "function"
		},
		{
			"inputs": [],
			"name": "renounceOwnership",
			"outputs": [],
			"stateMutability": "nonpayable",
			"type": "function"
		},
		{
			"inputs": [
				{
					"internalType": "bytes32",
					"name": "role",
					"type": "bytes32"
				},
				{
					"internalType": "address",
					"name": "account",
					"type": "address"
				}
			],
			"name": "renounceRole",
			"outputs": [],
			"stateMutability": "nonpayable",
			"type": "function"
		},
		{
			"inputs": [],
			"name": "revokeOperatorFilterRegistry",
			"outputs": [],
			"stateMutability": "nonpayable",
			"type": "function"
		},
		{
			"inputs": [
				{
					"internalType": "bytes32",
					"name": "role",
					"type": "bytes32"
				},
				{
					"internalType": "address",
					"name": "account",
					"type": "address"
				}
			],
			"name": "revokeRole",
			"outputs": [],
			"stateMutability": "nonpayable",
			"type": "function"
		},
		{
			"inputs": [
				{
					"internalType": "uint256",
					"name": "tokenId",
					"type": "uint256"
				},
				{
					"internalType": "uint256",
					"name": "salePrice",
					"type": "uint256"
				}
			],
			"name": "royaltyInfo",
			"outputs": [
				{
					"internalType": "address",
					"name": "",
					"type": "address"
				},
				{
					"internalType": "uint256",
					"name": "",
					"type": "uint256"
				}
			],
			"stateMutability": "view",
			"type": "function"
		},
		{
			"inputs": [
				{
					"internalType": "address",
					"name": "from",
					"type": "address"
				},
				{
					"internalType": "address",
					"name": "to",
					"type": "address"
				},
				{
					"internalType": "uint256",
					"name": "tokenId",
					"type": "uint256"
				}
			],
			"name": "safeTransferFrom",
			"outputs": [],
			"stateMutability": "nonpayable",
			"type": "function"
		},
		{
			"inputs": [
				{
					"internalType": "address",
					"name": "from",
					"type": "address"
				},
				{
					"internalType": "address",
					"name": "to",
					"type": "address"
				},
				{
					"internalType": "uint256",
					"name": "tokenId",
					"type": "uint256"
				},
				{
					"internalType": "bytes",
					"name": "data",
					"type": "bytes"
				}
			],
			"name": "safeTransferFrom",
			"outputs": [],
			"stateMutability": "nonpayable",
			"type": "function"
		},
		{
			"inputs": [],
			"name": "saleId",
			"outputs": [
				{
					"internalType": "uint256",
					"name": "",
					"type": "uint256"
				}
			],
			"stateMutability": "view",
			"type": "function"
		},
		{
			"inputs": [],
			"name": "sbtCollection",
			"outputs": [
				{
					"internalType": "contract iSbtCollection",
					"name": "",
					"type": "address"
				}
			],
			"stateMutability": "view",
			"type": "function"
		},
		{
			"inputs": [
				{
					"internalType": "uint256",
					"name": "_type",
					"type": "uint256"
				}
			],
			"name": "setAllowListType",
			"outputs": [],
			"stateMutability": "nonpayable",
			"type": "function"
		},
		{
			"inputs": [
				{
					"internalType": "uint256",
					"name": "_saleId",
					"type": "uint256"
				},
				{
					"internalType": "address[]",
					"name": "addresses",
					"type": "address[]"
				},
				{
					"internalType": "uint256[]",
					"name": "saleSupplies",
					"type": "uint256[]"
				}
			],
			"name": "setAllowlistMapping",
			"outputs": [],
			"stateMutability": "nonpayable",
			"type": "function"
		},
		{
			"inputs": [
				{
					"internalType": "string",
					"name": "_animationURI",
					"type": "string"
				}
			],
			"name": "setAnimationURI",
			"outputs": [],
			"stateMutability": "nonpayable",
			"type": "function"
		},
		{
			"inputs": [
				{
					"internalType": "address",
					"name": "operator",
					"type": "address"
				},
				{
					"internalType": "bool",
					"name": "approved",
					"type": "bool"
				}
			],
			"name": "setApprovalForAll",
			"outputs": [],
			"stateMutability": "nonpayable",
			"type": "function"
		},
		{
			"inputs": [
				{
					"internalType": "string",
					"name": "_newBaseExtension",
					"type": "string"
				}
			],
			"name": "setBaseExtension",
			"outputs": [],
			"stateMutability": "nonpayable",
			"type": "function"
		},
		{
			"inputs": [
				{
					"internalType": "string",
					"name": "_newBaseURI",
					"type": "string"
				}
			],
			"name": "setBaseURI",
			"outputs": [],
			"stateMutability": "nonpayable",
			"type": "function"
		},
		{
			"inputs": [
				{
					"internalType": "bool",
					"name": "_burnAndMintMode",
					"type": "bool"
				}
			],
			"name": "setBurnAndMintMode",
			"outputs": [],
			"stateMutability": "nonpayable",
			"type": "function"
		},
		{
			"inputs": [
				{
					"internalType": "address",
					"name": "calAddress",
					"type": "address"
				}
			],
			"name": "setCAL",
			"outputs": [],
			"stateMutability": "nonpayable",
			"type": "function"
		},
		{
			"inputs": [
				{
					"internalType": "uint256",
					"name": "level",
					"type": "uint256"
				}
			],
			"name": "setCALLevel",
			"outputs": [],
			"stateMutability": "nonpayable",
			"type": "function"
		},
		{
			"inputs": [
				{
					"internalType": "uint256",
					"name": "_newCost",
					"type": "uint256"
				}
			],
			"name": "setCost",
			"outputs": [],
			"stateMutability": "nonpayable",
			"type": "function"
		},
		{
			"inputs": [
				{
					"internalType": "address",
					"name": "_receiver",
					"type": "address"
				},
				{
					"internalType": "uint96",
					"name": "_feeNumerator",
					"type": "uint96"
				}
			],
			"name": "setDefaultRoyalty",
			"outputs": [],
			"stateMutability": "nonpayable",
			"type": "function"
		},
		{
			"inputs": [
				{
					"internalType": "bool",
					"name": "_enableRestrict",
					"type": "bool"
				}
			],
			"name": "setEnebleRestrict",
			"outputs": [],
			"stateMutability": "nonpayable",
			"type": "function"
		},
		{
			"inputs": [
				{
					"internalType": "string",
					"name": "_ImageURI",
					"type": "string"
				}
			],
			"name": "setImageURI",
			"outputs": [],
			"stateMutability": "nonpayable",
			"type": "function"
		},
		{
			"inputs": [
				{
					"internalType": "address",
					"name": "_address",
					"type": "address"
				}
			],
			"name": "setInterfaceOfTokenURI",
			"outputs": [],
			"stateMutability": "nonpayable",
			"type": "function"
		},
		{
			"inputs": [
				{
					"internalType": "bool",
					"name": "_state",
					"type": "bool"
				}
			],
			"name": "setIsSBT",
			"outputs": [],
			"stateMutability": "nonpayable",
			"type": "function"
		},
		{
			"inputs": [
				{
					"internalType": "uint256",
					"name": "_maxMintAmountPerTransaction",
					"type": "uint256"
				}
			],
			"name": "setMaxMintAmountPerTransaction",
			"outputs": [],
			"stateMutability": "nonpayable",
			"type": "function"
		},
		{
			"inputs": [
				{
					"internalType": "uint256",
					"name": "_maxSupply",
					"type": "uint256"
				}
			],
			"name": "setMaxSupply",
			"outputs": [],
			"stateMutability": "nonpayable",
			"type": "function"
		},
		{
			"inputs": [
				{
					"internalType": "bytes32",
					"name": "_merkleRoot",
					"type": "bytes32"
				}
			],
			"name": "setMerkleRoot",
			"outputs": [],
			"stateMutability": "nonpayable",
			"type": "function"
		},
		{
			"inputs": [
				{
					"internalType": "string",
					"name": "_metadataAttributes",
					"type": "string"
				}
			],
			"name": "setMetadataAttributes",
			"outputs": [],
			"stateMutability": "nonpayable",
			"type": "function"
		},
		{
			"inputs": [
				{
					"internalType": "string",
					"name": "_metadataDescription",
					"type": "string"
				}
			],
			"name": "setMetadataDescription",
			"outputs": [],
			"stateMutability": "nonpayable",
			"type": "function"
		},
		{
			"inputs": [
				{
					"internalType": "string",
					"name": "_metadataTitle",
					"type": "string"
				}
			],
			"name": "setMetadataTitle",
			"outputs": [],
			"stateMutability": "nonpayable",
			"type": "function"
		},
		{
			"inputs": [
				{
					"internalType": "bool",
					"name": "_state",
					"type": "bool"
				}
			],
			"name": "setMintCount",
			"outputs": [],
			"stateMutability": "nonpayable",
			"type": "function"
		},
		{
			"inputs": [
				{
					"internalType": "bool",
					"name": "_mintWithSBT",
					"type": "bool"
				}
			],
			"name": "setMintWithSBT",
			"outputs": [],
			"stateMutability": "nonpayable",
			"type": "function"
		},
		{
			"inputs": [
				{
					"internalType": "bool",
					"name": "_state",
					"type": "bool"
				}
			],
			"name": "setOnlyAllowlisted",
			"outputs": [],
			"stateMutability": "nonpayable",
			"type": "function"
		},
		{
			"inputs": [
				{
					"internalType": "bool",
					"name": "_state",
					"type": "bool"
				}
			],
			"name": "setPause",
			"outputs": [],
			"stateMutability": "nonpayable",
			"type": "function"
		},
		{
			"inputs": [
				{
					"internalType": "uint256",
					"name": "_publicSaleMaxMintAmountPerAddress",
					"type": "uint256"
				}
			],
			"name": "setPublicSaleMaxMintAmountPerAddress",
			"outputs": [],
			"stateMutability": "nonpayable",
			"type": "function"
		},
		{
			"inputs": [
				{
					"internalType": "uint256",
					"name": "_saleId",
					"type": "uint256"
				}
			],
			"name": "setSaleId",
			"outputs": [],
			"stateMutability": "nonpayable",
			"type": "function"
		},
		{
			"inputs": [
				{
					"internalType": "address",
					"name": "_address",
					"type": "address"
				}
			],
			"name": "setSbtCollection",
			"outputs": [],
			"stateMutability": "nonpayable",
			"type": "function"
		},
		{
			"inputs": [
				{
					"internalType": "uint256",
					"name": "tokenId",
					"type": "uint256"
				},
				{
					"internalType": "uint256",
					"name": "level",
					"type": "uint256"
				}
			],
			"name": "setTokenCALLevel",
			"outputs": [],
			"stateMutability": "nonpayable",
			"type": "function"
		},
		{
			"inputs": [
				{
					"internalType": "bool",
					"name": "_useAnimationUrl",
					"type": "bool"
				}
			],
			"name": "setUseAnimationUrl",
			"outputs": [],
			"stateMutability": "nonpayable",
			"type": "function"
		},
		{
			"inputs": [
				{
					"internalType": "bool",
					"name": "_useInterfaceMetadata",
					"type": "bool"
				}
			],
			"name": "setUseInterfaceMetadata",
			"outputs": [],
			"stateMutability": "nonpayable",
			"type": "function"
		},
		{
			"inputs": [
				{
					"internalType": "bool",
					"name": "_useSingleMetadata",
					"type": "bool"
				}
			],
			"name": "setUseSingleMetadata",
			"outputs": [],
			"stateMutability": "nonpayable",
			"type": "function"
		},
		{
			"inputs": [
				{
					"internalType": "uint256",
					"name": "level",
					"type": "uint256"
				}
			],
			"name": "setWalletCALLevel",
			"outputs": [],
			"stateMutability": "nonpayable",
			"type": "function"
		},
		{
			"inputs": [
				{
					"internalType": "address",
					"name": "_withdrawAddress",
					"type": "address"
				}
			],
			"name": "setWithdrawAddress",
			"outputs": [],
			"stateMutability": "nonpayable",
			"type": "function"
		},
		{
			"inputs": [
				{
					"internalType": "bytes4",
					"name": "interfaceId",
					"type": "bytes4"
				}
			],
			"name": "supportsInterface",
			"outputs": [
				{
					"internalType": "bool",
					"name": "",
					"type": "bool"
				}
			],
			"stateMutability": "view",
			"type": "function"
		},
		{
			"inputs": [],
			"name": "symbol",
			"outputs": [
				{
					"internalType": "string",
					"name": "",
					"type": "string"
				}
			],
			"stateMutability": "view",
			"type": "function"
		},
		{
			"inputs": [
				{
					"internalType": "uint256",
					"name": "",
					"type": "uint256"
				}
			],
			"name": "tokenCALLevel",
			"outputs": [
				{
					"internalType": "uint256",
					"name": "",
					"type": "uint256"
				}
			],
			"stateMutability": "view",
			"type": "function"
		},
		{
			"inputs": [
				{
					"internalType": "uint256",
					"name": "tokenId",
					"type": "uint256"
				}
			],
			"name": "tokenURI",
			"outputs": [
				{
					"internalType": "string",
					"name": "",
					"type": "string"
				}
			],
			"stateMutability": "view",
			"type": "function"
		},
		{
			"inputs": [
				{
					"internalType": "address",
					"name": "owner",
					"type": "address"
				}
			],
			"name": "tokensOfOwner",
			"outputs": [
				{
					"internalType": "uint256[]",
					"name": "",
					"type": "uint256[]"
				}
			],
			"stateMutability": "view",
			"type": "function"
		},
		{
			"inputs": [],
			"name": "totalSupply",
			"outputs": [
				{
					"internalType": "uint256",
					"name": "",
					"type": "uint256"
				}
			],
			"stateMutability": "view",
			"type": "function"
		},
		{
			"inputs": [
				{
					"internalType": "address",
					"name": "from",
					"type": "address"
				},
				{
					"internalType": "address",
					"name": "to",
					"type": "address"
				},
				{
					"internalType": "uint256",
					"name": "tokenId",
					"type": "uint256"
				}
			],
			"name": "transferFrom",
			"outputs": [],
			"stateMutability": "nonpayable",
			"type": "function"
		},
		{
			"inputs": [
				{
					"internalType": "address",
					"name": "newOwner",
					"type": "address"
				}
			],
			"name": "transferOwnership",
			"outputs": [],
			"stateMutability": "nonpayable",
			"type": "function"
		},
		{
			"inputs": [
				{
					"internalType": "address",
					"name": "newRegistry",
					"type": "address"
				}
			],
			"name": "updateOperatorFilterRegistryAddress",
			"outputs": [],
			"stateMutability": "nonpayable",
			"type": "function"
		},
		{
			"inputs": [],
			"name": "useAnimationUrl",
			"outputs": [
				{
					"internalType": "bool",
					"name": "",
					"type": "bool"
				}
			],
			"stateMutability": "view",
			"type": "function"
		},
		{
			"inputs": [],
			"name": "useInterfaceMetadata",
			"outputs": [
				{
					"internalType": "bool",
					"name": "",
					"type": "bool"
				}
			],
			"stateMutability": "view",
			"type": "function"
		},
		{
			"inputs": [],
			"name": "useSingleMetadata",
			"outputs": [
				{
					"internalType": "bool",
					"name": "",
					"type": "bool"
				}
			],
			"stateMutability": "view",
			"type": "function"
		},
		{
			"inputs": [
				{
					"internalType": "uint256",
					"name": "",
					"type": "uint256"
				},
				{
					"internalType": "address",
					"name": "",
					"type": "address"
				}
			],
			"name": "userMintedAmount",
			"outputs": [
				{
					"internalType": "uint256",
					"name": "",
					"type": "uint256"
				}
			],
			"stateMutability": "view",
			"type": "function"
		},
		{
			"inputs": [
				{
					"internalType": "address",
					"name": "",
					"type": "address"
				}
			],
			"name": "walletCALLevel",
			"outputs": [
				{
					"internalType": "uint256",
					"name": "",
					"type": "uint256"
				}
			],
			"stateMutability": "view",
			"type": "function"
		},
		{
			"inputs": [],
			"name": "withdraw",
			"outputs": [],
			"stateMutability": "payable",
			"type": "function"
		},
		{
			"inputs": [],
			"name": "withdrawAddress",
			"outputs": [
				{
					"internalType": "address",
					"name": "",
					"type": "address"
				}
			],
			"stateMutability": "view",
			"type": "function"
		}
	]
}