{
	"data": {
		"bytecode": {
			"linkReferences": {},
			"object": "600f805460ff199081166001908117909255601291909155601580546001600160a01b0319167352c5dcf49f10c827e070cee4adf1d006942eaab6179055662386f26fc100006016556108ad60175560c8601855600a601955601a805463ffffffff1916620101011790556000601b819055601d5560208054909116905560c06040526005608090815264173539b7b760d91b60a052602290620000a4908262001221565b506023805461ffff60a01b191690556028805460ff19908116909155602a80549091169055348015620000d657600080fd5b50604080518082018252601081526f26bab9bab134a1b7b63632b1ba34b7b760811b602080830191909152825180840190935260048352631350d39160e21b90830152600080546001600160a01b0319166daaeb6d7670e522a718067333cd4e908117909155909190733cc6cdda760b79bafa08df41ecfa224f810dceb6600182828282803b1562000274578115620001d357604051633e9f1edf60e11b81523060048201526001600160a01b038481166024830152821690637d3e3dbe906044015b600060405180830381600087803b158015620001b457600080fd5b505af1158015620001c9573d6000803e3d6000fd5b5050505062000274565b6001600160a01b03831615620002185760405163a0af290360e01b81523060048201526001600160a01b03848116602483015282169063a0af29039060440162000199565b604051632210724360e11b81523060048201526001600160a01b03821690634420e48690602401600060405180830381600087803b1580156200025a57600080fd5b505af11580156200026f573d6000803e3d6000fd5b505050505b5050506001600160a01b0384169050620002a15760405163c49d17ad60e01b815260040160405180910390fd5b505050620002be620002b86200043160201b60201c565b62000435565b6005620002cc838262001221565b506006620002db828262001221565b50600060085550506001601455620002f560003362000487565b620003217f9f2df0fed2c77648de5860a4cc508cd0818c85b8b8a1ab4ceeef8d981c8956a63362000497565b6200034d7f3a2f235c9daaf33349d300aadff2f15078a89df81bcfdd45ba11c8f816bddc6f3362000497565b620003686000805160206200733b8339815191523362000497565b6200038c6040518060600160405280602b815260200162007310602b9139620004c5565b620003986001620004ee565b600c80546001600160a01b03191673dbaa28cbe70af04ebfb166b1a3e8f8034e5b9fc7179055620003dd731e0049783f008a0085193e00003d00cd54003c716200050f565b620003fc734fee7b061c97c9c496b01dbce9cdb10c02f0a0be6200050f565b6200040933600162000564565b6200042b73ac6534c66b393e6cb33a13795857e0d9d2b90f966103e862000586565b62001519565b3390565b600380546001600160a01b038381166001600160a01b0319831681179093556040519116919082907f8be0079c531659141344cd1fd0a4f28419497f9722a3daafe3b4186f6b6457e090600090a35050565b6200049382826200059c565b5050565b600082815260136020526040902060010154620004b48162000640565b620004c083836200059c565b505050565b6000805160206200733b833981519152620004e08162000640565b6021620004c0838262001221565b6000805160206200733b833981519152620005098162000640565b50601255565b6200052a81600d6200064f60201b620030361790919060201c565b506040516001600160a01b0382169033907fbd0af1fe0a2c1c7bb340c17a284a291138979c8eeb797e176dbd1c415199af3c90600090a350565b620004938282604051806020016040528060008152506200066f60201b60201c565b6200059062000706565b6200049382826200076b565b60008281526013602090815260408083206001600160a01b038516845290915290205460ff16620004935760008281526013602090815260408083206001600160a01b03851684529091529020805460ff19166001179055620005fc3390565b6001600160a01b0316816001600160a01b0316837f2f8788117e7eff1d82e926ec794901d17c78024a50270940304540a733656f0d60405160405180910390a45050565b6200064c81336200086c565b50565b600062000666836001600160a01b038416620008fe565b90505b92915050565b60006200067b60085490565b905062000689848462000950565b6200069960008583868662000aff565b620007005760405162461bcd60e51b815260206004820152603560248201526000805160206200735b83398151915260448201527f31526563656976657220696d706c656d656e746572000000000000000000000060648201526084015b60405180910390fd5b50505050565b336200071162000ca2565b6001600160a01b031614620007695760405162461bcd60e51b815260206004820181905260248201527f4f776e61626c653a2063616c6c6572206973206e6f7420746865206f776e65726044820152606401620006f7565b565b6127106001600160601b0382161115620007db5760405162461bcd60e51b815260206004820152602a60248201527f455243323938313a20726f79616c7479206665652077696c6c206578636565646044820152692073616c65507269636560b01b6064820152608401620006f7565b6001600160a01b038216620008335760405162461bcd60e51b815260206004820152601960248201527f455243323938313a20696e76616c6964207265636569766572000000000000006044820152606401620006f7565b604080518082019091526001600160a01b039092168083526001600160601b039091166020909201829052600160a01b90910217600155565b60008281526013602090815260408083206001600160a01b038516845290915290205460ff166200049357620008ad8162000cbe60201b6200304b1760201c565b620008c38360206200305d62000cd1821b17811c565b604051602001620008d692919062001313565b60408051601f198184030181529082905262461bcd60e51b8252620006f791600401620013ba565b6000818152600183016020526040812054620009475750815460018181018455600084815260208082209093018490558454848252828601909352604090209190915562000669565b50600062000669565b60006200095c60085490565b905060008211620009be5760405162461bcd60e51b815260206004820152602560248201527f4552433732315073693a207175616e74697479206d7573742062652067726561604482015264074657220360dc1b6064820152608401620006f7565b6001600160a01b03831662000a225760405162461bcd60e51b815260206004820152602360248201527f4552433732315073693a206d696e7420746f20746865207a65726f206164647260448201526265737360e81b6064820152608401620006f7565b62000a31600084838562000e8a565b816008600082825462000a459190620013e5565b9091555050600081815260076020908152604090912080546001600160a01b0319166001600160a01b03861617905562000a8d90600490839062000f34811b620031f817901c565b62000a9c600084838562000f60565b805b62000aaa8383620013e5565b811015620007005760405181906001600160a01b038616906000907fddf252ad1be2c89b69c2b068fc378daa952ba7f163c4a11628f55a4df523b3ef908290a48062000af681620013fb565b91505062000a9e565b600062000b20856001600160a01b03166200113a60201b620032241760201c565b1562000c9557506001835b62000b378486620013e5565b81101562000c8e57604051630a85bd0160e11b81526001600160a01b0387169063150b7a029062000b739033908b908690899060040162001417565b6020604051808303816000875af192505050801562000bb1575060408051601f3d908101601f1916820190925262000bae9181019062001456565b60015b62000c58573d80801562000be2576040519150601f19603f3d011682016040523d82523d6000602084013e62000be7565b606091505b50805160000362000c505760405162461bcd60e51b815260206004820152603560248201526000805160206200735b83398151915260448201527f31526563656976657220696d706c656d656e74657200000000000000000000006064820152608401620006f7565b805181602001fd5b82801562000c7657506001600160e01b03198116630a85bd0160e11b145b9250508062000c8581620013fb565b91505062000b2b565b5062000c99565b5060015b95945050505050565b600062000cb96200114960201b620032331760201c565b905090565b6060620006696001600160a01b03831660145b6060600062000ce283600262001482565b62000cef906002620013e5565b6001600160401b0381111562000d095762000d096200117d565b6040519080825280601f01601f19166020018201604052801562000d34576020820181803683370190505b509050600360fc1b8160008151811062000d525762000d526200149c565b60200101906001600160f81b031916908160001a905350600f60fb1b8160018151811062000d845762000d846200149c565b60200101906001600160f81b031916908160001a905350600062000daa84600262001482565b62000db7906001620013e5565b90505b600181111562000e39576f181899199a1a9b1b9c1cb0b131b232b360811b85600f166010811062000def5762000def6200149c565b1a60f81b82828151811062000e085762000e086200149c565b60200101906001600160f81b031916908160001a90535060049490941c9362000e3181620014b2565b905062000dba565b508315620006665760405162461bcd60e51b815260206004820181905260248201527f537472696e67733a20686578206c656e67746820696e73756666696369656e746044820152606401620006f7565b602a5460ff16158062000ea457506001600160a01b038416155b8062000eb757506001600160a01b038316155b8062000ecd57506001600160a01b03831661dead145b62000f1b5760405162461bcd60e51b815260206004820152601660248201527f7472616e736665722069732070726f68696269746564000000000000000000006044820152606401620006f7565b62000700848484846200070060201b6200187f1760201c565b600881901c600090815260209290925260409091208054600160ff1b60ff9093169290921c9091179055565b68010000000000000000811062000f7657600080fd5b806001600160a01b0385161562000fe4576001600160a01b0385166000908152602b60205260408120805483929062000fba9084906001600160401b0316620014cc565b92506101000a8154816001600160401b0302191690836001600160401b031602179055506200104b565b6001600160a01b0384166000908152602b602052604090208054829190600890620010269084906801000000000000000090046001600160401b0316620014f6565b92506101000a8154816001600160401b0302191690836001600160401b031602179055505b6001600160a01b03841615620010b8576001600160a01b0384166000908152602b6020526040812080548392906200108e9084906001600160401b0316620014f6565b92506101000a8154816001600160401b0302191690836001600160401b031602179055506200111a565b6001600160a01b0385166000908152602b602052604090208054829190601090620010f5908490600160801b90046001600160401b0316620014f6565b92506101000a8154816001600160401b0302191690836001600160401b031602179055505b62001133858585856200115860201b620032421760201c565b5050505050565b6001600160a01b03163b151590565b6003546001600160a01b031690565b6001600160a01b03841615620007005760008281526010602052604081205562000700565b634e487b7160e01b600052604160045260246000fd5b600181811c90821680620011a857607f821691505b602082108103620011c957634e487b7160e01b600052602260045260246000fd5b50919050565b601f821115620004c057600081815260208120601f850160051c81016020861015620011f85750805b601f850160051c820191505b81811015620012195782815560010162001204565b505050505050565b81516001600160401b038111156200123d576200123d6200117d565b62001255816200124e845462001193565b84620011cf565b602080601f8311600181146200128d5760008415620012745750858301515b600019600386901b1c1916600185901b17855562001219565b600085815260208120601f198616915b82811015620012be578886015182559484019460019091019084016200129d565b5085821015620012dd5787850151600019600388901b60f8161c191681555b5050505050600190811b01905550565b60005b838110156200130a578181015183820152602001620012f0565b50506000910152565b7f416363657373436f6e74726f6c3a206163636f756e74200000000000000000008152600083516200134d816017850160208801620012ed565b7001034b99036b4b9b9b4b733903937b6329607d1b601791840191820152835162001380816028840160208801620012ed565b01602801949350505050565b60008151808452620013a6816020860160208601620012ed565b601f01601f19169290920160200192915050565b6020815260006200066660208301846200138c565b634e487b7160e01b600052601160045260246000fd5b80820180821115620006695762000669620013cf565b600060018201620014105762001410620013cf565b5060010190565b6001600160a01b03858116825284166020820152604081018390526080606082018190526000906200144c908301846200138c565b9695505050505050565b6000602082840312156200146957600080fd5b81516001600160e01b0319811681146200066657600080fd5b8082028115828204841417620006695762000669620013cf565b634e487b7160e01b600052603260045260246000fd5b600081620014c457620014c4620013cf565b506000190190565b6001600160401b03828116828216039080821115620014ef57620014ef620013cf565b5092915050565b6001600160401b03818116838216019080821115620014ef57620014ef620013cf565b615de780620015296000396000f3fe6080604052600436106106b45760003560e01c80636c0360eb1161037a578063b5f94d06116101d1578063d6dfad7611610102578063ecba222a116100a0578063f48824db1161007a578063f48824db1461144c578063f58f9c6614611484578063fcd1aac9146114a4578063ff768212146114c457600080fd5b8063ecba222a146113eb578063f138abfa1461140c578063f2fde38b1461142c57600080fd5b8063da3ef23f116100dc578063da3ef23f1461136b578063ddecc4d01461138b578063e39e0269146113ab578063e985e9c5146113cb57600080fd5b8063d6dfad7614611310578063d728312a14611331578063d96506f91461135157600080fd5b8063c66828621161016f578063d04f32d211610149578063d04f32d214611262578063d5391393146112a6578063d547741f146112da578063d5abeb01146112fa57600080fd5b8063c668286214611217578063c84c03871461122c578063c87b56dd1461124257600080fd5b8063ba6269c6116101ab578063ba6269c6146111a0578063bbb89744146111c1578063bedb86fb146111d7578063c5ac58e1146111f757600080fd5b8063b5f94d0614611140578063b88d4fde14611160578063b8d1e5321461118057600080fd5b8063942c9273116102ab578063a35c23ad11610249578063aabb9a8611610223578063aabb9a86146110c9578063b0ccc31e146110de578063b31391cb146110fe578063b51bbbdf1461112b57600080fd5b8063a35c23ad14611066578063a72193b614611093578063a9e2acd5146110a957600080fd5b8063981eb34411610285578063981eb34414610ffe57806399f988981461101e578063a217fddf14611031578063a22cb4651461104657600080fd5b8063942c927314610fb457806395d89b4114610fc95780639659867e14610fde57600080fd5b80637cb6475911610318578063877984cb116102f2578063877984cb14610f3f5780638da5cb5b14610f5f5780638e73cf0014610f7457806391d1485414610f9457600080fd5b80637cb6475914610ed25780637ee3b2ac14610ef25780638462151c14610f1257600080fd5b8063715018a611610354578063715018a614610e6757806372b44d7114610e7c57806373ef64fd14610e9c5780637c3dc17314610eb257600080fd5b80636c0360eb14610e125780636f8b44b014610e2757806370a0823114610e4757600080fd5b80632a0acc6a1161052e5780634c45cda21161045f578063599487c3116103fd5780636352211e116103d75780636352211e14610da0578063674c02aa14610dc05780636b1a2b7f14610ddf5780636b8ee0ec14610df257600080fd5b8063599487c314610d515780635c975abb14610d715780635ef9432a14610d8b57600080fd5b80634f3db346116104395780634f3db34614610cd657806355cda89814610cec57806355f804b314610d115780635978c01214610d3157600080fd5b80634c45cda214610c765780634cb110fc14610c965780634e6bf20414610cb657600080fd5b80633ab1a494116104cc57806342842e0e116104a657806342842e0e14610bba57806344a0d68a14610bda57806347705cbc14610bfa578063499a15d414610c3e57600080fd5b80633ab1a49414610b785780633ccfd60b14610b985780633cf40df314610ba057600080fd5b80632f2ff15d116105085780632f2ff15d14610ad55780633511cd5414610af557806336568abe14610b38578063396e8f5314610b5857600080fd5b80632a0acc6a14610a5e5780632a55205a14610a805780632eb4a7ab14610abf57600080fd5b8063095ea7b3116106085780631e0fbfa2116105a657806323c030851161058057806323c03085146109ba578063248a9ca3146109da578063279a669e14610a0a578063282c51f314610a2a57600080fd5b80631e0fbfa2146109395780632398f8431461096d57806323b872dd1461099a57600080fd5b806313faede6116105e257806313faede6146108ce5780631581b600146108e457806317dc10c41461090457806318160ddd1461092457600080fd5b8063095ea7b3146108795780630f4345e214610899578063135d088d146108b957600080fd5b8063025e332e1161067557806306fdde031161064f57806306fdde03146107f257806307265389146108075780630730baf014610821578063081812fc1461084157600080fd5b8063025e332e1461079057806304634d8d146107b257806304787ca2146107d257600080fd5b80623eb1e2146106b95780623f332f146106e857806285bb6f1461070a5780629a9b7b1461072b57806301340a321461074e57806301ffc9a714610770575b600080fd5b3480156106c557600080fd5b506028546106d39060ff1681565b60405190151581526020015b60405180910390f35b3480156106f457600080fd5b506106fd6114e4565b6040516106df9190614ea7565b34801561071657600080fd5b50601a546106d3906301000000900460ff1681565b34801561073757600080fd5b506107406114f3565b6040519081526020016106df565b34801561075a57600080fd5b5061076361150a565b6040516106df9190614f44565b34801561077c57600080fd5b506106d361078b366004614f6d565b611598565b34801561079c57600080fd5b506107b06107ab366004614fa1565b6115c7565b005b3480156107be57600080fd5b506107b06107cd366004614fbc565b611602565b3480156107de57600080fd5b506107b06107ed3660046150aa565b611614565b3480156107fe57600080fd5b5061076361163d565b34801561081357600080fd5b50600f546106d39060ff1681565b34801561082d57600080fd5b506107b061083c366004615100565b6116cf565b34801561084d57600080fd5b5061086161085c36600461511d565b6116fb565b6040516001600160a01b0390911681526020016106df565b34801561088557600080fd5b506107b0610894366004615136565b61178b565b3480156108a557600080fd5b506107b06108b436600461511d565b6117ea565b3480156108c557600080fd5b50610763611808565b3480156108da57600080fd5b5061074060165481565b3480156108f057600080fd5b50601554610861906001600160a01b031681565b34801561091057600080fd5b506107b061091f366004615100565b611815565b34801561093057600080fd5b50610740611848565b34801561094557600080fd5b506107407f3a2f235c9daaf33349d300aadff2f15078a89df81bcfdd45ba11c8f816bddc6f81565b34801561097957600080fd5b50610740610988366004614fa1565b60116020526000908152604090205481565b3480156109a657600080fd5b506107b06109b5366004615160565b61185a565b3480156109c657600080fd5b506107b06109d5366004614fa1565b611885565b3480156109e657600080fd5b506107406109f536600461511d565b60009081526013602052604090206001015490565b348015610a1657600080fd5b506107b0610a25366004615269565b6118c0565b348015610a3657600080fd5b506107407f3c11d16cbaffd01df69ce1c404f6340ee057498f5f00246190ea54220576a84881565b348015610a6a57600080fd5b50610740600080516020615c9283398151915281565b348015610a8c57600080fd5b50610aa0610a9b3660046152d1565b611acc565b604080516001600160a01b0390931683526020830191909152016106df565b348015610acb57600080fd5b50610740601c5481565b348015610ae157600080fd5b506107b0610af03660046152f3565b611b7a565b348015610b0157600080fd5b50610740610b103660046152f3565b6000918252601e602090815260408084206001600160a01b0393909316845291905290205490565b348015610b4457600080fd5b506107b0610b533660046152f3565b611b9f565b348015610b6457600080fd5b50600c54610861906001600160a01b031681565b348015610b8457600080fd5b506107b0610b93366004614fa1565b611c19565b6107b0611c43565b348015610bac57600080fd5b50602a546106d39060ff1681565b348015610bc657600080fd5b506107b0610bd5366004615160565b611cae565b348015610be657600080fd5b506107b0610bf536600461511d565b611cd3565b348015610c0657600080fd5b50610740610c15366004614fa1565b601d546000908152601e602090815260408083206001600160a01b039094168352929052205490565b348015610c4a57600080fd5b50610740610c593660046152f3565b601f60209081526000928352604080842090915290825290205481565b348015610c8257600080fd5b506107b0610c91366004615100565b611cf1565b348015610ca257600080fd5b506107b0610cb1366004615100565b611d1d565b348015610cc257600080fd5b506107b0610cd136600461531f565b611d49565b348015610ce257600080fd5b5061074060125481565b348015610cf857600080fd5b506020546108619061010090046001600160a01b031681565b348015610d1d57600080fd5b506107b0610d2c3660046150aa565b611dfb565b348015610d3d57600080fd5b506107b0610d4c3660046153df565b611e1f565b348015610d5d57600080fd5b506107b0610d6c3660046150aa565b611f45565b348015610d7d57600080fd5b50601a546106d39060ff1681565b348015610d9757600080fd5b506107b0611f69565b348015610dac57600080fd5b50610861610dbb36600461511d565b61200c565b348015610dcc57600080fd5b50601a546106d390610100900460ff1681565b6107b0610ded366004615413565b612020565b348015610dfe57600080fd5b506107b0610e0d366004615100565b612610565b348015610e1e57600080fd5b50610763612647565b348015610e3357600080fd5b506107b0610e4236600461511d565b612654565b348015610e5357600080fd5b50610740610e62366004614fa1565b612672565b348015610e7357600080fd5b506107b0612705565b348015610e8857600080fd5b506107b0610e97366004614fa1565b612719565b348015610ea857600080fd5b5061074060195481565b348015610ebe57600080fd5b506107b0610ecd3660046152d1565b61273a565b348015610ede57600080fd5b506107b0610eed36600461511d565b6127ca565b348015610efe57600080fd5b506107b0610f0d36600461511d565b6127e8565b348015610f1e57600080fd5b50610f32610f2d366004614fa1565b612857565b6040516106df919061546d565b348015610f4b57600080fd5b50602354610861906001600160a01b031681565b348015610f6b57600080fd5b5061086161291d565b348015610f8057600080fd5b506107b0610f8f366004615100565b612931565b348015610fa057600080fd5b506106d3610faf3660046152f3565b612966565b348015610fc057600080fd5b50610763612991565b348015610fd557600080fd5b5061076361299e565b348015610fea57600080fd5b50601a546106d39062010000900460ff1681565b34801561100a57600080fd5b506107b06110193660046150aa565b6129ad565b6107b061102c366004615136565b6129d1565b34801561103d57600080fd5b50610740600081565b34801561105257600080fd5b506107b06110613660046154a5565b612a8b565b34801561107257600080fd5b506107b061108136600461511d565b33600090815260116020526040902055565b34801561109f57600080fd5b50610740601b5481565b3480156110b557600080fd5b506107b06110c436600461511d565b612afb565b3480156110d557600080fd5b50610763612b19565b3480156110ea57600080fd5b50600054610861906001600160a01b031681565b34801561110a57600080fd5b5061074061111936600461511d565b60106020526000908152604090205481565b34801561113757600080fd5b50610763612b26565b34801561114c57600080fd5b506107b061115b36600461511d565b612b33565b34801561116c57600080fd5b506107b061117b3660046154d1565b612b51565b34801561118c57600080fd5b506107b061119b366004614fa1565b612b77565b3480156111ac57600080fd5b506023546106d390600160a01b900460ff1681565b3480156111cd57600080fd5b5061074060185481565b3480156111e357600080fd5b506107b06111f2366004615100565b612c2f565b34801561120357600080fd5b506107b06112123660046150aa565b612c5b565b34801561122357600080fd5b50610763612c7f565b34801561123857600080fd5b50610740601d5481565b34801561124e57600080fd5b5061076361125d36600461511d565b612c8c565b34801561126e57600080fd5b5061074061127d366004614fa1565b601d546000908152601f602090815260408083206001600160a01b039094168352929052205490565b3480156112b257600080fd5b506107407f9f2df0fed2c77648de5860a4cc508cd0818c85b8b8a1ab4ceeef8d981c8956a681565b3480156112e657600080fd5b506107b06112f53660046152f3565b612deb565b34801561130657600080fd5b5061074060175481565b34801561131c57600080fd5b506023546106d390600160a81b900460ff1681565b34801561133d57600080fd5b506107b061134c36600461511d565b612e10565b34801561135d57600080fd5b506020546106d39060ff1681565b34801561137757600080fd5b506107b06113863660046150aa565b612e2e565b34801561139757600080fd5b506107b06113a63660046150aa565b612e52565b3480156113b757600080fd5b506107b06113c6366004615100565b612e76565b3480156113d757600080fd5b506106d36113e636600461554c565b612ead565b3480156113f757600080fd5b506000546106d390600160a01b900460ff1681565b34801561141857600080fd5b506107b0611427366004615100565b612efb565b34801561143857600080fd5b506107b0611447366004614fa1565b612f32565b34801561145857600080fd5b506107406114673660046152f3565b601e60209081526000928352604080842090915290825290205481565b34801561149057600080fd5b506107b061149f366004614fa1565b612fa8565b3480156114b057600080fd5b506107b06114bf366004615100565b612fe9565b3480156114d057600080fd5b506107b06114df366004614fa1565b613015565b60606114ee613265565b905090565b6000600161150060085490565b6114ee919061558c565b602780546115179061559f565b80601f01602080910402602001604051908101604052809291908181526020018280546115439061559f565b80156115905780601f1061156557610100808354040283529160200191611590565b820191906000526020600020905b81548152906001019060200180831161157357829003601f168201915b505050505081565b60006115a382613271565b806115b257506115b2826132a6565b806115c157506115c1826132c7565b92915050565b600080516020615c928339815191526115df816132ec565b600c80546001600160a01b0319166001600160a01b0384161790555050565b5050565b61160a6132f6565b6115fe8282613355565b600080516020615c9283398151915261162c816132ec565b6024611638838261561f565b505050565b60606005805461164c9061559f565b80601f01602080910402602001604051908101604052809291908181526020018280546116789061559f565b80156116c55780601f1061169a576101008083540402835291602001916116c5565b820191906000526020600020905b8154815290600101906020018083116116a857829003601f168201915b5050505050905090565b600080516020615c928339815191526116e7816132ec565b50600f805460ff1916911515919091179055565b600061170682613452565b61176f5760405162461bcd60e51b815260206004820152602f60248201527f4552433732315073693a20617070726f76656420717565727920666f72206e6f60448201526e3732bc34b9ba32b73a103a37b5b2b760891b60648201526084015b60405180910390fd5b506000908152600960205260409020546001600160a01b031690565b8161179581613487565b602a5460ff16156117e05760405162461bcd60e51b8152602060048201526015602482015274185c1c1c9bdd99481a5cc81c1c9bda1a589a5d1959605a1b6044820152606401611766565b6116388383613549565b600080516020615c92833981519152611802816132ec565b50601255565b602480546115179061559f565b600080516020615c9283398151915261182d816132ec565b50601a80549115156101000261ff0019909216919091179055565b600061185261355d565b6115006135bf565b826001600160a01b03811633146118745761187433613487565b61187f8484846135cf565b50505050565b600080516020615c9283398151915261189d816132ec565b50602380546001600160a01b0319166001600160a01b0392909216919091179055565b6118ea7f3a2f235c9daaf33349d300aadff2f15078a89df81bcfdd45ba11c8f816bddc6f33612966565b6119365760405162461bcd60e51b815260206004820152601b60248201527f43616c6c6572206973206e6f742061206169722064726f7070657200000000006044820152606401611766565b805182146119865760405162461bcd60e51b815260206004820152601b60248201527f4172726179206c656e677468732061726520646966666572656e7400000000006044820152606401611766565b6000805b82518110156119cc578281815181106119a5576119a56156de565b6020026020010151826119b891906156f4565b9150806119c481615707565b91505061198a565b5080600010611a1d5760405162461bcd60e51b815260206004820152601b60248201527f6e65656420746f206d696e74206174206c656173742031204e465400000000006044820152606401611766565b601754816001611a2c60085490565b611a36919061558c565b611a4091906156f4565b1115611a5e5760405162461bcd60e51b815260040161176690615720565b60005b8251811015611ac557611ab3858583818110611a7f57611a7f6156de565b9050602002016020810190611a949190614fa1565b848381518110611aa657611aa66156de565b6020026020010151613600565b80611abd81615707565b915050611a61565b5050505050565b60008281526002602090815260408083208151808301909252546001600160a01b038116808352600160a01b9091046001600160601b0316928201929092528291611b415750604080518082019091526001546001600160a01b0381168252600160a01b90046001600160601b031660208201525b602081015160009061271090611b60906001600160601b031687615750565b611b6a9190615767565b91519350909150505b9250929050565b600082815260136020526040902060010154611b95816132ec565b611638838361361a565b6001600160a01b0381163314611c0f5760405162461bcd60e51b815260206004820152602f60248201527f416363657373436f6e74726f6c3a2063616e206f6e6c792072656e6f756e636560448201526e103937b632b9903337b91039b2b63360891b6064820152608401611766565b6115fe82826136a0565b611c216132f6565b601580546001600160a01b0319166001600160a01b0392909216919091179055565b611c4b6132f6565b6015546040516000916001600160a01b03169047908381818185875af1925050503d8060008114611c98576040519150601f19603f3d011682016040523d82523d6000602084013e611c9d565b606091505b5050905080611cab57600080fd5b50565b826001600160a01b0381163314611cc857611cc833613487565b61187f848484613707565b600080516020615c92833981519152611ceb816132ec565b50601655565b600080516020615c92833981519152611d09816132ec565b506028805460ff1916911515919091179055565b600080516020615c92833981519152611d35816132ec565b506020805460ff1916911515919091179055565b600080516020615c92833981519152611d61816132ec565b8151835114611d6f57600080fd5b60005b8351811015611ac557828181518110611d8d57611d8d6156de565b6020026020010151601f60008781526020019081526020016000206000868481518110611dbc57611dbc6156de565b60200260200101516001600160a01b03166001600160a01b03168152602001908152602001600020819055508080611df390615707565b915050611d72565b600080516020615c92833981519152611e13816132ec565b6021611638838261561f565b611e27613722565b611e517f3c11d16cbaffd01df69ce1c404f6340ee057498f5f00246190ea54220576a84833612966565b611e965760405162461bcd60e51b815260206004820152601660248201527521b0b63632b91034b9903737ba103090313ab93732b960511b6044820152606401611766565b60005b8151811015611f3a576000828281518110611eb657611eb66156de565b60200260200101519050611ec98161200c565b6001600160a01b0316326001600160a01b031614611f1e5760405162461bcd60e51b815260206004820152601260248201527113dddb995c881a5cc8191a5999995c995b9d60721b6044820152606401611766565b611f278161377b565b5080611f3281615707565b915050611e99565b50611cab6001601455565b600080516020615c92833981519152611f5d816132ec565b6026611638838261561f565b611f7161291d565b6001600160a01b0316336001600160a01b031614611fa257604051635fc483c560e01b815260040160405180910390fd5b600054600160a01b900460ff1615611fcd57604051631551a48f60e11b815260040160405180910390fd5b600080546001600160a81b031916600160a01b1781556040517f51e2d870cc2e10853e38dc06fcdae46ad3c3f588f326608803dac6204541ad169190a1565b600080612018836137e7565b509392505050565b32331461206f5760405162461bcd60e51b815260206004820152601f60248201527f5468652063616c6c657220697320616e6f7468657220636f6e74726163742e006044820152606401611766565b601a5460ff16156120bb5760405162461bcd60e51b81526020600482015260166024820152751d1a194818dbdb9d1c9858dd081a5cc81c185d5cd95960521b6044820152606401611766565b8460001061210b5760405162461bcd60e51b815260206004820152601b60248201527f6e65656420746f206d696e74206174206c656173742031204e465400000000006044820152606401611766565b6018548511156121695760405162461bcd60e51b8152602060048201526024808201527f6d6178206d696e7420616d6f756e74207065722073657373696f6e20657863656044820152631959195960e21b6064820152608401611766565b60175485600161217860085490565b612182919061558c565b61218c91906156f4565b11156121aa5760405162461bcd60e51b815260040161176690615720565b34856016546121b99190615750565b11156121fc5760405162461bcd60e51b8152602060048201526012602482015271696e73756666696369656e742066756e647360701b6044820152606401611766565b601a54600090610100900460ff16151560010361238057601b546000036122ed576040516bffffffffffffffffffffffff193360601b1660208201526034810186905260009060540160405160208183030381529060405280519060200120905061229e85858080602002602001604051908101604052809392919081815260200183836020028082843760009201919091525050601c54915084905061387e565b6122e45760405162461bcd60e51b81526020600482015260176024820152761d5cd95c881a5cc81b9bdd08185b1b1bdddb1a5cdd1959604a1b6044820152606401611766565b85915050612385565b601b5460010361237b57601d546000908152601f60209081526040808320338452909152812054900361235c5760405162461bcd60e51b81526020600482015260176024820152761d5cd95c881a5cc81b9bdd08185b1b1bdddb1a5cdd1959604a1b6044820152606401611766565b50601d546000908152601f602090815260408083203384529091529020545b612385565b506019545b601a5462010000900460ff16151560010361244257601d546000908152601e602090815260408083203384529091529020546123c1908261558c565b8611156124105760405162461bcd60e51b815260206004820152601c60248201527f6d6178204e4654207065722061646472657373206578636565646564000000006044820152606401611766565b601d546000908152601e602090815260408083203384529091528120805488929061243c9084906156f4565b90915550505b601a546301000000900460ff16151560010361250f57856001146124a85760405162461bcd60e51b815260206004820152601c60248201527f546865206e756d626572206f66206d696e7473206973206f7665722e000000006044820152606401611766565b6124b18261200c565b6001600160a01b0316336001600160a01b0316146125065760405162461bcd60e51b815260206004820152601260248201527113dddb995c881a5cc8191a5999995c995b9d60721b6044820152606401611766565b61250f8261377b565b60205460ff1615156001036125fe576020546040516370a0823160e01b81523360048201526101009091046001600160a01b0316906370a0823190602401602060405180830381865afa15801561256a573d6000803e3d6000fd5b505050506040513d601f19601f8201168201806040525081019061258e9190615789565b6000036125fe5760205460405163133f311360e31b8152336004820152600160248201526101009091046001600160a01b0316906399f9889890604401600060405180830381600087803b1580156125e557600080fd5b505af11580156125f9573d6000803e3d6000fd5b505050505b6126083387613600565b505050505050565b600080516020615c92833981519152612628816132ec565b5060238054911515600160a81b0260ff60a81b19909216919091179055565b602180546115179061559f565b600080516020615c9283398151915261266c816132ec565b50601755565b60006001600160a01b0382166126e05760405162461bcd60e51b815260206004820152602d60248201527f4552433732315073693a2062616c616e636520717565727920666f722074686560448201526c207a65726f206164647265737360981b6064820152608401611766565b506001600160a01b03166000908152602b60205260409020546001600160401b031690565b61270d6132f6565b6127176000613894565b565b600080516020615c92833981519152612731816132ec565b6115fe826138e6565b816127448161200c565b6001600160a01b0316336001600160a01b0316146127b75760405162461bcd60e51b815260206004820152602a60248201527f5265737472696374417070726f76653a206f7065726174696f6e206973206f6e604482015269363c903437b63232b91760b11b6064820152608401611766565b5060009182526010602052604090912055565b600080516020615c928339815191526127e2816132ec565b50601c55565b600080516020615c92833981519152612800816132ec565b81158061280d5750816001145b6128515760405162461bcd60e51b815260206004820152601560248201527420b63637bb903634b9ba103a3cb8329032b93937b960591b6044820152606401611766565b50601b55565b606060008061286584612672565b90506000816001600160401b0381111561288157612881614fff565b6040519080825280602002602001820160405280156128aa578160200160208202803683370190505b50905060005b828414612914576128c081613452565b1561290c57856001600160a01b03166128d88261200c565b6001600160a01b03160361290c57808285806001019650815181106128ff576128ff6156de565b6020026020010181815250505b6001016128b0565b50949350505050565b60006114ee6003546001600160a01b031690565b600080516020615c92833981519152612949816132ec565b50601a8054911515620100000262ff000019909216919091179055565b60009182526013602090815260408084206001600160a01b0393909316845291905290205460ff1690565b602680546115179061559f565b60606006805461164c9061559f565b600080516020615c928339815191526129c5816132ec565b6025611638838261561f565b6129fb7f9f2df0fed2c77648de5860a4cc508cd0818c85b8b8a1ab4ceeef8d981c8956a633612966565b612a405760405162461bcd60e51b815260206004820152601660248201527521b0b63632b91034b9903737ba10309036b4b73a32b960511b6044820152606401611766565b601754816001612a4f60085490565b612a59919061558c565b612a6391906156f4565b1115612a815760405162461bcd60e51b815260040161176690615720565b6115fe8282613600565b81612a9581613487565b602a5460ff161580612aa5575081155b612af15760405162461bcd60e51b815260206004820152601f60248201527f736574417070726f76616c466f72416c6c2069732070726f68696269746564006044820152606401611766565b611638838361392b565b600080516020615c92833981519152612b13816132ec565b50601855565b602580546115179061559f565b602980546115179061559f565b600080516020615c92833981519152612b4b816132ec565b50601955565b836001600160a01b0381163314612b6b57612b6b33613487565b611ac5858585856139a9565b612b7f61291d565b6001600160a01b0316336001600160a01b031614612bb057604051635fc483c560e01b815260040160405180910390fd5b600054600160a01b900460ff1615612bdb57604051631551a48f60e11b815260040160405180910390fd5b600080546001600160a01b0319166001600160a01b0383169081179091556040519081527f9f513fe86dc42fdbac355fa4d9b1d5be7b5e6cd2df67e30db8003766568de4769060200160405180910390a150565b600080516020615c92833981519152612c47816132ec565b50601a805460ff1916911515919091179055565b600080516020615c92833981519152612c73816132ec565b6029611638838261561f565b602280546115179061559f565b602354606090600160a01b900460ff161515600103612d165760235460405163c87b56dd60e01b8152600481018490526001600160a01b039091169063c87b56dd90602401600060405180830381865afa158015612cee573d6000803e3d6000fd5b505050506040513d6000823e601f3d908101601f191682016040526115c191908101906157a2565b602354600160a81b900460ff161515600103612dcf57602854612da99060259060269060249060ff161515600114612d5d5760405180602001604052806000815250612d7f565b6029604051602001612d6f9190615882565b6040516020818303038152906040525b6027604051602001612d959594939291906158bb565b6040516020818303038152906040526139db565b604051602001612db991906159bd565b6040516020818303038152906040529050919050565b612dd882613b3f565b6022604051602001612db9929190615a02565b600082815260136020526040902060010154612e06816132ec565b61163883836136a0565b600080516020615c92833981519152612e28816132ec565b50601d55565b600080516020615c92833981519152612e46816132ec565b6022611638838261561f565b600080516020615c92833981519152612e6a816132ec565b6027611638838261561f565b600080516020615c92833981519152612e8e816132ec565b50601a805491151563010000000263ff00000019909216919091179055565b6000612eb98383613c04565b1515600003612eca575060006115c1565b6001600160a01b038084166000908152600a602090815260408083209386168352929052205460ff165b9392505050565b600080516020615c92833981519152612f13816132ec565b5060238054911515600160a01b0260ff60a01b19909216919091179055565b612f3a6132f6565b6001600160a01b038116612f9f5760405162461bcd60e51b815260206004820152602660248201527f4f776e61626c653a206e6577206f776e657220697320746865207a65726f206160448201526564647265737360d01b6064820152608401611766565b611cab81613894565b600080516020615c92833981519152612fc0816132ec565b50602080546001600160a01b0390921661010002610100600160a81b0319909216919091179055565b600080516020615c92833981519152613001816132ec565b50602a805460ff1916911515919091179055565b600080516020615c9283398151915261302d816132ec565b6115fe82613c24565b6000612ef4836001600160a01b038416613c69565b60606115c16001600160a01b03831660145b6060600061306c836002615750565b6130779060026156f4565b6001600160401b0381111561308e5761308e614fff565b6040519080825280601f01601f1916602001820160405280156130b8576020820181803683370190505b509050600360fc1b816000815181106130d3576130d36156de565b60200101906001600160f81b031916908160001a905350600f60fb1b81600181518110613102576131026156de565b60200101906001600160f81b031916908160001a9053506000613126846002615750565b6131319060016156f4565b90505b60018111156131a9576f181899199a1a9b1b9c1cb0b131b232b360811b85600f1660108110613165576131656156de565b1a60f81b82828151811061317b5761317b6156de565b60200101906001600160f81b031916908160001a90535060049490941c936131a281615a20565b9050613134565b508315612ef45760405162461bcd60e51b815260206004820181905260248201527f537472696e67733a20686578206c656e67746820696e73756666696369656e746044820152606401611766565b600881901c600090815260209290925260409091208054600160ff1b60ff9093169290921c9091179055565b6001600160a01b03163b151590565b6003546001600160a01b031690565b6001600160a01b0384161561187f5760008281526010602052604081205561187f565b60606114ee600d613cb8565b60006001600160e01b0319821663152a902d60e11b14806115c157506301ffc9a760e01b6001600160e01b03198316146115c1565b60006001600160e01b03198216637965db0b60e01b14806115c157506115c1825b60006001600160e01b03198216630101c11560e71b14806115c157506115c182613cc5565b611cab8133613d05565b336132ff61291d565b6001600160a01b0316146127175760405162461bcd60e51b815260206004820181905260248201527f4f776e61626c653a2063616c6c6572206973206e6f7420746865206f776e65726044820152606401611766565b6127106001600160601b03821611156133c35760405162461bcd60e51b815260206004820152602a60248201527f455243323938313a20726f79616c7479206665652077696c6c206578636565646044820152692073616c65507269636560b01b6064820152608401611766565b6001600160a01b0382166134195760405162461bcd60e51b815260206004820152601960248201527f455243323938313a20696e76616c6964207265636569766572000000000000006044820152606401611766565b604080518082019091526001600160a01b039092168083526001600160601b039091166020909201829052600160a01b90910217600155565b600881901c6000908152600b6020526040812054600160ff1b60ff84161c161561347e57506000919050565b6115c182613d5e565b6000546001600160a01b031680158015906134ac57506000816001600160a01b03163b115b156115fe57604051633185c44d60e21b81523060048201526001600160a01b03838116602483015282169063c617113490604401602060405180830381865afa1580156134fd573d6000803e3d6000fd5b505050506040513d601f19601f820116820180604052508101906135219190615a37565b6115fe57604051633b79c77360e21b81526001600160a01b0383166004820152602401611766565b6135538282613d7a565b6115fe8282613df5565b600880546000918291829190613575911c60016156f4565b9050815b818110156135b9576000818152600b602052604090205461359981613f07565b6135a390866156f4565b94505080806135b190615707565b915050613579565b50505090565b6000806008546114ee919061558c565b6135d93382613f26565b6135f55760405162461bcd60e51b815260040161176690615a54565b611638838383613feb565b6115fe8282604051806020016040528060008152506141ea565b6136248282612966565b6115fe5760008281526013602090815260408083206001600160a01b03851684529091529020805460ff1916600117905561365c3390565b6001600160a01b0316816001600160a01b0316837f2f8788117e7eff1d82e926ec794901d17c78024a50270940304540a733656f0d60405160405180910390a45050565b6136aa8282612966565b156115fe5760008281526013602090815260408083206001600160a01b0385168085529252808320805460ff1916905551339285917ff6391f5c32d9c69d2a47ea670b442974b53935d1edc7fd64eb21e047a839171b9190a45050565b61163883838360405180602001604052806000815250612b51565b6002601454036137745760405162461bcd60e51b815260206004820152601f60248201527f5265656e7472616e637947756172643a207265656e7472616e742063616c6c006044820152606401611766565b6002601455565b60006137868261200c565b905061379681600084600161422b565b6137a1600b836131f8565b60405182906000906001600160a01b038416907fddf252ad1be2c89b69c2b068fc378daa952ba7f163c4a11628f55a4df523b3ef908390a46115fe8160008460016142b5565b6000806137f383613452565b6138545760405162461bcd60e51b815260206004820152602c60248201527f4552433732315073693a206f776e657220717565727920666f72206e6f6e657860448201526b34b9ba32b73a103a37b5b2b760a11b6064820152608401611766565b61385d83614464565b6000818152600760205260409020546001600160a01b031694909350915050565b60008261388b8584614471565b14949350505050565b600380546001600160a01b038381166001600160a01b0319831681179093556040519116919082907f8be0079c531659141344cd1fd0a4f28419497f9722a3daafe3b4186f6b6457e090600090a35050565b6138f1600d826144b6565b506040516001600160a01b0382169033907f3b01c97343869ca2757fcc37cdb8f71683b0a7aed858e3755f4529a1db85729290600090a350565b613934826144cb565b8061393d575080155b61399f5760405162461bcd60e51b815260206004820152602d60248201527f5265737472696374417070726f76653a2043616e206e6f7420617070726f766560448201526c103637b1b5b2b2103a37b5b2b760991b6064820152608401611766565b6115fe82826144d7565b6139b33383613f26565b6139cf5760405162461bcd60e51b815260040161176690615a54565b61187f8484848461459b565b606081516000036139fa57505060408051602081019091526000815290565b6000604051806060016040528060408152602001615c526040913990506000600384516002613a2991906156f4565b613a339190615767565b613a3e906004615750565b90506000613a4d8260206156f4565b6001600160401b03811115613a6457613a64614fff565b6040519080825280601f01601f191660200182016040528015613a8e576020820181803683370190505b509050818152600183018586518101602084015b81831015613afa576003830192508251603f8160121c168501518253600182019150603f81600c1c168501518253600182019150603f8160061c168501518253600182019150603f8116850151825350600101613aa2565b600389510660018114613b145760028114613b2557613b31565b613d3d60f01b600119830152613b31565b603d60f81b6000198301525b509398975050505050505050565b6060613b4a82613452565b613ba95760405162461bcd60e51b815260206004820152602a60248201527f4552433732315073693a2055524920717565727920666f72206e6f6e657869736044820152693a32b73a103a37b5b2b760b11b6064820152608401611766565b6000613bb36145b4565b90506000815111613bd35760405180602001604052806000815250612ef4565b80613bdd846145c3565b604051602001613bee929190615aa8565b6040516020818303038152906040529392505050565b600080613c1084614655565b9050613c1c8382614697565b949350505050565b613c2f600d82613036565b506040516001600160a01b0382169033907fbd0af1fe0a2c1c7bb340c17a284a291138979c8eeb797e176dbd1c415199af3c90600090a350565b6000818152600183016020526040812054613cb0575081546001818101845560008481526020808220909301849055845484825282860190935260409020919091556115c1565b5060006115c1565b60606000612ef483614730565b60006001600160e01b031982166380ac58cd60e01b1480613cf657506001600160e01b03198216635b5e139f60e01b145b806115c157506115c182613271565b613d0f8282612966565b6115fe57613d1c8161304b565b613d2783602061305d565b604051602001613d38929190615ad7565b60408051601f198184030181529082905262461bcd60e51b825261176691600401614f44565b6000613d6960085490565b821080156115c15750600192915050565b6001600160a01b038216156115fe57613d93818361478c565b6115fe5760405162461bcd60e51b815260206004820152602d60248201527f5265737472696374417070726f76653a2054686520636f6e747261637420697360448201526c103737ba1030b63637bbb2b21760991b6064820152608401611766565b6000613e008261200c565b9050806001600160a01b0316836001600160a01b031603613e6f5760405162461bcd60e51b8152602060048201526024808201527f4552433732315073693a20617070726f76616c20746f2063757272656e74206f6044820152633bb732b960e11b6064820152608401611766565b336001600160a01b0382161480613e8b5750613e8b8133612ead565b613efd5760405162461bcd60e51b815260206004820152603b60248201527f4552433732315073693a20617070726f76652063616c6c6572206973206e6f7460448201527f206f776e6572206e6f7220617070726f76656420666f7220616c6c00000000006064820152608401611766565b6116388383614799565b60005b8115613f2157600019820190911690600101613f0a565b919050565b6000613f3182613452565b613f955760405162461bcd60e51b815260206004820152602f60248201527f4552433732315073693a206f70657261746f7220717565727920666f72206e6f60448201526e3732bc34b9ba32b73a103a37b5b2b760891b6064820152608401611766565b6000613fa08361200c565b9050806001600160a01b0316846001600160a01b03161480613fdb5750836001600160a01b0316613fd0846116fb565b6001600160a01b0316145b80613c1c5750613c1c8185612ead565b600080613ff7836137e7565b91509150846001600160a01b0316826001600160a01b0316146140715760405162461bcd60e51b815260206004820152602c60248201527f4552433732315073693a207472616e73666572206f6620746f6b656e2074686160448201526b3a1034b9903737ba1037bbb760a11b6064820152608401611766565b6001600160a01b0384166140d75760405162461bcd60e51b815260206004820152602760248201527f4552433732315073693a207472616e7366657220746f20746865207a65726f206044820152666164647265737360c81b6064820152608401611766565b6140e4858585600161422b565b6140ef600084614799565b60006140fc8460016156f4565b600881901c600090815260046020526040902054909150600160ff1b60ff83161c1615801561412c575060085481105b1561416357600081815260076020526040902080546001600160a01b0319166001600160a01b0388161790556141636004826131f8565b600084815260076020526040902080546001600160a01b0319166001600160a01b03871617905581841461419c5761419c6004856131f8565b83856001600160a01b0316876001600160a01b03167fddf252ad1be2c89b69c2b068fc378daa952ba7f163c4a11628f55a4df523b3ef60405160405180910390a461260886868660016142b5565b60006141f560085490565b90506142018484614807565b61420f600085838686614994565b61187f5760405162461bcd60e51b815260040161176690615b4c565b602a5460ff16158061424457506001600160a01b038416155b8061425657506001600160a01b038316155b8061426b57506001600160a01b03831661dead145b6142b05760405162461bcd60e51b81526020600482015260166024820152751d1c985b9cd9995c881a5cc81c1c9bda1a589a5d195960521b6044820152606401611766565b61187f565b600160401b81106142c557600080fd5b806001600160a01b0385161561432f576001600160a01b0385166000908152602b6020526040812080548392906143069084906001600160401b0316615ba1565b92506101000a8154816001600160401b0302191690836001600160401b0316021790555061438f565b6001600160a01b0384166000908152602b60205260409020805482919060089061436a908490600160401b90046001600160401b0316615bc1565b92506101000a8154816001600160401b0302191690836001600160401b031602179055505b6001600160a01b038416156143f8576001600160a01b0384166000908152602b6020526040812080548392906143cf9084906001600160401b0316615bc1565b92506101000a8154816001600160401b0302191690836001600160401b03160217905550614458565b6001600160a01b0385166000908152602b602052604090208054829190601090614433908490600160801b90046001600160401b0316615bc1565b92506101000a8154816001600160401b0302191690836001600160401b031602179055505b611ac585858585613242565b60006115c1600483614acb565b600081815b8451811015612018576144a282868381518110614495576144956156de565b6020026020010151614bc3565b9150806144ae81615707565b915050614476565b6000612ef4836001600160a01b038416614bf2565b60006115c13383613c04565b336001600160a01b0383160361452f5760405162461bcd60e51b815260206004820152601c60248201527f4552433732315073693a20617070726f766520746f2063616c6c6572000000006044820152606401611766565b336000818152600a602090815260408083206001600160a01b03871680855290835292819020805460ff191686151590811790915590519081529192917f17307eab39ab6107e8899845ad3d59bd9653f200f220920489ca2b5937696c31910160405180910390a35050565b6145a6848484613feb565b61420f848484600185614994565b60606021805461164c9061559f565b606060006145d083614cec565b60010190506000816001600160401b038111156145ef576145ef614fff565b6040519080825280601f01601f191660200182016040528015614619576020820181803683370190505b5090508181016020015b600019016f181899199a1a9b1b9c1cb0b131b232b360811b600a86061a8153600a850494508461462357509392505050565b6001600160a01b0381166000908152601160205260408120541561468f57506001600160a01b031660009081526011602052604090205490565b505060125490565b600f5460009060ff166146ac575060016115c1565b6146b583614dc4565b80612ef45750600c54604051630f8350ed60e41b81526001600160a01b038581166004830152602482018590529091169063f8350ed090604401602060405180830381865afa15801561470c573d6000803e3d6000fd5b505050506040513d601f19601f82011682018060405250810190612ef49190615a37565b60608160000180548060200260200160405190810160405280929190818152602001828054801561478057602002820191906000526020600020905b81548152602001906001019080831161476c575b50505050509050919050565b600080613c103385614dd1565b600081815260096020526040902080546001600160a01b0319166001600160a01b03841690811790915581906147ce8261200c565b6001600160a01b03167f8c5be1e5ebec7d5bd14f71427d1e84f3dd0314c0f7b2291e5b200ac8c7c3b92560405160405180910390a45050565b600061481260085490565b9050600082116148725760405162461bcd60e51b815260206004820152602560248201527f4552433732315073693a207175616e74697479206d7573742062652067726561604482015264074657220360dc1b6064820152608401611766565b6001600160a01b0383166148d45760405162461bcd60e51b815260206004820152602360248201527f4552433732315073693a206d696e7420746f20746865207a65726f206164647260448201526265737360e81b6064820152608401611766565b6148e1600084838561422b565b81600860008282546148f391906156f4565b9091555050600081815260076020526040902080546001600160a01b0319166001600160a01b03851617905561492a6004826131f8565b61493760008483856142b5565b805b61494383836156f4565b81101561187f5760405181906001600160a01b038616906000907fddf252ad1be2c89b69c2b068fc378daa952ba7f163c4a11628f55a4df523b3ef908290a48061498c81615707565b915050614939565b60006001600160a01b0385163b15614abe57506001835b6149b584866156f4565b811015614ab857604051630a85bd0160e11b81526001600160a01b0387169063150b7a02906149ee9033908b9086908990600401615be1565b6020604051808303816000875af1925050508015614a29575060408051601f3d908101601f19168201909252614a2691810190615c1e565b60015b614a86573d808015614a57576040519150601f19603f3d011682016040523d82523d6000602084013e614a5c565b606091505b508051600003614a7e5760405162461bcd60e51b815260040161176690615b4c565b805181602001fd5b828015614aa357506001600160e01b03198116630a85bd0160e11b145b92505080614ab081615707565b9150506149ab565b50614ac2565b5060015b95945050505050565b600881901c60008181526020849052604081205490919060ff808516919082181c8015614b0d57614afb81614e03565b60ff168203600884901b179350614bba565b60008311614b7a5760405162461bcd60e51b815260206004820152603460248201527f4269744d6170733a205468652073657420626974206265666f7265207468652060448201527334b73232bc103237b2b9b713ba1032bc34b9ba1760611b6064820152608401611766565b506000199091016000818152602086905260409020549091908015614bb557614ba281614e03565b60ff0360ff16600884901b179350614bba565b614b0d565b50505092915050565b6000818310614bdf576000828152602084905260409020612ef4565b6000838152602083905260409020612ef4565b60008181526001830160205260408120548015614cdb576000614c1660018361558c565b8554909150600090614c2a9060019061558c565b9050818114614c8f576000866000018281548110614c4a57614c4a6156de565b9060005260206000200154905080876000018481548110614c6d57614c6d6156de565b6000918252602080832090910192909255918252600188019052604090208390555b8554869080614ca057614ca0615c3b565b6001900381819060005260206000200160009055905585600101600086815260200190815260200160002060009055600193505050506115c1565b60009150506115c1565b5092915050565b60008072184f03e93ff9f4daa797ed6e38ed64bf6a1f0160401b8310614d2b5772184f03e93ff9f4daa797ed6e38ed64bf6a1f0160401b830492506040015b6d04ee2d6d415b85acef81000000008310614d57576d04ee2d6d415b85acef8100000000830492506020015b662386f26fc100008310614d7557662386f26fc10000830492506010015b6305f5e1008310614d8d576305f5e100830492506008015b6127108310614da157612710830492506004015b60648310614db3576064830492506002015b600a83106115c15760010192915050565b60006115c1600d83614e6d565b60008181526010602052604081205415614dfa57506000818152601060205260409020546115c1565b612ef483614655565b60006040518061012001604052806101008152602001615cb2610100913960f87e818283848586878898a8b8c8d8e8f929395969799a9b9d9e9faaeb6bedeeff614e4c85614e8f565b02901c81518110614e5f57614e5f6156de565b016020015160f81c92915050565b6001600160a01b03811660009081526001830160205260408120541515612ef4565b6000808211614e9d57600080fd5b5060008190031690565b6020808252825182820181905260009190848201906040850190845b81811015614ee85783516001600160a01b031683529284019291840191600101614ec3565b50909695505050505050565b60005b83811015614f0f578181015183820152602001614ef7565b50506000910152565b60008151808452614f30816020860160208601614ef4565b601f01601f19169290920160200192915050565b602081526000612ef46020830184614f18565b6001600160e01b031981168114611cab57600080fd5b600060208284031215614f7f57600080fd5b8135612ef481614f57565b80356001600160a01b0381168114613f2157600080fd5b600060208284031215614fb357600080fd5b612ef482614f8a565b60008060408385031215614fcf57600080fd5b614fd883614f8a565b915060208301356001600160601b0381168114614ff457600080fd5b809150509250929050565b634e487b7160e01b600052604160045260246000fd5b604051601f8201601f191681016001600160401b038111828210171561503d5761503d614fff565b604052919050565b60006001600160401b0382111561505e5761505e614fff565b50601f01601f191660200190565b600061507f61507a84615045565b615015565b905082815283838301111561509357600080fd5b828260208301376000602084830101529392505050565b6000602082840312156150bc57600080fd5b81356001600160401b038111156150d257600080fd5b8201601f810184136150e357600080fd5b613c1c8482356020840161506c565b8015158114611cab57600080fd5b60006020828403121561511257600080fd5b8135612ef4816150f2565b60006020828403121561512f57600080fd5b5035919050565b6000806040838503121561514957600080fd5b61515283614f8a565b946020939093013593505050565b60008060006060848603121561517557600080fd5b61517e84614f8a565b925061518c60208501614f8a565b9150604084013590509250925092565b60008083601f8401126151ae57600080fd5b5081356001600160401b038111156151c557600080fd5b6020830191508360208260051b8501011115611b7357600080fd5b60006001600160401b038211156151f9576151f9614fff565b5060051b60200190565b600082601f83011261521457600080fd5b8135602061522461507a836151e0565b82815260059290921b8401810191818101908684111561524357600080fd5b8286015b8481101561525e5780358352918301918301615247565b509695505050505050565b60008060006040848603121561527e57600080fd5b83356001600160401b038082111561529557600080fd5b6152a18783880161519c565b909550935060208601359150808211156152ba57600080fd5b506152c786828701615203565b9150509250925092565b600080604083850312156152e457600080fd5b50508035926020909101359150565b6000806040838503121561530657600080fd5b8235915061531660208401614f8a565b90509250929050565b60008060006060848603121561533457600080fd5b833592506020808501356001600160401b038082111561535357600080fd5b818701915087601f83011261536757600080fd5b813561537561507a826151e0565b81815260059190911b8301840190848101908a83111561539457600080fd5b938501935b828510156153b9576153aa85614f8a565b82529385019390850190615399565b9650505060408701359250808311156153d157600080fd5b50506152c786828701615203565b6000602082840312156153f157600080fd5b81356001600160401b0381111561540757600080fd5b613c1c84828501615203565b60008060008060006080868803121561542b57600080fd5b853594506020860135935060408601356001600160401b0381111561544f57600080fd5b61545b8882890161519c565b96999598509660600135949350505050565b6020808252825182820181905260009190848201906040850190845b81811015614ee857835183529284019291840191600101615489565b600080604083850312156154b857600080fd5b6154c183614f8a565b91506020830135614ff4816150f2565b600080600080608085870312156154e757600080fd5b6154f085614f8a565b93506154fe60208601614f8a565b92506040850135915060608501356001600160401b0381111561552057600080fd5b8501601f8101871361553157600080fd5b6155408782356020840161506c565b91505092959194509250565b6000806040838503121561555f57600080fd5b61556883614f8a565b915061531660208401614f8a565b634e487b7160e01b600052601160045260246000fd5b818103818111156115c1576115c1615576565b600181811c908216806155b357607f821691505b6020821081036155d357634e487b7160e01b600052602260045260246000fd5b50919050565b601f82111561163857600081815260208120601f850160051c810160208610156156005750805b601f850160051c820191505b818110156126085782815560010161560c565b81516001600160401b0381111561563857615638614fff565b61564c81615646845461559f565b846155d9565b602080601f83116001811461568157600084156156695750858301515b600019600386901b1c1916600185901b178555612608565b600085815260208120601f198616915b828110156156b057888601518255948401946001909101908401615691565b50858210156156ce5787850151600019600388901b60f8161c191681555b5050505050600190811b01905550565b634e487b7160e01b600052603260045260246000fd5b808201808211156115c1576115c1615576565b60006001820161571957615719615576565b5060010190565b6020808252601690820152751b585e08139195081b1a5b5a5d08195e18d95959195960521b604082015260600190565b80820281158282048414176115c1576115c1615576565b60008261578457634e487b7160e01b600052601260045260246000fd5b500490565b60006020828403121561579b57600080fd5b5051919050565b6000602082840312156157b457600080fd5b81516001600160401b038111156157ca57600080fd5b8201601f810184136157db57600080fd5b80516157e961507a82615045565b8181528560208385010111156157fe57600080fd5b614ac2826020830160208601614ef4565b6000815461581c8161559f565b60018281168015615834576001811461584957615878565b60ff1984168752821515830287019450615878565b8560005260208060002060005b8581101561586f5781548a820152908401908201615856565b50505082870194505b5050505092915050565b711130b734b6b0ba34b7b72fbab936111d101160711b815260006158a9601283018461580f565b61088b60f21b81526002019392505050565b607b60f81b815267113730b6b2911d1160c11b600182015260006158e2600983018861580f565b61088b60f21b8082526e113232b9b1b934b83a34b7b7111d1160891b6002830152615910601183018961580f565b818152691134b6b0b3b2911d101160b11b60028201529150615935600c83018861580f565b915080825250845161594e816002840160208901614ef4565b7f2261747472696275746573223a5b7b2274726169745f74797065223a22747970600292909101918201526b329116113b30b63ab2911d1160a11b602282015261599b602e82018561580f565b62227d5d60e81b8152607d60f81b600382015260040198975050505050505050565b7f646174613a6170706c69636174696f6e2f6a736f6e3b6261736536342c0000008152600082516159f581601d850160208701614ef4565b91909101601d0192915050565b60008351615a14818460208801614ef4565b614ac28184018561580f565b600081615a2f57615a2f615576565b506000190190565b600060208284031215615a4957600080fd5b8151612ef4816150f2565b60208082526034908201527f4552433732315073693a207472616e736665722063616c6c6572206973206e6f6040820152731d081bdddb995c881b9bdc88185c1c1c9bdd995960621b606082015260800190565b60008351615aba818460208801614ef4565b835190830190615ace818360208801614ef4565b01949350505050565b7f416363657373436f6e74726f6c3a206163636f756e7420000000000000000000815260008351615b0f816017850160208801614ef4565b7001034b99036b4b9b9b4b733903937b6329607d1b6017918401918201528351615b40816028840160208801614ef4565b01602801949350505050565b60208082526035908201527f4552433732315073693a207472616e7366657220746f206e6f6e20455243373260408201527418a932b1b2b4bb32b91034b6b83632b6b2b73a32b960591b606082015260800190565b6001600160401b03828116828216039080821115614ce557614ce5615576565b6001600160401b03818116838216019080821115614ce557614ce5615576565b6001600160a01b0385811682528416602082015260408101839052608060608201819052600090615c1490830184614f18565b9695505050505050565b600060208284031215615c3057600080fd5b8151612ef481614f57565b634e487b7160e01b600052603160045260246000fdfe4142434445464748494a4b4c4d4e4f505152535455565758595a6162636465666768696a6b6c6d6e6f707172737475767778797a303132333435363738392b2fdf8b4c520ffe197c5343c6f5aec59570151ef9a492f2c624fd45ddde6135ec420001020903110a19042112290b311a3905412245134d2a550c5d32651b6d3a7506264262237d468514804e8d2b95569d0d495ea533a966b11c886eb93bc176c9071727374353637324837e9b47af86c7155181ad4fd18ed32c9096db57d59ee30e2e4a6a5f92a6be3498aae067ddb2eb1d5989b56fd7baf33ca0c2ee77e5caf7ff0810182028303840444c545c646c7425617c847f8c949c48a4a8b087b8c0c816365272829aaec650acd0d28fdad4e22d6991bd97dfdcea58b4d6f29fede4f6fe0f1f2f3f4b5b6b607b8b93a3a7b7bf357199c5abcfd9e168bcdee9b3f1ecf5fd1e3e5a7a8aa2b670c4ced8bbe8f0f4fc3d79a1c3cde7effb78cce6facbf9f8a26469706673582212200d059f7cef2517e4cf077fb915cfa7b916b470c30f1a25b785b90cccfc07c64d64736f6c6343000812003368747470733a2f2f6d7573756269636f6c6c656374696f6e2e78797a2f646174612f6d657461646174612fdf8b4c520ffe197c5343c6f5aec59570151ef9a492f2c624fd45ddde6135ec424552433732315073693a207472616e7366657220746f206e6f6e204552433732",
			"opcodes": "PUSH1 0xF DUP1 SLOAD PUSH1 0xFF NOT SWAP1 DUP2 AND PUSH1 0x1 SWAP1 DUP2 OR SWAP1 SWAP3 SSTORE PUSH1 0x12 SWAP2 SWAP1 SWAP2 SSTORE PUSH1 0x15 DUP1 SLOAD PUSH1 0x1 PUSH1 0x1 PUSH1 0xA0 SHL SUB NOT AND PUSH20 0x52C5DCF49F10C827E070CEE4ADF1D006942EAAB6 OR SWAP1 SSTORE PUSH7 0x2386F26FC10000 PUSH1 0x16 SSTORE PUSH2 0x8AD PUSH1 0x17 SSTORE PUSH1 0xC8 PUSH1 0x18 SSTORE PUSH1 0xA PUSH1 0x19 SSTORE PUSH1 0x1A DUP1 SLOAD PUSH4 0xFFFFFFFF NOT AND PUSH3 0x10101 OR SWAP1 SSTORE PUSH1 0x0 PUSH1 0x1B DUP2 SWAP1 SSTORE PUSH1 0x1D SSTORE PUSH1 0x20 DUP1 SLOAD SWAP1 SWAP2 AND SWAP1 SSTORE PUSH1 0xC0 PUSH1 0x40 MSTORE PUSH1 0x5 PUSH1 0x80 SWAP1 DUP2 MSTORE PUSH5 0x173539B7B7 PUSH1 0xD9 SHL PUSH1 0xA0 MSTORE PUSH1 0x22 SWAP1 PUSH3 0xA4 SWAP1 DUP3 PUSH3 0x1221 JUMP JUMPDEST POP PUSH1 0x23 DUP1 SLOAD PUSH2 0xFFFF PUSH1 0xA0 SHL NOT AND SWAP1 SSTORE PUSH1 0x28 DUP1 SLOAD PUSH1 0xFF NOT SWAP1 DUP2 AND SWAP1 SWAP2 SSTORE PUSH1 0x2A DUP1 SLOAD SWAP1 SWAP2 AND SWAP1 SSTORE CALLVALUE DUP1 ISZERO PUSH3 0xD6 JUMPI PUSH1 0x0 DUP1 REVERT JUMPDEST POP PUSH1 0x40 DUP1 MLOAD DUP1 DUP3 ADD DUP3 MSTORE PUSH1 0x10 DUP2 MSTORE PUSH16 0x26BAB9BAB134A1B7B63632B1BA34B7B7 PUSH1 0x81 SHL PUSH1 0x20 DUP1 DUP4 ADD SWAP2 SWAP1 SWAP2 MSTORE DUP3 MLOAD DUP1 DUP5 ADD SWAP1 SWAP4 MSTORE PUSH1 0x4 DUP4 MSTORE PUSH4 0x1350D391 PUSH1 0xE2 SHL SWAP1 DUP4 ADD MSTORE PUSH1 0x0 DUP1 SLOAD PUSH1 0x1 PUSH1 0x1 PUSH1 0xA0 SHL SUB NOT AND PUSH14 0xAAEB6D7670E522A718067333CD4E SWAP1 DUP2 OR SWAP1 SWAP2 SSTORE SWAP1 SWAP2 SWAP1 PUSH20 0x3CC6CDDA760B79BAFA08DF41ECFA224F810DCEB6 PUSH1 0x1 DUP3 DUP3 DUP3 DUP3 DUP1 EXTCODESIZE ISZERO PUSH3 0x274 JUMPI DUP2 ISZERO PUSH3 0x1D3 JUMPI PUSH1 0x40 MLOAD PUSH4 0x3E9F1EDF PUSH1 0xE1 SHL DUP2 MSTORE ADDRESS PUSH1 0x4 DUP3 ADD MSTORE PUSH1 0x1 PUSH1 0x1 PUSH1 0xA0 SHL SUB DUP5 DUP2 AND PUSH1 0x24 DUP4 ADD MSTORE DUP3 AND SWAP1 PUSH4 0x7D3E3DBE SWAP1 PUSH1 0x44 ADD JUMPDEST PUSH1 0x0 PUSH1 0x40 MLOAD DUP1 DUP4 SUB DUP2 PUSH1 0x0 DUP8 DUP1 EXTCODESIZE ISZERO DUP1 ISZERO PUSH3 0x1B4 JUMPI PUSH1 0x0 DUP1 REVERT JUMPDEST POP GAS CALL ISZERO DUP1 ISZERO PUSH3 0x1C9 JUMPI RETURNDATASIZE PUSH1 0x0 DUP1 RETURNDATACOPY RETURNDATASIZE PUSH1 0x0 REVERT JUMPDEST POP POP POP POP PUSH3 0x274 JUMP JUMPDEST PUSH1 0x1 PUSH1 0x1 PUSH1 0xA0 SHL SUB DUP4 AND ISZERO PUSH3 0x218 JUMPI PUSH1 0x40 MLOAD PUSH4 0xA0AF2903 PUSH1 0xE0 SHL DUP2 MSTORE ADDRESS PUSH1 0x4 DUP3 ADD MSTORE PUSH1 0x1 PUSH1 0x1 PUSH1 0xA0 SHL SUB DUP5 DUP2 AND PUSH1 0x24 DUP4 ADD MSTORE DUP3 AND SWAP1 PUSH4 0xA0AF2903 SWAP1 PUSH1 0x44 ADD PUSH3 0x199 JUMP JUMPDEST PUSH1 0x40 MLOAD PUSH4 0x22107243 PUSH1 0xE1 SHL DUP2 MSTORE ADDRESS PUSH1 0x4 DUP3 ADD MSTORE PUSH1 0x1 PUSH1 0x1 PUSH1 0xA0 SHL SUB DUP3 AND SWAP1 PUSH4 0x4420E486 SWAP1 PUSH1 0x24 ADD PUSH1 0x0 PUSH1 0x40 MLOAD DUP1 DUP4 SUB DUP2 PUSH1 0x0 DUP8 DUP1 EXTCODESIZE ISZERO DUP1 ISZERO PUSH3 0x25A JUMPI PUSH1 0x0 DUP1 REVERT JUMPDEST POP GAS CALL ISZERO DUP1 ISZERO PUSH3 0x26F JUMPI RETURNDATASIZE PUSH1 0x0 DUP1 RETURNDATACOPY RETURNDATASIZE PUSH1 0x0 REVERT JUMPDEST POP POP POP POP JUMPDEST POP POP POP PUSH1 0x1 PUSH1 0x1 PUSH1 0xA0 SHL SUB DUP5 AND SWAP1 POP PUSH3 0x2A1 JUMPI PUSH1 0x40 MLOAD PUSH4 0xC49D17AD PUSH1 0xE0 SHL DUP2 MSTORE PUSH1 0x4 ADD PUSH1 0x40 MLOAD DUP1 SWAP2 SUB SWAP1 REVERT JUMPDEST POP POP POP PUSH3 0x2BE PUSH3 0x2B8 PUSH3 0x431 PUSH1 0x20 SHL PUSH1 0x20 SHR JUMP JUMPDEST PUSH3 0x435 JUMP JUMPDEST PUSH1 0x5 PUSH3 0x2CC DUP4 DUP3 PUSH3 0x1221 JUMP JUMPDEST POP PUSH1 0x6 PUSH3 0x2DB DUP3 DUP3 PUSH3 0x1221 JUMP JUMPDEST POP PUSH1 0x0 PUSH1 0x8 SSTORE POP POP PUSH1 0x1 PUSH1 0x14 SSTORE PUSH3 0x2F5 PUSH1 0x0 CALLER PUSH3 0x487 JUMP JUMPDEST PUSH3 0x321 PUSH32 0x9F2DF0FED2C77648DE5860A4CC508CD0818C85B8B8A1AB4CEEEF8D981C8956A6 CALLER PUSH3 0x497 JUMP JUMPDEST PUSH3 0x34D PUSH32 0x3A2F235C9DAAF33349D300AADFF2F15078A89DF81BCFDD45BA11C8F816BDDC6F CALLER PUSH3 0x497 JUMP JUMPDEST PUSH3 0x368 PUSH1 0x0 DUP1 MLOAD PUSH1 0x20 PUSH3 0x733B DUP4 CODECOPY DUP2 MLOAD SWAP2 MSTORE CALLER PUSH3 0x497 JUMP JUMPDEST PUSH3 0x38C PUSH1 0x40 MLOAD DUP1 PUSH1 0x60 ADD PUSH1 0x40 MSTORE DUP1 PUSH1 0x2B DUP2 MSTORE PUSH1 0x20 ADD PUSH3 0x7310 PUSH1 0x2B SWAP2 CODECOPY PUSH3 0x4C5 JUMP JUMPDEST PUSH3 0x398 PUSH1 0x1 PUSH3 0x4EE JUMP JUMPDEST PUSH1 0xC DUP1 SLOAD PUSH1 0x1 PUSH1 0x1 PUSH1 0xA0 SHL SUB NOT AND PUSH20 0xDBAA28CBE70AF04EBFB166B1A3E8F8034E5B9FC7 OR SWAP1 SSTORE PUSH3 0x3DD PUSH20 0x1E0049783F008A0085193E00003D00CD54003C71 PUSH3 0x50F JUMP JUMPDEST PUSH3 0x3FC PUSH20 0x4FEE7B061C97C9C496B01DBCE9CDB10C02F0A0BE PUSH3 0x50F JUMP JUMPDEST PUSH3 0x409 CALLER PUSH1 0x1 PUSH3 0x564 JUMP JUMPDEST PUSH3 0x42B PUSH20 0xAC6534C66B393E6CB33A13795857E0D9D2B90F96 PUSH2 0x3E8 PUSH3 0x586 JUMP JUMPDEST PUSH3 0x1519 JUMP JUMPDEST CALLER SWAP1 JUMP JUMPDEST PUSH1 0x3 DUP1 SLOAD PUSH1 0x1 PUSH1 0x1 PUSH1 0xA0 SHL SUB DUP4 DUP2 AND PUSH1 0x1 PUSH1 0x1 PUSH1 0xA0 SHL SUB NOT DUP4 AND DUP2 OR SWAP1 SWAP4 SSTORE PUSH1 0x40 MLOAD SWAP2 AND SWAP2 SWAP1 DUP3 SWAP1 PUSH32 0x8BE0079C531659141344CD1FD0A4F28419497F9722A3DAAFE3B4186F6B6457E0 SWAP1 PUSH1 0x0 SWAP1 LOG3 POP POP JUMP JUMPDEST PUSH3 0x493 DUP3 DUP3 PUSH3 0x59C JUMP JUMPDEST POP POP JUMP JUMPDEST PUSH1 0x0 DUP3 DUP2 MSTORE PUSH1 0x13 PUSH1 0x20 MSTORE PUSH1 0x40 SWAP1 KECCAK256 PUSH1 0x1 ADD SLOAD PUSH3 0x4B4 DUP2 PUSH3 0x640 JUMP JUMPDEST PUSH3 0x4C0 DUP4 DUP4 PUSH3 0x59C JUMP JUMPDEST POP POP POP JUMP JUMPDEST PUSH1 0x0 DUP1 MLOAD PUSH1 0x20 PUSH3 0x733B DUP4 CODECOPY DUP2 MLOAD SWAP2 MSTORE PUSH3 0x4E0 DUP2 PUSH3 0x640 JUMP JUMPDEST PUSH1 0x21 PUSH3 0x4C0 DUP4 DUP3 PUSH3 0x1221 JUMP JUMPDEST PUSH1 0x0 DUP1 MLOAD PUSH1 0x20 PUSH3 0x733B DUP4 CODECOPY DUP2 MLOAD SWAP2 MSTORE PUSH3 0x509 DUP2 PUSH3 0x640 JUMP JUMPDEST POP PUSH1 0x12 SSTORE JUMP JUMPDEST PUSH3 0x52A DUP2 PUSH1 0xD PUSH3 0x64F PUSH1 0x20 SHL PUSH3 0x3036 OR SWAP1 SWAP2 SWAP1 PUSH1 0x20 SHR JUMP JUMPDEST POP PUSH1 0x40 MLOAD PUSH1 0x1 PUSH1 0x1 PUSH1 0xA0 SHL SUB DUP3 AND SWAP1 CALLER SWAP1 PUSH32 0xBD0AF1FE0A2C1C7BB340C17A284A291138979C8EEB797E176DBD1C415199AF3C SWAP1 PUSH1 0x0 SWAP1 LOG3 POP JUMP JUMPDEST PUSH3 0x493 DUP3 DUP3 PUSH1 0x40 MLOAD DUP1 PUSH1 0x20 ADD PUSH1 0x40 MSTORE DUP1 PUSH1 0x0 DUP2 MSTORE POP PUSH3 0x66F PUSH1 0x20 SHL PUSH1 0x20 SHR JUMP JUMPDEST PUSH3 0x590 PUSH3 0x706 JUMP JUMPDEST PUSH3 0x493 DUP3 DUP3 PUSH3 0x76B JUMP JUMPDEST PUSH1 0x0 DUP3 DUP2 MSTORE PUSH1 0x13 PUSH1 0x20 SWAP1 DUP2 MSTORE PUSH1 0x40 DUP1 DUP4 KECCAK256 PUSH1 0x1 PUSH1 0x1 PUSH1 0xA0 SHL SUB DUP6 AND DUP5 MSTORE SWAP1 SWAP2 MSTORE SWAP1 KECCAK256 SLOAD PUSH1 0xFF AND PUSH3 0x493 JUMPI PUSH1 0x0 DUP3 DUP2 MSTORE PUSH1 0x13 PUSH1 0x20 SWAP1 DUP2 MSTORE PUSH1 0x40 DUP1 DUP4 KECCAK256 PUSH1 0x1 PUSH1 0x1 PUSH1 0xA0 SHL SUB DUP6 AND DUP5 MSTORE SWAP1 SWAP2 MSTORE SWAP1 KECCAK256 DUP1 SLOAD PUSH1 0xFF NOT AND PUSH1 0x1 OR SWAP1 SSTORE PUSH3 0x5FC CALLER SWAP1 JUMP JUMPDEST PUSH1 0x1 PUSH1 0x1 PUSH1 0xA0 SHL SUB AND DUP2 PUSH1 0x1 PUSH1 0x1 PUSH1 0xA0 SHL SUB AND DUP4 PUSH32 0x2F8788117E7EFF1D82E926EC794901D17C78024A50270940304540A733656F0D PUSH1 0x40 MLOAD PUSH1 0x40 MLOAD DUP1 SWAP2 SUB SWAP1 LOG4 POP POP JUMP JUMPDEST PUSH3 0x64C DUP2 CALLER PUSH3 0x86C JUMP JUMPDEST POP JUMP JUMPDEST PUSH1 0x0 PUSH3 0x666 DUP4 PUSH1 0x1 PUSH1 0x1 PUSH1 0xA0 SHL SUB DUP5 AND PUSH3 0x8FE JUMP JUMPDEST SWAP1 POP JUMPDEST SWAP3 SWAP2 POP POP JUMP JUMPDEST PUSH1 0x0 PUSH3 0x67B PUSH1 0x8 SLOAD SWAP1 JUMP JUMPDEST SWAP1 POP PUSH3 0x689 DUP5 DUP5 PUSH3 0x950 JUMP JUMPDEST PUSH3 0x699 PUSH1 0x0 DUP6 DUP4 DUP7 DUP7 PUSH3 0xAFF JUMP JUMPDEST PUSH3 0x700 JUMPI PUSH1 0x40 MLOAD PUSH3 0x461BCD PUSH1 0xE5 SHL DUP2 MSTORE PUSH1 0x20 PUSH1 0x4 DUP3 ADD MSTORE PUSH1 0x35 PUSH1 0x24 DUP3 ADD MSTORE PUSH1 0x0 DUP1 MLOAD PUSH1 0x20 PUSH3 0x735B DUP4 CODECOPY DUP2 MLOAD SWAP2 MSTORE PUSH1 0x44 DUP3 ADD MSTORE PUSH32 0x31526563656976657220696D706C656D656E7465720000000000000000000000 PUSH1 0x64 DUP3 ADD MSTORE PUSH1 0x84 ADD JUMPDEST PUSH1 0x40 MLOAD DUP1 SWAP2 SUB SWAP1 REVERT JUMPDEST POP POP POP POP JUMP JUMPDEST CALLER PUSH3 0x711 PUSH3 0xCA2 JUMP JUMPDEST PUSH1 0x1 PUSH1 0x1 PUSH1 0xA0 SHL SUB AND EQ PUSH3 0x769 JUMPI PUSH1 0x40 MLOAD PUSH3 0x461BCD PUSH1 0xE5 SHL DUP2 MSTORE PUSH1 0x20 PUSH1 0x4 DUP3 ADD DUP2 SWAP1 MSTORE PUSH1 0x24 DUP3 ADD MSTORE PUSH32 0x4F776E61626C653A2063616C6C6572206973206E6F7420746865206F776E6572 PUSH1 0x44 DUP3 ADD MSTORE PUSH1 0x64 ADD PUSH3 0x6F7 JUMP JUMPDEST JUMP JUMPDEST PUSH2 0x2710 PUSH1 0x1 PUSH1 0x1 PUSH1 0x60 SHL SUB DUP3 AND GT ISZERO PUSH3 0x7DB JUMPI PUSH1 0x40 MLOAD PUSH3 0x461BCD PUSH1 0xE5 SHL DUP2 MSTORE PUSH1 0x20 PUSH1 0x4 DUP3 ADD MSTORE PUSH1 0x2A PUSH1 0x24 DUP3 ADD MSTORE PUSH32 0x455243323938313A20726F79616C7479206665652077696C6C20657863656564 PUSH1 0x44 DUP3 ADD MSTORE PUSH10 0x2073616C655072696365 PUSH1 0xB0 SHL PUSH1 0x64 DUP3 ADD MSTORE PUSH1 0x84 ADD PUSH3 0x6F7 JUMP JUMPDEST PUSH1 0x1 PUSH1 0x1 PUSH1 0xA0 SHL SUB DUP3 AND PUSH3 0x833 JUMPI PUSH1 0x40 MLOAD PUSH3 0x461BCD PUSH1 0xE5 SHL DUP2 MSTORE PUSH1 0x20 PUSH1 0x4 DUP3 ADD MSTORE PUSH1 0x19 PUSH1 0x24 DUP3 ADD MSTORE PUSH32 0x455243323938313A20696E76616C696420726563656976657200000000000000 PUSH1 0x44 DUP3 ADD MSTORE PUSH1 0x64 ADD PUSH3 0x6F7 JUMP JUMPDEST PUSH1 0x40 DUP1 MLOAD DUP1 DUP3 ADD SWAP1 SWAP2 MSTORE PUSH1 0x1 PUSH1 0x1 PUSH1 0xA0 SHL SUB SWAP1 SWAP3 AND DUP1 DUP4 MSTORE PUSH1 0x1 PUSH1 0x1 PUSH1 0x60 SHL SUB SWAP1 SWAP2 AND PUSH1 0x20 SWAP1 SWAP3 ADD DUP3 SWAP1 MSTORE PUSH1 0x1 PUSH1 0xA0 SHL SWAP1 SWAP2 MUL OR PUSH1 0x1 SSTORE JUMP JUMPDEST PUSH1 0x0 DUP3 DUP2 MSTORE PUSH1 0x13 PUSH1 0x20 SWAP1 DUP2 MSTORE PUSH1 0x40 DUP1 DUP4 KECCAK256 PUSH1 0x1 PUSH1 0x1 PUSH1 0xA0 SHL SUB DUP6 AND DUP5 MSTORE SWAP1 SWAP2 MSTORE SWAP1 KECCAK256 SLOAD PUSH1 0xFF AND PUSH3 0x493 JUMPI PUSH3 0x8AD DUP2 PUSH3 0xCBE PUSH1 0x20 SHL PUSH3 0x304B OR PUSH1 0x20 SHR JUMP JUMPDEST PUSH3 0x8C3 DUP4 PUSH1 0x20 PUSH3 0x305D PUSH3 0xCD1 DUP3 SHL OR DUP2 SHR JUMP JUMPDEST PUSH1 0x40 MLOAD PUSH1 0x20 ADD PUSH3 0x8D6 SWAP3 SWAP2 SWAP1 PUSH3 0x1313 JUMP JUMPDEST PUSH1 0x40 DUP1 MLOAD PUSH1 0x1F NOT DUP2 DUP5 SUB ADD DUP2 MSTORE SWAP1 DUP3 SWAP1 MSTORE PUSH3 0x461BCD PUSH1 0xE5 SHL DUP3 MSTORE PUSH3 0x6F7 SWAP2 PUSH1 0x4 ADD PUSH3 0x13BA JUMP JUMPDEST PUSH1 0x0 DUP2 DUP2 MSTORE PUSH1 0x1 DUP4 ADD PUSH1 0x20 MSTORE PUSH1 0x40 DUP2 KECCAK256 SLOAD PUSH3 0x947 JUMPI POP DUP2 SLOAD PUSH1 0x1 DUP2 DUP2 ADD DUP5 SSTORE PUSH1 0x0 DUP5 DUP2 MSTORE PUSH1 0x20 DUP1 DUP3 KECCAK256 SWAP1 SWAP4 ADD DUP5 SWAP1 SSTORE DUP5 SLOAD DUP5 DUP3 MSTORE DUP3 DUP7 ADD SWAP1 SWAP4 MSTORE PUSH1 0x40 SWAP1 KECCAK256 SWAP2 SWAP1 SWAP2 SSTORE PUSH3 0x669 JUMP JUMPDEST POP PUSH1 0x0 PUSH3 0x669 JUMP JUMPDEST PUSH1 0x0 PUSH3 0x95C PUSH1 0x8 SLOAD SWAP1 JUMP JUMPDEST SWAP1 POP PUSH1 0x0 DUP3 GT PUSH3 0x9BE JUMPI PUSH1 0x40 MLOAD PUSH3 0x461BCD PUSH1 0xE5 SHL DUP2 MSTORE PUSH1 0x20 PUSH1 0x4 DUP3 ADD MSTORE PUSH1 0x25 PUSH1 0x24 DUP3 ADD MSTORE PUSH32 0x4552433732315073693A207175616E74697479206D7573742062652067726561 PUSH1 0x44 DUP3 ADD MSTORE PUSH5 0x746572203 PUSH1 0xDC SHL PUSH1 0x64 DUP3 ADD MSTORE PUSH1 0x84 ADD PUSH3 0x6F7 JUMP JUMPDEST PUSH1 0x1 PUSH1 0x1 PUSH1 0xA0 SHL SUB DUP4 AND PUSH3 0xA22 JUMPI PUSH1 0x40 MLOAD PUSH3 0x461BCD PUSH1 0xE5 SHL DUP2 MSTORE PUSH1 0x20 PUSH1 0x4 DUP3 ADD MSTORE PUSH1 0x23 PUSH1 0x24 DUP3 ADD MSTORE PUSH32 0x4552433732315073693A206D696E7420746F20746865207A65726F2061646472 PUSH1 0x44 DUP3 ADD MSTORE PUSH3 0x657373 PUSH1 0xE8 SHL PUSH1 0x64 DUP3 ADD MSTORE PUSH1 0x84 ADD PUSH3 0x6F7 JUMP JUMPDEST PUSH3 0xA31 PUSH1 0x0 DUP5 DUP4 DUP6 PUSH3 0xE8A JUMP JUMPDEST DUP2 PUSH1 0x8 PUSH1 0x0 DUP3 DUP3 SLOAD PUSH3 0xA45 SWAP2 SWAP1 PUSH3 0x13E5 JUMP JUMPDEST SWAP1 SWAP2 SSTORE POP POP PUSH1 0x0 DUP2 DUP2 MSTORE PUSH1 0x7 PUSH1 0x20 SWAP1 DUP2 MSTORE PUSH1 0x40 SWAP1 SWAP2 KECCAK256 DUP1 SLOAD PUSH1 0x1 PUSH1 0x1 PUSH1 0xA0 SHL SUB NOT AND PUSH1 0x1 PUSH1 0x1 PUSH1 0xA0 SHL SUB DUP7 AND OR SWAP1 SSTORE PUSH3 0xA8D SWAP1 PUSH1 0x4 SWAP1 DUP4 SWAP1 PUSH3 0xF34 DUP2 SHL PUSH3 0x31F8 OR SWAP1 SHR JUMP JUMPDEST PUSH3 0xA9C PUSH1 0x0 DUP5 DUP4 DUP6 PUSH3 0xF60 JUMP JUMPDEST DUP1 JUMPDEST PUSH3 0xAAA DUP4 DUP4 PUSH3 0x13E5 JUMP JUMPDEST DUP2 LT ISZERO PUSH3 0x700 JUMPI PUSH1 0x40 MLOAD DUP2 SWAP1 PUSH1 0x1 PUSH1 0x1 PUSH1 0xA0 SHL SUB DUP7 AND SWAP1 PUSH1 0x0 SWAP1 PUSH32 0xDDF252AD1BE2C89B69C2B068FC378DAA952BA7F163C4A11628F55A4DF523B3EF SWAP1 DUP3 SWAP1 LOG4 DUP1 PUSH3 0xAF6 DUP2 PUSH3 0x13FB JUMP JUMPDEST SWAP2 POP POP PUSH3 0xA9E JUMP JUMPDEST PUSH1 0x0 PUSH3 0xB20 DUP6 PUSH1 0x1 PUSH1 0x1 PUSH1 0xA0 SHL SUB AND PUSH3 0x113A PUSH1 0x20 SHL PUSH3 0x3224 OR PUSH1 0x20 SHR JUMP JUMPDEST ISZERO PUSH3 0xC95 JUMPI POP PUSH1 0x1 DUP4 JUMPDEST PUSH3 0xB37 DUP5 DUP7 PUSH3 0x13E5 JUMP JUMPDEST DUP2 LT ISZERO PUSH3 0xC8E JUMPI PUSH1 0x40 MLOAD PUSH4 0xA85BD01 PUSH1 0xE1 SHL DUP2 MSTORE PUSH1 0x1 PUSH1 0x1 PUSH1 0xA0 SHL SUB DUP8 AND SWAP1 PUSH4 0x150B7A02 SWAP1 PUSH3 0xB73 SWAP1 CALLER SWAP1 DUP12 SWAP1 DUP7 SWAP1 DUP10 SWAP1 PUSH1 0x4 ADD PUSH3 0x1417 JUMP JUMPDEST PUSH1 0x20 PUSH1 0x40 MLOAD DUP1 DUP4 SUB DUP2 PUSH1 0x0 DUP8 GAS CALL SWAP3 POP POP POP DUP1 ISZERO PUSH3 0xBB1 JUMPI POP PUSH1 0x40 DUP1 MLOAD PUSH1 0x1F RETURNDATASIZE SWAP1 DUP2 ADD PUSH1 0x1F NOT AND DUP3 ADD SWAP1 SWAP3 MSTORE PUSH3 0xBAE SWAP2 DUP2 ADD SWAP1 PUSH3 0x1456 JUMP JUMPDEST PUSH1 0x1 JUMPDEST PUSH3 0xC58 JUMPI RETURNDATASIZE DUP1 DUP1 ISZERO PUSH3 0xBE2 JUMPI PUSH1 0x40 MLOAD SWAP2 POP PUSH1 0x1F NOT PUSH1 0x3F RETURNDATASIZE ADD AND DUP3 ADD PUSH1 0x40 MSTORE RETURNDATASIZE DUP3 MSTORE RETURNDATASIZE PUSH1 0x0 PUSH1 0x20 DUP5 ADD RETURNDATACOPY PUSH3 0xBE7 JUMP JUMPDEST PUSH1 0x60 SWAP2 POP JUMPDEST POP DUP1 MLOAD PUSH1 0x0 SUB PUSH3 0xC50 JUMPI PUSH1 0x40 MLOAD PUSH3 0x461BCD PUSH1 0xE5 SHL DUP2 MSTORE PUSH1 0x20 PUSH1 0x4 DUP3 ADD MSTORE PUSH1 0x35 PUSH1 0x24 DUP3 ADD MSTORE PUSH1 0x0 DUP1 MLOAD PUSH1 0x20 PUSH3 0x735B DUP4 CODECOPY DUP2 MLOAD SWAP2 MSTORE PUSH1 0x44 DUP3 ADD MSTORE PUSH32 0x31526563656976657220696D706C656D656E7465720000000000000000000000 PUSH1 0x64 DUP3 ADD MSTORE PUSH1 0x84 ADD PUSH3 0x6F7 JUMP JUMPDEST DUP1 MLOAD DUP2 PUSH1 0x20 ADD REVERT JUMPDEST DUP3 DUP1 ISZERO PUSH3 0xC76 JUMPI POP PUSH1 0x1 PUSH1 0x1 PUSH1 0xE0 SHL SUB NOT DUP2 AND PUSH4 0xA85BD01 PUSH1 0xE1 SHL EQ JUMPDEST SWAP3 POP POP DUP1 PUSH3 0xC85 DUP2 PUSH3 0x13FB JUMP JUMPDEST SWAP2 POP POP PUSH3 0xB2B JUMP JUMPDEST POP PUSH3 0xC99 JUMP JUMPDEST POP PUSH1 0x1 JUMPDEST SWAP6 SWAP5 POP POP POP POP POP JUMP JUMPDEST PUSH1 0x0 PUSH3 0xCB9 PUSH3 0x1149 PUSH1 0x20 SHL PUSH3 0x3233 OR PUSH1 0x20 SHR JUMP JUMPDEST SWAP1 POP SWAP1 JUMP JUMPDEST PUSH1 0x60 PUSH3 0x669 PUSH1 0x1 PUSH1 0x1 PUSH1 0xA0 SHL SUB DUP4 AND PUSH1 0x14 JUMPDEST PUSH1 0x60 PUSH1 0x0 PUSH3 0xCE2 DUP4 PUSH1 0x2 PUSH3 0x1482 JUMP JUMPDEST PUSH3 0xCEF SWAP1 PUSH1 0x2 PUSH3 0x13E5 JUMP JUMPDEST PUSH1 0x1 PUSH1 0x1 PUSH1 0x40 SHL SUB DUP2 GT ISZERO PUSH3 0xD09 JUMPI PUSH3 0xD09 PUSH3 0x117D JUMP JUMPDEST PUSH1 0x40 MLOAD SWAP1 DUP1 DUP3 MSTORE DUP1 PUSH1 0x1F ADD PUSH1 0x1F NOT AND PUSH1 0x20 ADD DUP3 ADD PUSH1 0x40 MSTORE DUP1 ISZERO PUSH3 0xD34 JUMPI PUSH1 0x20 DUP3 ADD DUP2 DUP1 CALLDATASIZE DUP4 CALLDATACOPY ADD SWAP1 POP JUMPDEST POP SWAP1 POP PUSH1 0x3 PUSH1 0xFC SHL DUP2 PUSH1 0x0 DUP2 MLOAD DUP2 LT PUSH3 0xD52 JUMPI PUSH3 0xD52 PUSH3 0x149C JUMP JUMPDEST PUSH1 0x20 ADD ADD SWAP1 PUSH1 0x1 PUSH1 0x1 PUSH1 0xF8 SHL SUB NOT AND SWAP1 DUP2 PUSH1 0x0 BYTE SWAP1 MSTORE8 POP PUSH1 0xF PUSH1 0xFB SHL DUP2 PUSH1 0x1 DUP2 MLOAD DUP2 LT PUSH3 0xD84 JUMPI PUSH3 0xD84 PUSH3 0x149C JUMP JUMPDEST PUSH1 0x20 ADD ADD SWAP1 PUSH1 0x1 PUSH1 0x1 PUSH1 0xF8 SHL SUB NOT AND SWAP1 DUP2 PUSH1 0x0 BYTE SWAP1 MSTORE8 POP PUSH1 0x0 PUSH3 0xDAA DUP5 PUSH1 0x2 PUSH3 0x1482 JUMP JUMPDEST PUSH3 0xDB7 SWAP1 PUSH1 0x1 PUSH3 0x13E5 JUMP JUMPDEST SWAP1 POP JUMPDEST PUSH1 0x1 DUP2 GT ISZERO PUSH3 0xE39 JUMPI PUSH16 0x181899199A1A9B1B9C1CB0B131B232B3 PUSH1 0x81 SHL DUP6 PUSH1 0xF AND PUSH1 0x10 DUP2 LT PUSH3 0xDEF JUMPI PUSH3 0xDEF PUSH3 0x149C JUMP JUMPDEST BYTE PUSH1 0xF8 SHL DUP3 DUP3 DUP2 MLOAD DUP2 LT PUSH3 0xE08 JUMPI PUSH3 0xE08 PUSH3 0x149C JUMP JUMPDEST PUSH1 0x20 ADD ADD SWAP1 PUSH1 0x1 PUSH1 0x1 PUSH1 0xF8 SHL SUB NOT AND SWAP1 DUP2 PUSH1 0x0 BYTE SWAP1 MSTORE8 POP PUSH1 0x4 SWAP5 SWAP1 SWAP5 SHR SWAP4 PUSH3 0xE31 DUP2 PUSH3 0x14B2 JUMP JUMPDEST SWAP1 POP PUSH3 0xDBA JUMP JUMPDEST POP DUP4 ISZERO PUSH3 0x666 JUMPI PUSH1 0x40 MLOAD PUSH3 0x461BCD PUSH1 0xE5 SHL DUP2 MSTORE PUSH1 0x20 PUSH1 0x4 DUP3 ADD DUP2 SWAP1 MSTORE PUSH1 0x24 DUP3 ADD MSTORE PUSH32 0x537472696E67733A20686578206C656E67746820696E73756666696369656E74 PUSH1 0x44 DUP3 ADD MSTORE PUSH1 0x64 ADD PUSH3 0x6F7 JUMP JUMPDEST PUSH1 0x2A SLOAD PUSH1 0xFF AND ISZERO DUP1 PUSH3 0xEA4 JUMPI POP PUSH1 0x1 PUSH1 0x1 PUSH1 0xA0 SHL SUB DUP5 AND ISZERO JUMPDEST DUP1 PUSH3 0xEB7 JUMPI POP PUSH1 0x1 PUSH1 0x1 PUSH1 0xA0 SHL SUB DUP4 AND ISZERO JUMPDEST DUP1 PUSH3 0xECD JUMPI POP PUSH1 0x1 PUSH1 0x1 PUSH1 0xA0 SHL SUB DUP4 AND PUSH2 0xDEAD EQ JUMPDEST PUSH3 0xF1B JUMPI PUSH1 0x40 MLOAD PUSH3 0x461BCD PUSH1 0xE5 SHL DUP2 MSTORE PUSH1 0x20 PUSH1 0x4 DUP3 ADD MSTORE PUSH1 0x16 PUSH1 0x24 DUP3 ADD MSTORE PUSH32 0x7472616E736665722069732070726F6869626974656400000000000000000000 PUSH1 0x44 DUP3 ADD MSTORE PUSH1 0x64 ADD PUSH3 0x6F7 JUMP JUMPDEST PUSH3 0x700 DUP5 DUP5 DUP5 DUP5 PUSH3 0x700 PUSH1 0x20 SHL PUSH3 0x187F OR PUSH1 0x20 SHR JUMP JUMPDEST PUSH1 0x8 DUP2 SWAP1 SHR PUSH1 0x0 SWAP1 DUP2 MSTORE PUSH1 0x20 SWAP3 SWAP1 SWAP3 MSTORE PUSH1 0x40 SWAP1 SWAP2 KECCAK256 DUP1 SLOAD PUSH1 0x1 PUSH1 0xFF SHL PUSH1 0xFF SWAP1 SWAP4 AND SWAP3 SWAP1 SWAP3 SHR SWAP1 SWAP2 OR SWAP1 SSTORE JUMP JUMPDEST PUSH9 0x10000000000000000 DUP2 LT PUSH3 0xF76 JUMPI PUSH1 0x0 DUP1 REVERT JUMPDEST DUP1 PUSH1 0x1 PUSH1 0x1 PUSH1 0xA0 SHL SUB DUP6 AND ISZERO PUSH3 0xFE4 JUMPI PUSH1 0x1 PUSH1 0x1 PUSH1 0xA0 SHL SUB DUP6 AND PUSH1 0x0 SWAP1 DUP2 MSTORE PUSH1 0x2B PUSH1 0x20 MSTORE PUSH1 0x40 DUP2 KECCAK256 DUP1 SLOAD DUP4 SWAP3 SWAP1 PUSH3 0xFBA SWAP1 DUP5 SWAP1 PUSH1 0x1 PUSH1 0x1 PUSH1 0x40 SHL SUB AND PUSH3 0x14CC JUMP JUMPDEST SWAP3 POP PUSH2 0x100 EXP DUP2 SLOAD DUP2 PUSH1 0x1 PUSH1 0x1 PUSH1 0x40 SHL SUB MUL NOT AND SWAP1 DUP4 PUSH1 0x1 PUSH1 0x1 PUSH1 0x40 SHL SUB AND MUL OR SWAP1 SSTORE POP PUSH3 0x104B JUMP JUMPDEST PUSH1 0x1 PUSH1 0x1 PUSH1 0xA0 SHL SUB DUP5 AND PUSH1 0x0 SWAP1 DUP2 MSTORE PUSH1 0x2B PUSH1 0x20 MSTORE PUSH1 0x40 SWAP1 KECCAK256 DUP1 SLOAD DUP3 SWAP2 SWAP1 PUSH1 0x8 SWAP1 PUSH3 0x1026 SWAP1 DUP5 SWAP1 PUSH9 0x10000000000000000 SWAP1 DIV PUSH1 0x1 PUSH1 0x1 PUSH1 0x40 SHL SUB AND PUSH3 0x14F6 JUMP JUMPDEST SWAP3 POP PUSH2 0x100 EXP DUP2 SLOAD DUP2 PUSH1 0x1 PUSH1 0x1 PUSH1 0x40 SHL SUB MUL NOT AND SWAP1 DUP4 PUSH1 0x1 PUSH1 0x1 PUSH1 0x40 SHL SUB AND MUL OR SWAP1 SSTORE POP JUMPDEST PUSH1 0x1 PUSH1 0x1 PUSH1 0xA0 SHL SUB DUP5 AND ISZERO PUSH3 0x10B8 JUMPI PUSH1 0x1 PUSH1 0x1 PUSH1 0xA0 SHL SUB DUP5 AND PUSH1 0x0 SWAP1 DUP2 MSTORE PUSH1 0x2B PUSH1 0x20 MSTORE PUSH1 0x40 DUP2 KECCAK256 DUP1 SLOAD DUP4 SWAP3 SWAP1 PUSH3 0x108E SWAP1 DUP5 SWAP1 PUSH1 0x1 PUSH1 0x1 PUSH1 0x40 SHL SUB AND PUSH3 0x14F6 JUMP JUMPDEST SWAP3 POP PUSH2 0x100 EXP DUP2 SLOAD DUP2 PUSH1 0x1 PUSH1 0x1 PUSH1 0x40 SHL SUB MUL NOT AND SWAP1 DUP4 PUSH1 0x1 PUSH1 0x1 PUSH1 0x40 SHL SUB AND MUL OR SWAP1 SSTORE POP PUSH3 0x111A JUMP JUMPDEST PUSH1 0x1 PUSH1 0x1 PUSH1 0xA0 SHL SUB DUP6 AND PUSH1 0x0 SWAP1 DUP2 MSTORE PUSH1 0x2B PUSH1 0x20 MSTORE PUSH1 0x40 SWAP1 KECCAK256 DUP1 SLOAD DUP3 SWAP2 SWAP1 PUSH1 0x10 SWAP1 PUSH3 0x10F5 SWAP1 DUP5 SWAP1 PUSH1 0x1 PUSH1 0x80 SHL SWAP1 DIV PUSH1 0x1 PUSH1 0x1 PUSH1 0x40 SHL SUB AND PUSH3 0x14F6 JUMP JUMPDEST SWAP3 POP PUSH2 0x100 EXP DUP2 SLOAD DUP2 PUSH1 0x1 PUSH1 0x1 PUSH1 0x40 SHL SUB MUL NOT AND SWAP1 DUP4 PUSH1 0x1 PUSH1 0x1 PUSH1 0x40 SHL SUB AND MUL OR SWAP1 SSTORE POP JUMPDEST PUSH3 0x1133 DUP6 DUP6 DUP6 DUP6 PUSH3 0x1158 PUSH1 0x20 SHL PUSH3 0x3242 OR PUSH1 0x20 SHR JUMP JUMPDEST POP POP POP POP POP JUMP JUMPDEST PUSH1 0x1 PUSH1 0x1 PUSH1 0xA0 SHL SUB AND EXTCODESIZE ISZERO ISZERO SWAP1 JUMP JUMPDEST PUSH1 0x3 SLOAD PUSH1 0x1 PUSH1 0x1 PUSH1 0xA0 SHL SUB AND SWAP1 JUMP JUMPDEST PUSH1 0x1 PUSH1 0x1 PUSH1 0xA0 SHL SUB DUP5 AND ISZERO PUSH3 0x700 JUMPI PUSH1 0x0 DUP3 DUP2 MSTORE PUSH1 0x10 PUSH1 0x20 MSTORE PUSH1 0x40 DUP2 KECCAK256 SSTORE PUSH3 0x700 JUMP JUMPDEST PUSH4 0x4E487B71 PUSH1 0xE0 SHL PUSH1 0x0 MSTORE PUSH1 0x41 PUSH1 0x4 MSTORE PUSH1 0x24 PUSH1 0x0 REVERT JUMPDEST PUSH1 0x1 DUP2 DUP2 SHR SWAP1 DUP3 AND DUP1 PUSH3 0x11A8 JUMPI PUSH1 0x7F DUP3 AND SWAP2 POP JUMPDEST PUSH1 0x20 DUP3 LT DUP2 SUB PUSH3 0x11C9 JUMPI PUSH4 0x4E487B71 PUSH1 0xE0 SHL PUSH1 0x0 MSTORE PUSH1 0x22 PUSH1 0x4 MSTORE PUSH1 0x24 PUSH1 0x0 REVERT JUMPDEST POP SWAP2 SWAP1 POP JUMP JUMPDEST PUSH1 0x1F DUP3 GT ISZERO PUSH3 0x4C0 JUMPI PUSH1 0x0 DUP2 DUP2 MSTORE PUSH1 0x20 DUP2 KECCAK256 PUSH1 0x1F DUP6 ADD PUSH1 0x5 SHR DUP2 ADD PUSH1 0x20 DUP7 LT ISZERO PUSH3 0x11F8 JUMPI POP DUP1 JUMPDEST PUSH1 0x1F DUP6 ADD PUSH1 0x5 SHR DUP3 ADD SWAP2 POP JUMPDEST DUP2 DUP2 LT ISZERO PUSH3 0x1219 JUMPI DUP3 DUP2 SSTORE PUSH1 0x1 ADD PUSH3 0x1204 JUMP JUMPDEST POP POP POP POP POP POP JUMP JUMPDEST DUP2 MLOAD PUSH1 0x1 PUSH1 0x1 PUSH1 0x40 SHL SUB DUP2 GT ISZERO PUSH3 0x123D JUMPI PUSH3 0x123D PUSH3 0x117D JUMP JUMPDEST PUSH3 0x1255 DUP2 PUSH3 0x124E DUP5 SLOAD PUSH3 0x1193 JUMP JUMPDEST DUP5 PUSH3 0x11CF JUMP JUMPDEST PUSH1 0x20 DUP1 PUSH1 0x1F DUP4 GT PUSH1 0x1 DUP2 EQ PUSH3 0x128D JUMPI PUSH1 0x0 DUP5 ISZERO PUSH3 0x1274 JUMPI POP DUP6 DUP4 ADD MLOAD JUMPDEST PUSH1 0x0 NOT PUSH1 0x3 DUP7 SWAP1 SHL SHR NOT AND PUSH1 0x1 DUP6 SWAP1 SHL OR DUP6 SSTORE PUSH3 0x1219 JUMP JUMPDEST PUSH1 0x0 DUP6 DUP2 MSTORE PUSH1 0x20 DUP2 KECCAK256 PUSH1 0x1F NOT DUP7 AND SWAP2 JUMPDEST DUP3 DUP2 LT ISZERO PUSH3 0x12BE JUMPI DUP9 DUP7 ADD MLOAD DUP3 SSTORE SWAP5 DUP5 ADD SWAP5 PUSH1 0x1 SWAP1 SWAP2 ADD SWAP1 DUP5 ADD PUSH3 0x129D JUMP JUMPDEST POP DUP6 DUP3 LT ISZERO PUSH3 0x12DD JUMPI DUP8 DUP6 ADD MLOAD PUSH1 0x0 NOT PUSH1 0x3 DUP9 SWAP1 SHL PUSH1 0xF8 AND SHR NOT AND DUP2 SSTORE JUMPDEST POP POP POP POP POP PUSH1 0x1 SWAP1 DUP2 SHL ADD SWAP1 SSTORE POP JUMP JUMPDEST PUSH1 0x0 JUMPDEST DUP4 DUP2 LT ISZERO PUSH3 0x130A JUMPI DUP2 DUP2 ADD MLOAD DUP4 DUP3 ADD MSTORE PUSH1 0x20 ADD PUSH3 0x12F0 JUMP JUMPDEST POP POP PUSH1 0x0 SWAP2 ADD MSTORE JUMP JUMPDEST PUSH32 0x416363657373436F6E74726F6C3A206163636F756E7420000000000000000000 DUP2 MSTORE PUSH1 0x0 DUP4 MLOAD PUSH3 0x134D DUP2 PUSH1 0x17 DUP6 ADD PUSH1 0x20 DUP9 ADD PUSH3 0x12ED JUMP JUMPDEST PUSH17 0x1034B99036B4B9B9B4B733903937B6329 PUSH1 0x7D SHL PUSH1 0x17 SWAP2 DUP5 ADD SWAP2 DUP3 ADD MSTORE DUP4 MLOAD PUSH3 0x1380 DUP2 PUSH1 0x28 DUP5 ADD PUSH1 0x20 DUP9 ADD PUSH3 0x12ED JUMP JUMPDEST ADD PUSH1 0x28 ADD SWAP5 SWAP4 POP POP POP POP JUMP JUMPDEST PUSH1 0x0 DUP2 MLOAD DUP1 DUP5 MSTORE PUSH3 0x13A6 DUP2 PUSH1 0x20 DUP7 ADD PUSH1 0x20 DUP7 ADD PUSH3 0x12ED JUMP JUMPDEST PUSH1 0x1F ADD PUSH1 0x1F NOT AND SWAP3 SWAP1 SWAP3 ADD PUSH1 0x20 ADD SWAP3 SWAP2 POP POP JUMP JUMPDEST PUSH1 0x20 DUP2 MSTORE PUSH1 0x0 PUSH3 0x666 PUSH1 0x20 DUP4 ADD DUP5 PUSH3 0x138C JUMP JUMPDEST PUSH4 0x4E487B71 PUSH1 0xE0 SHL PUSH1 0x0 MSTORE PUSH1 0x11 PUSH1 0x4 MSTORE PUSH1 0x24 PUSH1 0x0 REVERT JUMPDEST DUP1 DUP3 ADD DUP1 DUP3 GT ISZERO PUSH3 0x669 JUMPI PUSH3 0x669 PUSH3 0x13CF JUMP JUMPDEST PUSH1 0x0 PUSH1 0x1 DUP3 ADD PUSH3 0x1410 JUMPI PUSH3 0x1410 PUSH3 0x13CF JUMP JUMPDEST POP PUSH1 0x1 ADD SWAP1 JUMP JUMPDEST PUSH1 0x1 PUSH1 0x1 PUSH1 0xA0 SHL SUB DUP6 DUP2 AND DUP3 MSTORE DUP5 AND PUSH1 0x20 DUP3 ADD MSTORE PUSH1 0x40 DUP2 ADD DUP4 SWAP1 MSTORE PUSH1 0x80 PUSH1 0x60 DUP3 ADD DUP2 SWAP1 MSTORE PUSH1 0x0 SWAP1 PUSH3 0x144C SWAP1 DUP4 ADD DUP5 PUSH3 0x138C JUMP JUMPDEST SWAP7 SWAP6 POP POP POP POP POP POP JUMP JUMPDEST PUSH1 0x0 PUSH1 0x20 DUP3 DUP5 SUB SLT ISZERO PUSH3 0x1469 JUMPI PUSH1 0x0 DUP1 REVERT JUMPDEST DUP2 MLOAD PUSH1 0x1 PUSH1 0x1 PUSH1 0xE0 SHL SUB NOT DUP2 AND DUP2 EQ PUSH3 0x666 JUMPI PUSH1 0x0 DUP1 REVERT JUMPDEST DUP1 DUP3 MUL DUP2 ISZERO DUP3 DUP3 DIV DUP5 EQ OR PUSH3 0x669 JUMPI PUSH3 0x669 PUSH3 0x13CF JUMP JUMPDEST PUSH4 0x4E487B71 PUSH1 0xE0 SHL PUSH1 0x0 MSTORE PUSH1 0x32 PUSH1 0x4 MSTORE PUSH1 0x24 PUSH1 0x0 REVERT JUMPDEST PUSH1 0x0 DUP2 PUSH3 0x14C4 JUMPI PUSH3 0x14C4 PUSH3 0x13CF JUMP JUMPDEST POP PUSH1 0x0 NOT ADD SWAP1 JUMP JUMPDEST PUSH1 0x1 PUSH1 0x1 PUSH1 0x40 SHL SUB DUP3 DUP2 AND DUP3 DUP3 AND SUB SWAP1 DUP1 DUP3 GT ISZERO PUSH3 0x14EF JUMPI PUSH3 0x14EF PUSH3 0x13CF JUMP JUMPDEST POP SWAP3 SWAP2 POP POP JUMP JUMPDEST PUSH1 0x1 PUSH1 0x1 PUSH1 0x40 SHL SUB DUP2 DUP2 AND DUP4 DUP3 AND ADD SWAP1 DUP1 DUP3 GT ISZERO PUSH3 0x14EF JUMPI PUSH3 0x14EF PUSH3 0x13CF JUMP JUMPDEST PUSH2 0x5DE7 DUP1 PUSH3 0x1529 PUSH1 0x0 CODECOPY PUSH1 0x0 RETURN INVALID PUSH1 0x80 PUSH1 0x40 MSTORE PUSH1 0x4 CALLDATASIZE LT PUSH2 0x6B4 JUMPI PUSH1 0x0 CALLDATALOAD PUSH1 0xE0 SHR DUP1 PUSH4 0x6C0360EB GT PUSH2 0x37A JUMPI DUP1 PUSH4 0xB5F94D06 GT PUSH2 0x1D1 JUMPI DUP1 PUSH4 0xD6DFAD76 GT PUSH2 0x102 JUMPI DUP1 PUSH4 0xECBA222A GT PUSH2 0xA0 JUMPI DUP1 PUSH4 0xF48824DB GT PUSH2 0x7A JUMPI DUP1 PUSH4 0xF48824DB EQ PUSH2 0x144C JUMPI DUP1 PUSH4 0xF58F9C66 EQ PUSH2 0x1484 JUMPI DUP1 PUSH4 0xFCD1AAC9 EQ PUSH2 0x14A4 JUMPI DUP1 PUSH4 0xFF768212 EQ PUSH2 0x14C4 JUMPI PUSH1 0x0 DUP1 REVERT JUMPDEST DUP1 PUSH4 0xECBA222A EQ PUSH2 0x13EB JUMPI DUP1 PUSH4 0xF138ABFA EQ PUSH2 0x140C JUMPI DUP1 PUSH4 0xF2FDE38B EQ PUSH2 0x142C JUMPI PUSH1 0x0 DUP1 REVERT JUMPDEST DUP1 PUSH4 0xDA3EF23F GT PUSH2 0xDC JUMPI DUP1 PUSH4 0xDA3EF23F EQ PUSH2 0x136B JUMPI DUP1 PUSH4 0xDDECC4D0 EQ PUSH2 0x138B JUMPI DUP1 PUSH4 0xE39E0269 EQ PUSH2 0x13AB JUMPI DUP1 PUSH4 0xE985E9C5 EQ PUSH2 0x13CB JUMPI PUSH1 0x0 DUP1 REVERT JUMPDEST DUP1 PUSH4 0xD6DFAD76 EQ PUSH2 0x1310 JUMPI DUP1 PUSH4 0xD728312A EQ PUSH2 0x1331 JUMPI DUP1 PUSH4 0xD96506F9 EQ PUSH2 0x1351 JUMPI PUSH1 0x0 DUP1 REVERT JUMPDEST DUP1 PUSH4 0xC6682862 GT PUSH2 0x16F JUMPI DUP1 PUSH4 0xD04F32D2 GT PUSH2 0x149 JUMPI DUP1 PUSH4 0xD04F32D2 EQ PUSH2 0x1262 JUMPI DUP1 PUSH4 0xD5391393 EQ PUSH2 0x12A6 JUMPI DUP1 PUSH4 0xD547741F EQ PUSH2 0x12DA JUMPI DUP1 PUSH4 0xD5ABEB01 EQ PUSH2 0x12FA JUMPI PUSH1 0x0 DUP1 REVERT JUMPDEST DUP1 PUSH4 0xC6682862 EQ PUSH2 0x1217 JUMPI DUP1 PUSH4 0xC84C0387 EQ PUSH2 0x122C JUMPI DUP1 PUSH4 0xC87B56DD EQ PUSH2 0x1242 JUMPI PUSH1 0x0 DUP1 REVERT JUMPDEST DUP1 PUSH4 0xBA6269C6 GT PUSH2 0x1AB JUMPI DUP1 PUSH4 0xBA6269C6 EQ PUSH2 0x11A0 JUMPI DUP1 PUSH4 0xBBB89744 EQ PUSH2 0x11C1 JUMPI DUP1 PUSH4 0xBEDB86FB EQ PUSH2 0x11D7 JUMPI DUP1 PUSH4 0xC5AC58E1 EQ PUSH2 0x11F7 JUMPI PUSH1 0x0 DUP1 REVERT JUMPDEST DUP1 PUSH4 0xB5F94D06 EQ PUSH2 0x1140 JUMPI DUP1 PUSH4 0xB88D4FDE EQ PUSH2 0x1160 JUMPI DUP1 PUSH4 0xB8D1E532 EQ PUSH2 0x1180 JUMPI PUSH1 0x0 DUP1 REVERT JUMPDEST DUP1 PUSH4 0x942C9273 GT PUSH2 0x2AB JUMPI DUP1 PUSH4 0xA35C23AD GT PUSH2 0x249 JUMPI DUP1 PUSH4 0xAABB9A86 GT PUSH2 0x223 JUMPI DUP1 PUSH4 0xAABB9A86 EQ PUSH2 0x10C9 JUMPI DUP1 PUSH4 0xB0CCC31E EQ PUSH2 0x10DE JUMPI DUP1 PUSH4 0xB31391CB EQ PUSH2 0x10FE JUMPI DUP1 PUSH4 0xB51BBBDF EQ PUSH2 0x112B JUMPI PUSH1 0x0 DUP1 REVERT JUMPDEST DUP1 PUSH4 0xA35C23AD EQ PUSH2 0x1066 JUMPI DUP1 PUSH4 0xA72193B6 EQ PUSH2 0x1093 JUMPI DUP1 PUSH4 0xA9E2ACD5 EQ PUSH2 0x10A9 JUMPI PUSH1 0x0 DUP1 REVERT JUMPDEST DUP1 PUSH4 0x981EB344 GT PUSH2 0x285 JUMPI DUP1 PUSH4 0x981EB344 EQ PUSH2 0xFFE JUMPI DUP1 PUSH4 0x99F98898 EQ PUSH2 0x101E JUMPI DUP1 PUSH4 0xA217FDDF EQ PUSH2 0x1031 JUMPI DUP1 PUSH4 0xA22CB465 EQ PUSH2 0x1046 JUMPI PUSH1 0x0 DUP1 REVERT JUMPDEST DUP1 PUSH4 0x942C9273 EQ PUSH2 0xFB4 JUMPI DUP1 PUSH4 0x95D89B41 EQ PUSH2 0xFC9 JUMPI DUP1 PUSH4 0x9659867E EQ PUSH2 0xFDE JUMPI PUSH1 0x0 DUP1 REVERT JUMPDEST DUP1 PUSH4 0x7CB64759 GT PUSH2 0x318 JUMPI DUP1 PUSH4 0x877984CB GT PUSH2 0x2F2 JUMPI DUP1 PUSH4 0x877984CB EQ PUSH2 0xF3F JUMPI DUP1 PUSH4 0x8DA5CB5B EQ PUSH2 0xF5F JUMPI DUP1 PUSH4 0x8E73CF00 EQ PUSH2 0xF74 JUMPI DUP1 PUSH4 0x91D14854 EQ PUSH2 0xF94 JUMPI PUSH1 0x0 DUP1 REVERT JUMPDEST DUP1 PUSH4 0x7CB64759 EQ PUSH2 0xED2 JUMPI DUP1 PUSH4 0x7EE3B2AC EQ PUSH2 0xEF2 JUMPI DUP1 PUSH4 0x8462151C EQ PUSH2 0xF12 JUMPI PUSH1 0x0 DUP1 REVERT JUMPDEST DUP1 PUSH4 0x715018A6 GT PUSH2 0x354 JUMPI DUP1 PUSH4 0x715018A6 EQ PUSH2 0xE67 JUMPI DUP1 PUSH4 0x72B44D71 EQ PUSH2 0xE7C JUMPI DUP1 PUSH4 0x73EF64FD EQ PUSH2 0xE9C JUMPI DUP1 PUSH4 0x7C3DC173 EQ PUSH2 0xEB2 JUMPI PUSH1 0x0 DUP1 REVERT JUMPDEST DUP1 PUSH4 0x6C0360EB EQ PUSH2 0xE12 JUMPI DUP1 PUSH4 0x6F8B44B0 EQ PUSH2 0xE27 JUMPI DUP1 PUSH4 0x70A08231 EQ PUSH2 0xE47 JUMPI PUSH1 0x0 DUP1 REVERT JUMPDEST DUP1 PUSH4 0x2A0ACC6A GT PUSH2 0x52E JUMPI DUP1 PUSH4 0x4C45CDA2 GT PUSH2 0x45F JUMPI DUP1 PUSH4 0x599487C3 GT PUSH2 0x3FD JUMPI DUP1 PUSH4 0x6352211E GT PUSH2 0x3D7 JUMPI DUP1 PUSH4 0x6352211E EQ PUSH2 0xDA0 JUMPI DUP1 PUSH4 0x674C02AA EQ PUSH2 0xDC0 JUMPI DUP1 PUSH4 0x6B1A2B7F EQ PUSH2 0xDDF JUMPI DUP1 PUSH4 0x6B8EE0EC EQ PUSH2 0xDF2 JUMPI PUSH1 0x0 DUP1 REVERT JUMPDEST DUP1 PUSH4 0x599487C3 EQ PUSH2 0xD51 JUMPI DUP1 PUSH4 0x5C975ABB EQ PUSH2 0xD71 JUMPI DUP1 PUSH4 0x5EF9432A EQ PUSH2 0xD8B JUMPI PUSH1 0x0 DUP1 REVERT JUMPDEST DUP1 PUSH4 0x4F3DB346 GT PUSH2 0x439 JUMPI DUP1 PUSH4 0x4F3DB346 EQ PUSH2 0xCD6 JUMPI DUP1 PUSH4 0x55CDA898 EQ PUSH2 0xCEC JUMPI DUP1 PUSH4 0x55F804B3 EQ PUSH2 0xD11 JUMPI DUP1 PUSH4 0x5978C012 EQ PUSH2 0xD31 JUMPI PUSH1 0x0 DUP1 REVERT JUMPDEST DUP1 PUSH4 0x4C45CDA2 EQ PUSH2 0xC76 JUMPI DUP1 PUSH4 0x4CB110FC EQ PUSH2 0xC96 JUMPI DUP1 PUSH4 0x4E6BF204 EQ PUSH2 0xCB6 JUMPI PUSH1 0x0 DUP1 REVERT JUMPDEST DUP1 PUSH4 0x3AB1A494 GT PUSH2 0x4CC JUMPI DUP1 PUSH4 0x42842E0E GT PUSH2 0x4A6 JUMPI DUP1 PUSH4 0x42842E0E EQ PUSH2 0xBBA JUMPI DUP1 PUSH4 0x44A0D68A EQ PUSH2 0xBDA JUMPI DUP1 PUSH4 0x47705CBC EQ PUSH2 0xBFA JUMPI DUP1 PUSH4 0x499A15D4 EQ PUSH2 0xC3E JUMPI PUSH1 0x0 DUP1 REVERT JUMPDEST DUP1 PUSH4 0x3AB1A494 EQ PUSH2 0xB78 JUMPI DUP1 PUSH4 0x3CCFD60B EQ PUSH2 0xB98 JUMPI DUP1 PUSH4 0x3CF40DF3 EQ PUSH2 0xBA0 JUMPI PUSH1 0x0 DUP1 REVERT JUMPDEST DUP1 PUSH4 0x2F2FF15D GT PUSH2 0x508 JUMPI DUP1 PUSH4 0x2F2FF15D EQ PUSH2 0xAD5 JUMPI DUP1 PUSH4 0x3511CD54 EQ PUSH2 0xAF5 JUMPI DUP1 PUSH4 0x36568ABE EQ PUSH2 0xB38 JUMPI DUP1 PUSH4 0x396E8F53 EQ PUSH2 0xB58 JUMPI PUSH1 0x0 DUP1 REVERT JUMPDEST DUP1 PUSH4 0x2A0ACC6A EQ PUSH2 0xA5E JUMPI DUP1 PUSH4 0x2A55205A EQ PUSH2 0xA80 JUMPI DUP1 PUSH4 0x2EB4A7AB EQ PUSH2 0xABF JUMPI PUSH1 0x0 DUP1 REVERT JUMPDEST DUP1 PUSH4 0x95EA7B3 GT PUSH2 0x608 JUMPI DUP1 PUSH4 0x1E0FBFA2 GT PUSH2 0x5A6 JUMPI DUP1 PUSH4 0x23C03085 GT PUSH2 0x580 JUMPI DUP1 PUSH4 0x23C03085 EQ PUSH2 0x9BA JUMPI DUP1 PUSH4 0x248A9CA3 EQ PUSH2 0x9DA JUMPI DUP1 PUSH4 0x279A669E EQ PUSH2 0xA0A JUMPI DUP1 PUSH4 0x282C51F3 EQ PUSH2 0xA2A JUMPI PUSH1 0x0 DUP1 REVERT JUMPDEST DUP1 PUSH4 0x1E0FBFA2 EQ PUSH2 0x939 JUMPI DUP1 PUSH4 0x2398F843 EQ PUSH2 0x96D JUMPI DUP1 PUSH4 0x23B872DD EQ PUSH2 0x99A JUMPI PUSH1 0x0 DUP1 REVERT JUMPDEST DUP1 PUSH4 0x13FAEDE6 GT PUSH2 0x5E2 JUMPI DUP1 PUSH4 0x13FAEDE6 EQ PUSH2 0x8CE JUMPI DUP1 PUSH4 0x1581B600 EQ PUSH2 0x8E4 JUMPI DUP1 PUSH4 0x17DC10C4 EQ PUSH2 0x904 JUMPI DUP1 PUSH4 0x18160DDD EQ PUSH2 0x924 JUMPI PUSH1 0x0 DUP1 REVERT JUMPDEST DUP1 PUSH4 0x95EA7B3 EQ PUSH2 0x879 JUMPI DUP1 PUSH4 0xF4345E2 EQ PUSH2 0x899 JUMPI DUP1 PUSH4 0x135D088D EQ PUSH2 0x8B9 JUMPI PUSH1 0x0 DUP1 REVERT JUMPDEST DUP1 PUSH4 0x25E332E GT PUSH2 0x675 JUMPI DUP1 PUSH4 0x6FDDE03 GT PUSH2 0x64F JUMPI DUP1 PUSH4 0x6FDDE03 EQ PUSH2 0x7F2 JUMPI DUP1 PUSH4 0x7265389 EQ PUSH2 0x807 JUMPI DUP1 PUSH4 0x730BAF0 EQ PUSH2 0x821 JUMPI DUP1 PUSH4 0x81812FC EQ PUSH2 0x841 JUMPI PUSH1 0x0 DUP1 REVERT JUMPDEST DUP1 PUSH4 0x25E332E EQ PUSH2 0x790 JUMPI DUP1 PUSH4 0x4634D8D EQ PUSH2 0x7B2 JUMPI DUP1 PUSH4 0x4787CA2 EQ PUSH2 0x7D2 JUMPI PUSH1 0x0 DUP1 REVERT JUMPDEST DUP1 PUSH3 0x3EB1E2 EQ PUSH2 0x6B9 JUMPI DUP1 PUSH3 0x3F332F EQ PUSH2 0x6E8 JUMPI DUP1 PUSH3 0x85BB6F EQ PUSH2 0x70A JUMPI DUP1 PUSH3 0x9A9B7B EQ PUSH2 0x72B JUMPI DUP1 PUSH4 0x1340A32 EQ PUSH2 0x74E JUMPI DUP1 PUSH4 0x1FFC9A7 EQ PUSH2 0x770 JUMPI JUMPDEST PUSH1 0x0 DUP1 REVERT JUMPDEST CALLVALUE DUP1 ISZERO PUSH2 0x6C5 JUMPI PUSH1 0x0 DUP1 REVERT JUMPDEST POP PUSH1 0x28 SLOAD PUSH2 0x6D3 SWAP1 PUSH1 0xFF AND DUP2 JUMP JUMPDEST PUSH1 0x40 MLOAD SWAP1 ISZERO ISZERO DUP2 MSTORE PUSH1 0x20 ADD JUMPDEST PUSH1 0x40 MLOAD DUP1 SWAP2 SUB SWAP1 RETURN JUMPDEST CALLVALUE DUP1 ISZERO PUSH2 0x6F4 JUMPI PUSH1 0x0 DUP1 REVERT JUMPDEST POP PUSH2 0x6FD PUSH2 0x14E4 JUMP JUMPDEST PUSH1 0x40 MLOAD PUSH2 0x6DF SWAP2 SWAP1 PUSH2 0x4EA7 JUMP JUMPDEST CALLVALUE DUP1 ISZERO PUSH2 0x716 JUMPI PUSH1 0x0 DUP1 REVERT JUMPDEST POP PUSH1 0x1A SLOAD PUSH2 0x6D3 SWAP1 PUSH4 0x1000000 SWAP1 DIV PUSH1 0xFF AND DUP2 JUMP JUMPDEST CALLVALUE DUP1 ISZERO PUSH2 0x737 JUMPI PUSH1 0x0 DUP1 REVERT JUMPDEST POP PUSH2 0x740 PUSH2 0x14F3 JUMP JUMPDEST PUSH1 0x40 MLOAD SWAP1 DUP2 MSTORE PUSH1 0x20 ADD PUSH2 0x6DF JUMP JUMPDEST CALLVALUE DUP1 ISZERO PUSH2 0x75A JUMPI PUSH1 0x0 DUP1 REVERT JUMPDEST POP PUSH2 0x763 PUSH2 0x150A JUMP JUMPDEST PUSH1 0x40 MLOAD PUSH2 0x6DF SWAP2 SWAP1 PUSH2 0x4F44 JUMP JUMPDEST CALLVALUE DUP1 ISZERO PUSH2 0x77C JUMPI PUSH1 0x0 DUP1 REVERT JUMPDEST POP PUSH2 0x6D3 PUSH2 0x78B CALLDATASIZE PUSH1 0x4 PUSH2 0x4F6D JUMP JUMPDEST PUSH2 0x1598 JUMP JUMPDEST CALLVALUE DUP1 ISZERO PUSH2 0x79C JUMPI PUSH1 0x0 DUP1 REVERT JUMPDEST POP PUSH2 0x7B0 PUSH2 0x7AB CALLDATASIZE PUSH1 0x4 PUSH2 0x4FA1 JUMP JUMPDEST PUSH2 0x15C7 JUMP JUMPDEST STOP JUMPDEST CALLVALUE DUP1 ISZERO PUSH2 0x7BE JUMPI PUSH1 0x0 DUP1 REVERT JUMPDEST POP PUSH2 0x7B0 PUSH2 0x7CD CALLDATASIZE PUSH1 0x4 PUSH2 0x4FBC JUMP JUMPDEST PUSH2 0x1602 JUMP JUMPDEST CALLVALUE DUP1 ISZERO PUSH2 0x7DE JUMPI PUSH1 0x0 DUP1 REVERT JUMPDEST POP PUSH2 0x7B0 PUSH2 0x7ED CALLDATASIZE PUSH1 0x4 PUSH2 0x50AA JUMP JUMPDEST PUSH2 0x1614 JUMP JUMPDEST CALLVALUE DUP1 ISZERO PUSH2 0x7FE JUMPI PUSH1 0x0 DUP1 REVERT JUMPDEST POP PUSH2 0x763 PUSH2 0x163D JUMP JUMPDEST CALLVALUE DUP1 ISZERO PUSH2 0x813 JUMPI PUSH1 0x0 DUP1 REVERT JUMPDEST POP PUSH1 0xF SLOAD PUSH2 0x6D3 SWAP1 PUSH1 0xFF AND DUP2 JUMP JUMPDEST CALLVALUE DUP1 ISZERO PUSH2 0x82D JUMPI PUSH1 0x0 DUP1 REVERT JUMPDEST POP PUSH2 0x7B0 PUSH2 0x83C CALLDATASIZE PUSH1 0x4 PUSH2 0x5100 JUMP JUMPDEST PUSH2 0x16CF JUMP JUMPDEST CALLVALUE DUP1 ISZERO PUSH2 0x84D JUMPI PUSH1 0x0 DUP1 REVERT JUMPDEST POP PUSH2 0x861 PUSH2 0x85C CALLDATASIZE PUSH1 0x4 PUSH2 0x511D JUMP JUMPDEST PUSH2 0x16FB JUMP JUMPDEST PUSH1 0x40 MLOAD PUSH1 0x1 PUSH1 0x1 PUSH1 0xA0 SHL SUB SWAP1 SWAP2 AND DUP2 MSTORE PUSH1 0x20 ADD PUSH2 0x6DF JUMP JUMPDEST CALLVALUE DUP1 ISZERO PUSH2 0x885 JUMPI PUSH1 0x0 DUP1 REVERT JUMPDEST POP PUSH2 0x7B0 PUSH2 0x894 CALLDATASIZE PUSH1 0x4 PUSH2 0x5136 JUMP JUMPDEST PUSH2 0x178B JUMP JUMPDEST CALLVALUE DUP1 ISZERO PUSH2 0x8A5 JUMPI PUSH1 0x0 DUP1 REVERT JUMPDEST POP PUSH2 0x7B0 PUSH2 0x8B4 CALLDATASIZE PUSH1 0x4 PUSH2 0x511D JUMP JUMPDEST PUSH2 0x17EA JUMP JUMPDEST CALLVALUE DUP1 ISZERO PUSH2 0x8C5 JUMPI PUSH1 0x0 DUP1 REVERT JUMPDEST POP PUSH2 0x763 PUSH2 0x1808 JUMP JUMPDEST CALLVALUE DUP1 ISZERO PUSH2 0x8DA JUMPI PUSH1 0x0 DUP1 REVERT JUMPDEST POP PUSH2 0x740 PUSH1 0x16 SLOAD DUP2 JUMP JUMPDEST CALLVALUE DUP1 ISZERO PUSH2 0x8F0 JUMPI PUSH1 0x0 DUP1 REVERT JUMPDEST POP PUSH1 0x15 SLOAD PUSH2 0x861 SWAP1 PUSH1 0x1 PUSH1 0x1 PUSH1 0xA0 SHL SUB AND DUP2 JUMP JUMPDEST CALLVALUE DUP1 ISZERO PUSH2 0x910 JUMPI PUSH1 0x0 DUP1 REVERT JUMPDEST POP PUSH2 0x7B0 PUSH2 0x91F CALLDATASIZE PUSH1 0x4 PUSH2 0x5100 JUMP JUMPDEST PUSH2 0x1815 JUMP JUMPDEST CALLVALUE DUP1 ISZERO PUSH2 0x930 JUMPI PUSH1 0x0 DUP1 REVERT JUMPDEST POP PUSH2 0x740 PUSH2 0x1848 JUMP JUMPDEST CALLVALUE DUP1 ISZERO PUSH2 0x945 JUMPI PUSH1 0x0 DUP1 REVERT JUMPDEST POP PUSH2 0x740 PUSH32 0x3A2F235C9DAAF33349D300AADFF2F15078A89DF81BCFDD45BA11C8F816BDDC6F DUP2 JUMP JUMPDEST CALLVALUE DUP1 ISZERO PUSH2 0x979 JUMPI PUSH1 0x0 DUP1 REVERT JUMPDEST POP PUSH2 0x740 PUSH2 0x988 CALLDATASIZE PUSH1 0x4 PUSH2 0x4FA1 JUMP JUMPDEST PUSH1 0x11 PUSH1 0x20 MSTORE PUSH1 0x0 SWAP1 DUP2 MSTORE PUSH1 0x40 SWAP1 KECCAK256 SLOAD DUP2 JUMP JUMPDEST CALLVALUE DUP1 ISZERO PUSH2 0x9A6 JUMPI PUSH1 0x0 DUP1 REVERT JUMPDEST POP PUSH2 0x7B0 PUSH2 0x9B5 CALLDATASIZE PUSH1 0x4 PUSH2 0x5160 JUMP JUMPDEST PUSH2 0x185A JUMP JUMPDEST CALLVALUE DUP1 ISZERO PUSH2 0x9C6 JUMPI PUSH1 0x0 DUP1 REVERT JUMPDEST POP PUSH2 0x7B0 PUSH2 0x9D5 CALLDATASIZE PUSH1 0x4 PUSH2 0x4FA1 JUMP JUMPDEST PUSH2 0x1885 JUMP JUMPDEST CALLVALUE DUP1 ISZERO PUSH2 0x9E6 JUMPI PUSH1 0x0 DUP1 REVERT JUMPDEST POP PUSH2 0x740 PUSH2 0x9F5 CALLDATASIZE PUSH1 0x4 PUSH2 0x511D JUMP JUMPDEST PUSH1 0x0 SWAP1 DUP2 MSTORE PUSH1 0x13 PUSH1 0x20 MSTORE PUSH1 0x40 SWAP1 KECCAK256 PUSH1 0x1 ADD SLOAD SWAP1 JUMP JUMPDEST CALLVALUE DUP1 ISZERO PUSH2 0xA16 JUMPI PUSH1 0x0 DUP1 REVERT JUMPDEST POP PUSH2 0x7B0 PUSH2 0xA25 CALLDATASIZE PUSH1 0x4 PUSH2 0x5269 JUMP JUMPDEST PUSH2 0x18C0 JUMP JUMPDEST CALLVALUE DUP1 ISZERO PUSH2 0xA36 JUMPI PUSH1 0x0 DUP1 REVERT JUMPDEST POP PUSH2 0x740 PUSH32 0x3C11D16CBAFFD01DF69CE1C404F6340EE057498F5F00246190EA54220576A848 DUP2 JUMP JUMPDEST CALLVALUE DUP1 ISZERO PUSH2 0xA6A JUMPI PUSH1 0x0 DUP1 REVERT JUMPDEST POP PUSH2 0x740 PUSH1 0x0 DUP1 MLOAD PUSH1 0x20 PUSH2 0x5C92 DUP4 CODECOPY DUP2 MLOAD SWAP2 MSTORE DUP2 JUMP JUMPDEST CALLVALUE DUP1 ISZERO PUSH2 0xA8C JUMPI PUSH1 0x0 DUP1 REVERT JUMPDEST POP PUSH2 0xAA0 PUSH2 0xA9B CALLDATASIZE PUSH1 0x4 PUSH2 0x52D1 JUMP JUMPDEST PUSH2 0x1ACC JUMP JUMPDEST PUSH1 0x40 DUP1 MLOAD PUSH1 0x1 PUSH1 0x1 PUSH1 0xA0 SHL SUB SWAP1 SWAP4 AND DUP4 MSTORE PUSH1 0x20 DUP4 ADD SWAP2 SWAP1 SWAP2 MSTORE ADD PUSH2 0x6DF JUMP JUMPDEST CALLVALUE DUP1 ISZERO PUSH2 0xACB JUMPI PUSH1 0x0 DUP1 REVERT JUMPDEST POP PUSH2 0x740 PUSH1 0x1C SLOAD DUP2 JUMP JUMPDEST CALLVALUE DUP1 ISZERO PUSH2 0xAE1 JUMPI PUSH1 0x0 DUP1 REVERT JUMPDEST POP PUSH2 0x7B0 PUSH2 0xAF0 CALLDATASIZE PUSH1 0x4 PUSH2 0x52F3 JUMP JUMPDEST PUSH2 0x1B7A JUMP JUMPDEST CALLVALUE DUP1 ISZERO PUSH2 0xB01 JUMPI PUSH1 0x0 DUP1 REVERT JUMPDEST POP PUSH2 0x740 PUSH2 0xB10 CALLDATASIZE PUSH1 0x4 PUSH2 0x52F3 JUMP JUMPDEST PUSH1 0x0 SWAP2 DUP3 MSTORE PUSH1 0x1E PUSH1 0x20 SWAP1 DUP2 MSTORE PUSH1 0x40 DUP1 DUP5 KECCAK256 PUSH1 0x1 PUSH1 0x1 PUSH1 0xA0 SHL SUB SWAP4 SWAP1 SWAP4 AND DUP5 MSTORE SWAP2 SWAP1 MSTORE SWAP1 KECCAK256 SLOAD SWAP1 JUMP JUMPDEST CALLVALUE DUP1 ISZERO PUSH2 0xB44 JUMPI PUSH1 0x0 DUP1 REVERT JUMPDEST POP PUSH2 0x7B0 PUSH2 0xB53 CALLDATASIZE PUSH1 0x4 PUSH2 0x52F3 JUMP JUMPDEST PUSH2 0x1B9F JUMP JUMPDEST CALLVALUE DUP1 ISZERO PUSH2 0xB64 JUMPI PUSH1 0x0 DUP1 REVERT JUMPDEST POP PUSH1 0xC SLOAD PUSH2 0x861 SWAP1 PUSH1 0x1 PUSH1 0x1 PUSH1 0xA0 SHL SUB AND DUP2 JUMP JUMPDEST CALLVALUE DUP1 ISZERO PUSH2 0xB84 JUMPI PUSH1 0x0 DUP1 REVERT JUMPDEST POP PUSH2 0x7B0 PUSH2 0xB93 CALLDATASIZE PUSH1 0x4 PUSH2 0x4FA1 JUMP JUMPDEST PUSH2 0x1C19 JUMP JUMPDEST PUSH2 0x7B0 PUSH2 0x1C43 JUMP JUMPDEST CALLVALUE DUP1 ISZERO PUSH2 0xBAC JUMPI PUSH1 0x0 DUP1 REVERT JUMPDEST POP PUSH1 0x2A SLOAD PUSH2 0x6D3 SWAP1 PUSH1 0xFF AND DUP2 JUMP JUMPDEST CALLVALUE DUP1 ISZERO PUSH2 0xBC6 JUMPI PUSH1 0x0 DUP1 REVERT JUMPDEST POP PUSH2 0x7B0 PUSH2 0xBD5 CALLDATASIZE PUSH1 0x4 PUSH2 0x5160 JUMP JUMPDEST PUSH2 0x1CAE JUMP JUMPDEST CALLVALUE DUP1 ISZERO PUSH2 0xBE6 JUMPI PUSH1 0x0 DUP1 REVERT JUMPDEST POP PUSH2 0x7B0 PUSH2 0xBF5 CALLDATASIZE PUSH1 0x4 PUSH2 0x511D JUMP JUMPDEST PUSH2 0x1CD3 JUMP JUMPDEST CALLVALUE DUP1 ISZERO PUSH2 0xC06 JUMPI PUSH1 0x0 DUP1 REVERT JUMPDEST POP PUSH2 0x740 PUSH2 0xC15 CALLDATASIZE PUSH1 0x4 PUSH2 0x4FA1 JUMP JUMPDEST PUSH1 0x1D SLOAD PUSH1 0x0 SWAP1 DUP2 MSTORE PUSH1 0x1E PUSH1 0x20 SWAP1 DUP2 MSTORE PUSH1 0x40 DUP1 DUP4 KECCAK256 PUSH1 0x1 PUSH1 0x1 PUSH1 0xA0 SHL SUB SWAP1 SWAP5 AND DUP4 MSTORE SWAP3 SWAP1 MSTORE KECCAK256 SLOAD SWAP1 JUMP JUMPDEST CALLVALUE DUP1 ISZERO PUSH2 0xC4A JUMPI PUSH1 0x0 DUP1 REVERT JUMPDEST POP PUSH2 0x740 PUSH2 0xC59 CALLDATASIZE PUSH1 0x4 PUSH2 0x52F3 JUMP JUMPDEST PUSH1 0x1F PUSH1 0x20 SWAP1 DUP2 MSTORE PUSH1 0x0 SWAP3 DUP4 MSTORE PUSH1 0x40 DUP1 DUP5 KECCAK256 SWAP1 SWAP2 MSTORE SWAP1 DUP3 MSTORE SWAP1 KECCAK256 SLOAD DUP2 JUMP JUMPDEST CALLVALUE DUP1 ISZERO PUSH2 0xC82 JUMPI PUSH1 0x0 DUP1 REVERT JUMPDEST POP PUSH2 0x7B0 PUSH2 0xC91 CALLDATASIZE PUSH1 0x4 PUSH2 0x5100 JUMP JUMPDEST PUSH2 0x1CF1 JUMP JUMPDEST CALLVALUE DUP1 ISZERO PUSH2 0xCA2 JUMPI PUSH1 0x0 DUP1 REVERT JUMPDEST POP PUSH2 0x7B0 PUSH2 0xCB1 CALLDATASIZE PUSH1 0x4 PUSH2 0x5100 JUMP JUMPDEST PUSH2 0x1D1D JUMP JUMPDEST CALLVALUE DUP1 ISZERO PUSH2 0xCC2 JUMPI PUSH1 0x0 DUP1 REVERT JUMPDEST POP PUSH2 0x7B0 PUSH2 0xCD1 CALLDATASIZE PUSH1 0x4 PUSH2 0x531F JUMP JUMPDEST PUSH2 0x1D49 JUMP JUMPDEST CALLVALUE DUP1 ISZERO PUSH2 0xCE2 JUMPI PUSH1 0x0 DUP1 REVERT JUMPDEST POP PUSH2 0x740 PUSH1 0x12 SLOAD DUP2 JUMP JUMPDEST CALLVALUE DUP1 ISZERO PUSH2 0xCF8 JUMPI PUSH1 0x0 DUP1 REVERT JUMPDEST POP PUSH1 0x20 SLOAD PUSH2 0x861 SWAP1 PUSH2 0x100 SWAP1 DIV PUSH1 0x1 PUSH1 0x1 PUSH1 0xA0 SHL SUB AND DUP2 JUMP JUMPDEST CALLVALUE DUP1 ISZERO PUSH2 0xD1D JUMPI PUSH1 0x0 DUP1 REVERT JUMPDEST POP PUSH2 0x7B0 PUSH2 0xD2C CALLDATASIZE PUSH1 0x4 PUSH2 0x50AA JUMP JUMPDEST PUSH2 0x1DFB JUMP JUMPDEST CALLVALUE DUP1 ISZERO PUSH2 0xD3D JUMPI PUSH1 0x0 DUP1 REVERT JUMPDEST POP PUSH2 0x7B0 PUSH2 0xD4C CALLDATASIZE PUSH1 0x4 PUSH2 0x53DF JUMP JUMPDEST PUSH2 0x1E1F JUMP JUMPDEST CALLVALUE DUP1 ISZERO PUSH2 0xD5D JUMPI PUSH1 0x0 DUP1 REVERT JUMPDEST POP PUSH2 0x7B0 PUSH2 0xD6C CALLDATASIZE PUSH1 0x4 PUSH2 0x50AA JUMP JUMPDEST PUSH2 0x1F45 JUMP JUMPDEST CALLVALUE DUP1 ISZERO PUSH2 0xD7D JUMPI PUSH1 0x0 DUP1 REVERT JUMPDEST POP PUSH1 0x1A SLOAD PUSH2 0x6D3 SWAP1 PUSH1 0xFF AND DUP2 JUMP JUMPDEST CALLVALUE DUP1 ISZERO PUSH2 0xD97 JUMPI PUSH1 0x0 DUP1 REVERT JUMPDEST POP PUSH2 0x7B0 PUSH2 0x1F69 JUMP JUMPDEST CALLVALUE DUP1 ISZERO PUSH2 0xDAC JUMPI PUSH1 0x0 DUP1 REVERT JUMPDEST POP PUSH2 0x861 PUSH2 0xDBB CALLDATASIZE PUSH1 0x4 PUSH2 0x511D JUMP JUMPDEST PUSH2 0x200C JUMP JUMPDEST CALLVALUE DUP1 ISZERO PUSH2 0xDCC JUMPI PUSH1 0x0 DUP1 REVERT JUMPDEST POP PUSH1 0x1A SLOAD PUSH2 0x6D3 SWAP1 PUSH2 0x100 SWAP1 DIV PUSH1 0xFF AND DUP2 JUMP JUMPDEST PUSH2 0x7B0 PUSH2 0xDED CALLDATASIZE PUSH1 0x4 PUSH2 0x5413 JUMP JUMPDEST PUSH2 0x2020 JUMP JUMPDEST CALLVALUE DUP1 ISZERO PUSH2 0xDFE JUMPI PUSH1 0x0 DUP1 REVERT JUMPDEST POP PUSH2 0x7B0 PUSH2 0xE0D CALLDATASIZE PUSH1 0x4 PUSH2 0x5100 JUMP JUMPDEST PUSH2 0x2610 JUMP JUMPDEST CALLVALUE DUP1 ISZERO PUSH2 0xE1E JUMPI PUSH1 0x0 DUP1 REVERT JUMPDEST POP PUSH2 0x763 PUSH2 0x2647 JUMP JUMPDEST CALLVALUE DUP1 ISZERO PUSH2 0xE33 JUMPI PUSH1 0x0 DUP1 REVERT JUMPDEST POP PUSH2 0x7B0 PUSH2 0xE42 CALLDATASIZE PUSH1 0x4 PUSH2 0x511D JUMP JUMPDEST PUSH2 0x2654 JUMP JUMPDEST CALLVALUE DUP1 ISZERO PUSH2 0xE53 JUMPI PUSH1 0x0 DUP1 REVERT JUMPDEST POP PUSH2 0x740 PUSH2 0xE62 CALLDATASIZE PUSH1 0x4 PUSH2 0x4FA1 JUMP JUMPDEST PUSH2 0x2672 JUMP JUMPDEST CALLVALUE DUP1 ISZERO PUSH2 0xE73 JUMPI PUSH1 0x0 DUP1 REVERT JUMPDEST POP PUSH2 0x7B0 PUSH2 0x2705 JUMP JUMPDEST CALLVALUE DUP1 ISZERO PUSH2 0xE88 JUMPI PUSH1 0x0 DUP1 REVERT JUMPDEST POP PUSH2 0x7B0 PUSH2 0xE97 CALLDATASIZE PUSH1 0x4 PUSH2 0x4FA1 JUMP JUMPDEST PUSH2 0x2719 JUMP JUMPDEST CALLVALUE DUP1 ISZERO PUSH2 0xEA8 JUMPI PUSH1 0x0 DUP1 REVERT JUMPDEST POP PUSH2 0x740 PUSH1 0x19 SLOAD DUP2 JUMP JUMPDEST CALLVALUE DUP1 ISZERO PUSH2 0xEBE JUMPI PUSH1 0x0 DUP1 REVERT JUMPDEST POP PUSH2 0x7B0 PUSH2 0xECD CALLDATASIZE PUSH1 0x4 PUSH2 0x52D1 JUMP JUMPDEST PUSH2 0x273A JUMP JUMPDEST CALLVALUE DUP1 ISZERO PUSH2 0xEDE JUMPI PUSH1 0x0 DUP1 REVERT JUMPDEST POP PUSH2 0x7B0 PUSH2 0xEED CALLDATASIZE PUSH1 0x4 PUSH2 0x511D JUMP JUMPDEST PUSH2 0x27CA JUMP JUMPDEST CALLVALUE DUP1 ISZERO PUSH2 0xEFE JUMPI PUSH1 0x0 DUP1 REVERT JUMPDEST POP PUSH2 0x7B0 PUSH2 0xF0D CALLDATASIZE PUSH1 0x4 PUSH2 0x511D JUMP JUMPDEST PUSH2 0x27E8 JUMP JUMPDEST CALLVALUE DUP1 ISZERO PUSH2 0xF1E JUMPI PUSH1 0x0 DUP1 REVERT JUMPDEST POP PUSH2 0xF32 PUSH2 0xF2D CALLDATASIZE PUSH1 0x4 PUSH2 0x4FA1 JUMP JUMPDEST PUSH2 0x2857 JUMP JUMPDEST PUSH1 0x40 MLOAD PUSH2 0x6DF SWAP2 SWAP1 PUSH2 0x546D JUMP JUMPDEST CALLVALUE DUP1 ISZERO PUSH2 0xF4B JUMPI PUSH1 0x0 DUP1 REVERT JUMPDEST POP PUSH1 0x23 SLOAD PUSH2 0x861 SWAP1 PUSH1 0x1 PUSH1 0x1 PUSH1 0xA0 SHL SUB AND DUP2 JUMP JUMPDEST CALLVALUE DUP1 ISZERO PUSH2 0xF6B JUMPI PUSH1 0x0 DUP1 REVERT JUMPDEST POP PUSH2 0x861 PUSH2 0x291D JUMP JUMPDEST CALLVALUE DUP1 ISZERO PUSH2 0xF80 JUMPI PUSH1 0x0 DUP1 REVERT JUMPDEST POP PUSH2 0x7B0 PUSH2 0xF8F CALLDATASIZE PUSH1 0x4 PUSH2 0x5100 JUMP JUMPDEST PUSH2 0x2931 JUMP JUMPDEST CALLVALUE DUP1 ISZERO PUSH2 0xFA0 JUMPI PUSH1 0x0 DUP1 REVERT JUMPDEST POP PUSH2 0x6D3 PUSH2 0xFAF CALLDATASIZE PUSH1 0x4 PUSH2 0x52F3 JUMP JUMPDEST PUSH2 0x2966 JUMP JUMPDEST CALLVALUE DUP1 ISZERO PUSH2 0xFC0 JUMPI PUSH1 0x0 DUP1 REVERT JUMPDEST POP PUSH2 0x763 PUSH2 0x2991 JUMP JUMPDEST CALLVALUE DUP1 ISZERO PUSH2 0xFD5 JUMPI PUSH1 0x0 DUP1 REVERT JUMPDEST POP PUSH2 0x763 PUSH2 0x299E JUMP JUMPDEST CALLVALUE DUP1 ISZERO PUSH2 0xFEA JUMPI PUSH1 0x0 DUP1 REVERT JUMPDEST POP PUSH1 0x1A SLOAD PUSH2 0x6D3 SWAP1 PUSH3 0x10000 SWAP1 DIV PUSH1 0xFF AND DUP2 JUMP JUMPDEST CALLVALUE DUP1 ISZERO PUSH2 0x100A JUMPI PUSH1 0x0 DUP1 REVERT JUMPDEST POP PUSH2 0x7B0 PUSH2 0x1019 CALLDATASIZE PUSH1 0x4 PUSH2 0x50AA JUMP JUMPDEST PUSH2 0x29AD JUMP JUMPDEST PUSH2 0x7B0 PUSH2 0x102C CALLDATASIZE PUSH1 0x4 PUSH2 0x5136 JUMP JUMPDEST PUSH2 0x29D1 JUMP JUMPDEST CALLVALUE DUP1 ISZERO PUSH2 0x103D JUMPI PUSH1 0x0 DUP1 REVERT JUMPDEST POP PUSH2 0x740 PUSH1 0x0 DUP2 JUMP JUMPDEST CALLVALUE DUP1 ISZERO PUSH2 0x1052 JUMPI PUSH1 0x0 DUP1 REVERT JUMPDEST POP PUSH2 0x7B0 PUSH2 0x1061 CALLDATASIZE PUSH1 0x4 PUSH2 0x54A5 JUMP JUMPDEST PUSH2 0x2A8B JUMP JUMPDEST CALLVALUE DUP1 ISZERO PUSH2 0x1072 JUMPI PUSH1 0x0 DUP1 REVERT JUMPDEST POP PUSH2 0x7B0 PUSH2 0x1081 CALLDATASIZE PUSH1 0x4 PUSH2 0x511D JUMP JUMPDEST CALLER PUSH1 0x0 SWAP1 DUP2 MSTORE PUSH1 0x11 PUSH1 0x20 MSTORE PUSH1 0x40 SWAP1 KECCAK256 SSTORE JUMP JUMPDEST CALLVALUE DUP1 ISZERO PUSH2 0x109F JUMPI PUSH1 0x0 DUP1 REVERT JUMPDEST POP PUSH2 0x740 PUSH1 0x1B SLOAD DUP2 JUMP JUMPDEST CALLVALUE DUP1 ISZERO PUSH2 0x10B5 JUMPI PUSH1 0x0 DUP1 REVERT JUMPDEST POP PUSH2 0x7B0 PUSH2 0x10C4 CALLDATASIZE PUSH1 0x4 PUSH2 0x511D JUMP JUMPDEST PUSH2 0x2AFB JUMP JUMPDEST CALLVALUE DUP1 ISZERO PUSH2 0x10D5 JUMPI PUSH1 0x0 DUP1 REVERT JUMPDEST POP PUSH2 0x763 PUSH2 0x2B19 JUMP JUMPDEST CALLVALUE DUP1 ISZERO PUSH2 0x10EA JUMPI PUSH1 0x0 DUP1 REVERT JUMPDEST POP PUSH1 0x0 SLOAD PUSH2 0x861 SWAP1 PUSH1 0x1 PUSH1 0x1 PUSH1 0xA0 SHL SUB AND DUP2 JUMP JUMPDEST CALLVALUE DUP1 ISZERO PUSH2 0x110A JUMPI PUSH1 0x0 DUP1 REVERT JUMPDEST POP PUSH2 0x740 PUSH2 0x1119 CALLDATASIZE PUSH1 0x4 PUSH2 0x511D JUMP JUMPDEST PUSH1 0x10 PUSH1 0x20 MSTORE PUSH1 0x0 SWAP1 DUP2 MSTORE PUSH1 0x40 SWAP1 KECCAK256 SLOAD DUP2 JUMP JUMPDEST CALLVALUE DUP1 ISZERO PUSH2 0x1137 JUMPI PUSH1 0x0 DUP1 REVERT JUMPDEST POP PUSH2 0x763 PUSH2 0x2B26 JUMP JUMPDEST CALLVALUE DUP1 ISZERO PUSH2 0x114C JUMPI PUSH1 0x0 DUP1 REVERT JUMPDEST POP PUSH2 0x7B0 PUSH2 0x115B CALLDATASIZE PUSH1 0x4 PUSH2 0x511D JUMP JUMPDEST PUSH2 0x2B33 JUMP JUMPDEST CALLVALUE DUP1 ISZERO PUSH2 0x116C JUMPI PUSH1 0x0 DUP1 REVERT JUMPDEST POP PUSH2 0x7B0 PUSH2 0x117B CALLDATASIZE PUSH1 0x4 PUSH2 0x54D1 JUMP JUMPDEST PUSH2 0x2B51 JUMP JUMPDEST CALLVALUE DUP1 ISZERO PUSH2 0x118C JUMPI PUSH1 0x0 DUP1 REVERT JUMPDEST POP PUSH2 0x7B0 PUSH2 0x119B CALLDATASIZE PUSH1 0x4 PUSH2 0x4FA1 JUMP JUMPDEST PUSH2 0x2B77 JUMP JUMPDEST CALLVALUE DUP1 ISZERO PUSH2 0x11AC JUMPI PUSH1 0x0 DUP1 REVERT JUMPDEST POP PUSH1 0x23 SLOAD PUSH2 0x6D3 SWAP1 PUSH1 0x1 PUSH1 0xA0 SHL SWAP1 DIV PUSH1 0xFF AND DUP2 JUMP JUMPDEST CALLVALUE DUP1 ISZERO PUSH2 0x11CD JUMPI PUSH1 0x0 DUP1 REVERT JUMPDEST POP PUSH2 0x740 PUSH1 0x18 SLOAD DUP2 JUMP JUMPDEST CALLVALUE DUP1 ISZERO PUSH2 0x11E3 JUMPI PUSH1 0x0 DUP1 REVERT JUMPDEST POP PUSH2 0x7B0 PUSH2 0x11F2 CALLDATASIZE PUSH1 0x4 PUSH2 0x5100 JUMP JUMPDEST PUSH2 0x2C2F JUMP JUMPDEST CALLVALUE DUP1 ISZERO PUSH2 0x1203 JUMPI PUSH1 0x0 DUP1 REVERT JUMPDEST POP PUSH2 0x7B0 PUSH2 0x1212 CALLDATASIZE PUSH1 0x4 PUSH2 0x50AA JUMP JUMPDEST PUSH2 0x2C5B JUMP JUMPDEST CALLVALUE DUP1 ISZERO PUSH2 0x1223 JUMPI PUSH1 0x0 DUP1 REVERT JUMPDEST POP PUSH2 0x763 PUSH2 0x2C7F JUMP JUMPDEST CALLVALUE DUP1 ISZERO PUSH2 0x1238 JUMPI PUSH1 0x0 DUP1 REVERT JUMPDEST POP PUSH2 0x740 PUSH1 0x1D SLOAD DUP2 JUMP JUMPDEST CALLVALUE DUP1 ISZERO PUSH2 0x124E JUMPI PUSH1 0x0 DUP1 REVERT JUMPDEST POP PUSH2 0x763 PUSH2 0x125D CALLDATASIZE PUSH1 0x4 PUSH2 0x511D JUMP JUMPDEST PUSH2 0x2C8C JUMP JUMPDEST CALLVALUE DUP1 ISZERO PUSH2 0x126E JUMPI PUSH1 0x0 DUP1 REVERT JUMPDEST POP PUSH2 0x740 PUSH2 0x127D CALLDATASIZE PUSH1 0x4 PUSH2 0x4FA1 JUMP JUMPDEST PUSH1 0x1D SLOAD PUSH1 0x0 SWAP1 DUP2 MSTORE PUSH1 0x1F PUSH1 0x20 SWAP1 DUP2 MSTORE PUSH1 0x40 DUP1 DUP4 KECCAK256 PUSH1 0x1 PUSH1 0x1 PUSH1 0xA0 SHL SUB SWAP1 SWAP5 AND DUP4 MSTORE SWAP3 SWAP1 MSTORE KECCAK256 SLOAD SWAP1 JUMP JUMPDEST CALLVALUE DUP1 ISZERO PUSH2 0x12B2 JUMPI PUSH1 0x0 DUP1 REVERT JUMPDEST POP PUSH2 0x740 PUSH32 0x9F2DF0FED2C77648DE5860A4CC508CD0818C85B8B8A1AB4CEEEF8D981C8956A6 DUP2 JUMP JUMPDEST CALLVALUE DUP1 ISZERO PUSH2 0x12E6 JUMPI PUSH1 0x0 DUP1 REVERT JUMPDEST POP PUSH2 0x7B0 PUSH2 0x12F5 CALLDATASIZE PUSH1 0x4 PUSH2 0x52F3 JUMP JUMPDEST PUSH2 0x2DEB JUMP JUMPDEST CALLVALUE DUP1 ISZERO PUSH2 0x1306 JUMPI PUSH1 0x0 DUP1 REVERT JUMPDEST POP PUSH2 0x740 PUSH1 0x17 SLOAD DUP2 JUMP JUMPDEST CALLVALUE DUP1 ISZERO PUSH2 0x131C JUMPI PUSH1 0x0 DUP1 REVERT JUMPDEST POP PUSH1 0x23 SLOAD PUSH2 0x6D3 SWAP1 PUSH1 0x1 PUSH1 0xA8 SHL SWAP1 DIV PUSH1 0xFF AND DUP2 JUMP JUMPDEST CALLVALUE DUP1 ISZERO PUSH2 0x133D JUMPI PUSH1 0x0 DUP1 REVERT JUMPDEST POP PUSH2 0x7B0 PUSH2 0x134C CALLDATASIZE PUSH1 0x4 PUSH2 0x511D JUMP JUMPDEST PUSH2 0x2E10 JUMP JUMPDEST CALLVALUE DUP1 ISZERO PUSH2 0x135D JUMPI PUSH1 0x0 DUP1 REVERT JUMPDEST POP PUSH1 0x20 SLOAD PUSH2 0x6D3 SWAP1 PUSH1 0xFF AND DUP2 JUMP JUMPDEST CALLVALUE DUP1 ISZERO PUSH2 0x1377 JUMPI PUSH1 0x0 DUP1 REVERT JUMPDEST POP PUSH2 0x7B0 PUSH2 0x1386 CALLDATASIZE PUSH1 0x4 PUSH2 0x50AA JUMP JUMPDEST PUSH2 0x2E2E JUMP JUMPDEST CALLVALUE DUP1 ISZERO PUSH2 0x1397 JUMPI PUSH1 0x0 DUP1 REVERT JUMPDEST POP PUSH2 0x7B0 PUSH2 0x13A6 CALLDATASIZE PUSH1 0x4 PUSH2 0x50AA JUMP JUMPDEST PUSH2 0x2E52 JUMP JUMPDEST CALLVALUE DUP1 ISZERO PUSH2 0x13B7 JUMPI PUSH1 0x0 DUP1 REVERT JUMPDEST POP PUSH2 0x7B0 PUSH2 0x13C6 CALLDATASIZE PUSH1 0x4 PUSH2 0x5100 JUMP JUMPDEST PUSH2 0x2E76 JUMP JUMPDEST CALLVALUE DUP1 ISZERO PUSH2 0x13D7 JUMPI PUSH1 0x0 DUP1 REVERT JUMPDEST POP PUSH2 0x6D3 PUSH2 0x13E6 CALLDATASIZE PUSH1 0x4 PUSH2 0x554C JUMP JUMPDEST PUSH2 0x2EAD JUMP JUMPDEST CALLVALUE DUP1 ISZERO PUSH2 0x13F7 JUMPI PUSH1 0x0 DUP1 REVERT JUMPDEST POP PUSH1 0x0 SLOAD PUSH2 0x6D3 SWAP1 PUSH1 0x1 PUSH1 0xA0 SHL SWAP1 DIV PUSH1 0xFF AND DUP2 JUMP JUMPDEST CALLVALUE DUP1 ISZERO PUSH2 0x1418 JUMPI PUSH1 0x0 DUP1 REVERT JUMPDEST POP PUSH2 0x7B0 PUSH2 0x1427 CALLDATASIZE PUSH1 0x4 PUSH2 0x5100 JUMP JUMPDEST PUSH2 0x2EFB JUMP JUMPDEST CALLVALUE DUP1 ISZERO PUSH2 0x1438 JUMPI PUSH1 0x0 DUP1 REVERT JUMPDEST POP PUSH2 0x7B0 PUSH2 0x1447 CALLDATASIZE PUSH1 0x4 PUSH2 0x4FA1 JUMP JUMPDEST PUSH2 0x2F32 JUMP JUMPDEST CALLVALUE DUP1 ISZERO PUSH2 0x1458 JUMPI PUSH1 0x0 DUP1 REVERT JUMPDEST POP PUSH2 0x740 PUSH2 0x1467 CALLDATASIZE PUSH1 0x4 PUSH2 0x52F3 JUMP JUMPDEST PUSH1 0x1E PUSH1 0x20 SWAP1 DUP2 MSTORE PUSH1 0x0 SWAP3 DUP4 MSTORE PUSH1 0x40 DUP1 DUP5 KECCAK256 SWAP1 SWAP2 MSTORE SWAP1 DUP3 MSTORE SWAP1 KECCAK256 SLOAD DUP2 JUMP JUMPDEST CALLVALUE DUP1 ISZERO PUSH2 0x1490 JUMPI PUSH1 0x0 DUP1 REVERT JUMPDEST POP PUSH2 0x7B0 PUSH2 0x149F CALLDATASIZE PUSH1 0x4 PUSH2 0x4FA1 JUMP JUMPDEST PUSH2 0x2FA8 JUMP JUMPDEST CALLVALUE DUP1 ISZERO PUSH2 0x14B0 JUMPI PUSH1 0x0 DUP1 REVERT JUMPDEST POP PUSH2 0x7B0 PUSH2 0x14BF CALLDATASIZE PUSH1 0x4 PUSH2 0x5100 JUMP JUMPDEST PUSH2 0x2FE9 JUMP JUMPDEST CALLVALUE DUP1 ISZERO PUSH2 0x14D0 JUMPI PUSH1 0x0 DUP1 REVERT JUMPDEST POP PUSH2 0x7B0 PUSH2 0x14DF CALLDATASIZE PUSH1 0x4 PUSH2 0x4FA1 JUMP JUMPDEST PUSH2 0x3015 JUMP JUMPDEST PUSH1 0x60 PUSH2 0x14EE PUSH2 0x3265 JUMP JUMPDEST SWAP1 POP SWAP1 JUMP JUMPDEST PUSH1 0x0 PUSH1 0x1 PUSH2 0x1500 PUSH1 0x8 SLOAD SWAP1 JUMP JUMPDEST PUSH2 0x14EE SWAP2 SWAP1 PUSH2 0x558C JUMP JUMPDEST PUSH1 0x27 DUP1 SLOAD PUSH2 0x1517 SWAP1 PUSH2 0x559F JUMP JUMPDEST DUP1 PUSH1 0x1F ADD PUSH1 0x20 DUP1 SWAP2 DIV MUL PUSH1 0x20 ADD PUSH1 0x40 MLOAD SWAP1 DUP2 ADD PUSH1 0x40 MSTORE DUP1 SWAP3 SWAP2 SWAP1 DUP2 DUP2 MSTORE PUSH1 0x20 ADD DUP3 DUP1 SLOAD PUSH2 0x1543 SWAP1 PUSH2 0x559F JUMP JUMPDEST DUP1 ISZERO PUSH2 0x1590 JUMPI DUP1 PUSH1 0x1F LT PUSH2 0x1565 JUMPI PUSH2 0x100 DUP1 DUP4 SLOAD DIV MUL DUP4 MSTORE SWAP2 PUSH1 0x20 ADD SWAP2 PUSH2 0x1590 JUMP JUMPDEST DUP3 ADD SWAP2 SWAP1 PUSH1 0x0 MSTORE PUSH1 0x20 PUSH1 0x0 KECCAK256 SWAP1 JUMPDEST DUP2 SLOAD DUP2 MSTORE SWAP1 PUSH1 0x1 ADD SWAP1 PUSH1 0x20 ADD DUP1 DUP4 GT PUSH2 0x1573 JUMPI DUP3 SWAP1 SUB PUSH1 0x1F AND DUP3 ADD SWAP2 JUMPDEST POP POP POP POP POP DUP2 JUMP JUMPDEST PUSH1 0x0 PUSH2 0x15A3 DUP3 PUSH2 0x3271 JUMP JUMPDEST DUP1 PUSH2 0x15B2 JUMPI POP PUSH2 0x15B2 DUP3 PUSH2 0x32A6 JUMP JUMPDEST DUP1 PUSH2 0x15C1 JUMPI POP PUSH2 0x15C1 DUP3 PUSH2 0x32C7 JUMP JUMPDEST SWAP3 SWAP2 POP POP JUMP JUMPDEST PUSH1 0x0 DUP1 MLOAD PUSH1 0x20 PUSH2 0x5C92 DUP4 CODECOPY DUP2 MLOAD SWAP2 MSTORE PUSH2 0x15DF DUP2 PUSH2 0x32EC JUMP JUMPDEST PUSH1 0xC DUP1 SLOAD PUSH1 0x1 PUSH1 0x1 PUSH1 0xA0 SHL SUB NOT AND PUSH1 0x1 PUSH1 0x1 PUSH1 0xA0 SHL SUB DUP5 AND OR SWAP1 SSTORE POP POP JUMP JUMPDEST POP POP JUMP JUMPDEST PUSH2 0x160A PUSH2 0x32F6 JUMP JUMPDEST PUSH2 0x15FE DUP3 DUP3 PUSH2 0x3355 JUMP JUMPDEST PUSH1 0x0 DUP1 MLOAD PUSH1 0x20 PUSH2 0x5C92 DUP4 CODECOPY DUP2 MLOAD SWAP2 MSTORE PUSH2 0x162C DUP2 PUSH2 0x32EC JUMP JUMPDEST PUSH1 0x24 PUSH2 0x1638 DUP4 DUP3 PUSH2 0x561F JUMP JUMPDEST POP POP POP JUMP JUMPDEST PUSH1 0x60 PUSH1 0x5 DUP1 SLOAD PUSH2 0x164C SWAP1 PUSH2 0x559F JUMP JUMPDEST DUP1 PUSH1 0x1F ADD PUSH1 0x20 DUP1 SWAP2 DIV MUL PUSH1 0x20 ADD PUSH1 0x40 MLOAD SWAP1 DUP2 ADD PUSH1 0x40 MSTORE DUP1 SWAP3 SWAP2 SWAP1 DUP2 DUP2 MSTORE PUSH1 0x20 ADD DUP3 DUP1 SLOAD PUSH2 0x1678 SWAP1 PUSH2 0x559F JUMP JUMPDEST DUP1 ISZERO PUSH2 0x16C5 JUMPI DUP1 PUSH1 0x1F LT PUSH2 0x169A JUMPI PUSH2 0x100 DUP1 DUP4 SLOAD DIV MUL DUP4 MSTORE SWAP2 PUSH1 0x20 ADD SWAP2 PUSH2 0x16C5 JUMP JUMPDEST DUP3 ADD SWAP2 SWAP1 PUSH1 0x0 MSTORE PUSH1 0x20 PUSH1 0x0 KECCAK256 SWAP1 JUMPDEST DUP2 SLOAD DUP2 MSTORE SWAP1 PUSH1 0x1 ADD SWAP1 PUSH1 0x20 ADD DUP1 DUP4 GT PUSH2 0x16A8 JUMPI DUP3 SWAP1 SUB PUSH1 0x1F AND DUP3 ADD SWAP2 JUMPDEST POP POP POP POP POP SWAP1 POP SWAP1 JUMP JUMPDEST PUSH1 0x0 DUP1 MLOAD PUSH1 0x20 PUSH2 0x5C92 DUP4 CODECOPY DUP2 MLOAD SWAP2 MSTORE PUSH2 0x16E7 DUP2 PUSH2 0x32EC JUMP JUMPDEST POP PUSH1 0xF DUP1 SLOAD PUSH1 0xFF NOT AND SWAP2 ISZERO ISZERO SWAP2 SWAP1 SWAP2 OR SWAP1 SSTORE JUMP JUMPDEST PUSH1 0x0 PUSH2 0x1706 DUP3 PUSH2 0x3452 JUMP JUMPDEST PUSH2 0x176F JUMPI PUSH1 0x40 MLOAD PUSH3 0x461BCD PUSH1 0xE5 SHL DUP2 MSTORE PUSH1 0x20 PUSH1 0x4 DUP3 ADD MSTORE PUSH1 0x2F PUSH1 0x24 DUP3 ADD MSTORE PUSH32 0x4552433732315073693A20617070726F76656420717565727920666F72206E6F PUSH1 0x44 DUP3 ADD MSTORE PUSH15 0x3732BC34B9BA32B73A103A37B5B2B7 PUSH1 0x89 SHL PUSH1 0x64 DUP3 ADD MSTORE PUSH1 0x84 ADD JUMPDEST PUSH1 0x40 MLOAD DUP1 SWAP2 SUB SWAP1 REVERT JUMPDEST POP PUSH1 0x0 SWAP1 DUP2 MSTORE PUSH1 0x9 PUSH1 0x20 MSTORE PUSH1 0x40 SWAP1 KECCAK256 SLOAD PUSH1 0x1 PUSH1 0x1 PUSH1 0xA0 SHL SUB AND SWAP1 JUMP JUMPDEST DUP2 PUSH2 0x1795 DUP2 PUSH2 0x3487 JUMP JUMPDEST PUSH1 0x2A SLOAD PUSH1 0xFF AND ISZERO PUSH2 0x17E0 JUMPI PUSH1 0x40 MLOAD PUSH3 0x461BCD PUSH1 0xE5 SHL DUP2 MSTORE PUSH1 0x20 PUSH1 0x4 DUP3 ADD MSTORE PUSH1 0x15 PUSH1 0x24 DUP3 ADD MSTORE PUSH21 0x185C1C1C9BDD99481A5CC81C1C9BDA1A589A5D1959 PUSH1 0x5A SHL PUSH1 0x44 DUP3 ADD MSTORE PUSH1 0x64 ADD PUSH2 0x1766 JUMP JUMPDEST PUSH2 0x1638 DUP4 DUP4 PUSH2 0x3549 JUMP JUMPDEST PUSH1 0x0 DUP1 MLOAD PUSH1 0x20 PUSH2 0x5C92 DUP4 CODECOPY DUP2 MLOAD SWAP2 MSTORE PUSH2 0x1802 DUP2 PUSH2 0x32EC JUMP JUMPDEST POP PUSH1 0x12 SSTORE JUMP JUMPDEST PUSH1 0x24 DUP1 SLOAD PUSH2 0x1517 SWAP1 PUSH2 0x559F JUMP JUMPDEST PUSH1 0x0 DUP1 MLOAD PUSH1 0x20 PUSH2 0x5C92 DUP4 CODECOPY DUP2 MLOAD SWAP2 MSTORE PUSH2 0x182D DUP2 PUSH2 0x32EC JUMP JUMPDEST POP PUSH1 0x1A DUP1 SLOAD SWAP2 ISZERO ISZERO PUSH2 0x100 MUL PUSH2 0xFF00 NOT SWAP1 SWAP3 AND SWAP2 SWAP1 SWAP2 OR SWAP1 SSTORE JUMP JUMPDEST PUSH1 0x0 PUSH2 0x1852 PUSH2 0x355D JUMP JUMPDEST PUSH2 0x1500 PUSH2 0x35BF JUMP JUMPDEST DUP3 PUSH1 0x1 PUSH1 0x1 PUSH1 0xA0 SHL SUB DUP2 AND CALLER EQ PUSH2 0x1874 JUMPI PUSH2 0x1874 CALLER PUSH2 0x3487 JUMP JUMPDEST PUSH2 0x187F DUP5 DUP5 DUP5 PUSH2 0x35CF JUMP JUMPDEST POP POP POP POP JUMP JUMPDEST PUSH1 0x0 DUP1 MLOAD PUSH1 0x20 PUSH2 0x5C92 DUP4 CODECOPY DUP2 MLOAD SWAP2 MSTORE PUSH2 0x189D DUP2 PUSH2 0x32EC JUMP JUMPDEST POP PUSH1 0x23 DUP1 SLOAD PUSH1 0x1 PUSH1 0x1 PUSH1 0xA0 SHL SUB NOT AND PUSH1 0x1 PUSH1 0x1 PUSH1 0xA0 SHL SUB SWAP3 SWAP1 SWAP3 AND SWAP2 SWAP1 SWAP2 OR SWAP1 SSTORE JUMP JUMPDEST PUSH2 0x18EA PUSH32 0x3A2F235C9DAAF33349D300AADFF2F15078A89DF81BCFDD45BA11C8F816BDDC6F CALLER PUSH2 0x2966 JUMP JUMPDEST PUSH2 0x1936 JUMPI PUSH1 0x40 MLOAD PUSH3 0x461BCD PUSH1 0xE5 SHL DUP2 MSTORE PUSH1 0x20 PUSH1 0x4 DUP3 ADD MSTORE PUSH1 0x1B PUSH1 0x24 DUP3 ADD MSTORE PUSH32 0x43616C6C6572206973206E6F742061206169722064726F707065720000000000 PUSH1 0x44 DUP3 ADD MSTORE PUSH1 0x64 ADD PUSH2 0x1766 JUMP JUMPDEST DUP1 MLOAD DUP3 EQ PUSH2 0x1986 JUMPI PUSH1 0x40 MLOAD PUSH3 0x461BCD PUSH1 0xE5 SHL DUP2 MSTORE PUSH1 0x20 PUSH1 0x4 DUP3 ADD MSTORE PUSH1 0x1B PUSH1 0x24 DUP3 ADD MSTORE PUSH32 0x4172726179206C656E677468732061726520646966666572656E740000000000 PUSH1 0x44 DUP3 ADD MSTORE PUSH1 0x64 ADD PUSH2 0x1766 JUMP JUMPDEST PUSH1 0x0 DUP1 JUMPDEST DUP3 MLOAD DUP2 LT ISZERO PUSH2 0x19CC JUMPI DUP3 DUP2 DUP2 MLOAD DUP2 LT PUSH2 0x19A5 JUMPI PUSH2 0x19A5 PUSH2 0x56DE JUMP JUMPDEST PUSH1 0x20 MUL PUSH1 0x20 ADD ADD MLOAD DUP3 PUSH2 0x19B8 SWAP2 SWAP1 PUSH2 0x56F4 JUMP JUMPDEST SWAP2 POP DUP1 PUSH2 0x19C4 DUP2 PUSH2 0x5707 JUMP JUMPDEST SWAP2 POP POP PUSH2 0x198A JUMP JUMPDEST POP DUP1 PUSH1 0x0 LT PUSH2 0x1A1D JUMPI PUSH1 0x40 MLOAD PUSH3 0x461BCD PUSH1 0xE5 SHL DUP2 MSTORE PUSH1 0x20 PUSH1 0x4 DUP3 ADD MSTORE PUSH1 0x1B PUSH1 0x24 DUP3 ADD MSTORE PUSH32 0x6E65656420746F206D696E74206174206C656173742031204E46540000000000 PUSH1 0x44 DUP3 ADD MSTORE PUSH1 0x64 ADD PUSH2 0x1766 JUMP JUMPDEST PUSH1 0x17 SLOAD DUP2 PUSH1 0x1 PUSH2 0x1A2C PUSH1 0x8 SLOAD SWAP1 JUMP JUMPDEST PUSH2 0x1A36 SWAP2 SWAP1 PUSH2 0x558C JUMP JUMPDEST PUSH2 0x1A40 SWAP2 SWAP1 PUSH2 0x56F4 JUMP JUMPDEST GT ISZERO PUSH2 0x1A5E JUMPI PUSH1 0x40 MLOAD PUSH3 0x461BCD PUSH1 0xE5 SHL DUP2 MSTORE PUSH1 0x4 ADD PUSH2 0x1766 SWAP1 PUSH2 0x5720 JUMP JUMPDEST PUSH1 0x0 JUMPDEST DUP3 MLOAD DUP2 LT ISZERO PUSH2 0x1AC5 JUMPI PUSH2 0x1AB3 DUP6 DUP6 DUP4 DUP2 DUP2 LT PUSH2 0x1A7F JUMPI PUSH2 0x1A7F PUSH2 0x56DE JUMP JUMPDEST SWAP1 POP PUSH1 0x20 MUL ADD PUSH1 0x20 DUP2 ADD SWAP1 PUSH2 0x1A94 SWAP2 SWAP1 PUSH2 0x4FA1 JUMP JUMPDEST DUP5 DUP4 DUP2 MLOAD DUP2 LT PUSH2 0x1AA6 JUMPI PUSH2 0x1AA6 PUSH2 0x56DE JUMP JUMPDEST PUSH1 0x20 MUL PUSH1 0x20 ADD ADD MLOAD PUSH2 0x3600 JUMP JUMPDEST DUP1 PUSH2 0x1ABD DUP2 PUSH2 0x5707 JUMP JUMPDEST SWAP2 POP POP PUSH2 0x1A61 JUMP JUMPDEST POP POP POP POP POP JUMP JUMPDEST PUSH1 0x0 DUP3 DUP2 MSTORE PUSH1 0x2 PUSH1 0x20 SWAP1 DUP2 MSTORE PUSH1 0x40 DUP1 DUP4 KECCAK256 DUP2 MLOAD DUP1 DUP4 ADD SWAP1 SWAP3 MSTORE SLOAD PUSH1 0x1 PUSH1 0x1 PUSH1 0xA0 SHL SUB DUP2 AND DUP1 DUP4 MSTORE PUSH1 0x1 PUSH1 0xA0 SHL SWAP1 SWAP2 DIV PUSH1 0x1 PUSH1 0x1 PUSH1 0x60 SHL SUB AND SWAP3 DUP3 ADD SWAP3 SWAP1 SWAP3 MSTORE DUP3 SWAP2 PUSH2 0x1B41 JUMPI POP PUSH1 0x40 DUP1 MLOAD DUP1 DUP3 ADD SWAP1 SWAP2 MSTORE PUSH1 0x1 SLOAD PUSH1 0x1 PUSH1 0x1 PUSH1 0xA0 SHL SUB DUP2 AND DUP3 MSTORE PUSH1 0x1 PUSH1 0xA0 SHL SWAP1 DIV PUSH1 0x1 PUSH1 0x1 PUSH1 0x60 SHL SUB AND PUSH1 0x20 DUP3 ADD MSTORE JUMPDEST PUSH1 0x20 DUP2 ADD MLOAD PUSH1 0x0 SWAP1 PUSH2 0x2710 SWAP1 PUSH2 0x1B60 SWAP1 PUSH1 0x1 PUSH1 0x1 PUSH1 0x60 SHL SUB AND DUP8 PUSH2 0x5750 JUMP JUMPDEST PUSH2 0x1B6A SWAP2 SWAP1 PUSH2 0x5767 JUMP JUMPDEST SWAP2 MLOAD SWAP4 POP SWAP1 SWAP2 POP POP JUMPDEST SWAP3 POP SWAP3 SWAP1 POP JUMP JUMPDEST PUSH1 0x0 DUP3 DUP2 MSTORE PUSH1 0x13 PUSH1 0x20 MSTORE PUSH1 0x40 SWAP1 KECCAK256 PUSH1 0x1 ADD SLOAD PUSH2 0x1B95 DUP2 PUSH2 0x32EC JUMP JUMPDEST PUSH2 0x1638 DUP4 DUP4 PUSH2 0x361A JUMP JUMPDEST PUSH1 0x1 PUSH1 0x1 PUSH1 0xA0 SHL SUB DUP2 AND CALLER EQ PUSH2 0x1C0F JUMPI PUSH1 0x40 MLOAD PUSH3 0x461BCD PUSH1 0xE5 SHL DUP2 MSTORE PUSH1 0x20 PUSH1 0x4 DUP3 ADD MSTORE PUSH1 0x2F PUSH1 0x24 DUP3 ADD MSTORE PUSH32 0x416363657373436F6E74726F6C3A2063616E206F6E6C792072656E6F756E6365 PUSH1 0x44 DUP3 ADD MSTORE PUSH15 0x103937B632B9903337B91039B2B633 PUSH1 0x89 SHL PUSH1 0x64 DUP3 ADD MSTORE PUSH1 0x84 ADD PUSH2 0x1766 JUMP JUMPDEST PUSH2 0x15FE DUP3 DUP3 PUSH2 0x36A0 JUMP JUMPDEST PUSH2 0x1C21 PUSH2 0x32F6 JUMP JUMPDEST PUSH1 0x15 DUP1 SLOAD PUSH1 0x1 PUSH1 0x1 PUSH1 0xA0 SHL SUB NOT AND PUSH1 0x1 PUSH1 0x1 PUSH1 0xA0 SHL SUB SWAP3 SWAP1 SWAP3 AND SWAP2 SWAP1 SWAP2 OR SWAP1 SSTORE JUMP JUMPDEST PUSH2 0x1C4B PUSH2 0x32F6 JUMP JUMPDEST PUSH1 0x15 SLOAD PUSH1 0x40 MLOAD PUSH1 0x0 SWAP2 PUSH1 0x1 PUSH1 0x1 PUSH1 0xA0 SHL SUB AND SWAP1 SELFBALANCE SWAP1 DUP4 DUP2 DUP2 DUP2 DUP6 DUP8 GAS CALL SWAP3 POP POP POP RETURNDATASIZE DUP1 PUSH1 0x0 DUP2 EQ PUSH2 0x1C98 JUMPI PUSH1 0x40 MLOAD SWAP2 POP PUSH1 0x1F NOT PUSH1 0x3F RETURNDATASIZE ADD AND DUP3 ADD PUSH1 0x40 MSTORE RETURNDATASIZE DUP3 MSTORE RETURNDATASIZE PUSH1 0x0 PUSH1 0x20 DUP5 ADD RETURNDATACOPY PUSH2 0x1C9D JUMP JUMPDEST PUSH1 0x60 SWAP2 POP JUMPDEST POP POP SWAP1 POP DUP1 PUSH2 0x1CAB JUMPI PUSH1 0x0 DUP1 REVERT JUMPDEST POP JUMP JUMPDEST DUP3 PUSH1 0x1 PUSH1 0x1 PUSH1 0xA0 SHL SUB DUP2 AND CALLER EQ PUSH2 0x1CC8 JUMPI PUSH2 0x1CC8 CALLER PUSH2 0x3487 JUMP JUMPDEST PUSH2 0x187F DUP5 DUP5 DUP5 PUSH2 0x3707 JUMP JUMPDEST PUSH1 0x0 DUP1 MLOAD PUSH1 0x20 PUSH2 0x5C92 DUP4 CODECOPY DUP2 MLOAD SWAP2 MSTORE PUSH2 0x1CEB DUP2 PUSH2 0x32EC JUMP JUMPDEST POP PUSH1 0x16 SSTORE JUMP JUMPDEST PUSH1 0x0 DUP1 MLOAD PUSH1 0x20 PUSH2 0x5C92 DUP4 CODECOPY DUP2 MLOAD SWAP2 MSTORE PUSH2 0x1D09 DUP2 PUSH2 0x32EC JUMP JUMPDEST POP PUSH1 0x28 DUP1 SLOAD PUSH1 0xFF NOT AND SWAP2 ISZERO ISZERO SWAP2 SWAP1 SWAP2 OR SWAP1 SSTORE JUMP JUMPDEST PUSH1 0x0 DUP1 MLOAD PUSH1 0x20 PUSH2 0x5C92 DUP4 CODECOPY DUP2 MLOAD SWAP2 MSTORE PUSH2 0x1D35 DUP2 PUSH2 0x32EC JUMP JUMPDEST POP PUSH1 0x20 DUP1 SLOAD PUSH1 0xFF NOT AND SWAP2 ISZERO ISZERO SWAP2 SWAP1 SWAP2 OR SWAP1 SSTORE JUMP JUMPDEST PUSH1 0x0 DUP1 MLOAD PUSH1 0x20 PUSH2 0x5C92 DUP4 CODECOPY DUP2 MLOAD SWAP2 MSTORE PUSH2 0x1D61 DUP2 PUSH2 0x32EC JUMP JUMPDEST DUP2 MLOAD DUP4 MLOAD EQ PUSH2 0x1D6F JUMPI PUSH1 0x0 DUP1 REVERT JUMPDEST PUSH1 0x0 JUMPDEST DUP4 MLOAD DUP2 LT ISZERO PUSH2 0x1AC5 JUMPI DUP3 DUP2 DUP2 MLOAD DUP2 LT PUSH2 0x1D8D JUMPI PUSH2 0x1D8D PUSH2 0x56DE JUMP JUMPDEST PUSH1 0x20 MUL PUSH1 0x20 ADD ADD MLOAD PUSH1 0x1F PUSH1 0x0 DUP8 DUP2 MSTORE PUSH1 0x20 ADD SWAP1 DUP2 MSTORE PUSH1 0x20 ADD PUSH1 0x0 KECCAK256 PUSH1 0x0 DUP7 DUP5 DUP2 MLOAD DUP2 LT PUSH2 0x1DBC JUMPI PUSH2 0x1DBC PUSH2 0x56DE JUMP JUMPDEST PUSH1 0x20 MUL PUSH1 0x20 ADD ADD MLOAD PUSH1 0x1 PUSH1 0x1 PUSH1 0xA0 SHL SUB AND PUSH1 0x1 PUSH1 0x1 PUSH1 0xA0 SHL SUB AND DUP2 MSTORE PUSH1 0x20 ADD SWAP1 DUP2 MSTORE PUSH1 0x20 ADD PUSH1 0x0 KECCAK256 DUP2 SWAP1 SSTORE POP DUP1 DUP1 PUSH2 0x1DF3 SWAP1 PUSH2 0x5707 JUMP JUMPDEST SWAP2 POP POP PUSH2 0x1D72 JUMP JUMPDEST PUSH1 0x0 DUP1 MLOAD PUSH1 0x20 PUSH2 0x5C92 DUP4 CODECOPY DUP2 MLOAD SWAP2 MSTORE PUSH2 0x1E13 DUP2 PUSH2 0x32EC JUMP JUMPDEST PUSH1 0x21 PUSH2 0x1638 DUP4 DUP3 PUSH2 0x561F JUMP JUMPDEST PUSH2 0x1E27 PUSH2 0x3722 JUMP JUMPDEST PUSH2 0x1E51 PUSH32 0x3C11D16CBAFFD01DF69CE1C404F6340EE057498F5F00246190EA54220576A848 CALLER PUSH2 0x2966 JUMP JUMPDEST PUSH2 0x1E96 JUMPI PUSH1 0x40 MLOAD PUSH3 0x461BCD PUSH1 0xE5 SHL DUP2 MSTORE PUSH1 0x20 PUSH1 0x4 DUP3 ADD MSTORE PUSH1 0x16 PUSH1 0x24 DUP3 ADD MSTORE PUSH22 0x21B0B63632B91034B9903737BA103090313AB93732B9 PUSH1 0x51 SHL PUSH1 0x44 DUP3 ADD MSTORE PUSH1 0x64 ADD PUSH2 0x1766 JUMP JUMPDEST PUSH1 0x0 JUMPDEST DUP2 MLOAD DUP2 LT ISZERO PUSH2 0x1F3A JUMPI PUSH1 0x0 DUP3 DUP3 DUP2 MLOAD DUP2 LT PUSH2 0x1EB6 JUMPI PUSH2 0x1EB6 PUSH2 0x56DE JUMP JUMPDEST PUSH1 0x20 MUL PUSH1 0x20 ADD ADD MLOAD SWAP1 POP PUSH2 0x1EC9 DUP2 PUSH2 0x200C JUMP JUMPDEST PUSH1 0x1 PUSH1 0x1 PUSH1 0xA0 SHL SUB AND ORIGIN PUSH1 0x1 PUSH1 0x1 PUSH1 0xA0 SHL SUB AND EQ PUSH2 0x1F1E JUMPI PUSH1 0x40 MLOAD PUSH3 0x461BCD PUSH1 0xE5 SHL DUP2 MSTORE PUSH1 0x20 PUSH1 0x4 DUP3 ADD MSTORE PUSH1 0x12 PUSH1 0x24 DUP3 ADD MSTORE PUSH18 0x13DDDB995C881A5CC8191A5999995C995B9D PUSH1 0x72 SHL PUSH1 0x44 DUP3 ADD MSTORE PUSH1 0x64 ADD PUSH2 0x1766 JUMP JUMPDEST PUSH2 0x1F27 DUP2 PUSH2 0x377B JUMP JUMPDEST POP DUP1 PUSH2 0x1F32 DUP2 PUSH2 0x5707 JUMP JUMPDEST SWAP2 POP POP PUSH2 0x1E99 JUMP JUMPDEST POP PUSH2 0x1CAB PUSH1 0x1 PUSH1 0x14 SSTORE JUMP JUMPDEST PUSH1 0x0 DUP1 MLOAD PUSH1 0x20 PUSH2 0x5C92 DUP4 CODECOPY DUP2 MLOAD SWAP2 MSTORE PUSH2 0x1F5D DUP2 PUSH2 0x32EC JUMP JUMPDEST PUSH1 0x26 PUSH2 0x1638 DUP4 DUP3 PUSH2 0x561F JUMP JUMPDEST PUSH2 0x1F71 PUSH2 0x291D JUMP JUMPDEST PUSH1 0x1 PUSH1 0x1 PUSH1 0xA0 SHL SUB AND CALLER PUSH1 0x1 PUSH1 0x1 PUSH1 0xA0 SHL SUB AND EQ PUSH2 0x1FA2 JUMPI PUSH1 0x40 MLOAD PUSH4 0x5FC483C5 PUSH1 0xE0 SHL DUP2 MSTORE PUSH1 0x4 ADD PUSH1 0x40 MLOAD DUP1 SWAP2 SUB SWAP1 REVERT JUMPDEST PUSH1 0x0 SLOAD PUSH1 0x1 PUSH1 0xA0 SHL SWAP1 DIV PUSH1 0xFF AND ISZERO PUSH2 0x1FCD JUMPI PUSH1 0x40 MLOAD PUSH4 0x1551A48F PUSH1 0xE1 SHL DUP2 MSTORE PUSH1 0x4 ADD PUSH1 0x40 MLOAD DUP1 SWAP2 SUB SWAP1 REVERT JUMPDEST PUSH1 0x0 DUP1 SLOAD PUSH1 0x1 PUSH1 0x1 PUSH1 0xA8 SHL SUB NOT AND PUSH1 0x1 PUSH1 0xA0 SHL OR DUP2 SSTORE PUSH1 0x40 MLOAD PUSH32 0x51E2D870CC2E10853E38DC06FCDAE46AD3C3F588F326608803DAC6204541AD16 SWAP2 SWAP1 LOG1 JUMP JUMPDEST PUSH1 0x0 DUP1 PUSH2 0x2018 DUP4 PUSH2 0x37E7 JUMP JUMPDEST POP SWAP4 SWAP3 POP POP POP JUMP JUMPDEST ORIGIN CALLER EQ PUSH2 0x206F JUMPI PUSH1 0x40 MLOAD PUSH3 0x461BCD PUSH1 0xE5 SHL DUP2 MSTORE PUSH1 0x20 PUSH1 0x4 DUP3 ADD MSTORE PUSH1 0x1F PUSH1 0x24 DUP3 ADD MSTORE PUSH32 0x5468652063616C6C657220697320616E6F7468657220636F6E74726163742E00 PUSH1 0x44 DUP3 ADD MSTORE PUSH1 0x64 ADD PUSH2 0x1766 JUMP JUMPDEST PUSH1 0x1A SLOAD PUSH1 0xFF AND ISZERO PUSH2 0x20BB JUMPI PUSH1 0x40 MLOAD PUSH3 0x461BCD PUSH1 0xE5 SHL DUP2 MSTORE PUSH1 0x20 PUSH1 0x4 DUP3 ADD MSTORE PUSH1 0x16 PUSH1 0x24 DUP3 ADD MSTORE PUSH22 0x1D1A194818DBDB9D1C9858DD081A5CC81C185D5CD959 PUSH1 0x52 SHL PUSH1 0x44 DUP3 ADD MSTORE PUSH1 0x64 ADD PUSH2 0x1766 JUMP JUMPDEST DUP5 PUSH1 0x0 LT PUSH2 0x210B JUMPI PUSH1 0x40 MLOAD PUSH3 0x461BCD PUSH1 0xE5 SHL DUP2 MSTORE PUSH1 0x20 PUSH1 0x4 DUP3 ADD MSTORE PUSH1 0x1B PUSH1 0x24 DUP3 ADD MSTORE PUSH32 0x6E65656420746F206D696E74206174206C656173742031204E46540000000000 PUSH1 0x44 DUP3 ADD MSTORE PUSH1 0x64 ADD PUSH2 0x1766 JUMP JUMPDEST PUSH1 0x18 SLOAD DUP6 GT ISZERO PUSH2 0x2169 JUMPI PUSH1 0x40 MLOAD PUSH3 0x461BCD PUSH1 0xE5 SHL DUP2 MSTORE PUSH1 0x20 PUSH1 0x4 DUP3 ADD MSTORE PUSH1 0x24 DUP1 DUP3 ADD MSTORE PUSH32 0x6D6178206D696E7420616D6F756E74207065722073657373696F6E2065786365 PUSH1 0x44 DUP3 ADD MSTORE PUSH4 0x19591959 PUSH1 0xE2 SHL PUSH1 0x64 DUP3 ADD MSTORE PUSH1 0x84 ADD PUSH2 0x1766 JUMP JUMPDEST PUSH1 0x17 SLOAD DUP6 PUSH1 0x1 PUSH2 0x2178 PUSH1 0x8 SLOAD SWAP1 JUMP JUMPDEST PUSH2 0x2182 SWAP2 SWAP1 PUSH2 0x558C JUMP JUMPDEST PUSH2 0x218C SWAP2 SWAP1 PUSH2 0x56F4 JUMP JUMPDEST GT ISZERO PUSH2 0x21AA JUMPI PUSH1 0x40 MLOAD PUSH3 0x461BCD PUSH1 0xE5 SHL DUP2 MSTORE PUSH1 0x4 ADD PUSH2 0x1766 SWAP1 PUSH2 0x5720 JUMP JUMPDEST CALLVALUE DUP6 PUSH1 0x16 SLOAD PUSH2 0x21B9 SWAP2 SWAP1 PUSH2 0x5750 JUMP JUMPDEST GT ISZERO PUSH2 0x21FC JUMPI PUSH1 0x40 MLOAD PUSH3 0x461BCD PUSH1 0xE5 SHL DUP2 MSTORE PUSH1 0x20 PUSH1 0x4 DUP3 ADD MSTORE PUSH1 0x12 PUSH1 0x24 DUP3 ADD MSTORE PUSH18 0x696E73756666696369656E742066756E6473 PUSH1 0x70 SHL PUSH1 0x44 DUP3 ADD MSTORE PUSH1 0x64 ADD PUSH2 0x1766 JUMP JUMPDEST PUSH1 0x1A SLOAD PUSH1 0x0 SWAP1 PUSH2 0x100 SWAP1 DIV PUSH1 0xFF AND ISZERO ISZERO PUSH1 0x1 SUB PUSH2 0x2380 JUMPI PUSH1 0x1B SLOAD PUSH1 0x0 SUB PUSH2 0x22ED JUMPI PUSH1 0x40 MLOAD PUSH12 0xFFFFFFFFFFFFFFFFFFFFFFFF NOT CALLER PUSH1 0x60 SHL AND PUSH1 0x20 DUP3 ADD MSTORE PUSH1 0x34 DUP2 ADD DUP7 SWAP1 MSTORE PUSH1 0x0 SWAP1 PUSH1 0x54 ADD PUSH1 0x40 MLOAD PUSH1 0x20 DUP2 DUP4 SUB SUB DUP2 MSTORE SWAP1 PUSH1 0x40 MSTORE DUP1 MLOAD SWAP1 PUSH1 0x20 ADD KECCAK256 SWAP1 POP PUSH2 0x229E DUP6 DUP6 DUP1 DUP1 PUSH1 0x20 MUL PUSH1 0x20 ADD PUSH1 0x40 MLOAD SWAP1 DUP2 ADD PUSH1 0x40 MSTORE DUP1 SWAP4 SWAP3 SWAP2 SWAP1 DUP2 DUP2 MSTORE PUSH1 0x20 ADD DUP4 DUP4 PUSH1 0x20 MUL DUP1 DUP3 DUP5 CALLDATACOPY PUSH1 0x0 SWAP3 ADD SWAP2 SWAP1 SWAP2 MSTORE POP POP PUSH1 0x1C SLOAD SWAP2 POP DUP5 SWAP1 POP PUSH2 0x387E JUMP JUMPDEST PUSH2 0x22E4 JUMPI PUSH1 0x40 MLOAD PUSH3 0x461BCD PUSH1 0xE5 SHL DUP2 MSTORE PUSH1 0x20 PUSH1 0x4 DUP3 ADD MSTORE PUSH1 0x17 PUSH1 0x24 DUP3 ADD MSTORE PUSH23 0x1D5CD95C881A5CC81B9BDD08185B1B1BDDDB1A5CDD1959 PUSH1 0x4A SHL PUSH1 0x44 DUP3 ADD MSTORE PUSH1 0x64 ADD PUSH2 0x1766 JUMP JUMPDEST DUP6 SWAP2 POP POP PUSH2 0x2385 JUMP JUMPDEST PUSH1 0x1B SLOAD PUSH1 0x1 SUB PUSH2 0x237B JUMPI PUSH1 0x1D SLOAD PUSH1 0x0 SWAP1 DUP2 MSTORE PUSH1 0x1F PUSH1 0x20 SWAP1 DUP2 MSTORE PUSH1 0x40 DUP1 DUP4 KECCAK256 CALLER DUP5 MSTORE SWAP1 SWAP2 MSTORE DUP2 KECCAK256 SLOAD SWAP1 SUB PUSH2 0x235C JUMPI PUSH1 0x40 MLOAD PUSH3 0x461BCD PUSH1 0xE5 SHL DUP2 MSTORE PUSH1 0x20 PUSH1 0x4 DUP3 ADD MSTORE PUSH1 0x17 PUSH1 0x24 DUP3 ADD MSTORE PUSH23 0x1D5CD95C881A5CC81B9BDD08185B1B1BDDDB1A5CDD1959 PUSH1 0x4A SHL PUSH1 0x44 DUP3 ADD MSTORE PUSH1 0x64 ADD PUSH2 0x1766 JUMP JUMPDEST POP PUSH1 0x1D SLOAD PUSH1 0x0 SWAP1 DUP2 MSTORE PUSH1 0x1F PUSH1 0x20 SWAP1 DUP2 MSTORE PUSH1 0x40 DUP1 DUP4 KECCAK256 CALLER DUP5 MSTORE SWAP1 SWAP2 MSTORE SWAP1 KECCAK256 SLOAD JUMPDEST PUSH2 0x2385 JUMP JUMPDEST POP PUSH1 0x19 SLOAD JUMPDEST PUSH1 0x1A SLOAD PUSH3 0x10000 SWAP1 DIV PUSH1 0xFF AND ISZERO ISZERO PUSH1 0x1 SUB PUSH2 0x2442 JUMPI PUSH1 0x1D SLOAD PUSH1 0x0 SWAP1 DUP2 MSTORE PUSH1 0x1E PUSH1 0x20 SWAP1 DUP2 MSTORE PUSH1 0x40 DUP1 DUP4 KECCAK256 CALLER DUP5 MSTORE SWAP1 SWAP2 MSTORE SWAP1 KECCAK256 SLOAD PUSH2 0x23C1 SWAP1 DUP3 PUSH2 0x558C JUMP JUMPDEST DUP7 GT ISZERO PUSH2 0x2410 JUMPI PUSH1 0x40 MLOAD PUSH3 0x461BCD PUSH1 0xE5 SHL DUP2 MSTORE PUSH1 0x20 PUSH1 0x4 DUP3 ADD MSTORE PUSH1 0x1C PUSH1 0x24 DUP3 ADD MSTORE PUSH32 0x6D6178204E465420706572206164647265737320657863656564656400000000 PUSH1 0x44 DUP3 ADD MSTORE PUSH1 0x64 ADD PUSH2 0x1766 JUMP JUMPDEST PUSH1 0x1D SLOAD PUSH1 0x0 SWAP1 DUP2 MSTORE PUSH1 0x1E PUSH1 0x20 SWAP1 DUP2 MSTORE PUSH1 0x40 DUP1 DUP4 KECCAK256 CALLER DUP5 MSTORE SWAP1 SWAP2 MSTORE DUP2 KECCAK256 DUP1 SLOAD DUP9 SWAP3 SWAP1 PUSH2 0x243C SWAP1 DUP5 SWAP1 PUSH2 0x56F4 JUMP JUMPDEST SWAP1 SWAP2 SSTORE POP POP JUMPDEST PUSH1 0x1A SLOAD PUSH4 0x1000000 SWAP1 DIV PUSH1 0xFF AND ISZERO ISZERO PUSH1 0x1 SUB PUSH2 0x250F JUMPI DUP6 PUSH1 0x1 EQ PUSH2 0x24A8 JUMPI PUSH1 0x40 MLOAD PUSH3 0x461BCD PUSH1 0xE5 SHL DUP2 MSTORE PUSH1 0x20 PUSH1 0x4 DUP3 ADD MSTORE PUSH1 0x1C PUSH1 0x24 DUP3 ADD MSTORE PUSH32 0x546865206E756D626572206F66206D696E7473206973206F7665722E00000000 PUSH1 0x44 DUP3 ADD MSTORE PUSH1 0x64 ADD PUSH2 0x1766 JUMP JUMPDEST PUSH2 0x24B1 DUP3 PUSH2 0x200C JUMP JUMPDEST PUSH1 0x1 PUSH1 0x1 PUSH1 0xA0 SHL SUB AND CALLER PUSH1 0x1 PUSH1 0x1 PUSH1 0xA0 SHL SUB AND EQ PUSH2 0x2506 JUMPI PUSH1 0x40 MLOAD PUSH3 0x461BCD PUSH1 0xE5 SHL DUP2 MSTORE PUSH1 0x20 PUSH1 0x4 DUP3 ADD MSTORE PUSH1 0x12 PUSH1 0x24 DUP3 ADD MSTORE PUSH18 0x13DDDB995C881A5CC8191A5999995C995B9D PUSH1 0x72 SHL PUSH1 0x44 DUP3 ADD MSTORE PUSH1 0x64 ADD PUSH2 0x1766 JUMP JUMPDEST PUSH2 0x250F DUP3 PUSH2 0x377B JUMP JUMPDEST PUSH1 0x20 SLOAD PUSH1 0xFF AND ISZERO ISZERO PUSH1 0x1 SUB PUSH2 0x25FE JUMPI PUSH1 0x20 SLOAD PUSH1 0x40 MLOAD PUSH4 0x70A08231 PUSH1 0xE0 SHL DUP2 MSTORE CALLER PUSH1 0x4 DUP3 ADD MSTORE PUSH2 0x100 SWAP1 SWAP2 DIV PUSH1 0x1 PUSH1 0x1 PUSH1 0xA0 SHL SUB AND SWAP1 PUSH4 0x70A08231 SWAP1 PUSH1 0x24 ADD PUSH1 0x20 PUSH1 0x40 MLOAD DUP1 DUP4 SUB DUP2 DUP7 GAS STATICCALL ISZERO DUP1 ISZERO PUSH2 0x256A JUMPI RETURNDATASIZE PUSH1 0x0 DUP1 RETURNDATACOPY RETURNDATASIZE PUSH1 0x0 REVERT JUMPDEST POP POP POP POP PUSH1 0x40 MLOAD RETURNDATASIZE PUSH1 0x1F NOT PUSH1 0x1F DUP3 ADD AND DUP3 ADD DUP1 PUSH1 0x40 MSTORE POP DUP2 ADD SWAP1 PUSH2 0x258E SWAP2 SWAP1 PUSH2 0x5789 JUMP JUMPDEST PUSH1 0x0 SUB PUSH2 0x25FE JUMPI PUSH1 0x20 SLOAD PUSH1 0x40 MLOAD PUSH4 0x133F3113 PUSH1 0xE3 SHL DUP2 MSTORE CALLER PUSH1 0x4 DUP3 ADD MSTORE PUSH1 0x1 PUSH1 0x24 DUP3 ADD MSTORE PUSH2 0x100 SWAP1 SWAP2 DIV PUSH1 0x1 PUSH1 0x1 PUSH1 0xA0 SHL SUB AND SWAP1 PUSH4 0x99F98898 SWAP1 PUSH1 0x44 ADD PUSH1 0x0 PUSH1 0x40 MLOAD DUP1 DUP4 SUB DUP2 PUSH1 0x0 DUP8 DUP1 EXTCODESIZE ISZERO DUP1 ISZERO PUSH2 0x25E5 JUMPI PUSH1 0x0 DUP1 REVERT JUMPDEST POP GAS CALL ISZERO DUP1 ISZERO PUSH2 0x25F9 JUMPI RETURNDATASIZE PUSH1 0x0 DUP1 RETURNDATACOPY RETURNDATASIZE PUSH1 0x0 REVERT JUMPDEST POP POP POP POP JUMPDEST PUSH2 0x2608 CALLER DUP8 PUSH2 0x3600 JUMP JUMPDEST POP POP POP POP POP POP JUMP JUMPDEST PUSH1 0x0 DUP1 MLOAD PUSH1 0x20 PUSH2 0x5C92 DUP4 CODECOPY DUP2 MLOAD SWAP2 MSTORE PUSH2 0x2628 DUP2 PUSH2 0x32EC JUMP JUMPDEST POP PUSH1 0x23 DUP1 SLOAD SWAP2 ISZERO ISZERO PUSH1 0x1 PUSH1 0xA8 SHL MUL PUSH1 0xFF PUSH1 0xA8 SHL NOT SWAP1 SWAP3 AND SWAP2 SWAP1 SWAP2 OR SWAP1 SSTORE JUMP JUMPDEST PUSH1 0x21 DUP1 SLOAD PUSH2 0x1517 SWAP1 PUSH2 0x559F JUMP JUMPDEST PUSH1 0x0 DUP1 MLOAD PUSH1 0x20 PUSH2 0x5C92 DUP4 CODECOPY DUP2 MLOAD SWAP2 MSTORE PUSH2 0x266C DUP2 PUSH2 0x32EC JUMP JUMPDEST POP PUSH1 0x17 SSTORE JUMP JUMPDEST PUSH1 0x0 PUSH1 0x1 PUSH1 0x1 PUSH1 0xA0 SHL SUB DUP3 AND PUSH2 0x26E0 JUMPI PUSH1 0x40 MLOAD PUSH3 0x461BCD PUSH1 0xE5 SHL DUP2 MSTORE PUSH1 0x20 PUSH1 0x4 DUP3 ADD MSTORE PUSH1 0x2D PUSH1 0x24 DUP3 ADD MSTORE PUSH32 0x4552433732315073693A2062616C616E636520717565727920666F7220746865 PUSH1 0x44 DUP3 ADD MSTORE PUSH13 0x207A65726F2061646472657373 PUSH1 0x98 SHL PUSH1 0x64 DUP3 ADD MSTORE PUSH1 0x84 ADD PUSH2 0x1766 JUMP JUMPDEST POP PUSH1 0x1 PUSH1 0x1 PUSH1 0xA0 SHL SUB AND PUSH1 0x0 SWAP1 DUP2 MSTORE PUSH1 0x2B PUSH1 0x20 MSTORE PUSH1 0x40 SWAP1 KECCAK256 SLOAD PUSH1 0x1 PUSH1 0x1 PUSH1 0x40 SHL SUB AND SWAP1 JUMP JUMPDEST PUSH2 0x270D PUSH2 0x32F6 JUMP JUMPDEST PUSH2 0x2717 PUSH1 0x0 PUSH2 0x3894 JUMP JUMPDEST JUMP JUMPDEST PUSH1 0x0 DUP1 MLOAD PUSH1 0x20 PUSH2 0x5C92 DUP4 CODECOPY DUP2 MLOAD SWAP2 MSTORE PUSH2 0x2731 DUP2 PUSH2 0x32EC JUMP JUMPDEST PUSH2 0x15FE DUP3 PUSH2 0x38E6 JUMP JUMPDEST DUP2 PUSH2 0x2744 DUP2 PUSH2 0x200C JUMP JUMPDEST PUSH1 0x1 PUSH1 0x1 PUSH1 0xA0 SHL SUB AND CALLER PUSH1 0x1 PUSH1 0x1 PUSH1 0xA0 SHL SUB AND EQ PUSH2 0x27B7 JUMPI PUSH1 0x40 MLOAD PUSH3 0x461BCD PUSH1 0xE5 SHL DUP2 MSTORE PUSH1 0x20 PUSH1 0x4 DUP3 ADD MSTORE PUSH1 0x2A PUSH1 0x24 DUP3 ADD MSTORE PUSH32 0x5265737472696374417070726F76653A206F7065726174696F6E206973206F6E PUSH1 0x44 DUP3 ADD MSTORE PUSH10 0x363C903437B63232B917 PUSH1 0xB1 SHL PUSH1 0x64 DUP3 ADD MSTORE PUSH1 0x84 ADD PUSH2 0x1766 JUMP JUMPDEST POP PUSH1 0x0 SWAP2 DUP3 MSTORE PUSH1 0x10 PUSH1 0x20 MSTORE PUSH1 0x40 SWAP1 SWAP2 KECCAK256 SSTORE JUMP JUMPDEST PUSH1 0x0 DUP1 MLOAD PUSH1 0x20 PUSH2 0x5C92 DUP4 CODECOPY DUP2 MLOAD SWAP2 MSTORE PUSH2 0x27E2 DUP2 PUSH2 0x32EC JUMP JUMPDEST POP PUSH1 0x1C SSTORE JUMP JUMPDEST PUSH1 0x0 DUP1 MLOAD PUSH1 0x20 PUSH2 0x5C92 DUP4 CODECOPY DUP2 MLOAD SWAP2 MSTORE PUSH2 0x2800 DUP2 PUSH2 0x32EC JUMP JUMPDEST DUP2 ISZERO DUP1 PUSH2 0x280D JUMPI POP DUP2 PUSH1 0x1 EQ JUMPDEST PUSH2 0x2851 JUMPI PUSH1 0x40 MLOAD PUSH3 0x461BCD PUSH1 0xE5 SHL DUP2 MSTORE PUSH1 0x20 PUSH1 0x4 DUP3 ADD MSTORE PUSH1 0x15 PUSH1 0x24 DUP3 ADD MSTORE PUSH21 0x20B63637BB903634B9BA103A3CB8329032B93937B9 PUSH1 0x59 SHL PUSH1 0x44 DUP3 ADD MSTORE PUSH1 0x64 ADD PUSH2 0x1766 JUMP JUMPDEST POP PUSH1 0x1B SSTORE JUMP JUMPDEST PUSH1 0x60 PUSH1 0x0 DUP1 PUSH2 0x2865 DUP5 PUSH2 0x2672 JUMP JUMPDEST SWAP1 POP PUSH1 0x0 DUP2 PUSH1 0x1 PUSH1 0x1 PUSH1 0x40 SHL SUB DUP2 GT ISZERO PUSH2 0x2881 JUMPI PUSH2 0x2881 PUSH2 0x4FFF JUMP JUMPDEST PUSH1 0x40 MLOAD SWAP1 DUP1 DUP3 MSTORE DUP1 PUSH1 0x20 MUL PUSH1 0x20 ADD DUP3 ADD PUSH1 0x40 MSTORE DUP1 ISZERO PUSH2 0x28AA JUMPI DUP2 PUSH1 0x20 ADD PUSH1 0x20 DUP3 MUL DUP1 CALLDATASIZE DUP4 CALLDATACOPY ADD SWAP1 POP JUMPDEST POP SWAP1 POP PUSH1 0x0 JUMPDEST DUP3 DUP5 EQ PUSH2 0x2914 JUMPI PUSH2 0x28C0 DUP2 PUSH2 0x3452 JUMP JUMPDEST ISZERO PUSH2 0x290C JUMPI DUP6 PUSH1 0x1 PUSH1 0x1 PUSH1 0xA0 SHL SUB AND PUSH2 0x28D8 DUP3 PUSH2 0x200C JUMP JUMPDEST PUSH1 0x1 PUSH1 0x1 PUSH1 0xA0 SHL SUB AND SUB PUSH2 0x290C JUMPI DUP1 DUP3 DUP6 DUP1 PUSH1 0x1 ADD SWAP7 POP DUP2 MLOAD DUP2 LT PUSH2 0x28FF JUMPI PUSH2 0x28FF PUSH2 0x56DE JUMP JUMPDEST PUSH1 0x20 MUL PUSH1 0x20 ADD ADD DUP2 DUP2 MSTORE POP POP JUMPDEST PUSH1 0x1 ADD PUSH2 0x28B0 JUMP JUMPDEST POP SWAP5 SWAP4 POP POP POP POP JUMP JUMPDEST PUSH1 0x0 PUSH2 0x14EE PUSH1 0x3 SLOAD PUSH1 0x1 PUSH1 0x1 PUSH1 0xA0 SHL SUB AND SWAP1 JUMP JUMPDEST PUSH1 0x0 DUP1 MLOAD PUSH1 0x20 PUSH2 0x5C92 DUP4 CODECOPY DUP2 MLOAD SWAP2 MSTORE PUSH2 0x2949 DUP2 PUSH2 0x32EC JUMP JUMPDEST POP PUSH1 0x1A DUP1 SLOAD SWAP2 ISZERO ISZERO PUSH3 0x10000 MUL PUSH3 0xFF0000 NOT SWAP1 SWAP3 AND SWAP2 SWAP1 SWAP2 OR SWAP1 SSTORE JUMP JUMPDEST PUSH1 0x0 SWAP2 DUP3 MSTORE PUSH1 0x13 PUSH1 0x20 SWAP1 DUP2 MSTORE PUSH1 0x40 DUP1 DUP5 KECCAK256 PUSH1 0x1 PUSH1 0x1 PUSH1 0xA0 SHL SUB SWAP4 SWAP1 SWAP4 AND DUP5 MSTORE SWAP2 SWAP1 MSTORE SWAP1 KECCAK256 SLOAD PUSH1 0xFF AND SWAP1 JUMP JUMPDEST PUSH1 0x26 DUP1 SLOAD PUSH2 0x1517 SWAP1 PUSH2 0x559F JUMP JUMPDEST PUSH1 0x60 PUSH1 0x6 DUP1 SLOAD PUSH2 0x164C SWAP1 PUSH2 0x559F JUMP JUMPDEST PUSH1 0x0 DUP1 MLOAD PUSH1 0x20 PUSH2 0x5C92 DUP4 CODECOPY DUP2 MLOAD SWAP2 MSTORE PUSH2 0x29C5 DUP2 PUSH2 0x32EC JUMP JUMPDEST PUSH1 0x25 PUSH2 0x1638 DUP4 DUP3 PUSH2 0x561F JUMP JUMPDEST PUSH2 0x29FB PUSH32 0x9F2DF0FED2C77648DE5860A4CC508CD0818C85B8B8A1AB4CEEEF8D981C8956A6 CALLER PUSH2 0x2966 JUMP JUMPDEST PUSH2 0x2A40 JUMPI PUSH1 0x40 MLOAD PUSH3 0x461BCD PUSH1 0xE5 SHL DUP2 MSTORE PUSH1 0x20 PUSH1 0x4 DUP3 ADD MSTORE PUSH1 0x16 PUSH1 0x24 DUP3 ADD MSTORE PUSH22 0x21B0B63632B91034B9903737BA10309036B4B73A32B9 PUSH1 0x51 SHL PUSH1 0x44 DUP3 ADD MSTORE PUSH1 0x64 ADD PUSH2 0x1766 JUMP JUMPDEST PUSH1 0x17 SLOAD DUP2 PUSH1 0x1 PUSH2 0x2A4F PUSH1 0x8 SLOAD SWAP1 JUMP JUMPDEST PUSH2 0x2A59 SWAP2 SWAP1 PUSH2 0x558C JUMP JUMPDEST PUSH2 0x2A63 SWAP2 SWAP1 PUSH2 0x56F4 JUMP JUMPDEST GT ISZERO PUSH2 0x2A81 JUMPI PUSH1 0x40 MLOAD PUSH3 0x461BCD PUSH1 0xE5 SHL DUP2 MSTORE PUSH1 0x4 ADD PUSH2 0x1766 SWAP1 PUSH2 0x5720 JUMP JUMPDEST PUSH2 0x15FE DUP3 DUP3 PUSH2 0x3600 JUMP JUMPDEST DUP2 PUSH2 0x2A95 DUP2 PUSH2 0x3487 JUMP JUMPDEST PUSH1 0x2A SLOAD PUSH1 0xFF AND ISZERO DUP1 PUSH2 0x2AA5 JUMPI POP DUP2 ISZERO JUMPDEST PUSH2 0x2AF1 JUMPI PUSH1 0x40 MLOAD PUSH3 0x461BCD PUSH1 0xE5 SHL DUP2 MSTORE PUSH1 0x20 PUSH1 0x4 DUP3 ADD MSTORE PUSH1 0x1F PUSH1 0x24 DUP3 ADD MSTORE PUSH32 0x736574417070726F76616C466F72416C6C2069732070726F6869626974656400 PUSH1 0x44 DUP3 ADD MSTORE PUSH1 0x64 ADD PUSH2 0x1766 JUMP JUMPDEST PUSH2 0x1638 DUP4 DUP4 PUSH2 0x392B JUMP JUMPDEST PUSH1 0x0 DUP1 MLOAD PUSH1 0x20 PUSH2 0x5C92 DUP4 CODECOPY DUP2 MLOAD SWAP2 MSTORE PUSH2 0x2B13 DUP2 PUSH2 0x32EC JUMP JUMPDEST POP PUSH1 0x18 SSTORE JUMP JUMPDEST PUSH1 0x25 DUP1 SLOAD PUSH2 0x1517 SWAP1 PUSH2 0x559F JUMP JUMPDEST PUSH1 0x29 DUP1 SLOAD PUSH2 0x1517 SWAP1 PUSH2 0x559F JUMP JUMPDEST PUSH1 0x0 DUP1 MLOAD PUSH1 0x20 PUSH2 0x5C92 DUP4 CODECOPY DUP2 MLOAD SWAP2 MSTORE PUSH2 0x2B4B DUP2 PUSH2 0x32EC JUMP JUMPDEST POP PUSH1 0x19 SSTORE JUMP JUMPDEST DUP4 PUSH1 0x1 PUSH1 0x1 PUSH1 0xA0 SHL SUB DUP2 AND CALLER EQ PUSH2 0x2B6B JUMPI PUSH2 0x2B6B CALLER PUSH2 0x3487 JUMP JUMPDEST PUSH2 0x1AC5 DUP6 DUP6 DUP6 DUP6 PUSH2 0x39A9 JUMP JUMPDEST PUSH2 0x2B7F PUSH2 0x291D JUMP JUMPDEST PUSH1 0x1 PUSH1 0x1 PUSH1 0xA0 SHL SUB AND CALLER PUSH1 0x1 PUSH1 0x1 PUSH1 0xA0 SHL SUB AND EQ PUSH2 0x2BB0 JUMPI PUSH1 0x40 MLOAD PUSH4 0x5FC483C5 PUSH1 0xE0 SHL DUP2 MSTORE PUSH1 0x4 ADD PUSH1 0x40 MLOAD DUP1 SWAP2 SUB SWAP1 REVERT JUMPDEST PUSH1 0x0 SLOAD PUSH1 0x1 PUSH1 0xA0 SHL SWAP1 DIV PUSH1 0xFF AND ISZERO PUSH2 0x2BDB JUMPI PUSH1 0x40 MLOAD PUSH4 0x1551A48F PUSH1 0xE1 SHL DUP2 MSTORE PUSH1 0x4 ADD PUSH1 0x40 MLOAD DUP1 SWAP2 SUB SWAP1 REVERT JUMPDEST PUSH1 0x0 DUP1 SLOAD PUSH1 0x1 PUSH1 0x1 PUSH1 0xA0 SHL SUB NOT AND PUSH1 0x1 PUSH1 0x1 PUSH1 0xA0 SHL SUB DUP4 AND SWAP1 DUP2 OR SWAP1 SWAP2 SSTORE PUSH1 0x40 MLOAD SWAP1 DUP2 MSTORE PUSH32 0x9F513FE86DC42FDBAC355FA4D9B1D5BE7B5E6CD2DF67E30DB8003766568DE476 SWAP1 PUSH1 0x20 ADD PUSH1 0x40 MLOAD DUP1 SWAP2 SUB SWAP1 LOG1 POP JUMP JUMPDEST PUSH1 0x0 DUP1 MLOAD PUSH1 0x20 PUSH2 0x5C92 DUP4 CODECOPY DUP2 MLOAD SWAP2 MSTORE PUSH2 0x2C47 DUP2 PUSH2 0x32EC JUMP JUMPDEST POP PUSH1 0x1A DUP1 SLOAD PUSH1 0xFF NOT AND SWAP2 ISZERO ISZERO SWAP2 SWAP1 SWAP2 OR SWAP1 SSTORE JUMP JUMPDEST PUSH1 0x0 DUP1 MLOAD PUSH1 0x20 PUSH2 0x5C92 DUP4 CODECOPY DUP2 MLOAD SWAP2 MSTORE PUSH2 0x2C73 DUP2 PUSH2 0x32EC JUMP JUMPDEST PUSH1 0x29 PUSH2 0x1638 DUP4 DUP3 PUSH2 0x561F JUMP JUMPDEST PUSH1 0x22 DUP1 SLOAD PUSH2 0x1517 SWAP1 PUSH2 0x559F JUMP JUMPDEST PUSH1 0x23 SLOAD PUSH1 0x60 SWAP1 PUSH1 0x1 PUSH1 0xA0 SHL SWAP1 DIV PUSH1 0xFF AND ISZERO ISZERO PUSH1 0x1 SUB PUSH2 0x2D16 JUMPI PUSH1 0x23 SLOAD PUSH1 0x40 MLOAD PUSH4 0xC87B56DD PUSH1 0xE0 SHL DUP2 MSTORE PUSH1 0x4 DUP2 ADD DUP5 SWAP1 MSTORE PUSH1 0x1 PUSH1 0x1 PUSH1 0xA0 SHL SUB SWAP1 SWAP2 AND SWAP1 PUSH4 0xC87B56DD SWAP1 PUSH1 0x24 ADD PUSH1 0x0 PUSH1 0x40 MLOAD DUP1 DUP4 SUB DUP2 DUP7 GAS STATICCALL ISZERO DUP1 ISZERO PUSH2 0x2CEE JUMPI RETURNDATASIZE PUSH1 0x0 DUP1 RETURNDATACOPY RETURNDATASIZE PUSH1 0x0 REVERT JUMPDEST POP POP POP POP PUSH1 0x40 MLOAD RETURNDATASIZE PUSH1 0x0 DUP3 RETURNDATACOPY PUSH1 0x1F RETURNDATASIZE SWAP1 DUP2 ADD PUSH1 0x1F NOT AND DUP3 ADD PUSH1 0x40 MSTORE PUSH2 0x15C1 SWAP2 SWAP1 DUP2 ADD SWAP1 PUSH2 0x57A2 JUMP JUMPDEST PUSH1 0x23 SLOAD PUSH1 0x1 PUSH1 0xA8 SHL SWAP1 DIV PUSH1 0xFF AND ISZERO ISZERO PUSH1 0x1 SUB PUSH2 0x2DCF JUMPI PUSH1 0x28 SLOAD PUSH2 0x2DA9 SWAP1 PUSH1 0x25 SWAP1 PUSH1 0x26 SWAP1 PUSH1 0x24 SWAP1 PUSH1 0xFF AND ISZERO ISZERO PUSH1 0x1 EQ PUSH2 0x2D5D JUMPI PUSH1 0x40 MLOAD DUP1 PUSH1 0x20 ADD PUSH1 0x40 MSTORE DUP1 PUSH1 0x0 DUP2 MSTORE POP PUSH2 0x2D7F JUMP JUMPDEST PUSH1 0x29 PUSH1 0x40 MLOAD PUSH1 0x20 ADD PUSH2 0x2D6F SWAP2 SWAP1 PUSH2 0x5882 JUMP JUMPDEST PUSH1 0x40 MLOAD PUSH1 0x20 DUP2 DUP4 SUB SUB DUP2 MSTORE SWAP1 PUSH1 0x40 MSTORE JUMPDEST PUSH1 0x27 PUSH1 0x40 MLOAD PUSH1 0x20 ADD PUSH2 0x2D95 SWAP6 SWAP5 SWAP4 SWAP3 SWAP2 SWAP1 PUSH2 0x58BB JUMP JUMPDEST PUSH1 0x40 MLOAD PUSH1 0x20 DUP2 DUP4 SUB SUB DUP2 MSTORE SWAP1 PUSH1 0x40 MSTORE PUSH2 0x39DB JUMP JUMPDEST PUSH1 0x40 MLOAD PUSH1 0x20 ADD PUSH2 0x2DB9 SWAP2 SWAP1 PUSH2 0x59BD JUMP JUMPDEST PUSH1 0x40 MLOAD PUSH1 0x20 DUP2 DUP4 SUB SUB DUP2 MSTORE SWAP1 PUSH1 0x40 MSTORE SWAP1 POP SWAP2 SWAP1 POP JUMP JUMPDEST PUSH2 0x2DD8 DUP3 PUSH2 0x3B3F JUMP JUMPDEST PUSH1 0x22 PUSH1 0x40 MLOAD PUSH1 0x20 ADD PUSH2 0x2DB9 SWAP3 SWAP2 SWAP1 PUSH2 0x5A02 JUMP JUMPDEST PUSH1 0x0 DUP3 DUP2 MSTORE PUSH1 0x13 PUSH1 0x20 MSTORE PUSH1 0x40 SWAP1 KECCAK256 PUSH1 0x1 ADD SLOAD PUSH2 0x2E06 DUP2 PUSH2 0x32EC JUMP JUMPDEST PUSH2 0x1638 DUP4 DUP4 PUSH2 0x36A0 JUMP JUMPDEST PUSH1 0x0 DUP1 MLOAD PUSH1 0x20 PUSH2 0x5C92 DUP4 CODECOPY DUP2 MLOAD SWAP2 MSTORE PUSH2 0x2E28 DUP2 PUSH2 0x32EC JUMP JUMPDEST POP PUSH1 0x1D SSTORE JUMP JUMPDEST PUSH1 0x0 DUP1 MLOAD PUSH1 0x20 PUSH2 0x5C92 DUP4 CODECOPY DUP2 MLOAD SWAP2 MSTORE PUSH2 0x2E46 DUP2 PUSH2 0x32EC JUMP JUMPDEST PUSH1 0x22 PUSH2 0x1638 DUP4 DUP3 PUSH2 0x561F JUMP JUMPDEST PUSH1 0x0 DUP1 MLOAD PUSH1 0x20 PUSH2 0x5C92 DUP4 CODECOPY DUP2 MLOAD SWAP2 MSTORE PUSH2 0x2E6A DUP2 PUSH2 0x32EC JUMP JUMPDEST PUSH1 0x27 PUSH2 0x1638 DUP4 DUP3 PUSH2 0x561F JUMP JUMPDEST PUSH1 0x0 DUP1 MLOAD PUSH1 0x20 PUSH2 0x5C92 DUP4 CODECOPY DUP2 MLOAD SWAP2 MSTORE PUSH2 0x2E8E DUP2 PUSH2 0x32EC JUMP JUMPDEST POP PUSH1 0x1A DUP1 SLOAD SWAP2 ISZERO ISZERO PUSH4 0x1000000 MUL PUSH4 0xFF000000 NOT SWAP1 SWAP3 AND SWAP2 SWAP1 SWAP2 OR SWAP1 SSTORE JUMP JUMPDEST PUSH1 0x0 PUSH2 0x2EB9 DUP4 DUP4 PUSH2 0x3C04 JUMP JUMPDEST ISZERO ISZERO PUSH1 0x0 SUB PUSH2 0x2ECA JUMPI POP PUSH1 0x0 PUSH2 0x15C1 JUMP JUMPDEST PUSH1 0x1 PUSH1 0x1 PUSH1 0xA0 SHL SUB DUP1 DUP5 AND PUSH1 0x0 SWAP1 DUP2 MSTORE PUSH1 0xA PUSH1 0x20 SWAP1 DUP2 MSTORE PUSH1 0x40 DUP1 DUP4 KECCAK256 SWAP4 DUP7 AND DUP4 MSTORE SWAP3 SWAP1 MSTORE KECCAK256 SLOAD PUSH1 0xFF AND JUMPDEST SWAP4 SWAP3 POP POP POP JUMP JUMPDEST PUSH1 0x0 DUP1 MLOAD PUSH1 0x20 PUSH2 0x5C92 DUP4 CODECOPY DUP2 MLOAD SWAP2 MSTORE PUSH2 0x2F13 DUP2 PUSH2 0x32EC JUMP JUMPDEST POP PUSH1 0x23 DUP1 SLOAD SWAP2 ISZERO ISZERO PUSH1 0x1 PUSH1 0xA0 SHL MUL PUSH1 0xFF PUSH1 0xA0 SHL NOT SWAP1 SWAP3 AND SWAP2 SWAP1 SWAP2 OR SWAP1 SSTORE JUMP JUMPDEST PUSH2 0x2F3A PUSH2 0x32F6 JUMP JUMPDEST PUSH1 0x1 PUSH1 0x1 PUSH1 0xA0 SHL SUB DUP2 AND PUSH2 0x2F9F JUMPI PUSH1 0x40 MLOAD PUSH3 0x461BCD PUSH1 0xE5 SHL DUP2 MSTORE PUSH1 0x20 PUSH1 0x4 DUP3 ADD MSTORE PUSH1 0x26 PUSH1 0x24 DUP3 ADD MSTORE PUSH32 0x4F776E61626C653A206E6577206F776E657220697320746865207A65726F2061 PUSH1 0x44 DUP3 ADD MSTORE PUSH6 0x646472657373 PUSH1 0xD0 SHL PUSH1 0x64 DUP3 ADD MSTORE PUSH1 0x84 ADD PUSH2 0x1766 JUMP JUMPDEST PUSH2 0x1CAB DUP2 PUSH2 0x3894 JUMP JUMPDEST PUSH1 0x0 DUP1 MLOAD PUSH1 0x20 PUSH2 0x5C92 DUP4 CODECOPY DUP2 MLOAD SWAP2 MSTORE PUSH2 0x2FC0 DUP2 PUSH2 0x32EC JUMP JUMPDEST POP PUSH1 0x20 DUP1 SLOAD PUSH1 0x1 PUSH1 0x1 PUSH1 0xA0 SHL SUB SWAP1 SWAP3 AND PUSH2 0x100 MUL PUSH2 0x100 PUSH1 0x1 PUSH1 0xA8 SHL SUB NOT SWAP1 SWAP3 AND SWAP2 SWAP1 SWAP2 OR SWAP1 SSTORE JUMP JUMPDEST PUSH1 0x0 DUP1 MLOAD PUSH1 0x20 PUSH2 0x5C92 DUP4 CODECOPY DUP2 MLOAD SWAP2 MSTORE PUSH2 0x3001 DUP2 PUSH2 0x32EC JUMP JUMPDEST POP PUSH1 0x2A DUP1 SLOAD PUSH1 0xFF NOT AND SWAP2 ISZERO ISZERO SWAP2 SWAP1 SWAP2 OR SWAP1 SSTORE JUMP JUMPDEST PUSH1 0x0 DUP1 MLOAD PUSH1 0x20 PUSH2 0x5C92 DUP4 CODECOPY DUP2 MLOAD SWAP2 MSTORE PUSH2 0x302D DUP2 PUSH2 0x32EC JUMP JUMPDEST PUSH2 0x15FE DUP3 PUSH2 0x3C24 JUMP JUMPDEST PUSH1 0x0 PUSH2 0x2EF4 DUP4 PUSH1 0x1 PUSH1 0x1 PUSH1 0xA0 SHL SUB DUP5 AND PUSH2 0x3C69 JUMP JUMPDEST PUSH1 0x60 PUSH2 0x15C1 PUSH1 0x1 PUSH1 0x1 PUSH1 0xA0 SHL SUB DUP4 AND PUSH1 0x14 JUMPDEST PUSH1 0x60 PUSH1 0x0 PUSH2 0x306C DUP4 PUSH1 0x2 PUSH2 0x5750 JUMP JUMPDEST PUSH2 0x3077 SWAP1 PUSH1 0x2 PUSH2 0x56F4 JUMP JUMPDEST PUSH1 0x1 PUSH1 0x1 PUSH1 0x40 SHL SUB DUP2 GT ISZERO PUSH2 0x308E JUMPI PUSH2 0x308E PUSH2 0x4FFF JUMP JUMPDEST PUSH1 0x40 MLOAD SWAP1 DUP1 DUP3 MSTORE DUP1 PUSH1 0x1F ADD PUSH1 0x1F NOT AND PUSH1 0x20 ADD DUP3 ADD PUSH1 0x40 MSTORE DUP1 ISZERO PUSH2 0x30B8 JUMPI PUSH1 0x20 DUP3 ADD DUP2 DUP1 CALLDATASIZE DUP4 CALLDATACOPY ADD SWAP1 POP JUMPDEST POP SWAP1 POP PUSH1 0x3 PUSH1 0xFC SHL DUP2 PUSH1 0x0 DUP2 MLOAD DUP2 LT PUSH2 0x30D3 JUMPI PUSH2 0x30D3 PUSH2 0x56DE JUMP JUMPDEST PUSH1 0x20 ADD ADD SWAP1 PUSH1 0x1 PUSH1 0x1 PUSH1 0xF8 SHL SUB NOT AND SWAP1 DUP2 PUSH1 0x0 BYTE SWAP1 MSTORE8 POP PUSH1 0xF PUSH1 0xFB SHL DUP2 PUSH1 0x1 DUP2 MLOAD DUP2 LT PUSH2 0x3102 JUMPI PUSH2 0x3102 PUSH2 0x56DE JUMP JUMPDEST PUSH1 0x20 ADD ADD SWAP1 PUSH1 0x1 PUSH1 0x1 PUSH1 0xF8 SHL SUB NOT AND SWAP1 DUP2 PUSH1 0x0 BYTE SWAP1 MSTORE8 POP PUSH1 0x0 PUSH2 0x3126 DUP5 PUSH1 0x2 PUSH2 0x5750 JUMP JUMPDEST PUSH2 0x3131 SWAP1 PUSH1 0x1 PUSH2 0x56F4 JUMP JUMPDEST SWAP1 POP JUMPDEST PUSH1 0x1 DUP2 GT ISZERO PUSH2 0x31A9 JUMPI PUSH16 0x181899199A1A9B1B9C1CB0B131B232B3 PUSH1 0x81 SHL DUP6 PUSH1 0xF AND PUSH1 0x10 DUP2 LT PUSH2 0x3165 JUMPI PUSH2 0x3165 PUSH2 0x56DE JUMP JUMPDEST BYTE PUSH1 0xF8 SHL DUP3 DUP3 DUP2 MLOAD DUP2 LT PUSH2 0x317B JUMPI PUSH2 0x317B PUSH2 0x56DE JUMP JUMPDEST PUSH1 0x20 ADD ADD SWAP1 PUSH1 0x1 PUSH1 0x1 PUSH1 0xF8 SHL SUB NOT AND SWAP1 DUP2 PUSH1 0x0 BYTE SWAP1 MSTORE8 POP PUSH1 0x4 SWAP5 SWAP1 SWAP5 SHR SWAP4 PUSH2 0x31A2 DUP2 PUSH2 0x5A20 JUMP JUMPDEST SWAP1 POP PUSH2 0x3134 JUMP JUMPDEST POP DUP4 ISZERO PUSH2 0x2EF4 JUMPI PUSH1 0x40 MLOAD PUSH3 0x461BCD PUSH1 0xE5 SHL DUP2 MSTORE PUSH1 0x20 PUSH1 0x4 DUP3 ADD DUP2 SWAP1 MSTORE PUSH1 0x24 DUP3 ADD MSTORE PUSH32 0x537472696E67733A20686578206C656E67746820696E73756666696369656E74 PUSH1 0x44 DUP3 ADD MSTORE PUSH1 0x64 ADD PUSH2 0x1766 JUMP JUMPDEST PUSH1 0x8 DUP2 SWAP1 SHR PUSH1 0x0 SWAP1 DUP2 MSTORE PUSH1 0x20 SWAP3 SWAP1 SWAP3 MSTORE PUSH1 0x40 SWAP1 SWAP2 KECCAK256 DUP1 SLOAD PUSH1 0x1 PUSH1 0xFF SHL PUSH1 0xFF SWAP1 SWAP4 AND SWAP3 SWAP1 SWAP3 SHR SWAP1 SWAP2 OR SWAP1 SSTORE JUMP JUMPDEST PUSH1 0x1 PUSH1 0x1 PUSH1 0xA0 SHL SUB AND EXTCODESIZE ISZERO ISZERO SWAP1 JUMP JUMPDEST PUSH1 0x3 SLOAD PUSH1 0x1 PUSH1 0x1 PUSH1 0xA0 SHL SUB AND SWAP1 JUMP JUMPDEST PUSH1 0x1 PUSH1 0x1 PUSH1 0xA0 SHL SUB DUP5 AND ISZERO PUSH2 0x187F JUMPI PUSH1 0x0 DUP3 DUP2 MSTORE PUSH1 0x10 PUSH1 0x20 MSTORE PUSH1 0x40 DUP2 KECCAK256 SSTORE PUSH2 0x187F JUMP JUMPDEST PUSH1 0x60 PUSH2 0x14EE PUSH1 0xD PUSH2 0x3CB8 JUMP JUMPDEST PUSH1 0x0 PUSH1 0x1 PUSH1 0x1 PUSH1 0xE0 SHL SUB NOT DUP3 AND PUSH4 0x152A902D PUSH1 0xE1 SHL EQ DUP1 PUSH2 0x15C1 JUMPI POP PUSH4 0x1FFC9A7 PUSH1 0xE0 SHL PUSH1 0x1 PUSH1 0x1 PUSH1 0xE0 SHL SUB NOT DUP4 AND EQ PUSH2 0x15C1 JUMP JUMPDEST PUSH1 0x0 PUSH1 0x1 PUSH1 0x1 PUSH1 0xE0 SHL SUB NOT DUP3 AND PUSH4 0x7965DB0B PUSH1 0xE0 SHL EQ DUP1 PUSH2 0x15C1 JUMPI POP PUSH2 0x15C1 DUP3 JUMPDEST PUSH1 0x0 PUSH1 0x1 PUSH1 0x1 PUSH1 0xE0 SHL SUB NOT DUP3 AND PUSH4 0x101C115 PUSH1 0xE7 SHL EQ DUP1 PUSH2 0x15C1 JUMPI POP PUSH2 0x15C1 DUP3 PUSH2 0x3CC5 JUMP JUMPDEST PUSH2 0x1CAB DUP2 CALLER PUSH2 0x3D05 JUMP JUMPDEST CALLER PUSH2 0x32FF PUSH2 0x291D JUMP JUMPDEST PUSH1 0x1 PUSH1 0x1 PUSH1 0xA0 SHL SUB AND EQ PUSH2 0x2717 JUMPI PUSH1 0x40 MLOAD PUSH3 0x461BCD PUSH1 0xE5 SHL DUP2 MSTORE PUSH1 0x20 PUSH1 0x4 DUP3 ADD DUP2 SWAP1 MSTORE PUSH1 0x24 DUP3 ADD MSTORE PUSH32 0x4F776E61626C653A2063616C6C6572206973206E6F7420746865206F776E6572 PUSH1 0x44 DUP3 ADD MSTORE PUSH1 0x64 ADD PUSH2 0x1766 JUMP JUMPDEST PUSH2 0x2710 PUSH1 0x1 PUSH1 0x1 PUSH1 0x60 SHL SUB DUP3 AND GT ISZERO PUSH2 0x33C3 JUMPI PUSH1 0x40 MLOAD PUSH3 0x461BCD PUSH1 0xE5 SHL DUP2 MSTORE PUSH1 0x20 PUSH1 0x4 DUP3 ADD MSTORE PUSH1 0x2A PUSH1 0x24 DUP3 ADD MSTORE PUSH32 0x455243323938313A20726F79616C7479206665652077696C6C20657863656564 PUSH1 0x44 DUP3 ADD MSTORE PUSH10 0x2073616C655072696365 PUSH1 0xB0 SHL PUSH1 0x64 DUP3 ADD MSTORE PUSH1 0x84 ADD PUSH2 0x1766 JUMP JUMPDEST PUSH1 0x1 PUSH1 0x1 PUSH1 0xA0 SHL SUB DUP3 AND PUSH2 0x3419 JUMPI PUSH1 0x40 MLOAD PUSH3 0x461BCD PUSH1 0xE5 SHL DUP2 MSTORE PUSH1 0x20 PUSH1 0x4 DUP3 ADD MSTORE PUSH1 0x19 PUSH1 0x24 DUP3 ADD MSTORE PUSH32 0x455243323938313A20696E76616C696420726563656976657200000000000000 PUSH1 0x44 DUP3 ADD MSTORE PUSH1 0x64 ADD PUSH2 0x1766 JUMP JUMPDEST PUSH1 0x40 DUP1 MLOAD DUP1 DUP3 ADD SWAP1 SWAP2 MSTORE PUSH1 0x1 PUSH1 0x1 PUSH1 0xA0 SHL SUB SWAP1 SWAP3 AND DUP1 DUP4 MSTORE PUSH1 0x1 PUSH1 0x1 PUSH1 0x60 SHL SUB SWAP1 SWAP2 AND PUSH1 0x20 SWAP1 SWAP3 ADD DUP3 SWAP1 MSTORE PUSH1 0x1 PUSH1 0xA0 SHL SWAP1 SWAP2 MUL OR PUSH1 0x1 SSTORE JUMP JUMPDEST PUSH1 0x8 DUP2 SWAP1 SHR PUSH1 0x0 SWAP1 DUP2 MSTORE PUSH1 0xB PUSH1 0x20 MSTORE PUSH1 0x40 DUP2 KECCAK256 SLOAD PUSH1 0x1 PUSH1 0xFF SHL PUSH1 0xFF DUP5 AND SHR AND ISZERO PUSH2 0x347E JUMPI POP PUSH1 0x0 SWAP2 SWAP1 POP JUMP JUMPDEST PUSH2 0x15C1 DUP3 PUSH2 0x3D5E JUMP JUMPDEST PUSH1 0x0 SLOAD PUSH1 0x1 PUSH1 0x1 PUSH1 0xA0 SHL SUB AND DUP1 ISZERO DUP1 ISZERO SWAP1 PUSH2 0x34AC JUMPI POP PUSH1 0x0 DUP2 PUSH1 0x1 PUSH1 0x1 PUSH1 0xA0 SHL SUB AND EXTCODESIZE GT JUMPDEST ISZERO PUSH2 0x15FE JUMPI PUSH1 0x40 MLOAD PUSH4 0x3185C44D PUSH1 0xE2 SHL DUP2 MSTORE ADDRESS PUSH1 0x4 DUP3 ADD MSTORE PUSH1 0x1 PUSH1 0x1 PUSH1 0xA0 SHL SUB DUP4 DUP2 AND PUSH1 0x24 DUP4 ADD MSTORE DUP3 AND SWAP1 PUSH4 0xC6171134 SWAP1 PUSH1 0x44 ADD PUSH1 0x20 PUSH1 0x40 MLOAD DUP1 DUP4 SUB DUP2 DUP7 GAS STATICCALL ISZERO DUP1 ISZERO PUSH2 0x34FD JUMPI RETURNDATASIZE PUSH1 0x0 DUP1 RETURNDATACOPY RETURNDATASIZE PUSH1 0x0 REVERT JUMPDEST POP POP POP POP PUSH1 0x40 MLOAD RETURNDATASIZE PUSH1 0x1F NOT PUSH1 0x1F DUP3 ADD AND DUP3 ADD DUP1 PUSH1 0x40 MSTORE POP DUP2 ADD SWAP1 PUSH2 0x3521 SWAP2 SWAP1 PUSH2 0x5A37 JUMP JUMPDEST PUSH2 0x15FE JUMPI PUSH1 0x40 MLOAD PUSH4 0x3B79C773 PUSH1 0xE2 SHL DUP2 MSTORE PUSH1 0x1 PUSH1 0x1 PUSH1 0xA0 SHL SUB DUP4 AND PUSH1 0x4 DUP3 ADD MSTORE PUSH1 0x24 ADD PUSH2 0x1766 JUMP JUMPDEST PUSH2 0x3553 DUP3 DUP3 PUSH2 0x3D7A JUMP JUMPDEST PUSH2 0x15FE DUP3 DUP3 PUSH2 0x3DF5 JUMP JUMPDEST PUSH1 0x8 DUP1 SLOAD PUSH1 0x0 SWAP2 DUP3 SWAP2 DUP3 SWAP2 SWAP1 PUSH2 0x3575 SWAP2 SHR PUSH1 0x1 PUSH2 0x56F4 JUMP JUMPDEST SWAP1 POP DUP2 JUMPDEST DUP2 DUP2 LT ISZERO PUSH2 0x35B9 JUMPI PUSH1 0x0 DUP2 DUP2 MSTORE PUSH1 0xB PUSH1 0x20 MSTORE PUSH1 0x40 SWAP1 KECCAK256 SLOAD PUSH2 0x3599 DUP2 PUSH2 0x3F07 JUMP JUMPDEST PUSH2 0x35A3 SWAP1 DUP7 PUSH2 0x56F4 JUMP JUMPDEST SWAP5 POP POP DUP1 DUP1 PUSH2 0x35B1 SWAP1 PUSH2 0x5707 JUMP JUMPDEST SWAP2 POP POP PUSH2 0x3579 JUMP JUMPDEST POP POP POP SWAP1 JUMP JUMPDEST PUSH1 0x0 DUP1 PUSH1 0x8 SLOAD PUSH2 0x14EE SWAP2 SWAP1 PUSH2 0x558C JUMP JUMPDEST PUSH2 0x35D9 CALLER DUP3 PUSH2 0x3F26 JUMP JUMPDEST PUSH2 0x35F5 JUMPI PUSH1 0x40 MLOAD PUSH3 0x461BCD PUSH1 0xE5 SHL DUP2 MSTORE PUSH1 0x4 ADD PUSH2 0x1766 SWAP1 PUSH2 0x5A54 JUMP JUMPDEST PUSH2 0x1638 DUP4 DUP4 DUP4 PUSH2 0x3FEB JUMP JUMPDEST PUSH2 0x15FE DUP3 DUP3 PUSH1 0x40 MLOAD DUP1 PUSH1 0x20 ADD PUSH1 0x40 MSTORE DUP1 PUSH1 0x0 DUP2 MSTORE POP PUSH2 0x41EA JUMP JUMPDEST PUSH2 0x3624 DUP3 DUP3 PUSH2 0x2966 JUMP JUMPDEST PUSH2 0x15FE JUMPI PUSH1 0x0 DUP3 DUP2 MSTORE PUSH1 0x13 PUSH1 0x20 SWAP1 DUP2 MSTORE PUSH1 0x40 DUP1 DUP4 KECCAK256 PUSH1 0x1 PUSH1 0x1 PUSH1 0xA0 SHL SUB DUP6 AND DUP5 MSTORE SWAP1 SWAP2 MSTORE SWAP1 KECCAK256 DUP1 SLOAD PUSH1 0xFF NOT AND PUSH1 0x1 OR SWAP1 SSTORE PUSH2 0x365C CALLER SWAP1 JUMP JUMPDEST PUSH1 0x1 PUSH1 0x1 PUSH1 0xA0 SHL SUB AND DUP2 PUSH1 0x1 PUSH1 0x1 PUSH1 0xA0 SHL SUB AND DUP4 PUSH32 0x2F8788117E7EFF1D82E926EC794901D17C78024A50270940304540A733656F0D PUSH1 0x40 MLOAD PUSH1 0x40 MLOAD DUP1 SWAP2 SUB SWAP1 LOG4 POP POP JUMP JUMPDEST PUSH2 0x36AA DUP3 DUP3 PUSH2 0x2966 JUMP JUMPDEST ISZERO PUSH2 0x15FE JUMPI PUSH1 0x0 DUP3 DUP2 MSTORE PUSH1 0x13 PUSH1 0x20 SWAP1 DUP2 MSTORE PUSH1 0x40 DUP1 DUP4 KECCAK256 PUSH1 0x1 PUSH1 0x1 PUSH1 0xA0 SHL SUB DUP6 AND DUP1 DUP6 MSTORE SWAP3 MSTORE DUP1 DUP4 KECCAK256 DUP1 SLOAD PUSH1 0xFF NOT AND SWAP1 SSTORE MLOAD CALLER SWAP3 DUP6 SWAP2 PUSH32 0xF6391F5C32D9C69D2A47EA670B442974B53935D1EDC7FD64EB21E047A839171B SWAP2 SWAP1 LOG4 POP POP JUMP JUMPDEST PUSH2 0x1638 DUP4 DUP4 DUP4 PUSH1 0x40 MLOAD DUP1 PUSH1 0x20 ADD PUSH1 0x40 MSTORE DUP1 PUSH1 0x0 DUP2 MSTORE POP PUSH2 0x2B51 JUMP JUMPDEST PUSH1 0x2 PUSH1 0x14 SLOAD SUB PUSH2 0x3774 JUMPI PUSH1 0x40 MLOAD PUSH3 0x461BCD PUSH1 0xE5 SHL DUP2 MSTORE PUSH1 0x20 PUSH1 0x4 DUP3 ADD MSTORE PUSH1 0x1F PUSH1 0x24 DUP3 ADD MSTORE PUSH32 0x5265656E7472616E637947756172643A207265656E7472616E742063616C6C00 PUSH1 0x44 DUP3 ADD MSTORE PUSH1 0x64 ADD PUSH2 0x1766 JUMP JUMPDEST PUSH1 0x2 PUSH1 0x14 SSTORE JUMP JUMPDEST PUSH1 0x0 PUSH2 0x3786 DUP3 PUSH2 0x200C JUMP JUMPDEST SWAP1 POP PUSH2 0x3796 DUP2 PUSH1 0x0 DUP5 PUSH1 0x1 PUSH2 0x422B JUMP JUMPDEST PUSH2 0x37A1 PUSH1 0xB DUP4 PUSH2 0x31F8 JUMP JUMPDEST PUSH1 0x40 MLOAD DUP3 SWAP1 PUSH1 0x0 SWAP1 PUSH1 0x1 PUSH1 0x1 PUSH1 0xA0 SHL SUB DUP5 AND SWAP1 PUSH32 0xDDF252AD1BE2C89B69C2B068FC378DAA952BA7F163C4A11628F55A4DF523B3EF SWAP1 DUP4 SWAP1 LOG4 PUSH2 0x15FE DUP2 PUSH1 0x0 DUP5 PUSH1 0x1 PUSH2 0x42B5 JUMP JUMPDEST PUSH1 0x0 DUP1 PUSH2 0x37F3 DUP4 PUSH2 0x3452 JUMP JUMPDEST PUSH2 0x3854 JUMPI PUSH1 0x40 MLOAD PUSH3 0x461BCD PUSH1 0xE5 SHL DUP2 MSTORE PUSH1 0x20 PUSH1 0x4 DUP3 ADD MSTORE PUSH1 0x2C PUSH1 0x24 DUP3 ADD MSTORE PUSH32 0x4552433732315073693A206F776E657220717565727920666F72206E6F6E6578 PUSH1 0x44 DUP3 ADD MSTORE PUSH12 0x34B9BA32B73A103A37B5B2B7 PUSH1 0xA1 SHL PUSH1 0x64 DUP3 ADD MSTORE PUSH1 0x84 ADD PUSH2 0x1766 JUMP JUMPDEST PUSH2 0x385D DUP4 PUSH2 0x4464 JUMP JUMPDEST PUSH1 0x0 DUP2 DUP2 MSTORE PUSH1 0x7 PUSH1 0x20 MSTORE PUSH1 0x40 SWAP1 KECCAK256 SLOAD PUSH1 0x1 PUSH1 0x1 PUSH1 0xA0 SHL SUB AND SWAP5 SWAP1 SWAP4 POP SWAP2 POP POP JUMP JUMPDEST PUSH1 0x0 DUP3 PUSH2 0x388B DUP6 DUP5 PUSH2 0x4471 JUMP JUMPDEST EQ SWAP5 SWAP4 POP POP POP POP JUMP JUMPDEST PUSH1 0x3 DUP1 SLOAD PUSH1 0x1 PUSH1 0x1 PUSH1 0xA0 SHL SUB DUP4 DUP2 AND PUSH1 0x1 PUSH1 0x1 PUSH1 0xA0 SHL SUB NOT DUP4 AND DUP2 OR SWAP1 SWAP4 SSTORE PUSH1 0x40 MLOAD SWAP2 AND SWAP2 SWAP1 DUP3 SWAP1 PUSH32 0x8BE0079C531659141344CD1FD0A4F28419497F9722A3DAAFE3B4186F6B6457E0 SWAP1 PUSH1 0x0 SWAP1 LOG3 POP POP JUMP JUMPDEST PUSH2 0x38F1 PUSH1 0xD DUP3 PUSH2 0x44B6 JUMP JUMPDEST POP PUSH1 0x40 MLOAD PUSH1 0x1 PUSH1 0x1 PUSH1 0xA0 SHL SUB DUP3 AND SWAP1 CALLER SWAP1 PUSH32 0x3B01C97343869CA2757FCC37CDB8F71683B0A7AED858E3755F4529A1DB857292 SWAP1 PUSH1 0x0 SWAP1 LOG3 POP JUMP JUMPDEST PUSH2 0x3934 DUP3 PUSH2 0x44CB JUMP JUMPDEST DUP1 PUSH2 0x393D JUMPI POP DUP1 ISZERO JUMPDEST PUSH2 0x399F JUMPI PUSH1 0x40 MLOAD PUSH3 0x461BCD PUSH1 0xE5 SHL DUP2 MSTORE PUSH1 0x20 PUSH1 0x4 DUP3 ADD MSTORE PUSH1 0x2D PUSH1 0x24 DUP3 ADD MSTORE PUSH32 0x5265737472696374417070726F76653A2043616E206E6F7420617070726F7665 PUSH1 0x44 DUP3 ADD MSTORE PUSH13 0x103637B1B5B2B2103A37B5B2B7 PUSH1 0x99 SHL PUSH1 0x64 DUP3 ADD MSTORE PUSH1 0x84 ADD PUSH2 0x1766 JUMP JUMPDEST PUSH2 0x15FE DUP3 DUP3 PUSH2 0x44D7 JUMP JUMPDEST PUSH2 0x39B3 CALLER DUP4 PUSH2 0x3F26 JUMP JUMPDEST PUSH2 0x39CF JUMPI PUSH1 0x40 MLOAD PUSH3 0x461BCD PUSH1 0xE5 SHL DUP2 MSTORE PUSH1 0x4 ADD PUSH2 0x1766 SWAP1 PUSH2 0x5A54 JUMP JUMPDEST PUSH2 0x187F DUP5 DUP5 DUP5 DUP5 PUSH2 0x459B JUMP JUMPDEST PUSH1 0x60 DUP2 MLOAD PUSH1 0x0 SUB PUSH2 0x39FA JUMPI POP POP PUSH1 0x40 DUP1 MLOAD PUSH1 0x20 DUP2 ADD SWAP1 SWAP2 MSTORE PUSH1 0x0 DUP2 MSTORE SWAP1 JUMP JUMPDEST PUSH1 0x0 PUSH1 0x40 MLOAD DUP1 PUSH1 0x60 ADD PUSH1 0x40 MSTORE DUP1 PUSH1 0x40 DUP2 MSTORE PUSH1 0x20 ADD PUSH2 0x5C52 PUSH1 0x40 SWAP2 CODECOPY SWAP1 POP PUSH1 0x0 PUSH1 0x3 DUP5 MLOAD PUSH1 0x2 PUSH2 0x3A29 SWAP2 SWAP1 PUSH2 0x56F4 JUMP JUMPDEST PUSH2 0x3A33 SWAP2 SWAP1 PUSH2 0x5767 JUMP JUMPDEST PUSH2 0x3A3E SWAP1 PUSH1 0x4 PUSH2 0x5750 JUMP JUMPDEST SWAP1 POP PUSH1 0x0 PUSH2 0x3A4D DUP3 PUSH1 0x20 PUSH2 0x56F4 JUMP JUMPDEST PUSH1 0x1 PUSH1 0x1 PUSH1 0x40 SHL SUB DUP2 GT ISZERO PUSH2 0x3A64 JUMPI PUSH2 0x3A64 PUSH2 0x4FFF JUMP JUMPDEST PUSH1 0x40 MLOAD SWAP1 DUP1 DUP3 MSTORE DUP1 PUSH1 0x1F ADD PUSH1 0x1F NOT AND PUSH1 0x20 ADD DUP3 ADD PUSH1 0x40 MSTORE DUP1 ISZERO PUSH2 0x3A8E JUMPI PUSH1 0x20 DUP3 ADD DUP2 DUP1 CALLDATASIZE DUP4 CALLDATACOPY ADD SWAP1 POP JUMPDEST POP SWAP1 POP DUP2 DUP2 MSTORE PUSH1 0x1 DUP4 ADD DUP6 DUP7 MLOAD DUP2 ADD PUSH1 0x20 DUP5 ADD JUMPDEST DUP2 DUP4 LT ISZERO PUSH2 0x3AFA JUMPI PUSH1 0x3 DUP4 ADD SWAP3 POP DUP3 MLOAD PUSH1 0x3F DUP2 PUSH1 0x12 SHR AND DUP6 ADD MLOAD DUP3 MSTORE8 PUSH1 0x1 DUP3 ADD SWAP2 POP PUSH1 0x3F DUP2 PUSH1 0xC SHR AND DUP6 ADD MLOAD DUP3 MSTORE8 PUSH1 0x1 DUP3 ADD SWAP2 POP PUSH1 0x3F DUP2 PUSH1 0x6 SHR AND DUP6 ADD MLOAD DUP3 MSTORE8 PUSH1 0x1 DUP3 ADD SWAP2 POP PUSH1 0x3F DUP2 AND DUP6 ADD MLOAD DUP3 MSTORE8 POP PUSH1 0x1 ADD PUSH2 0x3AA2 JUMP JUMPDEST PUSH1 0x3 DUP10 MLOAD MOD PUSH1 0x1 DUP2 EQ PUSH2 0x3B14 JUMPI PUSH1 0x2 DUP2 EQ PUSH2 0x3B25 JUMPI PUSH2 0x3B31 JUMP JUMPDEST PUSH2 0x3D3D PUSH1 0xF0 SHL PUSH1 0x1 NOT DUP4 ADD MSTORE PUSH2 0x3B31 JUMP JUMPDEST PUSH1 0x3D PUSH1 0xF8 SHL PUSH1 0x0 NOT DUP4 ADD MSTORE JUMPDEST POP SWAP4 SWAP9 SWAP8 POP POP POP POP POP POP POP POP JUMP JUMPDEST PUSH1 0x60 PUSH2 0x3B4A DUP3 PUSH2 0x3452 JUMP JUMPDEST PUSH2 0x3BA9 JUMPI PUSH1 0x40 MLOAD PUSH3 0x461BCD PUSH1 0xE5 SHL DUP2 MSTORE PUSH1 0x20 PUSH1 0x4 DUP3 ADD MSTORE PUSH1 0x2A PUSH1 0x24 DUP3 ADD MSTORE PUSH32 0x4552433732315073693A2055524920717565727920666F72206E6F6E65786973 PUSH1 0x44 DUP3 ADD MSTORE PUSH10 0x3A32B73A103A37B5B2B7 PUSH1 0xB1 SHL PUSH1 0x64 DUP3 ADD MSTORE PUSH1 0x84 ADD PUSH2 0x1766 JUMP JUMPDEST PUSH1 0x0 PUSH2 0x3BB3 PUSH2 0x45B4 JUMP JUMPDEST SWAP1 POP PUSH1 0x0 DUP2 MLOAD GT PUSH2 0x3BD3 JUMPI PUSH1 0x40 MLOAD DUP1 PUSH1 0x20 ADD PUSH1 0x40 MSTORE DUP1 PUSH1 0x0 DUP2 MSTORE POP PUSH2 0x2EF4 JUMP JUMPDEST DUP1 PUSH2 0x3BDD DUP5 PUSH2 0x45C3 JUMP JUMPDEST PUSH1 0x40 MLOAD PUSH1 0x20 ADD PUSH2 0x3BEE SWAP3 SWAP2 SWAP1 PUSH2 0x5AA8 JUMP JUMPDEST PUSH1 0x40 MLOAD PUSH1 0x20 DUP2 DUP4 SUB SUB DUP2 MSTORE SWAP1 PUSH1 0x40 MSTORE SWAP4 SWAP3 POP POP POP JUMP JUMPDEST PUSH1 0x0 DUP1 PUSH2 0x3C10 DUP5 PUSH2 0x4655 JUMP JUMPDEST SWAP1 POP PUSH2 0x3C1C DUP4 DUP3 PUSH2 0x4697 JUMP JUMPDEST SWAP5 SWAP4 POP POP POP POP JUMP JUMPDEST PUSH2 0x3C2F PUSH1 0xD DUP3 PUSH2 0x3036 JUMP JUMPDEST POP PUSH1 0x40 MLOAD PUSH1 0x1 PUSH1 0x1 PUSH1 0xA0 SHL SUB DUP3 AND SWAP1 CALLER SWAP1 PUSH32 0xBD0AF1FE0A2C1C7BB340C17A284A291138979C8EEB797E176DBD1C415199AF3C SWAP1 PUSH1 0x0 SWAP1 LOG3 POP JUMP JUMPDEST PUSH1 0x0 DUP2 DUP2 MSTORE PUSH1 0x1 DUP4 ADD PUSH1 0x20 MSTORE PUSH1 0x40 DUP2 KECCAK256 SLOAD PUSH2 0x3CB0 JUMPI POP DUP2 SLOAD PUSH1 0x1 DUP2 DUP2 ADD DUP5 SSTORE PUSH1 0x0 DUP5 DUP2 MSTORE PUSH1 0x20 DUP1 DUP3 KECCAK256 SWAP1 SWAP4 ADD DUP5 SWAP1 SSTORE DUP5 SLOAD DUP5 DUP3 MSTORE DUP3 DUP7 ADD SWAP1 SWAP4 MSTORE PUSH1 0x40 SWAP1 KECCAK256 SWAP2 SWAP1 SWAP2 SSTORE PUSH2 0x15C1 JUMP JUMPDEST POP PUSH1 0x0 PUSH2 0x15C1 JUMP JUMPDEST PUSH1 0x60 PUSH1 0x0 PUSH2 0x2EF4 DUP4 PUSH2 0x4730 JUMP JUMPDEST PUSH1 0x0 PUSH1 0x1 PUSH1 0x1 PUSH1 0xE0 SHL SUB NOT DUP3 AND PUSH4 0x80AC58CD PUSH1 0xE0 SHL EQ DUP1 PUSH2 0x3CF6 JUMPI POP PUSH1 0x1 PUSH1 0x1 PUSH1 0xE0 SHL SUB NOT DUP3 AND PUSH4 0x5B5E139F PUSH1 0xE0 SHL EQ JUMPDEST DUP1 PUSH2 0x15C1 JUMPI POP PUSH2 0x15C1 DUP3 PUSH2 0x3271 JUMP JUMPDEST PUSH2 0x3D0F DUP3 DUP3 PUSH2 0x2966 JUMP JUMPDEST PUSH2 0x15FE JUMPI PUSH2 0x3D1C DUP2 PUSH2 0x304B JUMP JUMPDEST PUSH2 0x3D27 DUP4 PUSH1 0x20 PUSH2 0x305D JUMP JUMPDEST PUSH1 0x40 MLOAD PUSH1 0x20 ADD PUSH2 0x3D38 SWAP3 SWAP2 SWAP1 PUSH2 0x5AD7 JUMP JUMPDEST PUSH1 0x40 DUP1 MLOAD PUSH1 0x1F NOT DUP2 DUP5 SUB ADD DUP2 MSTORE SWAP1 DUP3 SWAP1 MSTORE PUSH3 0x461BCD PUSH1 0xE5 SHL DUP3 MSTORE PUSH2 0x1766 SWAP2 PUSH1 0x4 ADD PUSH2 0x4F44 JUMP JUMPDEST PUSH1 0x0 PUSH2 0x3D69 PUSH1 0x8 SLOAD SWAP1 JUMP JUMPDEST DUP3 LT DUP1 ISZERO PUSH2 0x15C1 JUMPI POP PUSH1 0x1 SWAP3 SWAP2 POP POP JUMP JUMPDEST PUSH1 0x1 PUSH1 0x1 PUSH1 0xA0 SHL SUB DUP3 AND ISZERO PUSH2 0x15FE JUMPI PUSH2 0x3D93 DUP2 DUP4 PUSH2 0x478C JUMP JUMPDEST PUSH2 0x15FE JUMPI PUSH1 0x40 MLOAD PUSH3 0x461BCD PUSH1 0xE5 SHL DUP2 MSTORE PUSH1 0x20 PUSH1 0x4 DUP3 ADD MSTORE PUSH1 0x2D PUSH1 0x24 DUP3 ADD MSTORE PUSH32 0x5265737472696374417070726F76653A2054686520636F6E7472616374206973 PUSH1 0x44 DUP3 ADD MSTORE PUSH13 0x103737BA1030B63637BBB2B217 PUSH1 0x99 SHL PUSH1 0x64 DUP3 ADD MSTORE PUSH1 0x84 ADD PUSH2 0x1766 JUMP JUMPDEST PUSH1 0x0 PUSH2 0x3E00 DUP3 PUSH2 0x200C JUMP JUMPDEST SWAP1 POP DUP1 PUSH1 0x1 PUSH1 0x1 PUSH1 0xA0 SHL SUB AND DUP4 PUSH1 0x1 PUSH1 0x1 PUSH1 0xA0 SHL SUB AND SUB PUSH2 0x3E6F JUMPI PUSH1 0x40 MLOAD PUSH3 0x461BCD PUSH1 0xE5 SHL DUP2 MSTORE PUSH1 0x20 PUSH1 0x4 DUP3 ADD MSTORE PUSH1 0x24 DUP1 DUP3 ADD MSTORE PUSH32 0x4552433732315073693A20617070726F76616C20746F2063757272656E74206F PUSH1 0x44 DUP3 ADD MSTORE PUSH4 0x3BB732B9 PUSH1 0xE1 SHL PUSH1 0x64 DUP3 ADD MSTORE PUSH1 0x84 ADD PUSH2 0x1766 JUMP JUMPDEST CALLER PUSH1 0x1 PUSH1 0x1 PUSH1 0xA0 SHL SUB DUP3 AND EQ DUP1 PUSH2 0x3E8B JUMPI POP PUSH2 0x3E8B DUP2 CALLER PUSH2 0x2EAD JUMP JUMPDEST PUSH2 0x3EFD JUMPI PUSH1 0x40 MLOAD PUSH3 0x461BCD PUSH1 0xE5 SHL DUP2 MSTORE PUSH1 0x20 PUSH1 0x4 DUP3 ADD MSTORE PUSH1 0x3B PUSH1 0x24 DUP3 ADD MSTORE PUSH32 0x4552433732315073693A20617070726F76652063616C6C6572206973206E6F74 PUSH1 0x44 DUP3 ADD MSTORE PUSH32 0x206F776E6572206E6F7220617070726F76656420666F7220616C6C0000000000 PUSH1 0x64 DUP3 ADD MSTORE PUSH1 0x84 ADD PUSH2 0x1766 JUMP JUMPDEST PUSH2 0x1638 DUP4 DUP4 PUSH2 0x4799 JUMP JUMPDEST PUSH1 0x0 JUMPDEST DUP2 ISZERO PUSH2 0x3F21 JUMPI PUSH1 0x0 NOT DUP3 ADD SWAP1 SWAP2 AND SWAP1 PUSH1 0x1 ADD PUSH2 0x3F0A JUMP JUMPDEST SWAP2 SWAP1 POP JUMP JUMPDEST PUSH1 0x0 PUSH2 0x3F31 DUP3 PUSH2 0x3452 JUMP JUMPDEST PUSH2 0x3F95 JUMPI PUSH1 0x40 MLOAD PUSH3 0x461BCD PUSH1 0xE5 SHL DUP2 MSTORE PUSH1 0x20 PUSH1 0x4 DUP3 ADD MSTORE PUSH1 0x2F PUSH1 0x24 DUP3 ADD MSTORE PUSH32 0x4552433732315073693A206F70657261746F7220717565727920666F72206E6F PUSH1 0x44 DUP3 ADD MSTORE PUSH15 0x3732BC34B9BA32B73A103A37B5B2B7 PUSH1 0x89 SHL PUSH1 0x64 DUP3 ADD MSTORE PUSH1 0x84 ADD PUSH2 0x1766 JUMP JUMPDEST PUSH1 0x0 PUSH2 0x3FA0 DUP4 PUSH2 0x200C JUMP JUMPDEST SWAP1 POP DUP1 PUSH1 0x1 PUSH1 0x1 PUSH1 0xA0 SHL SUB AND DUP5 PUSH1 0x1 PUSH1 0x1 PUSH1 0xA0 SHL SUB AND EQ DUP1 PUSH2 0x3FDB JUMPI POP DUP4 PUSH1 0x1 PUSH1 0x1 PUSH1 0xA0 SHL SUB AND PUSH2 0x3FD0 DUP5 PUSH2 0x16FB JUMP JUMPDEST PUSH1 0x1 PUSH1 0x1 PUSH1 0xA0 SHL SUB AND EQ JUMPDEST DUP1 PUSH2 0x3C1C JUMPI POP PUSH2 0x3C1C DUP2 DUP6 PUSH2 0x2EAD JUMP JUMPDEST PUSH1 0x0 DUP1 PUSH2 0x3FF7 DUP4 PUSH2 0x37E7 JUMP JUMPDEST SWAP2 POP SWAP2 POP DUP5 PUSH1 0x1 PUSH1 0x1 PUSH1 0xA0 SHL SUB AND DUP3 PUSH1 0x1 PUSH1 0x1 PUSH1 0xA0 SHL SUB AND EQ PUSH2 0x4071 JUMPI PUSH1 0x40 MLOAD PUSH3 0x461BCD PUSH1 0xE5 SHL DUP2 MSTORE PUSH1 0x20 PUSH1 0x4 DUP3 ADD MSTORE PUSH1 0x2C PUSH1 0x24 DUP3 ADD MSTORE PUSH32 0x4552433732315073693A207472616E73666572206F6620746F6B656E20746861 PUSH1 0x44 DUP3 ADD MSTORE PUSH12 0x3A1034B9903737BA1037BBB7 PUSH1 0xA1 SHL PUSH1 0x64 DUP3 ADD MSTORE PUSH1 0x84 ADD PUSH2 0x1766 JUMP JUMPDEST PUSH1 0x1 PUSH1 0x1 PUSH1 0xA0 SHL SUB DUP5 AND PUSH2 0x40D7 JUMPI PUSH1 0x40 MLOAD PUSH3 0x461BCD PUSH1 0xE5 SHL DUP2 MSTORE PUSH1 0x20 PUSH1 0x4 DUP3 ADD MSTORE PUSH1 0x27 PUSH1 0x24 DUP3 ADD MSTORE PUSH32 0x4552433732315073693A207472616E7366657220746F20746865207A65726F20 PUSH1 0x44 DUP3 ADD MSTORE PUSH7 0x61646472657373 PUSH1 0xC8 SHL PUSH1 0x64 DUP3 ADD MSTORE PUSH1 0x84 ADD PUSH2 0x1766 JUMP JUMPDEST PUSH2 0x40E4 DUP6 DUP6 DUP6 PUSH1 0x1 PUSH2 0x422B JUMP JUMPDEST PUSH2 0x40EF PUSH1 0x0 DUP5 PUSH2 0x4799 JUMP JUMPDEST PUSH1 0x0 PUSH2 0x40FC DUP5 PUSH1 0x1 PUSH2 0x56F4 JUMP JUMPDEST PUSH1 0x8 DUP2 SWAP1 SHR PUSH1 0x0 SWAP1 DUP2 MSTORE PUSH1 0x4 PUSH1 0x20 MSTORE PUSH1 0x40 SWAP1 KECCAK256 SLOAD SWAP1 SWAP2 POP PUSH1 0x1 PUSH1 0xFF SHL PUSH1 0xFF DUP4 AND SHR AND ISZERO DUP1 ISZERO PUSH2 0x412C JUMPI POP PUSH1 0x8 SLOAD DUP2 LT JUMPDEST ISZERO PUSH2 0x4163 JUMPI PUSH1 0x0 DUP2 DUP2 MSTORE PUSH1 0x7 PUSH1 0x20 MSTORE PUSH1 0x40 SWAP1 KECCAK256 DUP1 SLOAD PUSH1 0x1 PUSH1 0x1 PUSH1 0xA0 SHL SUB NOT AND PUSH1 0x1 PUSH1 0x1 PUSH1 0xA0 SHL SUB DUP9 AND OR SWAP1 SSTORE PUSH2 0x4163 PUSH1 0x4 DUP3 PUSH2 0x31F8 JUMP JUMPDEST PUSH1 0x0 DUP5 DUP2 MSTORE PUSH1 0x7 PUSH1 0x20 MSTORE PUSH1 0x40 SWAP1 KECCAK256 DUP1 SLOAD PUSH1 0x1 PUSH1 0x1 PUSH1 0xA0 SHL SUB NOT AND PUSH1 0x1 PUSH1 0x1 PUSH1 0xA0 SHL SUB DUP8 AND OR SWAP1 SSTORE DUP2 DUP5 EQ PUSH2 0x419C JUMPI PUSH2 0x419C PUSH1 0x4 DUP6 PUSH2 0x31F8 JUMP JUMPDEST DUP4 DUP6 PUSH1 0x1 PUSH1 0x1 PUSH1 0xA0 SHL SUB AND DUP8 PUSH1 0x1 PUSH1 0x1 PUSH1 0xA0 SHL SUB AND PUSH32 0xDDF252AD1BE2C89B69C2B068FC378DAA952BA7F163C4A11628F55A4DF523B3EF PUSH1 0x40 MLOAD PUSH1 0x40 MLOAD DUP1 SWAP2 SUB SWAP1 LOG4 PUSH2 0x2608 DUP7 DUP7 DUP7 PUSH1 0x1 PUSH2 0x42B5 JUMP JUMPDEST PUSH1 0x0 PUSH2 0x41F5 PUSH1 0x8 SLOAD SWAP1 JUMP JUMPDEST SWAP1 POP PUSH2 0x4201 DUP5 DUP5 PUSH2 0x4807 JUMP JUMPDEST PUSH2 0x420F PUSH1 0x0 DUP6 DUP4 DUP7 DUP7 PUSH2 0x4994 JUMP JUMPDEST PUSH2 0x187F JUMPI PUSH1 0x40 MLOAD PUSH3 0x461BCD PUSH1 0xE5 SHL DUP2 MSTORE PUSH1 0x4 ADD PUSH2 0x1766 SWAP1 PUSH2 0x5B4C JUMP JUMPDEST PUSH1 0x2A SLOAD PUSH1 0xFF AND ISZERO DUP1 PUSH2 0x4244 JUMPI POP PUSH1 0x1 PUSH1 0x1 PUSH1 0xA0 SHL SUB DUP5 AND ISZERO JUMPDEST DUP1 PUSH2 0x4256 JUMPI POP PUSH1 0x1 PUSH1 0x1 PUSH1 0xA0 SHL SUB DUP4 AND ISZERO JUMPDEST DUP1 PUSH2 0x426B JUMPI POP PUSH1 0x1 PUSH1 0x1 PUSH1 0xA0 SHL SUB DUP4 AND PUSH2 0xDEAD EQ JUMPDEST PUSH2 0x42B0 JUMPI PUSH1 0x40 MLOAD PUSH3 0x461BCD PUSH1 0xE5 SHL DUP2 MSTORE PUSH1 0x20 PUSH1 0x4 DUP3 ADD MSTORE PUSH1 0x16 PUSH1 0x24 DUP3 ADD MSTORE PUSH22 0x1D1C985B9CD9995C881A5CC81C1C9BDA1A589A5D1959 PUSH1 0x52 SHL PUSH1 0x44 DUP3 ADD MSTORE PUSH1 0x64 ADD PUSH2 0x1766 JUMP JUMPDEST PUSH2 0x187F JUMP JUMPDEST PUSH1 0x1 PUSH1 0x40 SHL DUP2 LT PUSH2 0x42C5 JUMPI PUSH1 0x0 DUP1 REVERT JUMPDEST DUP1 PUSH1 0x1 PUSH1 0x1 PUSH1 0xA0 SHL SUB DUP6 AND ISZERO PUSH2 0x432F JUMPI PUSH1 0x1 PUSH1 0x1 PUSH1 0xA0 SHL SUB DUP6 AND PUSH1 0x0 SWAP1 DUP2 MSTORE PUSH1 0x2B PUSH1 0x20 MSTORE PUSH1 0x40 DUP2 KECCAK256 DUP1 SLOAD DUP4 SWAP3 SWAP1 PUSH2 0x4306 SWAP1 DUP5 SWAP1 PUSH1 0x1 PUSH1 0x1 PUSH1 0x40 SHL SUB AND PUSH2 0x5BA1 JUMP JUMPDEST SWAP3 POP PUSH2 0x100 EXP DUP2 SLOAD DUP2 PUSH1 0x1 PUSH1 0x1 PUSH1 0x40 SHL SUB MUL NOT AND SWAP1 DUP4 PUSH1 0x1 PUSH1 0x1 PUSH1 0x40 SHL SUB AND MUL OR SWAP1 SSTORE POP PUSH2 0x438F JUMP JUMPDEST PUSH1 0x1 PUSH1 0x1 PUSH1 0xA0 SHL SUB DUP5 AND PUSH1 0x0 SWAP1 DUP2 MSTORE PUSH1 0x2B PUSH1 0x20 MSTORE PUSH1 0x40 SWAP1 KECCAK256 DUP1 SLOAD DUP3 SWAP2 SWAP1 PUSH1 0x8 SWAP1 PUSH2 0x436A SWAP1 DUP5 SWAP1 PUSH1 0x1 PUSH1 0x40 SHL SWAP1 DIV PUSH1 0x1 PUSH1 0x1 PUSH1 0x40 SHL SUB AND PUSH2 0x5BC1 JUMP JUMPDEST SWAP3 POP PUSH2 0x100 EXP DUP2 SLOAD DUP2 PUSH1 0x1 PUSH1 0x1 PUSH1 0x40 SHL SUB MUL NOT AND SWAP1 DUP4 PUSH1 0x1 PUSH1 0x1 PUSH1 0x40 SHL SUB AND MUL OR SWAP1 SSTORE POP JUMPDEST PUSH1 0x1 PUSH1 0x1 PUSH1 0xA0 SHL SUB DUP5 AND ISZERO PUSH2 0x43F8 JUMPI PUSH1 0x1 PUSH1 0x1 PUSH1 0xA0 SHL SUB DUP5 AND PUSH1 0x0 SWAP1 DUP2 MSTORE PUSH1 0x2B PUSH1 0x20 MSTORE PUSH1 0x40 DUP2 KECCAK256 DUP1 SLOAD DUP4 SWAP3 SWAP1 PUSH2 0x43CF SWAP1 DUP5 SWAP1 PUSH1 0x1 PUSH1 0x1 PUSH1 0x40 SHL SUB AND PUSH2 0x5BC1 JUMP JUMPDEST SWAP3 POP PUSH2 0x100 EXP DUP2 SLOAD DUP2 PUSH1 0x1 PUSH1 0x1 PUSH1 0x40 SHL SUB MUL NOT AND SWAP1 DUP4 PUSH1 0x1 PUSH1 0x1 PUSH1 0x40 SHL SUB AND MUL OR SWAP1 SSTORE POP PUSH2 0x4458 JUMP JUMPDEST PUSH1 0x1 PUSH1 0x1 PUSH1 0xA0 SHL SUB DUP6 AND PUSH1 0x0 SWAP1 DUP2 MSTORE PUSH1 0x2B PUSH1 0x20 MSTORE PUSH1 0x40 SWAP1 KECCAK256 DUP1 SLOAD DUP3 SWAP2 SWAP1 PUSH1 0x10 SWAP1 PUSH2 0x4433 SWAP1 DUP5 SWAP1 PUSH1 0x1 PUSH1 0x80 SHL SWAP1 DIV PUSH1 0x1 PUSH1 0x1 PUSH1 0x40 SHL SUB AND PUSH2 0x5BC1 JUMP JUMPDEST SWAP3 POP PUSH2 0x100 EXP DUP2 SLOAD DUP2 PUSH1 0x1 PUSH1 0x1 PUSH1 0x40 SHL SUB MUL NOT AND SWAP1 DUP4 PUSH1 0x1 PUSH1 0x1 PUSH1 0x40 SHL SUB AND MUL OR SWAP1 SSTORE POP JUMPDEST PUSH2 0x1AC5 DUP6 DUP6 DUP6 DUP6 PUSH2 0x3242 JUMP JUMPDEST PUSH1 0x0 PUSH2 0x15C1 PUSH1 0x4 DUP4 PUSH2 0x4ACB JUMP JUMPDEST PUSH1 0x0 DUP2 DUP2 JUMPDEST DUP5 MLOAD DUP2 LT ISZERO PUSH2 0x2018 JUMPI PUSH2 0x44A2 DUP3 DUP7 DUP4 DUP2 MLOAD DUP2 LT PUSH2 0x4495 JUMPI PUSH2 0x4495 PUSH2 0x56DE JUMP JUMPDEST PUSH1 0x20 MUL PUSH1 0x20 ADD ADD MLOAD PUSH2 0x4BC3 JUMP JUMPDEST SWAP2 POP DUP1 PUSH2 0x44AE DUP2 PUSH2 0x5707 JUMP JUMPDEST SWAP2 POP POP PUSH2 0x4476 JUMP JUMPDEST PUSH1 0x0 PUSH2 0x2EF4 DUP4 PUSH1 0x1 PUSH1 0x1 PUSH1 0xA0 SHL SUB DUP5 AND PUSH2 0x4BF2 JUMP JUMPDEST PUSH1 0x0 PUSH2 0x15C1 CALLER DUP4 PUSH2 0x3C04 JUMP JUMPDEST CALLER PUSH1 0x1 PUSH1 0x1 PUSH1 0xA0 SHL SUB DUP4 AND SUB PUSH2 0x452F JUMPI PUSH1 0x40 MLOAD PUSH3 0x461BCD PUSH1 0xE5 SHL DUP2 MSTORE PUSH1 0x20 PUSH1 0x4 DUP3 ADD MSTORE PUSH1 0x1C PUSH1 0x24 DUP3 ADD MSTORE PUSH32 0x4552433732315073693A20617070726F766520746F2063616C6C657200000000 PUSH1 0x44 DUP3 ADD MSTORE PUSH1 0x64 ADD PUSH2 0x1766 JUMP JUMPDEST CALLER PUSH1 0x0 DUP2 DUP2 MSTORE PUSH1 0xA PUSH1 0x20 SWAP1 DUP2 MSTORE PUSH1 0x40 DUP1 DUP4 KECCAK256 PUSH1 0x1 PUSH1 0x1 PUSH1 0xA0 SHL SUB DUP8 AND DUP1 DUP6 MSTORE SWAP1 DUP4 MSTORE SWAP3 DUP2 SWAP1 KECCAK256 DUP1 SLOAD PUSH1 0xFF NOT AND DUP7 ISZERO ISZERO SWAP1 DUP2 OR SWAP1 SWAP2 SSTORE SWAP1 MLOAD SWAP1 DUP2 MSTORE SWAP2 SWAP3 SWAP2 PUSH32 0x17307EAB39AB6107E8899845AD3D59BD9653F200F220920489CA2B5937696C31 SWAP2 ADD PUSH1 0x40 MLOAD DUP1 SWAP2 SUB SWAP1 LOG3 POP POP JUMP JUMPDEST PUSH2 0x45A6 DUP5 DUP5 DUP5 PUSH2 0x3FEB JUMP JUMPDEST PUSH2 0x420F DUP5 DUP5 DUP5 PUSH1 0x1 DUP6 PUSH2 0x4994 JUMP JUMPDEST PUSH1 0x60 PUSH1 0x21 DUP1 SLOAD PUSH2 0x164C SWAP1 PUSH2 0x559F JUMP JUMPDEST PUSH1 0x60 PUSH1 0x0 PUSH2 0x45D0 DUP4 PUSH2 0x4CEC JUMP JUMPDEST PUSH1 0x1 ADD SWAP1 POP PUSH1 0x0 DUP2 PUSH1 0x1 PUSH1 0x1 PUSH1 0x40 SHL SUB DUP2 GT ISZERO PUSH2 0x45EF JUMPI PUSH2 0x45EF PUSH2 0x4FFF JUMP JUMPDEST PUSH1 0x40 MLOAD SWAP1 DUP1 DUP3 MSTORE DUP1 PUSH1 0x1F ADD PUSH1 0x1F NOT AND PUSH1 0x20 ADD DUP3 ADD PUSH1 0x40 MSTORE DUP1 ISZERO PUSH2 0x4619 JUMPI PUSH1 0x20 DUP3 ADD DUP2 DUP1 CALLDATASIZE DUP4 CALLDATACOPY ADD SWAP1 POP JUMPDEST POP SWAP1 POP DUP2 DUP2 ADD PUSH1 0x20 ADD JUMPDEST PUSH1 0x0 NOT ADD PUSH16 0x181899199A1A9B1B9C1CB0B131B232B3 PUSH1 0x81 SHL PUSH1 0xA DUP7 MOD BYTE DUP2 MSTORE8 PUSH1 0xA DUP6 DIV SWAP5 POP DUP5 PUSH2 0x4623 JUMPI POP SWAP4 SWAP3 POP POP POP JUMP JUMPDEST PUSH1 0x1 PUSH1 0x1 PUSH1 0xA0 SHL SUB DUP2 AND PUSH1 0x0 SWAP1 DUP2 MSTORE PUSH1 0x11 PUSH1 0x20 MSTORE PUSH1 0x40 DUP2 KECCAK256 SLOAD ISZERO PUSH2 0x468F JUMPI POP PUSH1 0x1 PUSH1 0x1 PUSH1 0xA0 SHL SUB AND PUSH1 0x0 SWAP1 DUP2 MSTORE PUSH1 0x11 PUSH1 0x20 MSTORE PUSH1 0x40 SWAP1 KECCAK256 SLOAD SWAP1 JUMP JUMPDEST POP POP PUSH1 0x12 SLOAD SWAP1 JUMP JUMPDEST PUSH1 0xF SLOAD PUSH1 0x0 SWAP1 PUSH1 0xFF AND PUSH2 0x46AC JUMPI POP PUSH1 0x1 PUSH2 0x15C1 JUMP JUMPDEST PUSH2 0x46B5 DUP4 PUSH2 0x4DC4 JUMP JUMPDEST DUP1 PUSH2 0x2EF4 JUMPI POP PUSH1 0xC SLOAD PUSH1 0x40 MLOAD PUSH4 0xF8350ED PUSH1 0xE4 SHL DUP2 MSTORE PUSH1 0x1 PUSH1 0x1 PUSH1 0xA0 SHL SUB DUP6 DUP2 AND PUSH1 0x4 DUP4 ADD MSTORE PUSH1 0x24 DUP3 ADD DUP6 SWAP1 MSTORE SWAP1 SWAP2 AND SWAP1 PUSH4 0xF8350ED0 SWAP1 PUSH1 0x44 ADD PUSH1 0x20 PUSH1 0x40 MLOAD DUP1 DUP4 SUB DUP2 DUP7 GAS STATICCALL ISZERO DUP1 ISZERO PUSH2 0x470C JUMPI RETURNDATASIZE PUSH1 0x0 DUP1 RETURNDATACOPY RETURNDATASIZE PUSH1 0x0 REVERT JUMPDEST POP POP POP POP PUSH1 0x40 MLOAD RETURNDATASIZE PUSH1 0x1F NOT PUSH1 0x1F DUP3 ADD AND DUP3 ADD DUP1 PUSH1 0x40 MSTORE POP DUP2 ADD SWAP1 PUSH2 0x2EF4 SWAP2 SWAP1 PUSH2 0x5A37 JUMP JUMPDEST PUSH1 0x60 DUP2 PUSH1 0x0 ADD DUP1 SLOAD DUP1 PUSH1 0x20 MUL PUSH1 0x20 ADD PUSH1 0x40 MLOAD SWAP1 DUP2 ADD PUSH1 0x40 MSTORE DUP1 SWAP3 SWAP2 SWAP1 DUP2 DUP2 MSTORE PUSH1 0x20 ADD DUP3 DUP1 SLOAD DUP1 ISZERO PUSH2 0x4780 JUMPI PUSH1 0x20 MUL DUP3 ADD SWAP2 SWAP1 PUSH1 0x0 MSTORE PUSH1 0x20 PUSH1 0x0 KECCAK256 SWAP1 JUMPDEST DUP2 SLOAD DUP2 MSTORE PUSH1 0x20 ADD SWAP1 PUSH1 0x1 ADD SWAP1 DUP1 DUP4 GT PUSH2 0x476C JUMPI JUMPDEST POP POP POP POP POP SWAP1 POP SWAP2 SWAP1 POP JUMP JUMPDEST PUSH1 0x0 DUP1 PUSH2 0x3C10 CALLER DUP6 PUSH2 0x4DD1 JUMP JUMPDEST PUSH1 0x0 DUP2 DUP2 MSTORE PUSH1 0x9 PUSH1 0x20 MSTORE PUSH1 0x40 SWAP1 KECCAK256 DUP1 SLOAD PUSH1 0x1 PUSH1 0x1 PUSH1 0xA0 SHL SUB NOT AND PUSH1 0x1 PUSH1 0x1 PUSH1 0xA0 SHL SUB DUP5 AND SWAP1 DUP2 OR SWAP1 SWAP2 SSTORE DUP2 SWAP1 PUSH2 0x47CE DUP3 PUSH2 0x200C JUMP JUMPDEST PUSH1 0x1 PUSH1 0x1 PUSH1 0xA0 SHL SUB AND PUSH32 0x8C5BE1E5EBEC7D5BD14F71427D1E84F3DD0314C0F7B2291E5B200AC8C7C3B925 PUSH1 0x40 MLOAD PUSH1 0x40 MLOAD DUP1 SWAP2 SUB SWAP1 LOG4 POP POP JUMP JUMPDEST PUSH1 0x0 PUSH2 0x4812 PUSH1 0x8 SLOAD SWAP1 JUMP JUMPDEST SWAP1 POP PUSH1 0x0 DUP3 GT PUSH2 0x4872 JUMPI PUSH1 0x40 MLOAD PUSH3 0x461BCD PUSH1 0xE5 SHL DUP2 MSTORE PUSH1 0x20 PUSH1 0x4 DUP3 ADD MSTORE PUSH1 0x25 PUSH1 0x24 DUP3 ADD MSTORE PUSH32 0x4552433732315073693A207175616E74697479206D7573742062652067726561 PUSH1 0x44 DUP3 ADD MSTORE PUSH5 0x746572203 PUSH1 0xDC SHL PUSH1 0x64 DUP3 ADD MSTORE PUSH1 0x84 ADD PUSH2 0x1766 JUMP JUMPDEST PUSH1 0x1 PUSH1 0x1 PUSH1 0xA0 SHL SUB DUP4 AND PUSH2 0x48D4 JUMPI PUSH1 0x40 MLOAD PUSH3 0x461BCD PUSH1 0xE5 SHL DUP2 MSTORE PUSH1 0x20 PUSH1 0x4 DUP3 ADD MSTORE PUSH1 0x23 PUSH1 0x24 DUP3 ADD MSTORE PUSH32 0x4552433732315073693A206D696E7420746F20746865207A65726F2061646472 PUSH1 0x44 DUP3 ADD MSTORE PUSH3 0x657373 PUSH1 0xE8 SHL PUSH1 0x64 DUP3 ADD MSTORE PUSH1 0x84 ADD PUSH2 0x1766 JUMP JUMPDEST PUSH2 0x48E1 PUSH1 0x0 DUP5 DUP4 DUP6 PUSH2 0x422B JUMP JUMPDEST DUP2 PUSH1 0x8 PUSH1 0x0 DUP3 DUP3 SLOAD PUSH2 0x48F3 SWAP2 SWAP1 PUSH2 0x56F4 JUMP JUMPDEST SWAP1 SWAP2 SSTORE POP POP PUSH1 0x0 DUP2 DUP2 MSTORE PUSH1 0x7 PUSH1 0x20 MSTORE PUSH1 0x40 SWAP1 KECCAK256 DUP1 SLOAD PUSH1 0x1 PUSH1 0x1 PUSH1 0xA0 SHL SUB NOT AND PUSH1 0x1 PUSH1 0x1 PUSH1 0xA0 SHL SUB DUP6 AND OR SWAP1 SSTORE PUSH2 0x492A PUSH1 0x4 DUP3 PUSH2 0x31F8 JUMP JUMPDEST PUSH2 0x4937 PUSH1 0x0 DUP5 DUP4 DUP6 PUSH2 0x42B5 JUMP JUMPDEST DUP1 JUMPDEST PUSH2 0x4943 DUP4 DUP4 PUSH2 0x56F4 JUMP JUMPDEST DUP2 LT ISZERO PUSH2 0x187F JUMPI PUSH1 0x40 MLOAD DUP2 SWAP1 PUSH1 0x1 PUSH1 0x1 PUSH1 0xA0 SHL SUB DUP7 AND SWAP1 PUSH1 0x0 SWAP1 PUSH32 0xDDF252AD1BE2C89B69C2B068FC378DAA952BA7F163C4A11628F55A4DF523B3EF SWAP1 DUP3 SWAP1 LOG4 DUP1 PUSH2 0x498C DUP2 PUSH2 0x5707 JUMP JUMPDEST SWAP2 POP POP PUSH2 0x4939 JUMP JUMPDEST PUSH1 0x0 PUSH1 0x1 PUSH1 0x1 PUSH1 0xA0 SHL SUB DUP6 AND EXTCODESIZE ISZERO PUSH2 0x4ABE JUMPI POP PUSH1 0x1 DUP4 JUMPDEST PUSH2 0x49B5 DUP5 DUP7 PUSH2 0x56F4 JUMP JUMPDEST DUP2 LT ISZERO PUSH2 0x4AB8 JUMPI PUSH1 0x40 MLOAD PUSH4 0xA85BD01 PUSH1 0xE1 SHL DUP2 MSTORE PUSH1 0x1 PUSH1 0x1 PUSH1 0xA0 SHL SUB DUP8 AND SWAP1 PUSH4 0x150B7A02 SWAP1 PUSH2 0x49EE SWAP1 CALLER SWAP1 DUP12 SWAP1 DUP7 SWAP1 DUP10 SWAP1 PUSH1 0x4 ADD PUSH2 0x5BE1 JUMP JUMPDEST PUSH1 0x20 PUSH1 0x40 MLOAD DUP1 DUP4 SUB DUP2 PUSH1 0x0 DUP8 GAS CALL SWAP3 POP POP POP DUP1 ISZERO PUSH2 0x4A29 JUMPI POP PUSH1 0x40 DUP1 MLOAD PUSH1 0x1F RETURNDATASIZE SWAP1 DUP2 ADD PUSH1 0x1F NOT AND DUP3 ADD SWAP1 SWAP3 MSTORE PUSH2 0x4A26 SWAP2 DUP2 ADD SWAP1 PUSH2 0x5C1E JUMP JUMPDEST PUSH1 0x1 JUMPDEST PUSH2 0x4A86 JUMPI RETURNDATASIZE DUP1 DUP1 ISZERO PUSH2 0x4A57 JUMPI PUSH1 0x40 MLOAD SWAP2 POP PUSH1 0x1F NOT PUSH1 0x3F RETURNDATASIZE ADD AND DUP3 ADD PUSH1 0x40 MSTORE RETURNDATASIZE DUP3 MSTORE RETURNDATASIZE PUSH1 0x0 PUSH1 0x20 DUP5 ADD RETURNDATACOPY PUSH2 0x4A5C JUMP JUMPDEST PUSH1 0x60 SWAP2 POP JUMPDEST POP DUP1 MLOAD PUSH1 0x0 SUB PUSH2 0x4A7E JUMPI PUSH1 0x40 MLOAD PUSH3 0x461BCD PUSH1 0xE5 SHL DUP2 MSTORE PUSH1 0x4 ADD PUSH2 0x1766 SWAP1 PUSH2 0x5B4C JUMP JUMPDEST DUP1 MLOAD DUP2 PUSH1 0x20 ADD REVERT JUMPDEST DUP3 DUP1 ISZERO PUSH2 0x4AA3 JUMPI POP PUSH1 0x1 PUSH1 0x1 PUSH1 0xE0 SHL SUB NOT DUP2 AND PUSH4 0xA85BD01 PUSH1 0xE1 SHL EQ JUMPDEST SWAP3 POP POP DUP1 PUSH2 0x4AB0 DUP2 PUSH2 0x5707 JUMP JUMPDEST SWAP2 POP POP PUSH2 0x49AB JUMP JUMPDEST POP PUSH2 0x4AC2 JUMP JUMPDEST POP PUSH1 0x1 JUMPDEST SWAP6 SWAP5 POP POP POP POP POP JUMP JUMPDEST PUSH1 0x8 DUP2 SWAP1 SHR PUSH1 0x0 DUP2 DUP2 MSTORE PUSH1 0x20 DUP5 SWAP1 MSTORE PUSH1 0x40 DUP2 KECCAK256 SLOAD SWAP1 SWAP2 SWAP1 PUSH1 0xFF DUP1 DUP6 AND SWAP2 SWAP1 DUP3 XOR SHR DUP1 ISZERO PUSH2 0x4B0D JUMPI PUSH2 0x4AFB DUP2 PUSH2 0x4E03 JUMP JUMPDEST PUSH1 0xFF AND DUP3 SUB PUSH1 0x8 DUP5 SWAP1 SHL OR SWAP4 POP PUSH2 0x4BBA JUMP JUMPDEST PUSH1 0x0 DUP4 GT PUSH2 0x4B7A JUMPI PUSH1 0x40 MLOAD PUSH3 0x461BCD PUSH1 0xE5 SHL DUP2 MSTORE PUSH1 0x20 PUSH1 0x4 DUP3 ADD MSTORE PUSH1 0x34 PUSH1 0x24 DUP3 ADD MSTORE PUSH32 0x4269744D6170733A205468652073657420626974206265666F72652074686520 PUSH1 0x44 DUP3 ADD MSTORE PUSH20 0x34B73232BC103237B2B9B713BA1032BC34B9BA17 PUSH1 0x61 SHL PUSH1 0x64 DUP3 ADD MSTORE PUSH1 0x84 ADD PUSH2 0x1766 JUMP JUMPDEST POP PUSH1 0x0 NOT SWAP1 SWAP2 ADD PUSH1 0x0 DUP2 DUP2 MSTORE PUSH1 0x20 DUP7 SWAP1 MSTORE PUSH1 0x40 SWAP1 KECCAK256 SLOAD SWAP1 SWAP2 SWAP1 DUP1 ISZERO PUSH2 0x4BB5 JUMPI PUSH2 0x4BA2 DUP2 PUSH2 0x4E03 JUMP JUMPDEST PUSH1 0xFF SUB PUSH1 0xFF AND PUSH1 0x8 DUP5 SWAP1 SHL OR SWAP4 POP PUSH2 0x4BBA JUMP JUMPDEST PUSH2 0x4B0D JUMP JUMPDEST POP POP POP SWAP3 SWAP2 POP POP JUMP JUMPDEST PUSH1 0x0 DUP2 DUP4 LT PUSH2 0x4BDF JUMPI PUSH1 0x0 DUP3 DUP2 MSTORE PUSH1 0x20 DUP5 SWAP1 MSTORE PUSH1 0x40 SWAP1 KECCAK256 PUSH2 0x2EF4 JUMP JUMPDEST PUSH1 0x0 DUP4 DUP2 MSTORE PUSH1 0x20 DUP4 SWAP1 MSTORE PUSH1 0x40 SWAP1 KECCAK256 PUSH2 0x2EF4 JUMP JUMPDEST PUSH1 0x0 DUP2 DUP2 MSTORE PUSH1 0x1 DUP4 ADD PUSH1 0x20 MSTORE PUSH1 0x40 DUP2 KECCAK256 SLOAD DUP1 ISZERO PUSH2 0x4CDB JUMPI PUSH1 0x0 PUSH2 0x4C16 PUSH1 0x1 DUP4 PUSH2 0x558C JUMP JUMPDEST DUP6 SLOAD SWAP1 SWAP2 POP PUSH1 0x0 SWAP1 PUSH2 0x4C2A SWAP1 PUSH1 0x1 SWAP1 PUSH2 0x558C JUMP JUMPDEST SWAP1 POP DUP2 DUP2 EQ PUSH2 0x4C8F JUMPI PUSH1 0x0 DUP7 PUSH1 0x0 ADD DUP3 DUP2 SLOAD DUP2 LT PUSH2 0x4C4A JUMPI PUSH2 0x4C4A PUSH2 0x56DE JUMP JUMPDEST SWAP1 PUSH1 0x0 MSTORE PUSH1 0x20 PUSH1 0x0 KECCAK256 ADD SLOAD SWAP1 POP DUP1 DUP8 PUSH1 0x0 ADD DUP5 DUP2 SLOAD DUP2 LT PUSH2 0x4C6D JUMPI PUSH2 0x4C6D PUSH2 0x56DE JUMP JUMPDEST PUSH1 0x0 SWAP2 DUP3 MSTORE PUSH1 0x20 DUP1 DUP4 KECCAK256 SWAP1 SWAP2 ADD SWAP3 SWAP1 SWAP3 SSTORE SWAP2 DUP3 MSTORE PUSH1 0x1 DUP9 ADD SWAP1 MSTORE PUSH1 0x40 SWAP1 KECCAK256 DUP4 SWAP1 SSTORE JUMPDEST DUP6 SLOAD DUP7 SWAP1 DUP1 PUSH2 0x4CA0 JUMPI PUSH2 0x4CA0 PUSH2 0x5C3B JUMP JUMPDEST PUSH1 0x1 SWAP1 SUB DUP2 DUP2 SWAP1 PUSH1 0x0 MSTORE PUSH1 0x20 PUSH1 0x0 KECCAK256 ADD PUSH1 0x0 SWAP1 SSTORE SWAP1 SSTORE DUP6 PUSH1 0x1 ADD PUSH1 0x0 DUP7 DUP2 MSTORE PUSH1 0x20 ADD SWAP1 DUP2 MSTORE PUSH1 0x20 ADD PUSH1 0x0 KECCAK256 PUSH1 0x0 SWAP1 SSTORE PUSH1 0x1 SWAP4 POP POP POP POP PUSH2 0x15C1 JUMP JUMPDEST PUSH1 0x0 SWAP2 POP POP PUSH2 0x15C1 JUMP JUMPDEST POP SWAP3 SWAP2 POP POP JUMP JUMPDEST PUSH1 0x0 DUP1 PUSH19 0x184F03E93FF9F4DAA797ED6E38ED64BF6A1F01 PUSH1 0x40 SHL DUP4 LT PUSH2 0x4D2B JUMPI PUSH19 0x184F03E93FF9F4DAA797ED6E38ED64BF6A1F01 PUSH1 0x40 SHL DUP4 DIV SWAP3 POP PUSH1 0x40 ADD JUMPDEST PUSH14 0x4EE2D6D415B85ACEF8100000000 DUP4 LT PUSH2 0x4D57 JUMPI PUSH14 0x4EE2D6D415B85ACEF8100000000 DUP4 DIV SWAP3 POP PUSH1 0x20 ADD JUMPDEST PUSH7 0x2386F26FC10000 DUP4 LT PUSH2 0x4D75 JUMPI PUSH7 0x2386F26FC10000 DUP4 DIV SWAP3 POP PUSH1 0x10 ADD JUMPDEST PUSH4 0x5F5E100 DUP4 LT PUSH2 0x4D8D JUMPI PUSH4 0x5F5E100 DUP4 DIV SWAP3 POP PUSH1 0x8 ADD JUMPDEST PUSH2 0x2710 DUP4 LT PUSH2 0x4DA1 JUMPI PUSH2 0x2710 DUP4 DIV SWAP3 POP PUSH1 0x4 ADD JUMPDEST PUSH1 0x64 DUP4 LT PUSH2 0x4DB3 JUMPI PUSH1 0x64 DUP4 DIV SWAP3 POP PUSH1 0x2 ADD JUMPDEST PUSH1 0xA DUP4 LT PUSH2 0x15C1 JUMPI PUSH1 0x1 ADD SWAP3 SWAP2 POP POP JUMP JUMPDEST PUSH1 0x0 PUSH2 0x15C1 PUSH1 0xD DUP4 PUSH2 0x4E6D JUMP JUMPDEST PUSH1 0x0 DUP2 DUP2 MSTORE PUSH1 0x10 PUSH1 0x20 MSTORE PUSH1 0x40 DUP2 KECCAK256 SLOAD ISZERO PUSH2 0x4DFA JUMPI POP PUSH1 0x0 DUP2 DUP2 MSTORE PUSH1 0x10 PUSH1 0x20 MSTORE PUSH1 0x40 SWAP1 KECCAK256 SLOAD PUSH2 0x15C1 JUMP JUMPDEST PUSH2 0x2EF4 DUP4 PUSH2 0x4655 JUMP JUMPDEST PUSH1 0x0 PUSH1 0x40 MLOAD DUP1 PUSH2 0x120 ADD PUSH1 0x40 MSTORE DUP1 PUSH2 0x100 DUP2 MSTORE PUSH1 0x20 ADD PUSH2 0x5CB2 PUSH2 0x100 SWAP2 CODECOPY PUSH1 0xF8 PUSH31 0x818283848586878898A8B8C8D8E8F929395969799A9B9D9E9FAAEB6BEDEEFF PUSH2 0x4E4C DUP6 PUSH2 0x4E8F JUMP JUMPDEST MUL SWAP1 SHR DUP2 MLOAD DUP2 LT PUSH2 0x4E5F JUMPI PUSH2 0x4E5F PUSH2 0x56DE JUMP JUMPDEST ADD PUSH1 0x20 ADD MLOAD PUSH1 0xF8 SHR SWAP3 SWAP2 POP POP JUMP JUMPDEST PUSH1 0x1 PUSH1 0x1 PUSH1 0xA0 SHL SUB DUP2 AND PUSH1 0x0 SWAP1 DUP2 MSTORE PUSH1 0x1 DUP4 ADD PUSH1 0x20 MSTORE PUSH1 0x40 DUP2 KECCAK256 SLOAD ISZERO ISZERO PUSH2 0x2EF4 JUMP JUMPDEST PUSH1 0x0 DUP1 DUP3 GT PUSH2 0x4E9D JUMPI PUSH1 0x0 DUP1 REVERT JUMPDEST POP PUSH1 0x0 DUP2 SWAP1 SUB AND SWAP1 JUMP JUMPDEST PUSH1 0x20 DUP1 DUP3 MSTORE DUP3 MLOAD DUP3 DUP3 ADD DUP2 SWAP1 MSTORE PUSH1 0x0 SWAP2 SWAP1 DUP5 DUP3 ADD SWAP1 PUSH1 0x40 DUP6 ADD SWAP1 DUP5 JUMPDEST DUP2 DUP2 LT ISZERO PUSH2 0x4EE8 JUMPI DUP4 MLOAD PUSH1 0x1 PUSH1 0x1 PUSH1 0xA0 SHL SUB AND DUP4 MSTORE SWAP3 DUP5 ADD SWAP3 SWAP2 DUP5 ADD SWAP2 PUSH1 0x1 ADD PUSH2 0x4EC3 JUMP JUMPDEST POP SWAP1 SWAP7 SWAP6 POP POP POP POP POP POP JUMP JUMPDEST PUSH1 0x0 JUMPDEST DUP4 DUP2 LT ISZERO PUSH2 0x4F0F JUMPI DUP2 DUP2 ADD MLOAD DUP4 DUP3 ADD MSTORE PUSH1 0x20 ADD PUSH2 0x4EF7 JUMP JUMPDEST POP POP PUSH1 0x0 SWAP2 ADD MSTORE JUMP JUMPDEST PUSH1 0x0 DUP2 MLOAD DUP1 DUP5 MSTORE PUSH2 0x4F30 DUP2 PUSH1 0x20 DUP7 ADD PUSH1 0x20 DUP7 ADD PUSH2 0x4EF4 JUMP JUMPDEST PUSH1 0x1F ADD PUSH1 0x1F NOT AND SWAP3 SWAP1 SWAP3 ADD PUSH1 0x20 ADD SWAP3 SWAP2 POP POP JUMP JUMPDEST PUSH1 0x20 DUP2 MSTORE PUSH1 0x0 PUSH2 0x2EF4 PUSH1 0x20 DUP4 ADD DUP5 PUSH2 0x4F18 JUMP JUMPDEST PUSH1 0x1 PUSH1 0x1 PUSH1 0xE0 SHL SUB NOT DUP2 AND DUP2 EQ PUSH2 0x1CAB JUMPI PUSH1 0x0 DUP1 REVERT JUMPDEST PUSH1 0x0 PUSH1 0x20 DUP3 DUP5 SUB SLT ISZERO PUSH2 0x4F7F JUMPI PUSH1 0x0 DUP1 REVERT JUMPDEST DUP2 CALLDATALOAD PUSH2 0x2EF4 DUP2 PUSH2 0x4F57 JUMP JUMPDEST DUP1 CALLDATALOAD PUSH1 0x1 PUSH1 0x1 PUSH1 0xA0 SHL SUB DUP2 AND DUP2 EQ PUSH2 0x3F21 JUMPI PUSH1 0x0 DUP1 REVERT JUMPDEST PUSH1 0x0 PUSH1 0x20 DUP3 DUP5 SUB SLT ISZERO PUSH2 0x4FB3 JUMPI PUSH1 0x0 DUP1 REVERT JUMPDEST PUSH2 0x2EF4 DUP3 PUSH2 0x4F8A JUMP JUMPDEST PUSH1 0x0 DUP1 PUSH1 0x40 DUP4 DUP6 SUB SLT ISZERO PUSH2 0x4FCF JUMPI PUSH1 0x0 DUP1 REVERT JUMPDEST PUSH2 0x4FD8 DUP4 PUSH2 0x4F8A JUMP JUMPDEST SWAP2 POP PUSH1 0x20 DUP4 ADD CALLDATALOAD PUSH1 0x1 PUSH1 0x1 PUSH1 0x60 SHL SUB DUP2 AND DUP2 EQ PUSH2 0x4FF4 JUMPI PUSH1 0x0 DUP1 REVERT JUMPDEST DUP1 SWAP2 POP POP SWAP3 POP SWAP3 SWAP1 POP JUMP JUMPDEST PUSH4 0x4E487B71 PUSH1 0xE0 SHL PUSH1 0x0 MSTORE PUSH1 0x41 PUSH1 0x4 MSTORE PUSH1 0x24 PUSH1 0x0 REVERT JUMPDEST PUSH1 0x40 MLOAD PUSH1 0x1F DUP3 ADD PUSH1 0x1F NOT AND DUP2 ADD PUSH1 0x1 PUSH1 0x1 PUSH1 0x40 SHL SUB DUP2 GT DUP3 DUP3 LT OR ISZERO PUSH2 0x503D JUMPI PUSH2 0x503D PUSH2 0x4FFF JUMP JUMPDEST PUSH1 0x40 MSTORE SWAP2 SWAP1 POP JUMP JUMPDEST PUSH1 0x0 PUSH1 0x1 PUSH1 0x1 PUSH1 0x40 SHL SUB DUP3 GT ISZERO PUSH2 0x505E JUMPI PUSH2 0x505E PUSH2 0x4FFF JUMP JUMPDEST POP PUSH1 0x1F ADD PUSH1 0x1F NOT AND PUSH1 0x20 ADD SWAP1 JUMP JUMPDEST PUSH1 0x0 PUSH2 0x507F PUSH2 0x507A DUP5 PUSH2 0x5045 JUMP JUMPDEST PUSH2 0x5015 JUMP JUMPDEST SWAP1 POP DUP3 DUP2 MSTORE DUP4 DUP4 DUP4 ADD GT ISZERO PUSH2 0x5093 JUMPI PUSH1 0x0 DUP1 REVERT JUMPDEST DUP3 DUP3 PUSH1 0x20 DUP4 ADD CALLDATACOPY PUSH1 0x0 PUSH1 0x20 DUP5 DUP4 ADD ADD MSTORE SWAP4 SWAP3 POP POP POP JUMP JUMPDEST PUSH1 0x0 PUSH1 0x20 DUP3 DUP5 SUB SLT ISZERO PUSH2 0x50BC JUMPI PUSH1 0x0 DUP1 REVERT JUMPDEST DUP2 CALLDATALOAD PUSH1 0x1 PUSH1 0x1 PUSH1 0x40 SHL SUB DUP2 GT ISZERO PUSH2 0x50D2 JUMPI PUSH1 0x0 DUP1 REVERT JUMPDEST DUP3 ADD PUSH1 0x1F DUP2 ADD DUP5 SGT PUSH2 0x50E3 JUMPI PUSH1 0x0 DUP1 REVERT JUMPDEST PUSH2 0x3C1C DUP5 DUP3 CALLDATALOAD PUSH1 0x20 DUP5 ADD PUSH2 0x506C JUMP JUMPDEST DUP1 ISZERO ISZERO DUP2 EQ PUSH2 0x1CAB JUMPI PUSH1 0x0 DUP1 REVERT JUMPDEST PUSH1 0x0 PUSH1 0x20 DUP3 DUP5 SUB SLT ISZERO PUSH2 0x5112 JUMPI PUSH1 0x0 DUP1 REVERT JUMPDEST DUP2 CALLDATALOAD PUSH2 0x2EF4 DUP2 PUSH2 0x50F2 JUMP JUMPDEST PUSH1 0x0 PUSH1 0x20 DUP3 DUP5 SUB SLT ISZERO PUSH2 0x512F JUMPI PUSH1 0x0 DUP1 REVERT JUMPDEST POP CALLDATALOAD SWAP2 SWAP1 POP JUMP JUMPDEST PUSH1 0x0 DUP1 PUSH1 0x40 DUP4 DUP6 SUB SLT ISZERO PUSH2 0x5149 JUMPI PUSH1 0x0 DUP1 REVERT JUMPDEST PUSH2 0x5152 DUP4 PUSH2 0x4F8A JUMP JUMPDEST SWAP5 PUSH1 0x20 SWAP4 SWAP1 SWAP4 ADD CALLDATALOAD SWAP4 POP POP POP JUMP JUMPDEST PUSH1 0x0 DUP1 PUSH1 0x0 PUSH1 0x60 DUP5 DUP7 SUB SLT ISZERO PUSH2 0x5175 JUMPI PUSH1 0x0 DUP1 REVERT JUMPDEST PUSH2 0x517E DUP5 PUSH2 0x4F8A JUMP JUMPDEST SWAP3 POP PUSH2 0x518C PUSH1 0x20 DUP6 ADD PUSH2 0x4F8A JUMP JUMPDEST SWAP2 POP PUSH1 0x40 DUP5 ADD CALLDATALOAD SWAP1 POP SWAP3 POP SWAP3 POP SWAP3 JUMP JUMPDEST PUSH1 0x0 DUP1 DUP4 PUSH1 0x1F DUP5 ADD SLT PUSH2 0x51AE JUMPI PUSH1 0x0 DUP1 REVERT JUMPDEST POP DUP2 CALLDATALOAD PUSH1 0x1 PUSH1 0x1 PUSH1 0x40 SHL SUB DUP2 GT ISZERO PUSH2 0x51C5 JUMPI PUSH1 0x0 DUP1 REVERT JUMPDEST PUSH1 0x20 DUP4 ADD SWAP2 POP DUP4 PUSH1 0x20 DUP3 PUSH1 0x5 SHL DUP6 ADD ADD GT ISZERO PUSH2 0x1B73 JUMPI PUSH1 0x0 DUP1 REVERT JUMPDEST PUSH1 0x0 PUSH1 0x1 PUSH1 0x1 PUSH1 0x40 SHL SUB DUP3 GT ISZERO PUSH2 0x51F9 JUMPI PUSH2 0x51F9 PUSH2 0x4FFF JUMP JUMPDEST POP PUSH1 0x5 SHL PUSH1 0x20 ADD SWAP1 JUMP JUMPDEST PUSH1 0x0 DUP3 PUSH1 0x1F DUP4 ADD SLT PUSH2 0x5214 JUMPI PUSH1 0x0 DUP1 REVERT JUMPDEST DUP2 CALLDATALOAD PUSH1 0x20 PUSH2 0x5224 PUSH2 0x507A DUP4 PUSH2 0x51E0 JUMP JUMPDEST DUP3 DUP2 MSTORE PUSH1 0x5 SWAP3 SWAP1 SWAP3 SHL DUP5 ADD DUP2 ADD SWAP2 DUP2 DUP2 ADD SWAP1 DUP7 DUP5 GT ISZERO PUSH2 0x5243 JUMPI PUSH1 0x0 DUP1 REVERT JUMPDEST DUP3 DUP7 ADD JUMPDEST DUP5 DUP2 LT ISZERO PUSH2 0x525E JUMPI DUP1 CALLDATALOAD DUP4 MSTORE SWAP2 DUP4 ADD SWAP2 DUP4 ADD PUSH2 0x5247 JUMP JUMPDEST POP SWAP7 SWAP6 POP POP POP POP POP POP JUMP JUMPDEST PUSH1 0x0 DUP1 PUSH1 0x0 PUSH1 0x40 DUP5 DUP7 SUB SLT ISZERO PUSH2 0x527E JUMPI PUSH1 0x0 DUP1 REVERT JUMPDEST DUP4 CALLDATALOAD PUSH1 0x1 PUSH1 0x1 PUSH1 0x40 SHL SUB DUP1 DUP3 GT ISZERO PUSH2 0x5295 JUMPI PUSH1 0x0 DUP1 REVERT JUMPDEST PUSH2 0x52A1 DUP8 DUP4 DUP9 ADD PUSH2 0x519C JUMP JUMPDEST SWAP1 SWAP6 POP SWAP4 POP PUSH1 0x20 DUP7 ADD CALLDATALOAD SWAP2 POP DUP1 DUP3 GT ISZERO PUSH2 0x52BA JUMPI PUSH1 0x0 DUP1 REVERT JUMPDEST POP PUSH2 0x52C7 DUP7 DUP3 DUP8 ADD PUSH2 0x5203 JUMP JUMPDEST SWAP2 POP POP SWAP3 POP SWAP3 POP SWAP3 JUMP JUMPDEST PUSH1 0x0 DUP1 PUSH1 0x40 DUP4 DUP6 SUB SLT ISZERO PUSH2 0x52E4 JUMPI PUSH1 0x0 DUP1 REVERT JUMPDEST POP POP DUP1 CALLDATALOAD SWAP3 PUSH1 0x20 SWAP1 SWAP2 ADD CALLDATALOAD SWAP2 POP JUMP JUMPDEST PUSH1 0x0 DUP1 PUSH1 0x40 DUP4 DUP6 SUB SLT ISZERO PUSH2 0x5306 JUMPI PUSH1 0x0 DUP1 REVERT JUMPDEST DUP3 CALLDATALOAD SWAP2 POP PUSH2 0x5316 PUSH1 0x20 DUP5 ADD PUSH2 0x4F8A JUMP JUMPDEST SWAP1 POP SWAP3 POP SWAP3 SWAP1 POP JUMP JUMPDEST PUSH1 0x0 DUP1 PUSH1 0x0 PUSH1 0x60 DUP5 DUP7 SUB SLT ISZERO PUSH2 0x5334 JUMPI PUSH1 0x0 DUP1 REVERT JUMPDEST DUP4 CALLDATALOAD SWAP3 POP PUSH1 0x20 DUP1 DUP6 ADD CALLDATALOAD PUSH1 0x1 PUSH1 0x1 PUSH1 0x40 SHL SUB DUP1 DUP3 GT ISZERO PUSH2 0x5353 JUMPI PUSH1 0x0 DUP1 REVERT JUMPDEST DUP2 DUP8 ADD SWAP2 POP DUP8 PUSH1 0x1F DUP4 ADD SLT PUSH2 0x5367 JUMPI PUSH1 0x0 DUP1 REVERT JUMPDEST DUP2 CALLDATALOAD PUSH2 0x5375 PUSH2 0x507A DUP3 PUSH2 0x51E0 JUMP JUMPDEST DUP2 DUP2 MSTORE PUSH1 0x5 SWAP2 SWAP1 SWAP2 SHL DUP4 ADD DUP5 ADD SWAP1 DUP5 DUP2 ADD SWAP1 DUP11 DUP4 GT ISZERO PUSH2 0x5394 JUMPI PUSH1 0x0 DUP1 REVERT JUMPDEST SWAP4 DUP6 ADD SWAP4 JUMPDEST DUP3 DUP6 LT ISZERO PUSH2 0x53B9 JUMPI PUSH2 0x53AA DUP6 PUSH2 0x4F8A JUMP JUMPDEST DUP3 MSTORE SWAP4 DUP6 ADD SWAP4 SWAP1 DUP6 ADD SWAP1 PUSH2 0x5399 JUMP JUMPDEST SWAP7 POP POP POP PUSH1 0x40 DUP8 ADD CALLDATALOAD SWAP3 POP DUP1 DUP4 GT ISZERO PUSH2 0x53D1 JUMPI PUSH1 0x0 DUP1 REVERT JUMPDEST POP POP PUSH2 0x52C7 DUP7 DUP3 DUP8 ADD PUSH2 0x5203 JUMP JUMPDEST PUSH1 0x0 PUSH1 0x20 DUP3 DUP5 SUB SLT ISZERO PUSH2 0x53F1 JUMPI PUSH1 0x0 DUP1 REVERT JUMPDEST DUP2 CALLDATALOAD PUSH1 0x1 PUSH1 0x1 PUSH1 0x40 SHL SUB DUP2 GT ISZERO PUSH2 0x5407 JUMPI PUSH1 0x0 DUP1 REVERT JUMPDEST PUSH2 0x3C1C DUP5 DUP3 DUP6 ADD PUSH2 0x5203 JUMP JUMPDEST PUSH1 0x0 DUP1 PUSH1 0x0 DUP1 PUSH1 0x0 PUSH1 0x80 DUP7 DUP9 SUB SLT ISZERO PUSH2 0x542B JUMPI PUSH1 0x0 DUP1 REVERT JUMPDEST DUP6 CALLDATALOAD SWAP5 POP PUSH1 0x20 DUP7 ADD CALLDATALOAD SWAP4 POP PUSH1 0x40 DUP7 ADD CALLDATALOAD PUSH1 0x1 PUSH1 0x1 PUSH1 0x40 SHL SUB DUP2 GT ISZERO PUSH2 0x544F JUMPI PUSH1 0x0 DUP1 REVERT JUMPDEST PUSH2 0x545B DUP9 DUP3 DUP10 ADD PUSH2 0x519C JUMP JUMPDEST SWAP7 SWAP10 SWAP6 SWAP9 POP SWAP7 PUSH1 0x60 ADD CALLDATALOAD SWAP5 SWAP4 POP POP POP POP JUMP JUMPDEST PUSH1 0x20 DUP1 DUP3 MSTORE DUP3 MLOAD DUP3 DUP3 ADD DUP2 SWAP1 MSTORE PUSH1 0x0 SWAP2 SWAP1 DUP5 DUP3 ADD SWAP1 PUSH1 0x40 DUP6 ADD SWAP1 DUP5 JUMPDEST DUP2 DUP2 LT ISZERO PUSH2 0x4EE8 JUMPI DUP4 MLOAD DUP4 MSTORE SWAP3 DUP5 ADD SWAP3 SWAP2 DUP5 ADD SWAP2 PUSH1 0x1 ADD PUSH2 0x5489 JUMP JUMPDEST PUSH1 0x0 DUP1 PUSH1 0x40 DUP4 DUP6 SUB SLT ISZERO PUSH2 0x54B8 JUMPI PUSH1 0x0 DUP1 REVERT JUMPDEST PUSH2 0x54C1 DUP4 PUSH2 0x4F8A JUMP JUMPDEST SWAP2 POP PUSH1 0x20 DUP4 ADD CALLDATALOAD PUSH2 0x4FF4 DUP2 PUSH2 0x50F2 JUMP JUMPDEST PUSH1 0x0 DUP1 PUSH1 0x0 DUP1 PUSH1 0x80 DUP6 DUP8 SUB SLT ISZERO PUSH2 0x54E7 JUMPI PUSH1 0x0 DUP1 REVERT JUMPDEST PUSH2 0x54F0 DUP6 PUSH2 0x4F8A JUMP JUMPDEST SWAP4 POP PUSH2 0x54FE PUSH1 0x20 DUP7 ADD PUSH2 0x4F8A JUMP JUMPDEST SWAP3 POP PUSH1 0x40 DUP6 ADD CALLDATALOAD SWAP2 POP PUSH1 0x60 DUP6 ADD CALLDATALOAD PUSH1 0x1 PUSH1 0x1 PUSH1 0x40 SHL SUB DUP2 GT ISZERO PUSH2 0x5520 JUMPI PUSH1 0x0 DUP1 REVERT JUMPDEST DUP6 ADD PUSH1 0x1F DUP2 ADD DUP8 SGT PUSH2 0x5531 JUMPI PUSH1 0x0 DUP1 REVERT JUMPDEST PUSH2 0x5540 DUP8 DUP3 CALLDATALOAD PUSH1 0x20 DUP5 ADD PUSH2 0x506C JUMP JUMPDEST SWAP2 POP POP SWAP3 SWAP6 SWAP2 SWAP5 POP SWAP3 POP JUMP JUMPDEST PUSH1 0x0 DUP1 PUSH1 0x40 DUP4 DUP6 SUB SLT ISZERO PUSH2 0x555F JUMPI PUSH1 0x0 DUP1 REVERT JUMPDEST PUSH2 0x5568 DUP4 PUSH2 0x4F8A JUMP JUMPDEST SWAP2 POP PUSH2 0x5316 PUSH1 0x20 DUP5 ADD PUSH2 0x4F8A JUMP JUMPDEST PUSH4 0x4E487B71 PUSH1 0xE0 SHL PUSH1 0x0 MSTORE PUSH1 0x11 PUSH1 0x4 MSTORE PUSH1 0x24 PUSH1 0x0 REVERT JUMPDEST DUP2 DUP2 SUB DUP2 DUP2 GT ISZERO PUSH2 0x15C1 JUMPI PUSH2 0x15C1 PUSH2 0x5576 JUMP JUMPDEST PUSH1 0x1 DUP2 DUP2 SHR SWAP1 DUP3 AND DUP1 PUSH2 0x55B3 JUMPI PUSH1 0x7F DUP3 AND SWAP2 POP JUMPDEST PUSH1 0x20 DUP3 LT DUP2 SUB PUSH2 0x55D3 JUMPI PUSH4 0x4E487B71 PUSH1 0xE0 SHL PUSH1 0x0 MSTORE PUSH1 0x22 PUSH1 0x4 MSTORE PUSH1 0x24 PUSH1 0x0 REVERT JUMPDEST POP SWAP2 SWAP1 POP JUMP JUMPDEST PUSH1 0x1F DUP3 GT ISZERO PUSH2 0x1638 JUMPI PUSH1 0x0 DUP2 DUP2 MSTORE PUSH1 0x20 DUP2 KECCAK256 PUSH1 0x1F DUP6 ADD PUSH1 0x5 SHR DUP2 ADD PUSH1 0x20 DUP7 LT ISZERO PUSH2 0x5600 JUMPI POP DUP1 JUMPDEST PUSH1 0x1F DUP6 ADD PUSH1 0x5 SHR DUP3 ADD SWAP2 POP JUMPDEST DUP2 DUP2 LT ISZERO PUSH2 0x2608 JUMPI DUP3 DUP2 SSTORE PUSH1 0x1 ADD PUSH2 0x560C JUMP JUMPDEST DUP2 MLOAD PUSH1 0x1 PUSH1 0x1 PUSH1 0x40 SHL SUB DUP2 GT ISZERO PUSH2 0x5638 JUMPI PUSH2 0x5638 PUSH2 0x4FFF JUMP JUMPDEST PUSH2 0x564C DUP2 PUSH2 0x5646 DUP5 SLOAD PUSH2 0x559F JUMP JUMPDEST DUP5 PUSH2 0x55D9 JUMP JUMPDEST PUSH1 0x20 DUP1 PUSH1 0x1F DUP4 GT PUSH1 0x1 DUP2 EQ PUSH2 0x5681 JUMPI PUSH1 0x0 DUP5 ISZERO PUSH2 0x5669 JUMPI POP DUP6 DUP4 ADD MLOAD JUMPDEST PUSH1 0x0 NOT PUSH1 0x3 DUP7 SWAP1 SHL SHR NOT AND PUSH1 0x1 DUP6 SWAP1 SHL OR DUP6 SSTORE PUSH2 0x2608 JUMP JUMPDEST PUSH1 0x0 DUP6 DUP2 MSTORE PUSH1 0x20 DUP2 KECCAK256 PUSH1 0x1F NOT DUP7 AND SWAP2 JUMPDEST DUP3 DUP2 LT ISZERO PUSH2 0x56B0 JUMPI DUP9 DUP7 ADD MLOAD DUP3 SSTORE SWAP5 DUP5 ADD SWAP5 PUSH1 0x1 SWAP1 SWAP2 ADD SWAP1 DUP5 ADD PUSH2 0x5691 JUMP JUMPDEST POP DUP6 DUP3 LT ISZERO PUSH2 0x56CE JUMPI DUP8 DUP6 ADD MLOAD PUSH1 0x0 NOT PUSH1 0x3 DUP9 SWAP1 SHL PUSH1 0xF8 AND SHR NOT AND DUP2 SSTORE JUMPDEST POP POP POP POP POP PUSH1 0x1 SWAP1 DUP2 SHL ADD SWAP1 SSTORE POP JUMP JUMPDEST PUSH4 0x4E487B71 PUSH1 0xE0 SHL PUSH1 0x0 MSTORE PUSH1 0x32 PUSH1 0x4 MSTORE PUSH1 0x24 PUSH1 0x0 REVERT JUMPDEST DUP1 DUP3 ADD DUP1 DUP3 GT ISZERO PUSH2 0x15C1 JUMPI PUSH2 0x15C1 PUSH2 0x5576 JUMP JUMPDEST PUSH1 0x0 PUSH1 0x1 DUP3 ADD PUSH2 0x5719 JUMPI PUSH2 0x5719 PUSH2 0x5576 JUMP JUMPDEST POP PUSH1 0x1 ADD SWAP1 JUMP JUMPDEST PUSH1 0x20 DUP1 DUP3 MSTORE PUSH1 0x16 SWAP1 DUP3 ADD MSTORE PUSH22 0x1B585E08139195081B1A5B5A5D08195E18D959591959 PUSH1 0x52 SHL PUSH1 0x40 DUP3 ADD MSTORE PUSH1 0x60 ADD SWAP1 JUMP JUMPDEST DUP1 DUP3 MUL DUP2 ISZERO DUP3 DUP3 DIV DUP5 EQ OR PUSH2 0x15C1 JUMPI PUSH2 0x15C1 PUSH2 0x5576 JUMP JUMPDEST PUSH1 0x0 DUP3 PUSH2 0x5784 JUMPI PUSH4 0x4E487B71 PUSH1 0xE0 SHL PUSH1 0x0 MSTORE PUSH1 0x12 PUSH1 0x4 MSTORE PUSH1 0x24 PUSH1 0x0 REVERT JUMPDEST POP DIV SWAP1 JUMP JUMPDEST PUSH1 0x0 PUSH1 0x20 DUP3 DUP5 SUB SLT ISZERO PUSH2 0x579B JUMPI PUSH1 0x0 DUP1 REVERT JUMPDEST POP MLOAD SWAP2 SWAP1 POP JUMP JUMPDEST PUSH1 0x0 PUSH1 0x20 DUP3 DUP5 SUB SLT ISZERO PUSH2 0x57B4 JUMPI PUSH1 0x0 DUP1 REVERT JUMPDEST DUP2 MLOAD PUSH1 0x1 PUSH1 0x1 PUSH1 0x40 SHL SUB DUP2 GT ISZERO PUSH2 0x57CA JUMPI PUSH1 0x0 DUP1 REVERT JUMPDEST DUP3 ADD PUSH1 0x1F DUP2 ADD DUP5 SGT PUSH2 0x57DB JUMPI PUSH1 0x0 DUP1 REVERT JUMPDEST DUP1 MLOAD PUSH2 0x57E9 PUSH2 0x507A DUP3 PUSH2 0x5045 JUMP JUMPDEST DUP2 DUP2 MSTORE DUP6 PUSH1 0x20 DUP4 DUP6 ADD ADD GT ISZERO PUSH2 0x57FE JUMPI PUSH1 0x0 DUP1 REVERT JUMPDEST PUSH2 0x4AC2 DUP3 PUSH1 0x20 DUP4 ADD PUSH1 0x20 DUP7 ADD PUSH2 0x4EF4 JUMP JUMPDEST PUSH1 0x0 DUP2 SLOAD PUSH2 0x581C DUP2 PUSH2 0x559F JUMP JUMPDEST PUSH1 0x1 DUP3 DUP2 AND DUP1 ISZERO PUSH2 0x5834 JUMPI PUSH1 0x1 DUP2 EQ PUSH2 0x5849 JUMPI PUSH2 0x5878 JUMP JUMPDEST PUSH1 0xFF NOT DUP5 AND DUP8 MSTORE DUP3 ISZERO ISZERO DUP4 MUL DUP8 ADD SWAP5 POP PUSH2 0x5878 JUMP JUMPDEST DUP6 PUSH1 0x0 MSTORE PUSH1 0x20 DUP1 PUSH1 0x0 KECCAK256 PUSH1 0x0 JUMPDEST DUP6 DUP2 LT ISZERO PUSH2 0x586F JUMPI DUP2 SLOAD DUP11 DUP3 ADD MSTORE SWAP1 DUP5 ADD SWAP1 DUP3 ADD PUSH2 0x5856 JUMP JUMPDEST POP POP POP DUP3 DUP8 ADD SWAP5 POP JUMPDEST POP POP POP POP SWAP3 SWAP2 POP POP JUMP JUMPDEST PUSH18 0x1130B734B6B0BA34B7B72FBAB936111D1011 PUSH1 0x71 SHL DUP2 MSTORE PUSH1 0x0 PUSH2 0x58A9 PUSH1 0x12 DUP4 ADD DUP5 PUSH2 0x580F JUMP JUMPDEST PUSH2 0x88B PUSH1 0xF2 SHL DUP2 MSTORE PUSH1 0x2 ADD SWAP4 SWAP3 POP POP POP JUMP JUMPDEST PUSH1 0x7B PUSH1 0xF8 SHL DUP2 MSTORE PUSH8 0x113730B6B2911D11 PUSH1 0xC1 SHL PUSH1 0x1 DUP3 ADD MSTORE PUSH1 0x0 PUSH2 0x58E2 PUSH1 0x9 DUP4 ADD DUP9 PUSH2 0x580F JUMP JUMPDEST PUSH2 0x88B PUSH1 0xF2 SHL DUP1 DUP3 MSTORE PUSH15 0x113232B9B1B934B83A34B7B7111D11 PUSH1 0x89 SHL PUSH1 0x2 DUP4 ADD MSTORE PUSH2 0x5910 PUSH1 0x11 DUP4 ADD DUP10 PUSH2 0x580F JUMP JUMPDEST DUP2 DUP2 MSTORE PUSH10 0x1134B6B0B3B2911D1011 PUSH1 0xB1 SHL PUSH1 0x2 DUP3 ADD MSTORE SWAP2 POP PUSH2 0x5935 PUSH1 0xC DUP4 ADD DUP9 PUSH2 0x580F JUMP JUMPDEST SWAP2 POP DUP1 DUP3 MSTORE POP DUP5 MLOAD PUSH2 0x594E DUP2 PUSH1 0x2 DUP5 ADD PUSH1 0x20 DUP10 ADD PUSH2 0x4EF4 JUMP JUMPDEST PUSH32 0x2261747472696275746573223A5B7B2274726169745F74797065223A22747970 PUSH1 0x2 SWAP3 SWAP1 SWAP2 ADD SWAP2 DUP3 ADD MSTORE PUSH12 0x329116113B30B63AB2911D11 PUSH1 0xA1 SHL PUSH1 0x22 DUP3 ADD MSTORE PUSH2 0x599B PUSH1 0x2E DUP3 ADD DUP6 PUSH2 0x580F JUMP JUMPDEST PUSH3 0x227D5D PUSH1 0xE8 SHL DUP2 MSTORE PUSH1 0x7D PUSH1 0xF8 SHL PUSH1 0x3 DUP3 ADD MSTORE PUSH1 0x4 ADD SWAP9 SWAP8 POP POP POP POP POP POP POP POP JUMP JUMPDEST PUSH32 0x646174613A6170706C69636174696F6E2F6A736F6E3B6261736536342C000000 DUP2 MSTORE PUSH1 0x0 DUP3 MLOAD PUSH2 0x59F5 DUP2 PUSH1 0x1D DUP6 ADD PUSH1 0x20 DUP8 ADD PUSH2 0x4EF4 JUMP JUMPDEST SWAP2 SWAP1 SWAP2 ADD PUSH1 0x1D ADD SWAP3 SWAP2 POP POP JUMP JUMPDEST PUSH1 0x0 DUP4 MLOAD PUSH2 0x5A14 DUP2 DUP5 PUSH1 0x20 DUP9 ADD PUSH2 0x4EF4 JUMP JUMPDEST PUSH2 0x4AC2 DUP2 DUP5 ADD DUP6 PUSH2 0x580F JUMP JUMPDEST PUSH1 0x0 DUP2 PUSH2 0x5A2F JUMPI PUSH2 0x5A2F PUSH2 0x5576 JUMP JUMPDEST POP PUSH1 0x0 NOT ADD SWAP1 JUMP JUMPDEST PUSH1 0x0 PUSH1 0x20 DUP3 DUP5 SUB SLT ISZERO PUSH2 0x5A49 JUMPI PUSH1 0x0 DUP1 REVERT JUMPDEST DUP2 MLOAD PUSH2 0x2EF4 DUP2 PUSH2 0x50F2 JUMP JUMPDEST PUSH1 0x20 DUP1 DUP3 MSTORE PUSH1 0x34 SWAP1 DUP3 ADD MSTORE PUSH32 0x4552433732315073693A207472616E736665722063616C6C6572206973206E6F PUSH1 0x40 DUP3 ADD MSTORE PUSH20 0x1D081BDDDB995C881B9BDC88185C1C1C9BDD9959 PUSH1 0x62 SHL PUSH1 0x60 DUP3 ADD MSTORE PUSH1 0x80 ADD SWAP1 JUMP JUMPDEST PUSH1 0x0 DUP4 MLOAD PUSH2 0x5ABA DUP2 DUP5 PUSH1 0x20 DUP9 ADD PUSH2 0x4EF4 JUMP JUMPDEST DUP4 MLOAD SWAP1 DUP4 ADD SWAP1 PUSH2 0x5ACE DUP2 DUP4 PUSH1 0x20 DUP9 ADD PUSH2 0x4EF4 JUMP JUMPDEST ADD SWAP5 SWAP4 POP POP POP POP JUMP JUMPDEST PUSH32 0x416363657373436F6E74726F6C3A206163636F756E7420000000000000000000 DUP2 MSTORE PUSH1 0x0 DUP4 MLOAD PUSH2 0x5B0F DUP2 PUSH1 0x17 DUP6 ADD PUSH1 0x20 DUP9 ADD PUSH2 0x4EF4 JUMP JUMPDEST PUSH17 0x1034B99036B4B9B9B4B733903937B6329 PUSH1 0x7D SHL PUSH1 0x17 SWAP2 DUP5 ADD SWAP2 DUP3 ADD MSTORE DUP4 MLOAD PUSH2 0x5B40 DUP2 PUSH1 0x28 DUP5 ADD PUSH1 0x20 DUP9 ADD PUSH2 0x4EF4 JUMP JUMPDEST ADD PUSH1 0x28 ADD SWAP5 SWAP4 POP POP POP POP JUMP JUMPDEST PUSH1 0x20 DUP1 DUP3 MSTORE PUSH1 0x35 SWAP1 DUP3 ADD MSTORE PUSH32 0x4552433732315073693A207472616E7366657220746F206E6F6E204552433732 PUSH1 0x40 DUP3 ADD MSTORE PUSH21 0x18A932B1B2B4BB32B91034B6B83632B6B2B73A32B9 PUSH1 0x59 SHL PUSH1 0x60 DUP3 ADD MSTORE PUSH1 0x80 ADD SWAP1 JUMP JUMPDEST PUSH1 0x1 PUSH1 0x1 PUSH1 0x40 SHL SUB DUP3 DUP2 AND DUP3 DUP3 AND SUB SWAP1 DUP1 DUP3 GT ISZERO PUSH2 0x4CE5 JUMPI PUSH2 0x4CE5 PUSH2 0x5576 JUMP JUMPDEST PUSH1 0x1 PUSH1 0x1 PUSH1 0x40 SHL SUB DUP2 DUP2 AND DUP4 DUP3 AND ADD SWAP1 DUP1 DUP3 GT ISZERO PUSH2 0x4CE5 JUMPI PUSH2 0x4CE5 PUSH2 0x5576 JUMP JUMPDEST PUSH1 0x1 PUSH1 0x1 PUSH1 0xA0 SHL SUB DUP6 DUP2 AND DUP3 MSTORE DUP5 AND PUSH1 0x20 DUP3 ADD MSTORE PUSH1 0x40 DUP2 ADD DUP4 SWAP1 MSTORE PUSH1 0x80 PUSH1 0x60 DUP3 ADD DUP2 SWAP1 MSTORE PUSH1 0x0 SWAP1 PUSH2 0x5C14 SWAP1 DUP4 ADD DUP5 PUSH2 0x4F18 JUMP JUMPDEST SWAP7 SWAP6 POP POP POP POP POP POP JUMP JUMPDEST PUSH1 0x0 PUSH1 0x20 DUP3 DUP5 SUB SLT ISZERO PUSH2 0x5C30 JUMPI PUSH1 0x0 DUP1 REVERT JUMPDEST DUP2 MLOAD PUSH2 0x2EF4 DUP2 PUSH2 0x4F57 JUMP JUMPDEST PUSH4 0x4E487B71 PUSH1 0xE0 SHL PUSH1 0x0 MSTORE PUSH1 0x31 PUSH1 0x4 MSTORE PUSH1 0x24 PUSH1 0x0 REVERT INVALID COINBASE TIMESTAMP NUMBER PREVRANDAO GASLIMIT CHAINID SELFBALANCE BASEFEE 0x49 0x4A 0x4B 0x4C 0x4D 0x4E 0x4F POP MLOAD MSTORE MSTORE8 SLOAD SSTORE JUMP JUMPI PC MSIZE GAS PUSH2 0x6263 PUSH5 0x6566676869 PUSH11 0x6B6C6D6E6F707172737475 PUSH23 0x7778797A303132333435363738392B2FDF8B4C520FFE19 PUSH29 0x5343C6F5AEC59570151EF9A492F2C624FD45DDDE6135EC420001020903 GT EXP NOT DIV 0x21 SLT 0x29 SIGNEXTEND BALANCE BYTE CODECOPY SDIV COINBASE 0x22 GASLIMIT SGT 0x4D 0x2A SSTORE 0xC 0x5D ORIGIN PUSH6 0x1B6D3A750626 TIMESTAMP PUSH3 0x237D46 DUP6 EQ DUP1 0x4E DUP14 0x2B SWAP6 JUMP SWAP14 0xD 0x49 0x5E 0xA5 CALLER 0xA9 PUSH7 0xB11C886EB93BC1 PUSH23 0xC9071727374353637324837E9B47AF86C7155181AD4FD1 DUP15 0xD3 0x2C SWAP1 SWAP7 0xDB JUMPI 0xD5 SWAP15 0xE3 0xE 0x2E 0x4A PUSH11 0x5F92A6BE3498AAE067DDB2 0xEB SAR MSIZE DUP10 0xB5 PUSH16 0xD7BAF33CA0C2EE77E5CAF7FF08101820 0x28 ADDRESS CODESIZE BLOCKHASH PREVRANDAO 0x4C SLOAD 0x5C PUSH5 0x6C7425617C DUP5 PUSH32 0x8C949C48A4A8B087B8C0C816365272829AAEC650ACD0D28FDAD4E22D6991BD97 0xDF 0xDC 0xEA PC 0xB4 0xD6 CALLCODE SWAP16 0xED 0xE4 0xF6 INVALID 0xF 0x1F 0x2F EXTCODEHASH 0x4B JUMPDEST PUSH12 0x607B8B93A3A7B7BF357199C5 0xAB 0xCF 0xD9 0xE1 PUSH9 0xBCDEE9B3F1ECF5FD1E RETURNDATACOPY GAS PUSH27 0x8AA2B670C4CED8BBE8F0F4FC3D79A1C3CDE7EFFB78CCE6FACBF9F8 LOG2 PUSH5 0x6970667358 0x22 SLT KECCAK256 0xD SDIV SWAP16 PUSH29 0xEF2517E4CF077FB915CFA7B916B470C30F1A25B785B90CCCFC07C64D64 PUSH20 0x6F6C6343000812003368747470733A2F2F6D7573 PUSH22 0x6269636F6C6C656374696F6E2E78797A2F646174612F PUSH14 0x657461646174612FDF8B4C520FFE NOT PUSH29 0x5343C6F5AEC59570151EF9A492F2C624FD45DDDE6135EC424552433732 BALANCE POP PUSH20 0x693A207472616E7366657220746F206E6F6E2045 MSTORE NUMBER CALLDATACOPY ORIGIN "
		},
		"gasEstimates": {
			"creation": {
				"codeDepositCost": "4807800",
				"executionCost": "infinite",
				"totalCost": "infinite"
			},
			"external": {
				"ADMIN()": "infinite",
				"AIRDROP_ROLE()": "286",
				"BURNER_ROLE()": "351",
				"CAL()": "2494",
				"CALLevel()": "2385",
				"DEFAULT_ADMIN_ROLE()": "329",
				"MINTER_ROLE()": "306",
				"addLocalContractAllowList(address)": "infinite",
				"airdropMint(address[],uint256[])": "infinite",
				"allowlistType()": "2407",
				"allowlistUserAmount(uint256,address)": "2773",
				"animationURI()": "infinite",
				"approve(address,uint256)": "infinite",
				"balanceOf(address)": "2743",
				"baseExtension()": "infinite",
				"baseURI()": "infinite",
				"burnAndMintMode()": "2424",
				"cost()": "2386",
				"currentTokenId()": "2544",
				"enableRestrict()": "2412",
				"externalBurn(uint256[])": "infinite",
				"externalMint(address,uint256)": "infinite",
				"getAllowlistUserAmount(address)": "4801",
				"getApproved(uint256)": "7112",
				"getLocalContractAllowList()": "infinite",
				"getRoleAdmin(bytes32)": "2556",
				"getUserMintedAmount(address)": "4846",
				"getUserMintedAmountBySaleId(uint256,address)": "2754",
				"grantRole(bytes32,address)": "infinite",
				"hasRole(bytes32,address)": "2810",
				"imageURI()": "infinite",
				"interfaceOfTokenURI()": "2427",
				"isApprovedForAll(address,address)": "infinite",
				"isOperatorFilterRegistryRevoked()": "2405",
				"isSBT()": "2434",
				"maxMintAmountPerTransaction()": "2407",
				"maxSupply()": "2450",
				"merkleRoot()": "2431",
				"metadataAttributes()": "infinite",
				"metadataDescription()": "infinite",
				"metadataTitle()": "infinite",
				"mint(uint256,uint256,bytes32[],uint256)": "infinite",
				"mintCount()": "2445",
				"mintWithSBT()": "2433",
				"name()": "infinite",
				"onlyAllowlisted()": "2421",
				"operatorFilterRegistry()": "2448",
				"owner()": "2481",
				"ownerOf(uint256)": "infinite",
				"paused()": "2411",
				"publicSaleMaxMintAmountPerAddress()": "2430",
				"removeLocalContractAllowList(address)": "infinite",
				"renounceOwnership()": "infinite",
				"renounceRole(bytes32,address)": "29136",
				"revokeOperatorFilterRegistry()": "29654",
				"revokeRole(bytes32,address)": "infinite",
				"royaltyInfo(uint256,uint256)": "5217",
				"safeTransferFrom(address,address,uint256)": "infinite",
				"safeTransferFrom(address,address,uint256,bytes)": "infinite",
				"saleId()": "2407",
				"sbtCollection()": "2460",
				"setAllowListType(uint256)": "infinite",
				"setAllowlistMapping(uint256,address[],uint256[])": "infinite",
				"setAnimationURI(string)": "infinite",
				"setApprovalForAll(address,bool)": "infinite",
				"setBaseExtension(string)": "infinite",
				"setBaseURI(string)": "infinite",
				"setBurnAndMintMode(bool)": "infinite",
				"setCAL(address)": "infinite",
				"setCALLevel(uint256)": "infinite",
				"setCost(uint256)": "infinite",
				"setDefaultRoyalty(address,uint96)": "25073",
				"setEnebleRestrict(bool)": "infinite",
				"setImageURI(string)": "infinite",
				"setInterfaceOfTokenURI(address)": "infinite",
				"setIsSBT(bool)": "infinite",
				"setMaxMintAmountPerTransaction(uint256)": "infinite",
				"setMaxSupply(uint256)": "infinite",
				"setMerkleRoot(bytes32)": "infinite",
				"setMetadataAttributes(string)": "infinite",
				"setMetadataDescription(string)": "infinite",
				"setMetadataTitle(string)": "infinite",
				"setMintCount(bool)": "infinite",
				"setMintWithSBT(bool)": "infinite",
				"setOnlyAllowlisted(bool)": "infinite",
				"setPause(bool)": "infinite",
				"setPublicSaleMaxMintAmountPerAddress(uint256)": "infinite",
				"setSaleId(uint256)": "infinite",
				"setSbtCollection(address)": "infinite",
				"setTokenCALLevel(uint256,uint256)": "infinite",
				"setUseAnimationUrl(bool)": "infinite",
				"setUseInterfaceMetadata(bool)": "infinite",
				"setUseSingleMetadata(bool)": "infinite",
				"setWalletCALLevel(uint256)": "22470",
				"setWithdrawAddress(address)": "26894",
				"supportsInterface(bytes4)": "infinite",
				"symbol()": "infinite",
				"tokenCALLevel(uint256)": "2571",
				"tokenURI(uint256)": "infinite",
				"tokensOfOwner(address)": "infinite",
				"totalSupply()": "infinite",
				"transferFrom(address,address,uint256)": "infinite",
				"transferOwnership(address)": "28537",
				"updateOperatorFilterRegistryAddress(address)": "30128",
				"useAnimationUrl()": "2369",
				"useInterfaceMetadata()": "2406",
				"useSingleMetadata()": "2406",
				"userMintedAmount(uint256,address)": "2705",
				"walletCALLevel(address)": "2632",
				"withdraw()": "infinite",
				"withdrawAddress()": "2450"
			},
			"internal": {
				"_afterTokenTransfers(address,address,uint256,uint256)": "infinite",
				"_baseURI()": "infinite",
				"_beforeTokenTransfers(address,address,uint256,uint256)": "infinite"
			}
		},
		"methodIdentifiers": {
			"ADMIN()": "2a0acc6a",
			"AIRDROP_ROLE()": "1e0fbfa2",
			"BURNER_ROLE()": "282c51f3",
			"CAL()": "396e8f53",
			"CALLevel()": "4f3db346",
			"DEFAULT_ADMIN_ROLE()": "a217fddf",
			"MINTER_ROLE()": "d5391393",
			"addLocalContractAllowList(address)": "ff768212",
			"airdropMint(address[],uint256[])": "279a669e",
			"allowlistType()": "a72193b6",
			"allowlistUserAmount(uint256,address)": "499a15d4",
			"animationURI()": "b51bbbdf",
			"approve(address,uint256)": "095ea7b3",
			"balanceOf(address)": "70a08231",
			"baseExtension()": "c6682862",
			"baseURI()": "6c0360eb",
			"burnAndMintMode()": "0085bb6f",
			"cost()": "13faede6",
			"currentTokenId()": "009a9b7b",
			"enableRestrict()": "07265389",
			"externalBurn(uint256[])": "5978c012",
			"externalMint(address,uint256)": "99f98898",
			"getAllowlistUserAmount(address)": "d04f32d2",
			"getApproved(uint256)": "081812fc",
			"getLocalContractAllowList()": "003f332f",
			"getRoleAdmin(bytes32)": "248a9ca3",
			"getUserMintedAmount(address)": "47705cbc",
			"getUserMintedAmountBySaleId(uint256,address)": "3511cd54",
			"grantRole(bytes32,address)": "2f2ff15d",
			"hasRole(bytes32,address)": "91d14854",
			"imageURI()": "135d088d",
			"interfaceOfTokenURI()": "877984cb",
			"isApprovedForAll(address,address)": "e985e9c5",
			"isOperatorFilterRegistryRevoked()": "ecba222a",
			"isSBT()": "3cf40df3",
			"maxMintAmountPerTransaction()": "bbb89744",
			"maxSupply()": "d5abeb01",
			"merkleRoot()": "2eb4a7ab",
			"metadataAttributes()": "01340a32",
			"metadataDescription()": "942c9273",
			"metadataTitle()": "aabb9a86",
			"mint(uint256,uint256,bytes32[],uint256)": "6b1a2b7f",
			"mintCount()": "9659867e",
			"mintWithSBT()": "d96506f9",
			"name()": "06fdde03",
			"onlyAllowlisted()": "674c02aa",
			"operatorFilterRegistry()": "b0ccc31e",
			"owner()": "8da5cb5b",
			"ownerOf(uint256)": "6352211e",
			"paused()": "5c975abb",
			"publicSaleMaxMintAmountPerAddress()": "73ef64fd",
			"removeLocalContractAllowList(address)": "72b44d71",
			"renounceOwnership()": "715018a6",
			"renounceRole(bytes32,address)": "36568abe",
			"revokeOperatorFilterRegistry()": "5ef9432a",
			"revokeRole(bytes32,address)": "d547741f",
			"royaltyInfo(uint256,uint256)": "2a55205a",
			"safeTransferFrom(address,address,uint256)": "42842e0e",
			"safeTransferFrom(address,address,uint256,bytes)": "b88d4fde",
			"saleId()": "c84c0387",
			"sbtCollection()": "55cda898",
			"setAllowListType(uint256)": "7ee3b2ac",
			"setAllowlistMapping(uint256,address[],uint256[])": "4e6bf204",
			"setAnimationURI(string)": "c5ac58e1",
			"setApprovalForAll(address,bool)": "a22cb465",
			"setBaseExtension(string)": "da3ef23f",
			"setBaseURI(string)": "55f804b3",
			"setBurnAndMintMode(bool)": "e39e0269",
			"setCAL(address)": "025e332e",
			"setCALLevel(uint256)": "0f4345e2",
			"setCost(uint256)": "44a0d68a",
			"setDefaultRoyalty(address,uint96)": "04634d8d",
			"setEnebleRestrict(bool)": "0730baf0",
			"setImageURI(string)": "04787ca2",
			"setInterfaceOfTokenURI(address)": "23c03085",
			"setIsSBT(bool)": "fcd1aac9",
			"setMaxMintAmountPerTransaction(uint256)": "a9e2acd5",
			"setMaxSupply(uint256)": "6f8b44b0",
			"setMerkleRoot(bytes32)": "7cb64759",
			"setMetadataAttributes(string)": "ddecc4d0",
			"setMetadataDescription(string)": "599487c3",
			"setMetadataTitle(string)": "981eb344",
			"setMintCount(bool)": "8e73cf00",
			"setMintWithSBT(bool)": "4cb110fc",
			"setOnlyAllowlisted(bool)": "17dc10c4",
			"setPause(bool)": "bedb86fb",
			"setPublicSaleMaxMintAmountPerAddress(uint256)": "b5f94d06",
			"setSaleId(uint256)": "d728312a",
			"setSbtCollection(address)": "f58f9c66",
			"setTokenCALLevel(uint256,uint256)": "7c3dc173",
			"setUseAnimationUrl(bool)": "4c45cda2",
			"setUseInterfaceMetadata(bool)": "f138abfa",
			"setUseSingleMetadata(bool)": "6b8ee0ec",
			"setWalletCALLevel(uint256)": "a35c23ad",
			"setWithdrawAddress(address)": "3ab1a494",
			"supportsInterface(bytes4)": "01ffc9a7",
			"symbol()": "95d89b41",
			"tokenCALLevel(uint256)": "b31391cb",
			"tokenURI(uint256)": "c87b56dd",
			"tokensOfOwner(address)": "8462151c",
			"totalSupply()": "18160ddd",
			"transferFrom(address,address,uint256)": "23b872dd",
			"transferOwnership(address)": "f2fde38b",
			"updateOperatorFilterRegistryAddress(address)": "b8d1e532",
			"useAnimationUrl()": "003eb1e2",
			"useInterfaceMetadata()": "ba6269c6",
			"useSingleMetadata()": "d6dfad76",
			"userMintedAmount(uint256,address)": "f48824db",
			"walletCALLevel(address)": "2398f843",
			"withdraw()": "3ccfd60b",
			"withdrawAddress()": "1581b600"
		}
	},
	"abi": [
		{
			"inputs": [],
			"stateMutability": "nonpayable",
			"type": "constructor"
		},
		{
			"inputs": [],
			"name": "InitialRegistryAddressCannotBeZeroAddress",
			"type": "error"
		},
		{
			"inputs": [],
			"name": "OnlyOwner",
			"type": "error"
		},
		{
			"inputs": [
				{
					"internalType": "address",
					"name": "operator",
					"type": "address"
				}
			],
			"name": "OperatorNotAllowed",
			"type": "error"
		},
		{
			"inputs": [],
			"name": "RegistryHasBeenRevoked",
			"type": "error"
		},
		{
			"anonymous": false,
			"inputs": [
				{
					"indexed": true,
					"internalType": "address",
					"name": "owner",
					"type": "address"
				},
				{
					"indexed": true,
					"internalType": "address",
					"name": "approved",
					"type": "address"
				},
				{
					"indexed": true,
					"internalType": "uint256",
					"name": "tokenId",
					"type": "uint256"
				}
			],
			"name": "Approval",
			"type": "event"
		},
		{
			"anonymous": false,
			"inputs": [
				{
					"indexed": true,
					"internalType": "address",
					"name": "owner",
					"type": "address"
				},
				{
					"indexed": true,
					"internalType": "address",
					"name": "operator",
					"type": "address"
				},
				{
					"indexed": false,
					"internalType": "bool",
					"name": "approved",
					"type": "bool"
				}
			],
			"name": "ApprovalForAll",
			"type": "event"
		},
		{
			"anonymous": false,
			"inputs": [
				{
					"indexed": true,
					"internalType": "address",
					"name": "operator",
					"type": "address"
				},
				{
					"indexed": true,
					"internalType": "uint256",
					"name": "level",
					"type": "uint256"
				}
			],
			"name": "CalLevelChanged",
			"type": "event"
		},
		{
			"anonymous": false,
			"inputs": [
				{
					"indexed": true,
					"internalType": "address",
					"name": "operator",
					"type": "address"
				},
				{
					"indexed": true,
					"internalType": "address",
					"name": "transferer",
					"type": "address"
				}
			],
			"name": "LocalCalAdded",
			"type": "event"
		},
		{
			"anonymous": false,
			"inputs": [
				{
					"indexed": true,
					"internalType": "address",
					"name": "operator",
					"type": "address"
				},
				{
					"indexed": true,
					"internalType": "address",
					"name": "transferer",
					"type": "address"
				}
			],
			"name": "LocalCalRemoved",
			"type": "event"
		},
		{
			"anonymous": false,
			"inputs": [
				{
					"indexed": false,
					"internalType": "address",
					"name": "newRegistry",
					"type": "address"
				}
			],
			"name": "OperatorFilterRegistryAddressUpdated",
			"type": "event"
		},
		{
			"anonymous": false,
			"inputs": [],
			"name": "OperatorFilterRegistryRevoked",
			"type": "event"
		},
		{
			"anonymous": false,
			"inputs": [
				{
					"indexed": true,
					"internalType": "address",
					"name": "previousOwner",
					"type": "address"
				},
				{
					"indexed": true,
					"internalType": "address",
					"name": "newOwner",
					"type": "address"
				}
			],
			"name": "OwnershipTransferred",
			"type": "event"
		},
		{
			"anonymous": false,
			"inputs": [
				{
					"indexed": true,
					"internalType": "bytes32",
					"name": "role",
					"type": "bytes32"
				},
				{
					"indexed": true,
					"internalType": "bytes32",
					"name": "previousAdminRole",
					"type": "bytes32"
				},
				{
					"indexed": true,
					"internalType": "bytes32",
					"name": "newAdminRole",
					"type": "bytes32"
				}
			],
			"name": "RoleAdminChanged",
			"type": "event"
		},
		{
			"anonymous": false,
			"inputs": [
				{
					"indexed": true,
					"internalType": "bytes32",
					"name": "role",
					"type": "bytes32"
				},
				{
					"indexed": true,
					"internalType": "address",
					"name": "account",
					"type": "address"
				},
				{
					"indexed": true,
					"internalType": "address",
					"name": "sender",
					"type": "address"
				}
			],
			"name": "RoleGranted",
			"type": "event"
		},
		{
			"anonymous": false,
			"inputs": [
				{
					"indexed": true,
					"internalType": "bytes32",
					"name": "role",
					"type": "bytes32"
				},
				{
					"indexed": true,
					"internalType": "address",
					"name": "account",
					"type": "address"
				},
				{
					"indexed": true,
					"internalType": "address",
					"name": "sender",
					"type": "address"
				}
			],
			"name": "RoleRevoked",
			"type": "event"
		},
		{
			"anonymous": false,
			"inputs": [
				{
					"indexed": true,
					"internalType": "address",
					"name": "from",
					"type": "address"
				},
				{
					"indexed": true,
					"internalType": "address",
					"name": "to",
					"type": "address"
				},
				{
					"indexed": true,
					"internalType": "uint256",
					"name": "tokenId",
					"type": "uint256"
				}
			],
			"name": "Transfer",
			"type": "event"
		},
		{
			"inputs": [],
			"name": "ADMIN",
			"outputs": [
				{
					"internalType": "bytes32",
					"name": "",
					"type": "bytes32"
				}
			],
			"stateMutability": "view",
			"type": "function"
		},
		{
			"inputs": [],
			"name": "AIRDROP_ROLE",
			"outputs": [
				{
					"internalType": "bytes32",
					"name": "",
					"type": "bytes32"
				}
			],
			"stateMutability": "view",
			"type": "function"
		},
		{
			"inputs": [],
			"name": "BURNER_ROLE",
			"outputs": [
				{
					"internalType": "bytes32",
					"name": "",
					"type": "bytes32"
				}
			],
			"stateMutability": "view",
			"type": "function"
		},
		{
			"inputs": [],
			"name": "CAL",
			"outputs": [
				{
					"internalType": "contract IContractAllowListProxy",
					"name": "",
					"type": "address"
				}
			],
			"stateMutability": "view",
			"type": "function"
		},
		{
			"inputs": [],
			"name": "CALLevel",
			"outputs": [
				{
					"internalType": "uint256",
					"name": "",
					"type": "uint256"
				}
			],
			"stateMutability": "view",
			"type": "function"
		},
		{
			"inputs": [],
			"name": "DEFAULT_ADMIN_ROLE",
			"outputs": [
				{
					"internalType": "bytes32",
					"name": "",
					"type": "bytes32"
				}
			],
			"stateMutability": "view",
			"type": "function"
		},
		{
			"inputs": [],
			"name": "MINTER_ROLE",
			"outputs": [
				{
					"internalType": "bytes32",
					"name": "",
					"type": "bytes32"
				}
			],
			"stateMutability": "view",
			"type": "function"
		},
		{
			"inputs": [
				{
					"internalType": "address",
					"name": "transferer",
					"type": "address"
				}
			],
			"name": "addLocalContractAllowList",
			"outputs": [],
			"stateMutability": "nonpayable",
			"type": "function"
		},
		{
			"inputs": [
				{
					"internalType": "address[]",
					"name": "_airdropAddresses",
					"type": "address[]"
				},
				{
					"internalType": "uint256[]",
					"name": "_UserMintAmount",
					"type": "uint256[]"
				}
			],
			"name": "airdropMint",
			"outputs": [],
			"stateMutability": "nonpayable",
			"type": "function"
		},
		{
			"inputs": [],
			"name": "allowlistType",
			"outputs": [
				{
					"internalType": "uint256",
					"name": "",
					"type": "uint256"
				}
			],
			"stateMutability": "view",
			"type": "function"
		},
		{
			"inputs": [
				{
					"internalType": "uint256",
					"name": "",
					"type": "uint256"
				},
				{
					"internalType": "address",
					"name": "",
					"type": "address"
				}
			],
			"name": "allowlistUserAmount",
			"outputs": [
				{
					"internalType": "uint256",
					"name": "",
					"type": "uint256"
				}
			],
			"stateMutability": "view",
			"type": "function"
		},
		{
			"inputs": [],
			"name": "animationURI",
			"outputs": [
				{
					"internalType": "string",
					"name": "",
					"type": "string"
				}
			],
			"stateMutability": "view",
			"type": "function"
		},
		{
			"inputs": [
				{
					"internalType": "address",
					"name": "operator",
					"type": "address"
				},
				{
					"internalType": "uint256",
					"name": "tokenId",
					"type": "uint256"
				}
			],
			"name": "approve",
			"outputs": [],
			"stateMutability": "nonpayable",
			"type": "function"
		},
		{
			"inputs": [
				{
					"internalType": "address",
					"name": "_owner",
					"type": "address"
				}
			],
			"name": "balanceOf",
			"outputs": [
				{
					"internalType": "uint256",
					"name": "",
					"type": "uint256"
				}
			],
			"stateMutability": "view",
			"type": "function"
		},
		{
			"inputs": [],
			"name": "baseExtension",
			"outputs": [
				{
					"internalType": "string",
					"name": "",
					"type": "string"
				}
			],
			"stateMutability": "view",
			"type": "function"
		},
		{
			"inputs": [],
			"name": "baseURI",
			"outputs": [
				{
					"internalType": "string",
					"name": "",
					"type": "string"
				}
			],
			"stateMutability": "view",
			"type": "function"
		},
		{
			"inputs": [],
			"name": "burnAndMintMode",
			"outputs": [
				{
					"internalType": "bool",
					"name": "",
					"type": "bool"
				}
			],
			"stateMutability": "view",
			"type": "function"
		},
		{
			"inputs": [],
			"name": "cost",
			"outputs": [
				{
					"internalType": "uint256",
					"name": "",
					"type": "uint256"
				}
			],
			"stateMutability": "view",
			"type": "function"
		},
		{
			"inputs": [],
			"name": "currentTokenId",
			"outputs": [
				{
					"internalType": "uint256",
					"name": "",
					"type": "uint256"
				}
			],
			"stateMutability": "view",
			"type": "function"
		},
		{
			"inputs": [],
			"name": "enableRestrict",
			"outputs": [
				{
					"internalType": "bool",
					"name": "",
					"type": "bool"
				}
			],
			"stateMutability": "view",
			"type": "function"
		},
		{
			"inputs": [
				{
					"internalType": "uint256[]",
					"name": "_burnTokenIds",
					"type": "uint256[]"
				}
			],
			"name": "externalBurn",
			"outputs": [],
			"stateMutability": "nonpayable",
			"type": "function"
		},
		{
			"inputs": [
				{
					"internalType": "address",
					"name": "_address",
					"type": "address"
				},
				{
					"internalType": "uint256",
					"name": "_amount",
					"type": "uint256"
				}
			],
			"name": "externalMint",
			"outputs": [],
			"stateMutability": "payable",
			"type": "function"
		},
		{
			"inputs": [
				{
					"internalType": "address",
					"name": "_address",
					"type": "address"
				}
			],
			"name": "getAllowlistUserAmount",
			"outputs": [
				{
					"internalType": "uint256",
					"name": "",
					"type": "uint256"
				}
			],
			"stateMutability": "view",
			"type": "function"
		},
		{
			"inputs": [
				{
					"internalType": "uint256",
					"name": "tokenId",
					"type": "uint256"
				}
			],
			"name": "getApproved",
			"outputs": [
				{
					"internalType": "address",
					"name": "",
					"type": "address"
				}
			],
			"stateMutability": "view",
			"type": "function"
		},
		{
			"inputs": [],
			"name": "getLocalContractAllowList",
			"outputs": [
				{
					"internalType": "address[]",
					"name": "",
					"type": "address[]"
				}
			],
			"stateMutability": "view",
			"type": "function"
		},
		{
			"inputs": [
				{
					"internalType": "bytes32",
					"name": "role",
					"type": "bytes32"
				}
			],
			"name": "getRoleAdmin",
			"outputs": [
				{
					"internalType": "bytes32",
					"name": "",
					"type": "bytes32"
				}
			],
			"stateMutability": "view",
			"type": "function"
		},
		{
			"inputs": [
				{
					"internalType": "address",
					"name": "_address",
					"type": "address"
				}
			],
			"name": "getUserMintedAmount",
			"outputs": [
				{
					"internalType": "uint256",
					"name": "",
					"type": "uint256"
				}
			],
			"stateMutability": "view",
			"type": "function"
		},
		{
			"inputs": [
				{
					"internalType": "uint256",
					"name": "_saleId",
					"type": "uint256"
				},
				{
					"internalType": "address",
					"name": "_address",
					"type": "address"
				}
			],
			"name": "getUserMintedAmountBySaleId",
			"outputs": [
				{
					"internalType": "uint256",
					"name": "",
					"type": "uint256"
				}
			],
			"stateMutability": "view",
			"type": "function"
		},
		{
			"inputs": [
				{
					"internalType": "bytes32",
					"name": "role",
					"type": "bytes32"
				},
				{
					"internalType": "address",
					"name": "account",
					"type": "address"
				}
			],
			"name": "grantRole",
			"outputs": [],
			"stateMutability": "nonpayable",
			"type": "function"
		},
		{
			"inputs": [
				{
					"internalType": "bytes32",
					"name": "role",
					"type": "bytes32"
				},
				{
					"internalType": "address",
					"name": "account",
					"type": "address"
				}
			],
			"name": "hasRole",
			"outputs": [
				{
					"internalType": "bool",
					"name": "",
					"type": "bool"
				}
			],
			"stateMutability": "view",
			"type": "function"
		},
		{
			"inputs": [],
			"name": "imageURI",
			"outputs": [
				{
					"internalType": "string",
					"name": "",
					"type": "string"
				}
			],
			"stateMutability": "view",
			"type": "function"
		},
		{
			"inputs": [],
			"name": "interfaceOfTokenURI",
			"outputs": [
				{
					"internalType": "contract iTokenURI",
					"name": "",
					"type": "address"
				}
			],
			"stateMutability": "view",
			"type": "function"
		},
		{
			"inputs": [
				{
					"internalType": "address",
					"name": "owner",
					"type": "address"
				},
				{
					"internalType": "address",
					"name": "operator",
					"type": "address"
				}
			],
			"name": "isApprovedForAll",
			"outputs": [
				{
					"internalType": "bool",
					"name": "",
					"type": "bool"
				}
			],
			"stateMutability": "view",
			"type": "function"
		},
		{
			"inputs": [],
			"name": "isOperatorFilterRegistryRevoked",
			"outputs": [
				{
					"internalType": "bool",
					"name": "",
					"type": "bool"
				}
			],
			"stateMutability": "view",
			"type": "function"
		},
		{
			"inputs": [],
			"name": "isSBT",
			"outputs": [
				{
					"internalType": "bool",
					"name": "",
					"type": "bool"
				}
			],
			"stateMutability": "view",
			"type": "function"
		},
		{
			"inputs": [],
			"name": "maxMintAmountPerTransaction",
			"outputs": [
				{
					"internalType": "uint256",
					"name": "",
					"type": "uint256"
				}
			],
			"stateMutability": "view",
			"type": "function"
		},
		{
			"inputs": [],
			"name": "maxSupply",
			"outputs": [
				{
					"internalType": "uint256",
					"name": "",
					"type": "uint256"
				}
			],
			"stateMutability": "view",
			"type": "function"
		},
		{
			"inputs": [],
			"name": "merkleRoot",
			"outputs": [
				{
					"internalType": "bytes32",
					"name": "",
					"type": "bytes32"
				}
			],
			"stateMutability": "view",
			"type": "function"
		},
		{
			"inputs": [],
			"name": "metadataAttributes",
			"outputs": [
				{
					"internalType": "string",
					"name": "",
					"type": "string"
				}
			],
			"stateMutability": "view",
			"type": "function"
		},
		{
			"inputs": [],
			"name": "metadataDescription",
			"outputs": [
				{
					"internalType": "string",
					"name": "",
					"type": "string"
				}
			],
			"stateMutability": "view",
			"type": "function"
		},
		{
			"inputs": [],
			"name": "metadataTitle",
			"outputs": [
				{
					"internalType": "string",
					"name": "",
					"type": "string"
				}
			],
			"stateMutability": "view",
			"type": "function"
		},
		{
			"inputs": [
				{
					"internalType": "uint256",
					"name": "_mintAmount",
					"type": "uint256"
				},
				{
					"internalType": "uint256",
					"name": "_maxMintAmount",
					"type": "uint256"
				},
				{
					"internalType": "bytes32[]",
					"name": "_merkleProof",
					"type": "bytes32[]"
				},
				{
					"internalType": "uint256",
					"name": "_burnId",
					"type": "uint256"
				}
			],
			"name": "mint",
			"outputs": [],
			"stateMutability": "payable",
			"type": "function"
		},
		{
			"inputs": [],
			"name": "mintCount",
			"outputs": [
				{
					"internalType": "bool",
					"name": "",
					"type": "bool"
				}
			],
			"stateMutability": "view",
			"type": "function"
		},
		{
			"inputs": [],
			"name": "mintWithSBT",
			"outputs": [
				{
					"internalType": "bool",
					"name": "",
					"type": "bool"
				}
			],
			"stateMutability": "view",
			"type": "function"
		},
		{
			"inputs": [],
			"name": "name",
			"outputs": [
				{
					"internalType": "string",
					"name": "",
					"type": "string"
				}
			],
			"stateMutability": "view",
			"type": "function"
		},
		{
			"inputs": [],
			"name": "onlyAllowlisted",
			"outputs": [
				{
					"internalType": "bool",
					"name": "",
					"type": "bool"
				}
			],
			"stateMutability": "view",
			"type": "function"
		},
		{
			"inputs": [],
			"name": "operatorFilterRegistry",
			"outputs": [
				{
					"internalType": "contract IOperatorFilterRegistry",
					"name": "",
					"type": "address"
				}
			],
			"stateMutability": "view",
			"type": "function"
		},
		{
			"inputs": [],
			"name": "owner",
			"outputs": [
				{
					"internalType": "address",
					"name": "",
					"type": "address"
				}
			],
			"stateMutability": "view",
			"type": "function"
		},
		{
			"inputs": [
				{
					"internalType": "uint256",
					"name": "tokenId",
					"type": "uint256"
				}
			],
			"name": "ownerOf",
			"outputs": [
				{
					"internalType": "address",
					"name": "",
					"type": "address"
				}
			],
			"stateMutability": "view",
			"type": "function"
		},
		{
			"inputs": [],
			"name": "paused",
			"outputs": [
				{
					"internalType": "bool",
					"name": "",
					"type": "bool"
				}
			],
			"stateMutability": "view",
			"type": "function"
		},
		{
			"inputs": [],
			"name": "publicSaleMaxMintAmountPerAddress",
			"outputs": [
				{
					"internalType": "uint256",
					"name": "",
					"type": "uint256"
				}
			],
			"stateMutability": "view",
			"type": "function"
		},
		{
			"inputs": [
				{
					"internalType": "address",
					"name": "transferer",
					"type": "address"
				}
			],
			"name": "removeLocalContractAllowList",
			"outputs": [],
			"stateMutability": "nonpayable",
			"type": "function"
		},
		{
			"inputs": [],
			"name": "renounceOwnership",
			"outputs": [],
			"stateMutability": "nonpayable",
			"type": "function"
		},
		{
			"inputs": [
				{
					"internalType": "bytes32",
					"name": "role",
					"type": "bytes32"
				},
				{
					"internalType": "address",
					"name": "account",
					"type": "address"
				}
			],
			"name": "renounceRole",
			"outputs": [],
			"stateMutability": "nonpayable",
			"type": "function"
		},
		{
			"inputs": [],
			"name": "revokeOperatorFilterRegistry",
			"outputs": [],
			"stateMutability": "nonpayable",
			"type": "function"
		},
		{
			"inputs": [
				{
					"internalType": "bytes32",
					"name": "role",
					"type": "bytes32"
				},
				{
					"internalType": "address",
					"name": "account",
					"type": "address"
				}
			],
			"name": "revokeRole",
			"outputs": [],
			"stateMutability": "nonpayable",
			"type": "function"
		},
		{
			"inputs": [
				{
					"internalType": "uint256",
					"name": "tokenId",
					"type": "uint256"
				},
				{
					"internalType": "uint256",
					"name": "salePrice",
					"type": "uint256"
				}
			],
			"name": "royaltyInfo",
			"outputs": [
				{
					"internalType": "address",
					"name": "",
					"type": "address"
				},
				{
					"internalType": "uint256",
					"name": "",
					"type": "uint256"
				}
			],
			"stateMutability": "view",
			"type": "function"
		},
		{
			"inputs": [
				{
					"internalType": "address",
					"name": "from",
					"type": "address"
				},
				{
					"internalType": "address",
					"name": "to",
					"type": "address"
				},
				{
					"internalType": "uint256",
					"name": "tokenId",
					"type": "uint256"
				}
			],
			"name": "safeTransferFrom",
			"outputs": [],
			"stateMutability": "nonpayable",
			"type": "function"
		},
		{
			"inputs": [
				{
					"internalType": "address",
					"name": "from",
					"type": "address"
				},
				{
					"internalType": "address",
					"name": "to",
					"type": "address"
				},
				{
					"internalType": "uint256",
					"name": "tokenId",
					"type": "uint256"
				},
				{
					"internalType": "bytes",
					"name": "data",
					"type": "bytes"
				}
			],
			"name": "safeTransferFrom",
			"outputs": [],
			"stateMutability": "nonpayable",
			"type": "function"
		},
		{
			"inputs": [],
			"name": "saleId",
			"outputs": [
				{
					"internalType": "uint256",
					"name": "",
					"type": "uint256"
				}
			],
			"stateMutability": "view",
			"type": "function"
		},
		{
			"inputs": [],
			"name": "sbtCollection",
			"outputs": [
				{
					"internalType": "contract iSbtCollection",
					"name": "",
					"type": "address"
				}
			],
			"stateMutability": "view",
			"type": "function"
		},
		{
			"inputs": [
				{
					"internalType": "uint256",
					"name": "_type",
					"type": "uint256"
				}
			],
			"name": "setAllowListType",
			"outputs": [],
			"stateMutability": "nonpayable",
			"type": "function"
		},
		{
			"inputs": [
				{
					"internalType": "uint256",
					"name": "_saleId",
					"type": "uint256"
				},
				{
					"internalType": "address[]",
					"name": "addresses",
					"type": "address[]"
				},
				{
					"internalType": "uint256[]",
					"name": "saleSupplies",
					"type": "uint256[]"
				}
			],
			"name": "setAllowlistMapping",
			"outputs": [],
			"stateMutability": "nonpayable",
			"type": "function"
		},
		{
			"inputs": [
				{
					"internalType": "string",
					"name": "_animationURI",
					"type": "string"
				}
			],
			"name": "setAnimationURI",
			"outputs": [],
			"stateMutability": "nonpayable",
			"type": "function"
		},
		{
			"inputs": [
				{
					"internalType": "address",
					"name": "operator",
					"type": "address"
				},
				{
					"internalType": "bool",
					"name": "approved",
					"type": "bool"
				}
			],
			"name": "setApprovalForAll",
			"outputs": [],
			"stateMutability": "nonpayable",
			"type": "function"
		},
		{
			"inputs": [
				{
					"internalType": "string",
					"name": "_newBaseExtension",
					"type": "string"
				}
			],
			"name": "setBaseExtension",
			"outputs": [],
			"stateMutability": "nonpayable",
			"type": "function"
		},
		{
			"inputs": [
				{
					"internalType": "string",
					"name": "_newBaseURI",
					"type": "string"
				}
			],
			"name": "setBaseURI",
			"outputs": [],
			"stateMutability": "nonpayable",
			"type": "function"
		},
		{
			"inputs": [
				{
					"internalType": "bool",
					"name": "_burnAndMintMode",
					"type": "bool"
				}
			],
			"name": "setBurnAndMintMode",
			"outputs": [],
			"stateMutability": "nonpayable",
			"type": "function"
		},
		{
			"inputs": [
				{
					"internalType": "address",
					"name": "calAddress",
					"type": "address"
				}
			],
			"name": "setCAL",
			"outputs": [],
			"stateMutability": "nonpayable",
			"type": "function"
		},
		{
			"inputs": [
				{
					"internalType": "uint256",
					"name": "level",
					"type": "uint256"
				}
			],
			"name": "setCALLevel",
			"outputs": [],
			"stateMutability": "nonpayable",
			"type": "function"
		},
		{
			"inputs": [
				{
					"internalType": "uint256",
					"name": "_newCost",
					"type": "uint256"
				}
			],
			"name": "setCost",
			"outputs": [],
			"stateMutability": "nonpayable",
			"type": "function"
		},
		{
			"inputs": [
				{
					"internalType": "address",
					"name": "_receiver",
					"type": "address"
				},
				{
					"internalType": "uint96",
					"name": "_feeNumerator",
					"type": "uint96"
				}
			],
			"name": "setDefaultRoyalty",
			"outputs": [],
			"stateMutability": "nonpayable",
			"type": "function"
		},
		{
			"inputs": [
				{
					"internalType": "bool",
					"name": "_enableRestrict",
					"type": "bool"
				}
			],
			"name": "setEnebleRestrict",
			"outputs": [],
			"stateMutability": "nonpayable",
			"type": "function"
		},
		{
			"inputs": [
				{
					"internalType": "string",
					"name": "_ImageURI",
					"type": "string"
				}
			],
			"name": "setImageURI",
			"outputs": [],
			"stateMutability": "nonpayable",
			"type": "function"
		},
		{
			"inputs": [
				{
					"internalType": "address",
					"name": "_address",
					"type": "address"
				}
			],
			"name": "setInterfaceOfTokenURI",
			"outputs": [],
			"stateMutability": "nonpayable",
			"type": "function"
		},
		{
			"inputs": [
				{
					"internalType": "bool",
					"name": "_state",
					"type": "bool"
				}
			],
			"name": "setIsSBT",
			"outputs": [],
			"stateMutability": "nonpayable",
			"type": "function"
		},
		{
			"inputs": [
				{
					"internalType": "uint256",
					"name": "_maxMintAmountPerTransaction",
					"type": "uint256"
				}
			],
			"name": "setMaxMintAmountPerTransaction",
			"outputs": [],
			"stateMutability": "nonpayable",
			"type": "function"
		},
		{
			"inputs": [
				{
					"internalType": "uint256",
					"name": "_maxSupply",
					"type": "uint256"
				}
			],
			"name": "setMaxSupply",
			"outputs": [],
			"stateMutability": "nonpayable",
			"type": "function"
		},
		{
			"inputs": [
				{
					"internalType": "bytes32",
					"name": "_merkleRoot",
					"type": "bytes32"
				}
			],
			"name": "setMerkleRoot",
			"outputs": [],
			"stateMutability": "nonpayable",
			"type": "function"
		},
		{
			"inputs": [
				{
					"internalType": "string",
					"name": "_metadataAttributes",
					"type": "string"
				}
			],
			"name": "setMetadataAttributes",
			"outputs": [],
			"stateMutability": "nonpayable",
			"type": "function"
		},
		{
			"inputs": [
				{
					"internalType": "string",
					"name": "_metadataDescription",
					"type": "string"
				}
			],
			"name": "setMetadataDescription",
			"outputs": [],
			"stateMutability": "nonpayable",
			"type": "function"
		},
		{
			"inputs": [
				{
					"internalType": "string",
					"name": "_metadataTitle",
					"type": "string"
				}
			],
			"name": "setMetadataTitle",
			"outputs": [],
			"stateMutability": "nonpayable",
			"type": "function"
		},
		{
			"inputs": [
				{
					"internalType": "bool",
					"name": "_state",
					"type": "bool"
				}
			],
			"name": "setMintCount",
			"outputs": [],
			"stateMutability": "nonpayable",
			"type": "function"
		},
		{
			"inputs": [
				{
					"internalType": "bool",
					"name": "_mintWithSBT",
					"type": "bool"
				}
			],
			"name": "setMintWithSBT",
			"outputs": [],
			"stateMutability": "nonpayable",
			"type": "function"
		},
		{
			"inputs": [
				{
					"internalType": "bool",
					"name": "_state",
					"type": "bool"
				}
			],
			"name": "setOnlyAllowlisted",
			"outputs": [],
			"stateMutability": "nonpayable",
			"type": "function"
		},
		{
			"inputs": [
				{
					"internalType": "bool",
					"name": "_state",
					"type": "bool"
				}
			],
			"name": "setPause",
			"outputs": [],
			"stateMutability": "nonpayable",
			"type": "function"
		},
		{
			"inputs": [
				{
					"internalType": "uint256",
					"name": "_publicSaleMaxMintAmountPerAddress",
					"type": "uint256"
				}
			],
			"name": "setPublicSaleMaxMintAmountPerAddress",
			"outputs": [],
			"stateMutability": "nonpayable",
			"type": "function"
		},
		{
			"inputs": [
				{
					"internalType": "uint256",
					"name": "_saleId",
					"type": "uint256"
				}
			],
			"name": "setSaleId",
			"outputs": [],
			"stateMutability": "nonpayable",
			"type": "function"
		},
		{
			"inputs": [
				{
					"internalType": "address",
					"name": "_address",
					"type": "address"
				}
			],
			"name": "setSbtCollection",
			"outputs": [],
			"stateMutability": "nonpayable",
			"type": "function"
		},
		{
			"inputs": [
				{
					"internalType": "uint256",
					"name": "tokenId",
					"type": "uint256"
				},
				{
					"internalType": "uint256",
					"name": "level",
					"type": "uint256"
				}
			],
			"name": "setTokenCALLevel",
			"outputs": [],
			"stateMutability": "nonpayable",
			"type": "function"
		},
		{
			"inputs": [
				{
					"internalType": "bool",
					"name": "_useAnimationUrl",
					"type": "bool"
				}
			],
			"name": "setUseAnimationUrl",
			"outputs": [],
			"stateMutability": "nonpayable",
			"type": "function"
		},
		{
			"inputs": [
				{
					"internalType": "bool",
					"name": "_useInterfaceMetadata",
					"type": "bool"
				}
			],
			"name": "setUseInterfaceMetadata",
			"outputs": [],
			"stateMutability": "nonpayable",
			"type": "function"
		},
		{
			"inputs": [
				{
					"internalType": "bool",
					"name": "_useSingleMetadata",
					"type": "bool"
				}
			],
			"name": "setUseSingleMetadata",
			"outputs": [],
			"stateMutability": "nonpayable",
			"type": "function"
		},
		{
			"inputs": [
				{
					"internalType": "uint256",
					"name": "level",
					"type": "uint256"
				}
			],
			"name": "setWalletCALLevel",
			"outputs": [],
			"stateMutability": "nonpayable",
			"type": "function"
		},
		{
			"inputs": [
				{
					"internalType": "address",
					"name": "_withdrawAddress",
					"type": "address"
				}
			],
			"name": "setWithdrawAddress",
			"outputs": [],
			"stateMutability": "nonpayable",
			"type": "function"
		},
		{
			"inputs": [
				{
					"internalType": "bytes4",
					"name": "interfaceId",
					"type": "bytes4"
				}
			],
			"name": "supportsInterface",
			"outputs": [
				{
					"internalType": "bool",
					"name": "",
					"type": "bool"
				}
			],
			"stateMutability": "view",
			"type": "function"
		},
		{
			"inputs": [],
			"name": "symbol",
			"outputs": [
				{
					"internalType": "string",
					"name": "",
					"type": "string"
				}
			],
			"stateMutability": "view",
			"type": "function"
		},
		{
			"inputs": [
				{
					"internalType": "uint256",
					"name": "",
					"type": "uint256"
				}
			],
			"name": "tokenCALLevel",
			"outputs": [
				{
					"internalType": "uint256",
					"name": "",
					"type": "uint256"
				}
			],
			"stateMutability": "view",
			"type": "function"
		},
		{
			"inputs": [
				{
					"internalType": "uint256",
					"name": "tokenId",
					"type": "uint256"
				}
			],
			"name": "tokenURI",
			"outputs": [
				{
					"internalType": "string",
					"name": "",
					"type": "string"
				}
			],
			"stateMutability": "view",
			"type": "function"
		},
		{
			"inputs": [
				{
					"internalType": "address",
					"name": "owner",
					"type": "address"
				}
			],
			"name": "tokensOfOwner",
			"outputs": [
				{
					"internalType": "uint256[]",
					"name": "",
					"type": "uint256[]"
				}
			],
			"stateMutability": "view",
			"type": "function"
		},
		{
			"inputs": [],
			"name": "totalSupply",
			"outputs": [
				{
					"internalType": "uint256",
					"name": "",
					"type": "uint256"
				}
			],
			"stateMutability": "view",
			"type": "function"
		},
		{
			"inputs": [
				{
					"internalType": "address",
					"name": "from",
					"type": "address"
				},
				{
					"internalType": "address",
					"name": "to",
					"type": "address"
				},
				{
					"internalType": "uint256",
					"name": "tokenId",
					"type": "uint256"
				}
			],
			"name": "transferFrom",
			"outputs": [],
			"stateMutability": "nonpayable",
			"type": "function"
		},
		{
			"inputs": [
				{
					"internalType": "address",
					"name": "newOwner",
					"type": "address"
				}
			],
			"name": "transferOwnership",
			"outputs": [],
			"stateMutability": "nonpayable",
			"type": "function"
		},
		{
			"inputs": [
				{
					"internalType": "address",
					"name": "newRegistry",
					"type": "address"
				}
			],
			"name": "updateOperatorFilterRegistryAddress",
			"outputs": [],
			"stateMutability": "nonpayable",
			"type": "function"
		},
		{
			"inputs": [],
			"name": "useAnimationUrl",
			"outputs": [
				{
					"internalType": "bool",
					"name": "",
					"type": "bool"
				}
			],
			"stateMutability": "view",
			"type": "function"
		},
		{
			"inputs": [],
			"name": "useInterfaceMetadata",
			"outputs": [
				{
					"internalType": "bool",
					"name": "",
					"type": "bool"
				}
			],
			"stateMutability": "view",
			"type": "function"
		},
		{
			"inputs": [],
			"name": "useSingleMetadata",
			"outputs": [
				{
					"internalType": "bool",
					"name": "",
					"type": "bool"
				}
			],
			"stateMutability": "view",
			"type": "function"
		},
		{
			"inputs": [
				{
					"internalType": "uint256",
					"name": "",
					"type": "uint256"
				},
				{
					"internalType": "address",
					"name": "",
					"type": "address"
				}
			],
			"name": "userMintedAmount",
			"outputs": [
				{
					"internalType": "uint256",
					"name": "",
					"type": "uint256"
				}
			],
			"stateMutability": "view",
			"type": "function"
		},
		{
			"inputs": [
				{
					"internalType": "address",
					"name": "",
					"type": "address"
				}
			],
			"name": "walletCALLevel",
			"outputs": [
				{
					"internalType": "uint256",
					"name": "",
					"type": "uint256"
				}
			],
			"stateMutability": "view",
			"type": "function"
		},
		{
			"inputs": [],
			"name": "withdraw",
			"outputs": [],
			"stateMutability": "payable",
			"type": "function"
		},
		{
			"inputs": [],
			"name": "withdrawAddress",
			"outputs": [
				{
					"internalType": "address",
					"name": "",
					"type": "address"
				}
			],
			"stateMutability": "view",
			"type": "function"
		}
	]
}